{"src/contracts/truyxuat.sol":{"AgriculturalTraceabilitySystem":{"abi":[{"inputs":[],"stateMutability":"nonpayable","type":"constructor"},{"anonymous":false,"inputs":[{"indexed":true,"internalType":"string","name":"categoryName","type":"string"},{"indexed":true,"internalType":"string","name":"userId","type":"string"},{"indexed":false,"internalType":"uint256","name":"timestamp","type":"uint256"}],"name":"CategoryAdded","type":"event"},{"anonymous":false,"inputs":[{"indexed":true,"internalType":"string","name":"productCode","type":"string"},{"indexed":true,"internalType":"address","name":"creator","type":"address"},{"indexed":false,"internalType":"uint256","name":"timestamp","type":"uint256"}],"name":"DistributionAdded","type":"event"},{"anonymous":false,"inputs":[{"indexed":true,"internalType":"string","name":"productCode","type":"string"},{"indexed":true,"internalType":"address","name":"updater","type":"address"},{"indexed":false,"internalType":"uint256","name":"timestamp","type":"uint256"}],"name":"DistributionUpdated","type":"event"},{"anonymous":false,"inputs":[{"indexed":true,"internalType":"string","name":"farmCode","type":"string"},{"indexed":true,"internalType":"string","name":"userId","type":"string"},{"indexed":true,"internalType":"address","name":"owner","type":"address"},{"indexed":false,"internalType":"uint256","name":"area","type":"uint256"},{"indexed":false,"internalType":"uint256","name":"timestamp","type":"uint256"}],"name":"FarmRegistered","type":"event"},{"anonymous":false,"inputs":[{"indexed":true,"internalType":"string","name":"farmCode","type":"string"},{"indexed":false,"internalType":"enum AgriculturalTraceabilitySystem.FarmStatus","name":"oldStatus","type":"uint8"},{"indexed":false,"internalType":"enum AgriculturalTraceabilitySystem.FarmStatus","name":"newStatus","type":"uint8"},{"indexed":false,"internalType":"uint256","name":"timestamp","type":"uint256"}],"name":"FarmStatusChanged","type":"event"},{"anonymous":false,"inputs":[{"indexed":true,"internalType":"string","name":"farmCode","type":"string"},{"indexed":true,"internalType":"address","name":"updater","type":"address"},{"indexed":false,"internalType":"uint256","name":"timestamp","type":"uint256"}],"name":"FarmUpdated","type":"event"},{"anonymous":false,"inputs":[{"indexed":true,"internalType":"string","name":"productCode","type":"string"},{"indexed":true,"internalType":"address","name":"creator","type":"address"},{"indexed":false,"internalType":"uint256","name":"timestamp","type":"uint256"}],"name":"FarmingProcessAdded","type":"event"},{"anonymous":false,"inputs":[{"indexed":true,"internalType":"string","name":"productCode","type":"string"},{"indexed":true,"internalType":"address","name":"updater","type":"address"},{"indexed":false,"internalType":"uint256","name":"timestamp","type":"uint256"}],"name":"FarmingProcessUpdated","type":"event"},{"anonymous":false,"inputs":[{"indexed":true,"internalType":"string","name":"productCode","type":"string"},{"indexed":true,"internalType":"address","name":"creator","type":"address"},{"indexed":false,"internalType":"uint256","name":"timestamp","type":"uint256"}],"name":"FertilizerAdded","type":"event"},{"anonymous":false,"inputs":[{"indexed":true,"internalType":"string","name":"productCode","type":"string"},{"indexed":true,"internalType":"address","name":"updater","type":"address"},{"indexed":false,"internalType":"uint256","name":"timestamp","type":"uint256"}],"name":"FertilizerUpdated","type":"event"},{"anonymous":false,"inputs":[{"indexed":true,"internalType":"string","name":"productCode","type":"string"},{"indexed":true,"internalType":"address","name":"creator","type":"address"},{"indexed":false,"internalType":"uint256","name":"timestamp","type":"uint256"}],"name":"HarvestAdded","type":"event"},{"anonymous":false,"inputs":[{"indexed":true,"internalType":"string","name":"productCode","type":"string"},{"indexed":true,"internalType":"address","name":"updater","type":"address"},{"indexed":false,"internalType":"uint256","name":"timestamp","type":"uint256"}],"name":"HarvestUpdated","type":"event"},{"anonymous":false,"inputs":[{"indexed":true,"internalType":"string","name":"productCode","type":"string"},{"indexed":true,"internalType":"address","name":"creator","type":"address"},{"indexed":false,"internalType":"uint256","name":"timestamp","type":"uint256"}],"name":"MedicineAdded","type":"event"},{"anonymous":false,"inputs":[{"indexed":true,"internalType":"string","name":"productCode","type":"string"},{"indexed":true,"internalType":"address","name":"updater","type":"address"},{"indexed":false,"internalType":"uint256","name":"timestamp","type":"uint256"}],"name":"MedicineUpdated","type":"event"},{"anonymous":false,"inputs":[{"indexed":true,"internalType":"string","name":"farmCode","type":"string"},{"indexed":true,"internalType":"string","name":"productCode","type":"string"},{"indexed":true,"internalType":"string","name":"categoryName","type":"string"},{"indexed":false,"internalType":"enum AgriculturalTraceabilitySystem.ProductStatus","name":"status","type":"uint8"},{"indexed":false,"internalType":"uint256","name":"timestamp","type":"uint256"}],"name":"ProductAdded","type":"event"},{"anonymous":false,"inputs":[{"indexed":true,"internalType":"string","name":"productCode","type":"string"},{"indexed":false,"internalType":"enum AgriculturalTraceabilitySystem.ProductStatus","name":"oldStatus","type":"uint8"},{"indexed":false,"internalType":"enum AgriculturalTraceabilitySystem.ProductStatus","name":"newStatus","type":"uint8"},{"indexed":false,"internalType":"uint256","name":"timestamp","type":"uint256"}],"name":"ProductStatusChanged","type":"event"},{"anonymous":false,"inputs":[{"indexed":true,"internalType":"string","name":"productCode","type":"string"},{"indexed":true,"internalType":"address","name":"updater","type":"address"},{"indexed":false,"internalType":"uint256","name":"timestamp","type":"uint256"}],"name":"ProductUpdated","type":"event"},{"anonymous":false,"inputs":[{"indexed":true,"internalType":"address","name":"user","type":"address"},{"indexed":true,"internalType":"address","name":"authorizer","type":"address"},{"indexed":false,"internalType":"uint256","name":"timestamp","type":"uint256"}],"name":"UserAuthorized","type":"event"},{"anonymous":false,"inputs":[{"indexed":true,"internalType":"address","name":"user","type":"address"},{"indexed":true,"internalType":"address","name":"authorizer","type":"address"},{"indexed":false,"internalType":"uint256","name":"timestamp","type":"uint256"}],"name":"UserDeauthorized","type":"event"},{"inputs":[],"name":"GetAllCategories","outputs":[{"internalType":"string[]","name":"","type":"string[]"}],"stateMutability":"view","type":"function"},{"inputs":[{"internalType":"string","name":"_userId","type":"string"}],"name":"GetAllCategoryuserId","outputs":[{"internalType":"string[]","name":"","type":"string[]"}],"stateMutability":"view","type":"function"},{"inputs":[],"name":"MAX_AREA","outputs":[{"internalType":"uint256","name":"","type":"uint256"}],"stateMutability":"view","type":"function"},{"inputs":[],"name":"MAX_IMAGES","outputs":[{"internalType":"uint256","name":"","type":"uint256"}],"stateMutability":"view","type":"function"},{"inputs":[],"name":"MIN_AREA","outputs":[{"internalType":"uint256","name":"","type":"uint256"}],"stateMutability":"view","type":"function"},{"inputs":[{"internalType":"string","name":"_categoryName","type":"string"},{"internalType":"string","name":"_userId","type":"string"}],"name":"addCategory","outputs":[],"stateMutability":"nonpayable","type":"function"},{"inputs":[{"internalType":"string","name":"_productCode","type":"string"},{"internalType":"string","name":"_distributorName","type":"string"},{"internalType":"string","name":"_distributorPartner","type":"string"},{"internalType":"string","name":"_distributionDate","type":"string"},{"internalType":"string","name":"_transportMethod","type":"string"},{"internalType":"string","name":"_storageConditions","type":"string"}],"name":"addDistribution","outputs":[],"stateMutability":"nonpayable","type":"function"},{"inputs":[{"internalType":"string","name":"_farmCode","type":"string"},{"internalType":"string","name":"_imageUrl","type":"string"}],"name":"addFarmImage","outputs":[],"stateMutability":"nonpayable","type":"function"},{"inputs":[{"internalType":"string","name":"_productCode","type":"string"},{"internalType":"string","name":"_nameProcess","type":"string"},{"internalType":"string","name":"_source","type":"string"},{"internalType":"string","name":"_plantingDate","type":"string"},{"internalType":"string","name":"_sowingDate","type":"string"}],"name":"addFarmingProcess","outputs":[],"stateMutability":"nonpayable","type":"function"},{"inputs":[{"internalType":"string","name":"_productCode","type":"string"},{"internalType":"string","name":"_nameFertilizer","type":"string"},{"internalType":"string","name":"_quantityFertilizer","type":"string"},{"internalType":"string","name":"_fertilizerDate","type":"string"},{"internalType":"string","name":"_fertilizerType","type":"string"},{"internalType":"string","name":"_applicationMethod","type":"string"},{"internalType":"string","name":"_expectedEffect","type":"string"}],"name":"addFertilizer","outputs":[],"stateMutability":"nonpayable","type":"function"},{"inputs":[{"internalType":"string","name":"_productCode","type":"string"},{"internalType":"string","name":"_harvestDate","type":"string"},{"internalType":"string","name":"_estimatedQuantity","type":"string"},{"internalType":"string","name":"_actualQuantity","type":"string"},{"internalType":"string","name":"_quality","type":"string"},{"internalType":"string","name":"_harvestMethod","type":"string"}],"name":"addHarvest","outputs":[],"stateMutability":"nonpayable","type":"function"},{"inputs":[{"internalType":"string","name":"_productCode","type":"string"},{"internalType":"string","name":"_nameMedicine","type":"string"},{"internalType":"string","name":"_quantityMedicine","type":"string"},{"internalType":"string","name":"_medicineDate","type":"string"},{"internalType":"string","name":"_medicineType","type":"string"},{"internalType":"string","name":"_applicationMethod","type":"string"}],"name":"addMedicine","outputs":[],"stateMutability":"nonpayable","type":"function"},{"inputs":[{"components":[{"internalType":"string","name":"farmCode","type":"string"},{"internalType":"string","name":"productCode","type":"string"},{"internalType":"string","name":"categoryName","type":"string"},{"internalType":"string","name":"name","type":"string"},{"internalType":"string","name":"quantity","type":"string"},{"internalType":"string","name":"price","type":"string"},{"internalType":"string","name":"description","type":"string"},{"internalType":"string","name":"image","type":"string"},{"internalType":"string","name":"batchCode","type":"string"},{"internalType":"string","name":"certification","type":"string"},{"internalType":"enum AgriculturalTraceabilitySystem.CertificationLevel","name":"certificationLevel","type":"uint8"}],"internalType":"struct AgriculturalTraceabilitySystem.ProductInput","name":"_productData","type":"tuple"}],"name":"addProduct","outputs":[],"stateMutability":"nonpayable","type":"function"},{"inputs":[],"name":"admin","outputs":[{"internalType":"address","name":"","type":"address"}],"stateMutability":"view","type":"function"},{"inputs":[{"internalType":"address","name":"_user","type":"address"}],"name":"authorizeUser","outputs":[],"stateMutability":"nonpayable","type":"function"},{"inputs":[{"internalType":"address","name":"","type":"address"}],"name":"authorizedUsers","outputs":[{"internalType":"bool","name":"","type":"bool"}],"stateMutability":"view","type":"function"},{"inputs":[{"internalType":"string","name":"_categoryName","type":"string"}],"name":"categoryExistsCheck","outputs":[{"internalType":"bool","name":"","type":"bool"}],"stateMutability":"view","type":"function"},{"inputs":[{"internalType":"string","name":"_farmCode","type":"string"}],"name":"deactivateFarm","outputs":[],"stateMutability":"nonpayable","type":"function"},{"inputs":[{"internalType":"string","name":"_productCode","type":"string"}],"name":"deactivateProduct","outputs":[],"stateMutability":"nonpayable","type":"function"},{"inputs":[{"internalType":"address","name":"_user","type":"address"}],"name":"deauthorizeUser","outputs":[],"stateMutability":"nonpayable","type":"function"},{"inputs":[{"internalType":"address","name":"","type":"address"}],"name":"farmOwners","outputs":[{"internalType":"bool","name":"","type":"bool"}],"stateMutability":"view","type":"function"},{"inputs":[],"name":"getAllFarms","outputs":[{"components":[{"internalType":"string","name":"farmCode","type":"string"},{"internalType":"string","name":"fullname","type":"string"},{"internalType":"string","name":"nameFarm","type":"string"},{"internalType":"string","name":"userId","type":"string"},{"internalType":"string","name":"email","type":"string"},{"internalType":"string","name":"phone","type":"string"},{"internalType":"string","name":"description","type":"string"},{"internalType":"string","name":"location","type":"string"},{"internalType":"uint256","name":"area","type":"uint256"},{"internalType":"string[]","name":"images","type":"string[]"},{"internalType":"uint256","name":"createdAt","type":"uint256"},{"internalType":"bool","name":"isActive","type":"bool"}],"internalType":"struct AgriculturalTraceabilitySystem.Farm[]","name":"","type":"tuple[]"}],"stateMutability":"view","type":"function"},{"inputs":[{"internalType":"string","name":"_productCode","type":"string"}],"name":"getCompleteProductTraceability","outputs":[{"components":[{"internalType":"string","name":"farmCode","type":"string"},{"internalType":"string","name":"productCode","type":"string"},{"internalType":"string","name":"categoryName","type":"string"},{"internalType":"string","name":"name","type":"string"},{"internalType":"string","name":"quantity","type":"string"},{"internalType":"string","name":"price","type":"string"},{"internalType":"string","name":"description","type":"string"},{"internalType":"string","name":"image","type":"string"},{"internalType":"string","name":"batchCode","type":"string"},{"internalType":"string","name":"certification","type":"string"},{"internalType":"uint256","name":"createdAt","type":"uint256"},{"internalType":"enum AgriculturalTraceabilitySystem.ProductStatus","name":"status","type":"uint8"},{"internalType":"enum AgriculturalTraceabilitySystem.CertificationLevel","name":"certificationLevel","type":"uint8"}],"internalType":"struct AgriculturalTraceabilitySystem.Product","name":"product","type":"tuple"},{"components":[{"internalType":"string","name":"productCode","type":"string"},{"internalType":"string","name":"nameProcess","type":"string"},{"internalType":"string","name":"source","type":"string"},{"internalType":"string","name":"plantingDate","type":"string"},{"internalType":"string","name":"sowingDate","type":"string"},{"internalType":"uint256","name":"createdAt","type":"uint256"}],"internalType":"struct AgriculturalTraceabilitySystem.FarmingProcess","name":"farmingProcess","type":"tuple"},{"components":[{"internalType":"string","name":"productCode","type":"string"},{"internalType":"string","name":"nameMedicine","type":"string"},{"internalType":"string","name":"quantityMedicine","type":"string"},{"internalType":"string","name":"medicineDate","type":"string"},{"internalType":"string","name":"medicineType","type":"string"},{"internalType":"string","name":"applicationMethod","type":"string"},{"internalType":"uint256","name":"createdAt","type":"uint256"}],"internalType":"struct AgriculturalTraceabilitySystem.Medicine","name":"medicine","type":"tuple"},{"components":[{"internalType":"string","name":"productCode","type":"string"},{"internalType":"string","name":"nameFertilizer","type":"string"},{"internalType":"string","name":"quantityFertilizer","type":"string"},{"internalType":"string","name":"fertilizerDate","type":"string"},{"internalType":"string","name":"fertilizerType","type":"string"},{"internalType":"string","name":"applicationMethod","type":"string"},{"internalType":"string","name":"expectedEffect","type":"string"},{"internalType":"uint256","name":"createdAt","type":"uint256"}],"internalType":"struct AgriculturalTraceabilitySystem.Fertilizer","name":"fertilizer","type":"tuple"},{"components":[{"internalType":"string","name":"productCode","type":"string"},{"internalType":"string","name":"harvestDate","type":"string"},{"internalType":"string","name":"estimatedQuantity","type":"string"},{"internalType":"string","name":"actualQuantity","type":"string"},{"internalType":"string","name":"quality","type":"string"},{"internalType":"string","name":"harvestMethod","type":"string"},{"internalType":"uint256","name":"createdAt","type":"uint256"}],"internalType":"struct AgriculturalTraceabilitySystem.Harvest","name":"harvest","type":"tuple"},{"components":[{"internalType":"string","name":"productCode","type":"string"},{"internalType":"string","name":"distributorName","type":"string"},{"internalType":"string","name":"distributorPartner","type":"string"},{"internalType":"string","name":"distributionDate","type":"string"},{"internalType":"string","name":"transportMethod","type":"string"},{"internalType":"string","name":"storageConditions","type":"string"},{"internalType":"uint256","name":"createdAt","type":"uint256"}],"internalType":"struct AgriculturalTraceabilitySystem.Distribution","name":"distribution","type":"tuple"}],"stateMutability":"view","type":"function"},{"inputs":[{"internalType":"string","name":"_productCode","type":"string"}],"name":"getDistribution","outputs":[{"components":[{"internalType":"string","name":"productCode","type":"string"},{"internalType":"string","name":"distributorName","type":"string"},{"internalType":"string","name":"distributorPartner","type":"string"},{"internalType":"string","name":"distributionDate","type":"string"},{"internalType":"string","name":"transportMethod","type":"string"},{"internalType":"string","name":"storageConditions","type":"string"},{"internalType":"uint256","name":"createdAt","type":"uint256"}],"internalType":"struct AgriculturalTraceabilitySystem.Distribution","name":"","type":"tuple"}],"stateMutability":"view","type":"function"},{"inputs":[{"internalType":"string","name":"_farmCode","type":"string"}],"name":"getFarm","outputs":[{"components":[{"internalType":"string","name":"farmCode","type":"string"},{"internalType":"string","name":"fullname","type":"string"},{"internalType":"string","name":"nameFarm","type":"string"},{"internalType":"string","name":"userId","type":"string"},{"internalType":"string","name":"email","type":"string"},{"internalType":"string","name":"phone","type":"string"},{"internalType":"string","name":"description","type":"string"},{"internalType":"string","name":"location","type":"string"},{"internalType":"uint256","name":"area","type":"uint256"},{"internalType":"string[]","name":"images","type":"string[]"},{"internalType":"uint256","name":"createdAt","type":"uint256"},{"internalType":"bool","name":"isActive","type":"bool"}],"internalType":"struct AgriculturalTraceabilitySystem.Farm","name":"","type":"tuple"}],"stateMutability":"view","type":"function"},{"inputs":[{"internalType":"string","name":"_farmCode","type":"string"}],"name":"getFarmImages","outputs":[{"internalType":"string[]","name":"","type":"string[]"}],"stateMutability":"view","type":"function"},{"inputs":[{"internalType":"string","name":"_productCode","type":"string"}],"name":"getFarmingProcess","outputs":[{"components":[{"internalType":"string","name":"productCode","type":"string"},{"internalType":"string","name":"nameProcess","type":"string"},{"internalType":"string","name":"source","type":"string"},{"internalType":"string","name":"plantingDate","type":"string"},{"internalType":"string","name":"sowingDate","type":"string"},{"internalType":"uint256","name":"createdAt","type":"uint256"}],"internalType":"struct AgriculturalTraceabilitySystem.FarmingProcess","name":"","type":"tuple"}],"stateMutability":"view","type":"function"},{"inputs":[{"internalType":"string","name":"_userId","type":"string"}],"name":"getFarmsByUserId","outputs":[{"components":[{"internalType":"string","name":"farmCode","type":"string"},{"internalType":"string","name":"fullname","type":"string"},{"internalType":"string","name":"nameFarm","type":"string"},{"internalType":"string","name":"userId","type":"string"},{"internalType":"string","name":"email","type":"string"},{"internalType":"string","name":"phone","type":"string"},{"internalType":"string","name":"description","type":"string"},{"internalType":"string","name":"location","type":"string"},{"internalType":"uint256","name":"area","type":"uint256"},{"internalType":"string[]","name":"images","type":"string[]"},{"internalType":"uint256","name":"createdAt","type":"uint256"},{"internalType":"bool","name":"isActive","type":"bool"}],"internalType":"struct AgriculturalTraceabilitySystem.Farm[]","name":"","type":"tuple[]"}],"stateMutability":"view","type":"function"},{"inputs":[{"internalType":"string","name":"_productCode","type":"string"}],"name":"getFertilizer","outputs":[{"components":[{"internalType":"string","name":"productCode","type":"string"},{"internalType":"string","name":"nameFertilizer","type":"string"},{"internalType":"string","name":"quantityFertilizer","type":"string"},{"internalType":"string","name":"fertilizerDate","type":"string"},{"internalType":"string","name":"fertilizerType","type":"string"},{"internalType":"string","name":"applicationMethod","type":"string"},{"internalType":"string","name":"expectedEffect","type":"string"},{"internalType":"uint256","name":"createdAt","type":"uint256"}],"internalType":"struct AgriculturalTraceabilitySystem.Fertilizer","name":"","type":"tuple"}],"stateMutability":"view","type":"function"},{"inputs":[{"internalType":"string","name":"_productCode","type":"string"}],"name":"getHarvest","outputs":[{"components":[{"internalType":"string","name":"productCode","type":"string"},{"internalType":"string","name":"harvestDate","type":"string"},{"internalType":"string","name":"estimatedQuantity","type":"string"},{"internalType":"string","name":"actualQuantity","type":"string"},{"internalType":"string","name":"quality","type":"string"},{"internalType":"string","name":"harvestMethod","type":"string"},{"internalType":"uint256","name":"createdAt","type":"uint256"}],"internalType":"struct AgriculturalTraceabilitySystem.Harvest","name":"","type":"tuple"}],"stateMutability":"view","type":"function"},{"inputs":[{"internalType":"string","name":"_productCode","type":"string"}],"name":"getMedicine","outputs":[{"components":[{"internalType":"string","name":"productCode","type":"string"},{"internalType":"string","name":"nameMedicine","type":"string"},{"internalType":"string","name":"quantityMedicine","type":"string"},{"internalType":"string","name":"medicineDate","type":"string"},{"internalType":"string","name":"medicineType","type":"string"},{"internalType":"string","name":"applicationMethod","type":"string"},{"internalType":"uint256","name":"createdAt","type":"uint256"}],"internalType":"struct AgriculturalTraceabilitySystem.Medicine","name":"","type":"tuple"}],"stateMutability":"view","type":"function"},{"inputs":[{"internalType":"string","name":"_productCode","type":"string"}],"name":"getProduct","outputs":[{"components":[{"internalType":"string","name":"farmCode","type":"string"},{"internalType":"string","name":"productCode","type":"string"},{"internalType":"string","name":"categoryName","type":"string"},{"internalType":"string","name":"name","type":"string"},{"internalType":"string","name":"quantity","type":"string"},{"internalType":"string","name":"price","type":"string"},{"internalType":"string","name":"description","type":"string"},{"internalType":"string","name":"image","type":"string"},{"internalType":"string","name":"batchCode","type":"string"},{"internalType":"string","name":"certification","type":"string"},{"internalType":"uint256","name":"createdAt","type":"uint256"},{"internalType":"enum AgriculturalTraceabilitySystem.ProductStatus","name":"status","type":"uint8"},{"internalType":"enum AgriculturalTraceabilitySystem.CertificationLevel","name":"certificationLevel","type":"uint8"}],"internalType":"struct AgriculturalTraceabilitySystem.Product","name":"","type":"tuple"}],"stateMutability":"view","type":"function"},{"inputs":[{"internalType":"string","name":"_farmCode","type":"string"}],"name":"getProductsByFarm","outputs":[{"components":[{"internalType":"string","name":"farmCode","type":"string"},{"internalType":"string","name":"productCode","type":"string"},{"internalType":"string","name":"categoryName","type":"string"},{"internalType":"string","name":"name","type":"string"},{"internalType":"string","name":"quantity","type":"string"},{"internalType":"string","name":"price","type":"string"},{"internalType":"string","name":"description","type":"string"},{"internalType":"string","name":"image","type":"string"},{"internalType":"string","name":"batchCode","type":"string"},{"internalType":"string","name":"certification","type":"string"},{"internalType":"uint256","name":"createdAt","type":"uint256"},{"internalType":"enum AgriculturalTraceabilitySystem.ProductStatus","name":"status","type":"uint8"},{"internalType":"enum AgriculturalTraceabilitySystem.CertificationLevel","name":"certificationLevel","type":"uint8"}],"internalType":"struct AgriculturalTraceabilitySystem.Product[]","name":"","type":"tuple[]"}],"stateMutability":"view","type":"function"},{"inputs":[],"name":"getTotalFarms","outputs":[{"internalType":"uint256","name":"","type":"uint256"}],"stateMutability":"view","type":"function"},{"inputs":[],"name":"getTotalProducts","outputs":[{"internalType":"uint256","name":"","type":"uint256"}],"stateMutability":"view","type":"function"},{"inputs":[],"name":"owner","outputs":[{"internalType":"address","name":"","type":"address"}],"stateMutability":"view","type":"function"},{"inputs":[{"internalType":"address","name":"","type":"address"}],"name":"productVerifiers","outputs":[{"internalType":"bool","name":"","type":"bool"}],"stateMutability":"view","type":"function"},{"inputs":[{"internalType":"string","name":"_farmCode","type":"string"},{"internalType":"string","name":"_fullname","type":"string"},{"internalType":"string","name":"_nameFarm","type":"string"},{"internalType":"string","name":"_userId","type":"string"},{"internalType":"string","name":"_email","type":"string"},{"internalType":"string","name":"_phone","type":"string"},{"internalType":"string","name":"_description","type":"string"},{"internalType":"string","name":"_location","type":"string"},{"internalType":"uint256","name":"_area","type":"uint256"},{"internalType":"string[]","name":"_images","type":"string[]"}],"name":"registerFarm","outputs":[],"stateMutability":"nonpayable","type":"function"},{"inputs":[{"internalType":"string","name":"_farmCode","type":"string"},{"internalType":"uint256","name":"_imageIndex","type":"uint256"}],"name":"removeFarmImage","outputs":[],"stateMutability":"nonpayable","type":"function"},{"inputs":[{"internalType":"address","name":"_user","type":"address"},{"internalType":"bool","name":"_isOwner","type":"bool"}],"name":"setFarmOwner","outputs":[],"stateMutability":"nonpayable","type":"function"},{"inputs":[{"internalType":"address","name":"_user","type":"address"},{"internalType":"bool","name":"_isVerifier","type":"bool"}],"name":"setProductVerifier","outputs":[],"stateMutability":"nonpayable","type":"function"},{"inputs":[{"internalType":"address","name":"_newAdmin","type":"address"}],"name":"updateAdmin","outputs":[],"stateMutability":"nonpayable","type":"function"},{"inputs":[{"internalType":"string","name":"_productCode","type":"string"},{"internalType":"string","name":"_distributorName","type":"string"},{"internalType":"string","name":"_distributorPartner","type":"string"},{"internalType":"string","name":"_distributionDate","type":"string"},{"internalType":"string","name":"_transportMethod","type":"string"},{"internalType":"string","name":"_storageConditions","type":"string"}],"name":"updateDistribution","outputs":[],"stateMutability":"nonpayable","type":"function"},{"inputs":[{"internalType":"string","name":"_farmCode","type":"string"},{"internalType":"string","name":"_nameFarm","type":"string"},{"internalType":"string","name":"_description","type":"string"},{"internalType":"string","name":"_location","type":"string"},{"internalType":"uint256","name":"_area","type":"uint256"},{"internalType":"string[]","name":"_images","type":"string[]"}],"name":"updateFarm","outputs":[],"stateMutability":"nonpayable","type":"function"},{"inputs":[{"internalType":"string","name":"_productCode","type":"string"},{"internalType":"string","name":"_nameProcess","type":"string"},{"internalType":"string","name":"_source","type":"string"},{"internalType":"string","name":"_plantingDate","type":"string"},{"internalType":"string","name":"_sowingDate","type":"string"}],"name":"updateFarmingProcess","outputs":[],"stateMutability":"nonpayable","type":"function"},{"inputs":[{"internalType":"string","name":"_productCode","type":"string"},{"internalType":"string","name":"_nameFertilizer","type":"string"},{"internalType":"string","name":"_quantityFertilizer","type":"string"},{"internalType":"string","name":"_fertilizerDate","type":"string"},{"internalType":"string","name":"_fertilizerType","type":"string"},{"internalType":"string","name":"_applicationMethod","type":"string"},{"internalType":"string","name":"_expectedEffect","type":"string"}],"name":"updateFertilizer","outputs":[],"stateMutability":"nonpayable","type":"function"},{"inputs":[{"internalType":"string","name":"_productCode","type":"string"},{"internalType":"string","name":"_harvestDate","type":"string"},{"internalType":"string","name":"_estimatedQuantity","type":"string"},{"internalType":"string","name":"_actualQuantity","type":"string"},{"internalType":"string","name":"_quality","type":"string"},{"internalType":"string","name":"_harvestMethod","type":"string"}],"name":"updateHarvest","outputs":[],"stateMutability":"nonpayable","type":"function"},{"inputs":[{"internalType":"string","name":"_productCode","type":"string"},{"internalType":"string","name":"_nameMedicine","type":"string"},{"internalType":"string","name":"_quantityMedicine","type":"string"},{"internalType":"string","name":"_medicineDate","type":"string"},{"internalType":"string","name":"_medicineType","type":"string"},{"internalType":"string","name":"_applicationMethod","type":"string"}],"name":"updateMedicine","outputs":[],"stateMutability":"nonpayable","type":"function"},{"inputs":[{"internalType":"string","name":"_productCode","type":"string"},{"internalType":"string","name":"_name","type":"string"},{"internalType":"string","name":"_quantity","type":"string"},{"internalType":"string","name":"_price","type":"string"},{"internalType":"string","name":"_description","type":"string"},{"internalType":"string","name":"_image","type":"string"},{"internalType":"string","name":"_batchCode","type":"string"},{"internalType":"string","name":"_certification","type":"string"}],"name":"updateProduct","outputs":[],"stateMutability":"nonpayable","type":"function"},{"inputs":[{"internalType":"address","name":"_newVerifier","type":"address"}],"name":"updateVerifier","outputs":[],"stateMutability":"nonpayable","type":"function"},{"inputs":[{"internalType":"string","name":"_userId","type":"string"}],"name":"userExists","outputs":[{"internalType":"bool","name":"","type":"bool"}],"stateMutability":"view","type":"function"},{"inputs":[],"name":"verifier","outputs":[{"internalType":"address","name":"","type":"address"}],"stateMutability":"view","type":"function"}],"evm":{"bytecode":{"linkReferences":{},"object":"6080604052348015600f57600080fd5b50601280546001600160a01b031990811633908117909255601380548216831790556014805490911682179055600060108190556011819055908152601560209081526040808320805460ff19908116600190811790925560168452828520805482168317905560179093529220805490911690911790556195d8806100966000396000f3fe608060405234801561001057600080fd5b506004361061025c5760003560e01c806308999bd5146102615780630a87bf53146102765780631389b62a14610289578063168fc8981461029c57806317c4c94c146102b95780631828983a146102d95780631acd172a1461030c5780631bf703b21461031f5780632152736a146103325780632b213f23146103455780632b7ac3f3146103585780632eda5a4f146103835780632f9f79891461039857806332a486d8146103ab57806342bf2696146103be5780634b87ecae146103de57806353cc92f0146103fe578063570aea8a146104115780635d30ba4a146104195780635de7f9041461042c5780635ee485b71461043f5780635f121b52146104475780635f99a6591461045a57806363bf3e951461047a57806367c2a3601461048d57806368111cce146104a057806368304a62146104c05780636eca2ccc146104d35780637281a7cd146104f357806372c9379b1461050657806376bbe0c2146105195780638343f955146105215780638388e2ba146105415780638a9d8733146105495780638da5cb5b1461055c5780639012cac11461056f57806390c634771461058257806397fc007c14610595578063a057b22a146105a8578063a3857069146105bb578063ae3cb7d4146105ce578063b377fa61146105f1578063bbfd014c14610604578063c256940d14610617578063c7c385881461063a578063cfde0ce81461064d578063de65339814610660578063e2f273bd14610673578063f851a44014610686578063f955977414610699578063fb1a931f146106a1578063fddc968e146106c6575b600080fd5b61027461026f366004617e4d565b6106d9565b005b610274610284366004617f5d565b610938565b610274610297366004617f5d565b610b69565b6102a6620f424081565b6040519081526020015b60405180910390f35b6102cc6102c7366004618044565b610cc7565b6040516102b09190618246565b6102fc6102e73660046182c7565b60156020526000908152604090205460ff1681565b60405190151581526020016102b0565b61027461031a3660046182e9565b6114fb565b61027461032d36600461832d565b61167a565b610274610340366004618394565b611836565b6102746103533660046184fb565b6119c8565b60145461036b906001600160a01b031681565b6040516001600160a01b0390911681526020016102b0565b61038b611c38565b6040516102b09190618693565b6102746103a6366004618044565b611d11565b6102746103b9366004617e4d565b611e1b565b6103d16103cc366004618044565b61205d565b6040516102b091906187be565b6103f16103ec366004618044565b6127f5565b6040516102b09190618817565b61027461040c36600461882a565b612dfb565b6011546102a6565b610274610427366004617e4d565b612e8b565b61038b61043a366004618044565b613000565b6010546102a6565b6102746104553660046182c7565b6130f7565b61046d610468366004618044565b6131bc565b6040516102b09190618913565b6102746104883660046184fb565b6135ab565b61027461049b3660046182c7565b613746565b6104b36104ae366004618044565b613803565b6040516102b09190618926565b61038b6104ce366004618044565b613ea5565b6104e66104e1366004618044565b613fe0565b6040516102b09190618a02565b610274610501366004618abb565b614462565b61046d610514366004618044565b6145d2565b6102a6600a81565b61053461052f366004618044565b61462a565b6040516102b09190618c30565b6102a6600181565b610274610557366004618c52565b614987565b60125461036b906001600160a01b031681565b61027461057d366004617e4d565b614e2f565b61046d610590366004618044565b615029565b6102746105a33660046182c7565b615081565b6102fc6105b6366004618044565b6150f3565b6102746105c936600461882a565b61511e565b6102fc6105dc3660046182c7565b60176020526000908152604090205460ff1681565b6102746105ff366004617e4d565b6151ae565b610274610612366004617e4d565b615323565b6102fc6106253660046182c7565b60166020526000908152604090205460ff1681565b610274610648366004618e5c565b615498565b61027461065b366004618044565b6159cb565b61027461066e36600461832d565b615a61565b6102746106813660046182c7565b615b10565b60135461036b906001600160a01b031681565b6103d1615b82565b6106b46106af366004618044565b6161e5565b6040516102b096959493929190618ff9565b6102fc6106d4366004618044565b617aed565b85600a816040516106ea919061907b565b9081526040519081900360200190205460ff166107225760405162461bcd60e51b815260040161071990619097565b60405180910390fd5b600086511161076c5760405162461bcd60e51b8152602060048201526016602482015275456d707479206469737472696275746f72206e616d6560501b6044820152606401610719565b60008451116107b75760405162461bcd60e51b8152602060048201526017602482015276456d70747920646973747269627574696f6e206461746560481b6044820152606401610719565b60006001886040516107c9919061907b565b908152604051908190036020019020600b015460ff1660038111156107f0576107f06180d0565b1461080d5760405162461bcd60e51b8152600401610719906190db565b6040518060e0016040528088815260200187815260200186815260200185815260200184815260200183815260200142815250600688604051610850919061907b565b9081526040519081900360200190208151819061086d908261919a565b5060208201516001820190610882908261919a565b5060408201516002820190610897908261919a565b50606082015160038201906108ac908261919a565b50608082015160048201906108c1908261919a565b5060a082015160058201906108d6908261919a565b5060c0919091015160069091015560405133906108f490899061907b565b604051908190038120428252907fbb8adab3c1a6bd291ad2e1ace5ffe3bb8e7abe64c4ca6041de89d76873c32efb906020015b60405180910390a350505050505050565b84600a81604051610949919061907b565b9081526040519081900360200190205460ff166109785760405162461bcd60e51b815260040161071990619097565b60008551116109be5760405162461bcd60e51b8152602060048201526012602482015271456d7074792070726f63657373206e616d6560701b6044820152606401610719565b6000835111610a055760405162461bcd60e51b8152602060048201526013602482015272456d70747920706c616e74696e67206461746560681b6044820152606401610719565b6000600187604051610a17919061907b565b908152604051908190036020019020600b015460ff166003811115610a3e57610a3e6180d0565b14610a5b5760405162461bcd60e51b8152600401610719906190db565b6040518060c0016040528087815260200186815260200185815260200184815260200183815260200142815250600287604051610a98919061907b565b90815260405190819003602001902081518190610ab5908261919a565b5060208201516001820190610aca908261919a565b5060408201516002820190610adf908261919a565b5060608201516003820190610af4908261919a565b5060808201516004820190610b09908261919a565b5060a091909101516005909101556040513390610b2790889061907b565b604051908190038120428252907f0736eba6422149150b0298698baba84119db0cdf3ab6ae02de485ebd2f6749959060200160405180910390a3505050505050565b84600a81604051610b7a919061907b565b9081526040519081900360200190205460ff16610ba95760405162461bcd60e51b815260040161071990619097565b6000600187604051610bbb919061907b565b908152604051908190036020019020600b015460ff166003811115610be257610be26180d0565b14610bff5760405162461bcd60e51b8152600401610719906190db565b6000600287604051610c11919061907b565b90815260200160405180910390209050600086511115610c3b5760018101610c39878261919a565b505b845115610c525760028101610c50868261919a565b505b835115610c695760038101610c67858261919a565b505b825115610c805760048101610c7e848261919a565b505b6040513390610c9090899061907b565b604051908190038120428252907f47bfd662f27898375579078d8ef1f75e72eaeb374278cfef9abebad36cbca61e90602001610927565b606081600981604051610cda919061907b565b9081526040519081900360200190205460ff16610d095760405162461bcd60e51b815260040161071990619252565b6000600884604051610d1b919061907b565b9081526020016040518091039020805480602002602001604051908101604052809291908181526020016000905b82821015610df5578382906000526020600020018054610d6890619105565b80601f0160208091040260200160405190810160405280929190818152602001828054610d9490619105565b8015610de15780601f10610db657610100808354040283529160200191610de1565b820191906000526020600020905b815481529060010190602001808311610dc457829003601f168201915b505050505081526020019060010190610d49565b505050509050600081516001600160401b03811115610e1657610e16617d6f565b604051908082528060200260200182016040528015610e4f57816020015b610e3c617b17565b815260200190600190039081610e345790505b50905060005b82518110156114f0576001838281518110610e7257610e72619289565b6020026020010151604051610e87919061907b565b9081526020016040518091039020604051806101a0016040529081600082018054610eb190619105565b80601f0160208091040260200160405190810160405280929190818152602001828054610edd90619105565b8015610f2a5780601f10610eff57610100808354040283529160200191610f2a565b820191906000526020600020905b815481529060010190602001808311610f0d57829003601f168201915b50505050508152602001600182018054610f4390619105565b80601f0160208091040260200160405190810160405280929190818152602001828054610f6f90619105565b8015610fbc5780601f10610f9157610100808354040283529160200191610fbc565b820191906000526020600020905b815481529060010190602001808311610f9f57829003601f168201915b50505050508152602001600282018054610fd590619105565b80601f016020809104026020016040519081016040528092919081815260200182805461100190619105565b801561104e5780601f106110235761010080835404028352916020019161104e565b820191906000526020600020905b81548152906001019060200180831161103157829003601f168201915b5050505050815260200160038201805461106790619105565b80601f016020809104026020016040519081016040528092919081815260200182805461109390619105565b80156110e05780601f106110b5576101008083540402835291602001916110e0565b820191906000526020600020905b8154815290600101906020018083116110c357829003601f168201915b505050505081526020016004820180546110f990619105565b80601f016020809104026020016040519081016040528092919081815260200182805461112590619105565b80156111725780601f1061114757610100808354040283529160200191611172565b820191906000526020600020905b81548152906001019060200180831161115557829003601f168201915b5050505050815260200160058201805461118b90619105565b80601f01602080910402602001604051908101604052809291908181526020018280546111b790619105565b80156112045780601f106111d957610100808354040283529160200191611204565b820191906000526020600020905b8154815290600101906020018083116111e757829003601f168201915b5050505050815260200160068201805461121d90619105565b80601f016020809104026020016040519081016040528092919081815260200182805461124990619105565b80156112965780601f1061126b57610100808354040283529160200191611296565b820191906000526020600020905b81548152906001019060200180831161127957829003601f168201915b505050505081526020016007820180546112af90619105565b80601f01602080910402602001604051908101604052809291908181526020018280546112db90619105565b80156113285780601f106112fd57610100808354040283529160200191611328565b820191906000526020600020905b81548152906001019060200180831161130b57829003601f168201915b5050505050815260200160088201805461134190619105565b80601f016020809104026020016040519081016040528092919081815260200182805461136d90619105565b80156113ba5780601f1061138f576101008083540402835291602001916113ba565b820191906000526020600020905b81548152906001019060200180831161139d57829003601f168201915b505050505081526020016009820180546113d390619105565b80601f01602080910402602001604051908101604052809291908181526020018280546113ff90619105565b801561144c5780601f106114215761010080835404028352916020019161144c565b820191906000526020600020905b81548152906001019060200180831161142f57829003601f168201915b5050509183525050600a8201546020820152600b82015460409091019060ff16600381111561147d5761147d6180d0565b600381111561148e5761148e6180d0565b8152602001600b820160019054906101000a900460ff1660048111156114b6576114b66180d0565b60048111156114c7576114c76180d0565b815250508282815181106114dd576114dd619289565b6020908102919091010152600101610e55565b509250505b50919050565b8160098160405161150c919061907b565b9081526040519081900360200190205460ff1661153b5760405162461bcd60e51b815260040161071990619252565b6000808460405161154c919061907b565b908152604051908190036020019020600b81015490915060ff166115825760405162461bcd60e51b81526004016107199061929f565b600981015483106115cb5760405162461bcd60e51b8152602060048201526013602482015272092dcecc2d8d2c840d2dac2ceca40d2dcc8caf606b1b6044820152606401610719565b825b60098201546115de906001906192dc565b81101561164257600982016115f48260016192f5565b8154811061160457611604619289565b9060005260206000200182600901828154811061162357611623619289565b9060005260206000200190816116399190619308565b506001016115cd565b5080600901805480611656576116566193cf565b6001900381819060005260206000200160006116729190617b8f565b905550505050565b60008251116116c15760405162461bcd60e51b8152602060048201526013602482015272456d7074792063617465676f7279206e616d6560681b6044820152606401610719565b60008151116117015760405162461bcd60e51b815260206004820152600c60248201526b115b5c1d1e481d5cd95c925960a21b6044820152606401610719565b600b82604051611711919061907b565b9081526040519081900360200190205460ff16611798576001600b8360405161173a919061907b565b908152604051908190036020019020805491151560ff19909216919091179055600f80546001810182556000919091527f8d1108e10bcb7c27dddfc02ed9d693a074039d026cf4ea4240b40f7d581ac80201611796838261919a565b505b600c816040516117a8919061907b565b9081526040516020918190038201902080546001810182556000918252919020016117d3838261919a565b50806040516117e2919061907b565b6040518091039020826040516117f8919061907b565b604051908190038120428252907f05e6df2257b4c845c94af93edea83e40f79ae07ff30dd36212c450b8bb84ed209060200160405180910390a35050565b87600a81604051611847919061907b565b9081526040519081900360200190205460ff166118765760405162461bcd60e51b815260040161071990619097565b600060018a604051611888919061907b565b90815260405190819003602001902090506000600b82015460ff1660038111156118b4576118b46180d0565b146118d15760405162461bcd60e51b8152600401610719906190db565b8851156118e857600381016118e68a8261919a565b505b8751156118ff57600481016118fd898261919a565b505b8651156119165760058101611914888261919a565b505b85511561192d576006810161192b878261919a565b505b8451156119445760078101611942868261919a565b505b83511561195b5760088101611959858261919a565b505b8251156119725760098101611970848261919a565b505b6040513390611982908c9061907b565b604051908190038120428252907f2da0e00d0faffbc3bc6be6965ce63783d5726604d2372778ebdb1b21f5ffab969060200160405180910390a350505050505050505050565b86600a816040516119d9919061907b565b9081526040519081900360200190205460ff16611a085760405162461bcd60e51b815260040161071990619097565b6000875111611a515760405162461bcd60e51b8152602060048201526015602482015274456d7074792066657274696c697a6572206e616d6560581b6044820152606401610719565b6000855111611a9a5760405162461bcd60e51b8152602060048201526015602482015274456d7074792066657274696c697a6572206461746560581b6044820152606401610719565b6000600189604051611aac919061907b565b908152604051908190036020019020600b015460ff166003811115611ad357611ad36180d0565b14611af05760405162461bcd60e51b8152600401610719906190db565b60405180610100016040528089815260200188815260200187815260200186815260200185815260200184815260200183815260200142815250600489604051611b3a919061907b565b90815260405190819003602001902081518190611b57908261919a565b5060208201516001820190611b6c908261919a565b5060408201516002820190611b81908261919a565b5060608201516003820190611b96908261919a565b5060808201516004820190611bab908261919a565b5060a08201516005820190611bc0908261919a565b5060c08201516006820190611bd5908261919a565b5060e091909101516007909101556040513390611bf3908a9061907b565b604051908190038120428252907fb69cb5f284000faaf902e5335b11028e9bfec54bc9dd0c35fa621cd348a5b172906020015b60405180910390a35050505050505050565b6060600f805480602002602001604051908101604052809291908181526020016000905b82821015611d08578382906000526020600020018054611c7b90619105565b80601f0160208091040260200160405190810160405280929190818152602001828054611ca790619105565b8015611cf45780601f10611cc957610100808354040283529160200191611cf4565b820191906000526020600020905b815481529060010190602001808311611cd757829003601f168201915b505050505081526020019060010190611c5c565b50505050905090565b80600a81604051611d22919061907b565b9081526040519081900360200190205460ff16611d515760405162461bcd60e51b815260040161071990619097565b6000600183604051611d63919061907b565b90815260405190819003602001902090506000600b82015460ff166003811115611d8f57611d8f6180d0565b14611dac5760405162461bcd60e51b8152600401610719906190db565b600b8101805460ff19811660011790915560405160ff90911690611dd190859061907b565b60405180910390207f9895f6cc815ac59447155d546c4c2c8c06eb356c8ad31ca291706975a99a1c3182600142604051611e0d939291906193e5565b60405180910390a250505050565b85600a81604051611e2c919061907b565b9081526040519081900360200190205460ff16611e5b5760405162461bcd60e51b815260040161071990619097565b6000865111611ea25760405162461bcd60e51b8152602060048201526013602482015272456d707479206d65646963696e65206e616d6560681b6044820152606401610719565b6000845111611ee95760405162461bcd60e51b8152602060048201526013602482015272456d707479206d65646963696e65206461746560681b6044820152606401610719565b6000600188604051611efb919061907b565b908152604051908190036020019020600b015460ff166003811115611f2257611f226180d0565b14611f3f5760405162461bcd60e51b8152600401610719906190db565b6040518060e0016040528088815260200187815260200186815260200185815260200184815260200183815260200142815250600388604051611f82919061907b565b90815260405190819003602001902081518190611f9f908261919a565b5060208201516001820190611fb4908261919a565b5060408201516002820190611fc9908261919a565b5060608201516003820190611fde908261919a565b5060808201516004820190611ff3908261919a565b5060a08201516005820190612008908261919a565b5060c09190910151600690910155604051339061202690899061907b565b604051908190038120428252907fdabc2efeadcb13e5edc13c5cb7d4abb2c8900fdc6835b9469af6e409818a303d90602001610927565b60606000600783604051612071919061907b565b9081526020016040518091039020805480602002602001604051908101604052809291908181526020016000905b8282101561214b5783829060005260206000200180546120be90619105565b80601f01602080910402602001604051908101604052809291908181526020018280546120ea90619105565b80156121375780601f1061210c57610100808354040283529160200191612137565b820191906000526020600020905b81548152906001019060200180831161211a57829003601f168201915b50505050508152602001906001019061209f565b50505050905060008151116121935760405162461bcd60e51b815260206004820152600e60248201526d155cd95c881b9bdd08199bdd5b9960921b6044820152606401610719565b600081516001600160401b038111156121ae576121ae617d6f565b6040519080825280602002602001820160405280156121e757816020015b6121d4617bcc565b8152602001906001900390816121cc5790505b50905060005b82518110156127ed57600083828151811061220a5761220a619289565b602002602001015160405161221f919061907b565b90815260200160405180910390206040518061018001604052908160008201805461224990619105565b80601f016020809104026020016040519081016040528092919081815260200182805461227590619105565b80156122c25780601f10612297576101008083540402835291602001916122c2565b820191906000526020600020905b8154815290600101906020018083116122a557829003601f168201915b505050505081526020016001820180546122db90619105565b80601f016020809104026020016040519081016040528092919081815260200182805461230790619105565b80156123545780601f1061232957610100808354040283529160200191612354565b820191906000526020600020905b81548152906001019060200180831161233757829003601f168201915b5050505050815260200160028201805461236d90619105565b80601f016020809104026020016040519081016040528092919081815260200182805461239990619105565b80156123e65780601f106123bb576101008083540402835291602001916123e6565b820191906000526020600020905b8154815290600101906020018083116123c957829003601f168201915b505050505081526020016003820180546123ff90619105565b80601f016020809104026020016040519081016040528092919081815260200182805461242b90619105565b80156124785780601f1061244d57610100808354040283529160200191612478565b820191906000526020600020905b81548152906001019060200180831161245b57829003601f168201915b5050505050815260200160048201805461249190619105565b80601f01602080910402602001604051908101604052809291908181526020018280546124bd90619105565b801561250a5780601f106124df5761010080835404028352916020019161250a565b820191906000526020600020905b8154815290600101906020018083116124ed57829003601f168201915b5050505050815260200160058201805461252390619105565b80601f016020809104026020016040519081016040528092919081815260200182805461254f90619105565b801561259c5780601f106125715761010080835404028352916020019161259c565b820191906000526020600020905b81548152906001019060200180831161257f57829003601f168201915b505050505081526020016006820180546125b590619105565b80601f01602080910402602001604051908101604052809291908181526020018280546125e190619105565b801561262e5780601f106126035761010080835404028352916020019161262e565b820191906000526020600020905b81548152906001019060200180831161261157829003601f168201915b5050505050815260200160078201805461264790619105565b80601f016020809104026020016040519081016040528092919081815260200182805461267390619105565b80156126c05780601f10612695576101008083540402835291602001916126c0565b820191906000526020600020905b8154815290600101906020018083116126a357829003601f168201915b505050505081526020016008820154815260200160098201805480602002602001604051908101604052809291908181526020016000905b828210156127a457838290600052602060002001805461271790619105565b80601f016020809104026020016040519081016040528092919081815260200182805461274390619105565b80156127905780601f1061276557610100808354040283529160200191612790565b820191906000526020600020905b81548152906001019060200180831161277357829003601f168201915b5050505050815260200190600101906126f8565b50505090825250600a8201546020820152600b9091015460ff16151560409091015282518390839081106127da576127da619289565b60209081029190910101526001016121ed565b509392505050565b6127fd617bcc565b8160098160405161280e919061907b565b9081526040519081900360200190205460ff1661283d5760405162461bcd60e51b815260040161071990619252565b60008360405161284d919061907b565b90815260200160405180910390206040518061018001604052908160008201805461287790619105565b80601f01602080910402602001604051908101604052809291908181526020018280546128a390619105565b80156128f05780601f106128c5576101008083540402835291602001916128f0565b820191906000526020600020905b8154815290600101906020018083116128d357829003601f168201915b5050505050815260200160018201805461290990619105565b80601f016020809104026020016040519081016040528092919081815260200182805461293590619105565b80156129825780601f1061295757610100808354040283529160200191612982565b820191906000526020600020905b81548152906001019060200180831161296557829003601f168201915b5050505050815260200160028201805461299b90619105565b80601f01602080910402602001604051908101604052809291908181526020018280546129c790619105565b8015612a145780601f106129e957610100808354040283529160200191612a14565b820191906000526020600020905b8154815290600101906020018083116129f757829003601f168201915b50505050508152602001600382018054612a2d90619105565b80601f0160208091040260200160405190810160405280929190818152602001828054612a5990619105565b8015612aa65780601f10612a7b57610100808354040283529160200191612aa6565b820191906000526020600020905b815481529060010190602001808311612a8957829003601f168201915b50505050508152602001600482018054612abf90619105565b80601f0160208091040260200160405190810160405280929190818152602001828054612aeb90619105565b8015612b385780601f10612b0d57610100808354040283529160200191612b38565b820191906000526020600020905b815481529060010190602001808311612b1b57829003601f168201915b50505050508152602001600582018054612b5190619105565b80601f0160208091040260200160405190810160405280929190818152602001828054612b7d90619105565b8015612bca5780601f10612b9f57610100808354040283529160200191612bca565b820191906000526020600020905b815481529060010190602001808311612bad57829003601f168201915b50505050508152602001600682018054612be390619105565b80601f0160208091040260200160405190810160405280929190818152602001828054612c0f90619105565b8015612c5c5780601f10612c3157610100808354040283529160200191612c5c565b820191906000526020600020905b815481529060010190602001808311612c3f57829003601f168201915b50505050508152602001600782018054612c7590619105565b80601f0160208091040260200160405190810160405280929190818152602001828054612ca190619105565b8015612cee5780601f10612cc357610100808354040283529160200191612cee565b820191906000526020600020905b815481529060010190602001808311612cd157829003601f168201915b505050505081526020016008820154815260200160098201805480602002602001604051908101604052809291908181526020016000905b82821015612dd2578382906000526020600020018054612d4590619105565b80601f0160208091040260200160405190810160405280929190818152602001828054612d7190619105565b8015612dbe5780601f10612d9357610100808354040283529160200191612dbe565b820191906000526020600020905b815481529060010190602001808311612da157829003601f168201915b505050505081526020019060010190612d26565b50505090825250600a8201546020820152600b9091015460ff1615156040909101529392505050565b6013546001600160a01b0316331480612e1e57506012546001600160a01b031633145b612e3a5760405162461bcd60e51b81526004016107199061940e565b6001600160a01b038216612e605760405162461bcd60e51b81526004016107199061944f565b6001600160a01b03919091166000908152601660205260409020805460ff1916911515919091179055565b85600a81604051612e9c919061907b565b9081526040519081900360200190205460ff16612ecb5760405162461bcd60e51b815260040161071990619097565b6000600188604051612edd919061907b565b908152604051908190036020019020600b015460ff166003811115612f0457612f046180d0565b14612f215760405162461bcd60e51b8152600401610719906190db565b6000600688604051612f33919061907b565b90815260200160405180910390209050600087511115612f5d5760018101612f5b888261919a565b505b855115612f745760028101612f72878261919a565b505b845115612f8b5760038101612f89868261919a565b505b835115612fa25760048101612fa0858261919a565b505b825115612fb95760058101612fb7848261919a565b505b6040513390612fc9908a9061907b565b604051908190038120428252907f8edff5fb0001b970e714a5ff212ff0cc36277e68b7bcd1c2cce936b03a8cee4a90602001611c26565b6060600c82604051613012919061907b565b9081526020016040518091039020805480602002602001604051908101604052809291908181526020016000905b828210156130ec57838290600052602060002001805461305f90619105565b80601f016020809104026020016040519081016040528092919081815260200182805461308b90619105565b80156130d85780601f106130ad576101008083540402835291602001916130d8565b820191906000526020600020905b8154815290600101906020018083116130bb57829003601f168201915b505050505081526020019060010190613040565b505050509050919050565b6013546001600160a01b031633148061311a57506012546001600160a01b031633145b6131365760405162461bcd60e51b81526004016107199061940e565b6001600160a01b03811661315c5760405162461bcd60e51b81526004016107199061944f565b6001600160a01b03811660008181526015602052604090819020805460ff19169055513391907f8cebb7ee3be71749a084ac512b95c394efb658b987c0d0a288b81e7490581cd3906131b19042815260200190565b60405180910390a350565b6131c4617c2f565b81600a816040516131d5919061907b565b9081526040519081900360200190205460ff166132045760405162461bcd60e51b815260040161071990619097565b600683604051613214919061907b565b90815260200160405180910390206040518060e001604052908160008201805461323d90619105565b80601f016020809104026020016040519081016040528092919081815260200182805461326990619105565b80156132b65780601f1061328b576101008083540402835291602001916132b6565b820191906000526020600020905b81548152906001019060200180831161329957829003601f168201915b505050505081526020016001820180546132cf90619105565b80601f01602080910402602001604051908101604052809291908181526020018280546132fb90619105565b80156133485780601f1061331d57610100808354040283529160200191613348565b820191906000526020600020905b81548152906001019060200180831161332b57829003601f168201915b5050505050815260200160028201805461336190619105565b80601f016020809104026020016040519081016040528092919081815260200182805461338d90619105565b80156133da5780601f106133af576101008083540402835291602001916133da565b820191906000526020600020905b8154815290600101906020018083116133bd57829003601f168201915b505050505081526020016003820180546133f390619105565b80601f016020809104026020016040519081016040528092919081815260200182805461341f90619105565b801561346c5780601f106134415761010080835404028352916020019161346c565b820191906000526020600020905b81548152906001019060200180831161344f57829003601f168201915b5050505050815260200160048201805461348590619105565b80601f01602080910402602001604051908101604052809291908181526020018280546134b190619105565b80156134fe5780601f106134d3576101008083540402835291602001916134fe565b820191906000526020600020905b8154815290600101906020018083116134e157829003601f168201915b5050505050815260200160058201805461351790619105565b80601f016020809104026020016040519081016040528092919081815260200182805461354390619105565b80156135905780601f1061356557610100808354040283529160200191613590565b820191906000526020600020905b81548152906001019060200180831161357357829003601f168201915b50505050508152602001600682015481525050915050919050565b86600a816040516135bc919061907b565b9081526040519081900360200190205460ff166135eb5760405162461bcd60e51b815260040161071990619097565b60006001896040516135fd919061907b565b908152604051908190036020019020600b015460ff166003811115613624576136246180d0565b146136415760405162461bcd60e51b8152600401610719906190db565b6000600489604051613653919061907b565b9081526020016040518091039020905060008851111561367d576001810161367b898261919a565b505b8651156136945760028101613692888261919a565b505b8551156136ab57600381016136a9878261919a565b505b8451156136c257600481016136c0868261919a565b505b8351156136d957600581016136d7858261919a565b505b8251156136f057600681016136ee848261919a565b505b6040513390613700908b9061907b565b604051908190038120428252907f305c732a44389b3cee22630c751c352b9ae9f439c350c06eefb41abed4adcc53906020015b60405180910390a3505050505050505050565b6013546001600160a01b031633148061376957506012546001600160a01b031633145b6137855760405162461bcd60e51b81526004016107199061940e565b6001600160a01b0381166137ab5760405162461bcd60e51b81526004016107199061944f565b6001600160a01b03811660008181526015602052604090819020805460ff19166001179055513391907fcf30c65174bfa0467d5e66fcccc313feffbe8d52a2eacc0c9f3bbb6431fd8224906131b19042815260200190565b61380b617b17565b81600a8160405161381c919061907b565b9081526040519081900360200190205460ff1661384b5760405162461bcd60e51b815260040161071990619097565b60018360405161385b919061907b565b9081526020016040518091039020604051806101a001604052908160008201805461388590619105565b80601f01602080910402602001604051908101604052809291908181526020018280546138b190619105565b80156138fe5780601f106138d3576101008083540402835291602001916138fe565b820191906000526020600020905b8154815290600101906020018083116138e157829003601f168201915b5050505050815260200160018201805461391790619105565b80601f016020809104026020016040519081016040528092919081815260200182805461394390619105565b80156139905780601f1061396557610100808354040283529160200191613990565b820191906000526020600020905b81548152906001019060200180831161397357829003601f168201915b505050505081526020016002820180546139a990619105565b80601f01602080910402602001604051908101604052809291908181526020018280546139d590619105565b8015613a225780601f106139f757610100808354040283529160200191613a22565b820191906000526020600020905b815481529060010190602001808311613a0557829003601f168201915b50505050508152602001600382018054613a3b90619105565b80601f0160208091040260200160405190810160405280929190818152602001828054613a6790619105565b8015613ab45780601f10613a8957610100808354040283529160200191613ab4565b820191906000526020600020905b815481529060010190602001808311613a9757829003601f168201915b50505050508152602001600482018054613acd90619105565b80601f0160208091040260200160405190810160405280929190818152602001828054613af990619105565b8015613b465780601f10613b1b57610100808354040283529160200191613b46565b820191906000526020600020905b815481529060010190602001808311613b2957829003601f168201915b50505050508152602001600582018054613b5f90619105565b80601f0160208091040260200160405190810160405280929190818152602001828054613b8b90619105565b8015613bd85780601f10613bad57610100808354040283529160200191613bd8565b820191906000526020600020905b815481529060010190602001808311613bbb57829003601f168201915b50505050508152602001600682018054613bf190619105565b80601f0160208091040260200160405190810160405280929190818152602001828054613c1d90619105565b8015613c6a5780601f10613c3f57610100808354040283529160200191613c6a565b820191906000526020600020905b815481529060010190602001808311613c4d57829003601f168201915b50505050508152602001600782018054613c8390619105565b80601f0160208091040260200160405190810160405280929190818152602001828054613caf90619105565b8015613cfc5780601f10613cd157610100808354040283529160200191613cfc565b820191906000526020600020905b815481529060010190602001808311613cdf57829003601f168201915b50505050508152602001600882018054613d1590619105565b80601f0160208091040260200160405190810160405280929190818152602001828054613d4190619105565b8015613d8e5780601f10613d6357610100808354040283529160200191613d8e565b820191906000526020600020905b815481529060010190602001808311613d7157829003601f168201915b50505050508152602001600982018054613da790619105565b80601f0160208091040260200160405190810160405280929190818152602001828054613dd390619105565b8015613e205780601f10613df557610100808354040283529160200191613e20565b820191906000526020600020905b815481529060010190602001808311613e0357829003601f168201915b5050509183525050600a8201546020820152600b82015460409091019060ff166003811115613e5157613e516180d0565b6003811115613e6257613e626180d0565b8152602001600b820160019054906101000a900460ff166004811115613e8a57613e8a6180d0565b6004811115613e9b57613e9b6180d0565b9052509392505050565b606081600981604051613eb8919061907b565b9081526040519081900360200190205460ff16613ee75760405162461bcd60e51b815260040161071990619252565b600083604051613ef7919061907b565b9081526020016040518091039020600901805480602002602001604051908101604052809291908181526020016000905b82821015613fd4578382906000526020600020018054613f4790619105565b80601f0160208091040260200160405190810160405280929190818152602001828054613f7390619105565b8015613fc05780601f10613f9557610100808354040283529160200191613fc0565b820191906000526020600020905b815481529060010190602001808311613fa357829003601f168201915b505050505081526020019060010190613f28565b50505050915050919050565b613fe8617c6c565b81600a81604051613ff9919061907b565b9081526040519081900360200190205460ff166140285760405162461bcd60e51b815260040161071990619097565b600483604051614038919061907b565b90815260200160405180910390206040518061010001604052908160008201805461406290619105565b80601f016020809104026020016040519081016040528092919081815260200182805461408e90619105565b80156140db5780601f106140b0576101008083540402835291602001916140db565b820191906000526020600020905b8154815290600101906020018083116140be57829003601f168201915b505050505081526020016001820180546140f490619105565b80601f016020809104026020016040519081016040528092919081815260200182805461412090619105565b801561416d5780601f106141425761010080835404028352916020019161416d565b820191906000526020600020905b81548152906001019060200180831161415057829003601f168201915b5050505050815260200160028201805461418690619105565b80601f01602080910402602001604051908101604052809291908181526020018280546141b290619105565b80156141ff5780601f106141d4576101008083540402835291602001916141ff565b820191906000526020600020905b8154815290600101906020018083116141e257829003601f168201915b5050505050815260200160038201805461421890619105565b80601f016020809104026020016040519081016040528092919081815260200182805461424490619105565b80156142915780601f1061426657610100808354040283529160200191614291565b820191906000526020600020905b81548152906001019060200180831161427457829003601f168201915b505050505081526020016004820180546142aa90619105565b80601f01602080910402602001604051908101604052809291908181526020018280546142d690619105565b80156143235780601f106142f857610100808354040283529160200191614323565b820191906000526020600020905b81548152906001019060200180831161430657829003601f168201915b5050505050815260200160058201805461433c90619105565b80601f016020809104026020016040519081016040528092919081815260200182805461436890619105565b80156143b55780601f1061438a576101008083540402835291602001916143b5565b820191906000526020600020905b81548152906001019060200180831161439857829003601f168201915b505050505081526020016006820180546143ce90619105565b80601f01602080910402602001604051908101604052809291908181526020018280546143fa90619105565b80156144475780601f1061441c57610100808354040283529160200191614447565b820191906000526020600020905b81548152906001019060200180831161442a57829003601f168201915b50505050508152602001600782015481525050915050919050565b85600981604051614473919061907b565b9081526040519081900360200190205460ff166144a25760405162461bcd60e51b815260040161071990619252565b82600181101580156144b75750620f42408111155b6144d35760405162461bcd60e51b815260040161071990619486565b600080896040516144e4919061907b565b908152604051908190036020019020600b81015490915060ff1661451a5760405162461bcd60e51b81526004016107199061929f565b875115614531576002810161452f898261919a565b505b8651156145485760068101614546888261919a565b505b85511561455f576007810161455d878261919a565b505b841561456d57600881018590555b83511561458b5783516145899060098301906020870190617cb1565b505b604051339061459b908b9061907b565b604051908190038120428252907f7908f4a28dd6c5a9aeb08c489560be79c59288098b557df57513830b3246151990602001613733565b6145da617c2f565b81600a816040516145eb919061907b565b9081526040519081900360200190205460ff1661461a5760405162461bcd60e51b815260040161071990619097565b600583604051613214919061907b565b614632617d07565b81600a81604051614643919061907b565b9081526040519081900360200190205460ff166146725760405162461bcd60e51b815260040161071990619097565b600283604051614682919061907b565b90815260200160405180910390206040518060c00160405290816000820180546146ab90619105565b80601f01602080910402602001604051908101604052809291908181526020018280546146d790619105565b80156147245780601f106146f957610100808354040283529160200191614724565b820191906000526020600020905b81548152906001019060200180831161470757829003601f168201915b5050505050815260200160018201805461473d90619105565b80601f016020809104026020016040519081016040528092919081815260200182805461476990619105565b80156147b65780601f1061478b576101008083540402835291602001916147b6565b820191906000526020600020905b81548152906001019060200180831161479957829003601f168201915b505050505081526020016002820180546147cf90619105565b80601f01602080910402602001604051908101604052809291908181526020018280546147fb90619105565b80156148485780601f1061481d57610100808354040283529160200191614848565b820191906000526020600020905b81548152906001019060200180831161482b57829003601f168201915b5050505050815260200160038201805461486190619105565b80601f016020809104026020016040519081016040528092919081815260200182805461488d90619105565b80156148da5780601f106148af576101008083540402835291602001916148da565b820191906000526020600020905b8154815290600101906020018083116148bd57829003601f168201915b505050505081526020016004820180546148f390619105565b80601f016020809104026020016040519081016040528092919081815260200182805461491f90619105565b801561496c5780601f106149415761010080835404028352916020019161496c565b820191906000526020600020905b81548152906001019060200180831161494f57829003601f168201915b50505050508152602001600582015481525050915050919050565b6000816020015151116149d05760405162461bcd60e51b8152602060048201526011602482015270456d7074792070726f64756374436f646560781b6044820152606401610719565b600081606001515111614a125760405162461bcd60e51b815260206004820152600a602482015269456d707479206e616d6560b01b6044820152606401610719565b600a8160200151604051614a26919061907b565b9081526040519081900360200190205460ff1615614a775760405162461bcd60e51b815260206004820152600e60248201526d50726f647563742065786973747360901b6044820152606401610719565b8051604051600991614a889161907b565b9081526040519081900360200190205460ff16614ad85760405162461bcd60e51b815260206004820152600e60248201526d11985c9b481b9bdd08199bdd5b9960921b6044820152606401610719565b8051604051600891614ae99161907b565b9081526040516020918190038201902082820151815460018101835560009283529290912090910190614b1c908261919a565b506020810151600e80546001810182556000919091527fbb7b4a454dc3493923482f07822329ed19e8244eff582cc204f8554c3620c3fd0190614b5f908261919a565b506001600a8260200151604051614b76919061907b565b908152604051908190036020019020805491151560ff1990921691909117905560118054906000614ba6836194b8565b9190505550604051806101a0016040528082600001518152602001826020015181526020018260400151815260200182606001518152602001826080015181526020018260a0015181526020018260c0015181526020018260e0015181526020018261010001518152602001826101200151815260200142815260200160006003811115614c3657614c366180d0565b81526020018261014001516004811115614c5257614c526180d0565b90526020820151604051600191614c689161907b565b90815260405190819003602001902081518190614c85908261919a565b5060208201516001820190614c9a908261919a565b5060408201516002820190614caf908261919a565b5060608201516003820190614cc4908261919a565b5060808201516004820190614cd9908261919a565b5060a08201516005820190614cee908261919a565b5060c08201516006820190614d03908261919a565b5060e08201516007820190614d18908261919a565b506101008201516008820190614d2e908261919a565b506101208201516009820190614d44908261919a565b50610140820151600a820155610160820151600b8201805460ff19166001836003811115614d7457614d746180d0565b0217905550610180820151600b8201805461ff001916610100836004811115614d9f57614d9f6180d0565b02179055509050508060400151604051614db9919061907b565b60405180910390208160200151604051614dd3919061907b565b60405190819003812083519091614dea919061907b565b60405180910390207f5a5521c478d56e992f7de0ce91468be033673a45127af6e98e5d3f54f495cc69600042604051614e249291906194d1565b60405180910390a450565b85600a81604051614e40919061907b565b9081526040519081900360200190205460ff16614e6f5760405162461bcd60e51b815260040161071990619097565b6000865111614eb55760405162461bcd60e51b8152602060048201526012602482015271456d7074792068617276657374206461746560701b6044820152606401610719565b6000600188604051614ec7919061907b565b908152604051908190036020019020600b015460ff166003811115614eee57614eee6180d0565b14614f0b5760405162461bcd60e51b8152600401610719906190db565b6040518060e0016040528088815260200187815260200186815260200185815260200184815260200183815260200142815250600588604051614f4e919061907b565b90815260405190819003602001902081518190614f6b908261919a565b5060208201516001820190614f80908261919a565b5060408201516002820190614f95908261919a565b5060608201516003820190614faa908261919a565b5060808201516004820190614fbf908261919a565b5060a08201516005820190614fd4908261919a565b5060c091909101516006909101556040513390614ff290899061907b565b604051908190038120428252907fb7acef2065ad5c1aad123c6c17dce6a2a935464b3892d793d527e2c8bed4bea190602001610927565b615031617c2f565b81600a81604051615042919061907b565b9081526040519081900360200190205460ff166150715760405162461bcd60e51b815260040161071990619097565b600383604051613214919061907b565b6012546001600160a01b031633146150ab5760405162461bcd60e51b8152600401610719906194ec565b6001600160a01b0381166150d15760405162461bcd60e51b81526004016107199061944f565b601480546001600160a01b0319166001600160a01b0392909216919091179055565b6000600b82604051615105919061907b565b9081526040519081900360200190205460ff1692915050565b6013546001600160a01b031633148061514157506012546001600160a01b031633145b61515d5760405162461bcd60e51b81526004016107199061940e565b6001600160a01b0382166151835760405162461bcd60e51b81526004016107199061944f565b6001600160a01b03919091166000908152601760205260409020805460ff1916911515919091179055565b85600a816040516151bf919061907b565b9081526040519081900360200190205460ff166151ee5760405162461bcd60e51b815260040161071990619097565b6000600188604051615200919061907b565b908152604051908190036020019020600b015460ff166003811115615227576152276180d0565b146152445760405162461bcd60e51b8152600401610719906190db565b6000600588604051615256919061907b565b90815260200160405180910390209050600087511115615280576001810161527e888261919a565b505b8551156152975760028101615295878261919a565b505b8451156152ae57600381016152ac868261919a565b505b8351156152c557600481016152c3858261919a565b505b8251156152dc57600581016152da848261919a565b505b60405133906152ec908a9061907b565b604051908190038120428252907fbccb8f97b9186074ffe5006945f32fe9cfd0f4767308d7fa16d031f9eede68cb90602001611c26565b85600a81604051615334919061907b565b9081526040519081900360200190205460ff166153635760405162461bcd60e51b815260040161071990619097565b6000600188604051615375919061907b565b908152604051908190036020019020600b015460ff16600381111561539c5761539c6180d0565b146153b95760405162461bcd60e51b8152600401610719906190db565b60006003886040516153cb919061907b565b908152602001604051809103902090506000875111156153f557600181016153f3888261919a565b505b85511561540c576002810161540a878261919a565b505b8451156154235760038101615421868261919a565b505b83511561543a5760048101615438858261919a565b505b825115615451576005810161544f848261919a565b505b6040513390615461908a9061907b565b604051908190038120428252907f05e2de4424f41fca1bd37b1d63212448cb99db7eba4e8a70ddf62819e6421deb90602001611c26565b3360009081526015602052604090205460ff16806154c057506012546001600160a01b031633145b61550c5760405162461bcd60e51b815260206004820152601d60248201527f416363657373436f6e74726f6c3a204e6f7420617574686f72697a65640000006044820152606401610719565b81600181101580156155215750620f42408111155b61553d5760405162461bcd60e51b815260040161071990619486565b8151600a81111561558e5760405162461bcd60e51b815260206004820152601b60248201527a56616c69646174696f6e3a20546f6f206d616e7920696d6167657360281b6044820152606401610719565b60008c51116155dc5760405162461bcd60e51b815260206004820152601a60248201527956616c69646174696f6e3a20456d707479206661726d436f646560301b6044820152606401610719565b60008b511161562a5760405162461bcd60e51b815260206004820152601a60248201527956616c69646174696f6e3a20456d7074792066756c6c6e616d6560301b6044820152606401610719565b60008a51116156785760405162461bcd60e51b815260206004820152601a60248201527956616c69646174696f6e3a20456d707479206e616d654661726d60301b6044820152606401610719565b60008951116156c45760405162461bcd60e51b815260206004820152601860248201527715985b1a59185d1a5bdb8e88115b5c1d1e481d5cd95c925960421b6044820152606401610719565b60098c6040516156d4919061907b565b9081526040519081900360200190205460ff16156157345760405162461bcd60e51b815260206004820152601f60248201527f56616c69646174696f6e3a204661726d20616c726561647920657869737473006044820152606401610719565b600789604051615744919061907b565b90815260405160209181900382019020805460018101825560009182529190200161576f8d8261919a565b50600d80546001810182556000919091527fd7b6990105719101dabeb77144f2a3385c8033acd3af97e9423a695e81ad1eb5016157ac8d8261919a565b50600160098d6040516157bf919061907b565b908152604051908190036020019020805491151560ff19909216919091179055601080549060006157ef836194b8565b91905055506040518061018001604052808d81526020018c81526020018b81526020018a81526020018981526020018881526020018781526020018681526020018581526020018481526020014281526020016001151581525060008d604051615859919061907b565b90815260405190819003602001902081518190615876908261919a565b506020820151600182019061588b908261919a565b50604082015160028201906158a0908261919a565b50606082015160038201906158b5908261919a565b50608082015160048201906158ca908261919a565b5060a082015160058201906158df908261919a565b5060c082015160068201906158f4908261919a565b5060e08201516007820190615909908261919a565b5061010082015160088201556101208201518051615931916009840191602090910190617cb1565b50610140820151600a82015561016090910151600b909101805460ff19169115159190911790556040513390615968908b9061907b565b60405180910390208d60405161597e919061907b565b60408051918290038220888352426020840152917f94a1b71779fa0fac5c0048e5d6894687d9bcf5ad5669aa2ee9c8dec5f49884e3910160405180910390a4505050505050505050505050565b806009816040516159dc919061907b565b9081526040519081900360200190205460ff16615a0b5760405162461bcd60e51b815260040161071990619252565b60008083604051615a1c919061907b565b908152604051908190036020019020600b81015490915060ff16615a525760405162461bcd60e51b81526004016107199061929f565b600b01805460ff191690555050565b81600981604051615a72919061907b565b9081526040519081900360200190205460ff16615aa15760405162461bcd60e51b815260040161071990619252565b60008084604051615ab2919061907b565b908152604051908190036020019020600b81015490915060ff16615ae85760405162461bcd60e51b81526004016107199061929f565b6009810180546001810182556000918252602090912001615b09848261919a565b5050505050565b6012546001600160a01b03163314615b3a5760405162461bcd60e51b8152600401610719906194ec565b6001600160a01b038116615b605760405162461bcd60e51b81526004016107199061944f565b601380546001600160a01b0319166001600160a01b0392909216919091179055565b600d546060906000906001600160401b03811115615ba257615ba2617d6f565b604051908082528060200260200182016040528015615bdb57816020015b615bc8617bcc565b815260200190600190039081615bc05790505b50905060005b600d548110156114f5576000600d8281548110615c0057615c00619289565b90600052602060002001604051615c17919061952d565b908152602001604051809103902060405180610180016040529081600082018054615c4190619105565b80601f0160208091040260200160405190810160405280929190818152602001828054615c6d90619105565b8015615cba5780601f10615c8f57610100808354040283529160200191615cba565b820191906000526020600020905b815481529060010190602001808311615c9d57829003601f168201915b50505050508152602001600182018054615cd390619105565b80601f0160208091040260200160405190810160405280929190818152602001828054615cff90619105565b8015615d4c5780601f10615d2157610100808354040283529160200191615d4c565b820191906000526020600020905b815481529060010190602001808311615d2f57829003601f168201915b50505050508152602001600282018054615d6590619105565b80601f0160208091040260200160405190810160405280929190818152602001828054615d9190619105565b8015615dde5780601f10615db357610100808354040283529160200191615dde565b820191906000526020600020905b815481529060010190602001808311615dc157829003601f168201915b50505050508152602001600382018054615df790619105565b80601f0160208091040260200160405190810160405280929190818152602001828054615e2390619105565b8015615e705780601f10615e4557610100808354040283529160200191615e70565b820191906000526020600020905b815481529060010190602001808311615e5357829003601f168201915b50505050508152602001600482018054615e8990619105565b80601f0160208091040260200160405190810160405280929190818152602001828054615eb590619105565b8015615f025780601f10615ed757610100808354040283529160200191615f02565b820191906000526020600020905b815481529060010190602001808311615ee557829003601f168201915b50505050508152602001600582018054615f1b90619105565b80601f0160208091040260200160405190810160405280929190818152602001828054615f4790619105565b8015615f945780601f10615f6957610100808354040283529160200191615f94565b820191906000526020600020905b815481529060010190602001808311615f7757829003601f168201915b50505050508152602001600682018054615fad90619105565b80601f0160208091040260200160405190810160405280929190818152602001828054615fd990619105565b80156160265780601f10615ffb57610100808354040283529160200191616026565b820191906000526020600020905b81548152906001019060200180831161600957829003601f168201915b5050505050815260200160078201805461603f90619105565b80601f016020809104026020016040519081016040528092919081815260200182805461606b90619105565b80156160b85780601f1061608d576101008083540402835291602001916160b8565b820191906000526020600020905b81548152906001019060200180831161609b57829003601f168201915b505050505081526020016008820154815260200160098201805480602002602001604051908101604052809291908181526020016000905b8282101561619c57838290600052602060002001805461610f90619105565b80601f016020809104026020016040519081016040528092919081815260200182805461613b90619105565b80156161885780601f1061615d57610100808354040283529160200191616188565b820191906000526020600020905b81548152906001019060200180831161616b57829003601f168201915b5050505050815260200190600101906160f0565b50505090825250600a8201546020820152600b9091015460ff16151560409091015282518390839081106161d2576161d2619289565b6020908102919091010152600101615be1565b6161ed617b17565b6161f5617d07565b6161fd617c2f565b616205617c6c565b61620d617c2f565b616215617c2f565b86600a81604051616226919061907b565b9081526040519081900360200190205460ff166162555760405162461bcd60e51b815260040161071990619097565b600188604051616265919061907b565b9081526020016040518091039020600289604051616283919061907b565b908152602001604051809103902060038a6040516162a1919061907b565b908152602001604051809103902060048b6040516162bf919061907b565b908152602001604051809103902060058c6040516162dd919061907b565b908152602001604051809103902060068d6040516162fb919061907b565b908152602001604051809103902085604051806101a001604052908160008201805461632690619105565b80601f016020809104026020016040519081016040528092919081815260200182805461635290619105565b801561639f5780601f106163745761010080835404028352916020019161639f565b820191906000526020600020905b81548152906001019060200180831161638257829003601f168201915b505050505081526020016001820180546163b890619105565b80601f01602080910402602001604051908101604052809291908181526020018280546163e490619105565b80156164315780601f1061640657610100808354040283529160200191616431565b820191906000526020600020905b81548152906001019060200180831161641457829003601f168201915b5050505050815260200160028201805461644a90619105565b80601f016020809104026020016040519081016040528092919081815260200182805461647690619105565b80156164c35780601f10616498576101008083540402835291602001916164c3565b820191906000526020600020905b8154815290600101906020018083116164a657829003601f168201915b505050505081526020016003820180546164dc90619105565b80601f016020809104026020016040519081016040528092919081815260200182805461650890619105565b80156165555780601f1061652a57610100808354040283529160200191616555565b820191906000526020600020905b81548152906001019060200180831161653857829003601f168201915b5050505050815260200160048201805461656e90619105565b80601f016020809104026020016040519081016040528092919081815260200182805461659a90619105565b80156165e75780601f106165bc576101008083540402835291602001916165e7565b820191906000526020600020905b8154815290600101906020018083116165ca57829003601f168201915b5050505050815260200160058201805461660090619105565b80601f016020809104026020016040519081016040528092919081815260200182805461662c90619105565b80156166795780601f1061664e57610100808354040283529160200191616679565b820191906000526020600020905b81548152906001019060200180831161665c57829003601f168201915b5050505050815260200160068201805461669290619105565b80601f01602080910402602001604051908101604052809291908181526020018280546166be90619105565b801561670b5780601f106166e05761010080835404028352916020019161670b565b820191906000526020600020905b8154815290600101906020018083116166ee57829003601f168201915b5050505050815260200160078201805461672490619105565b80601f016020809104026020016040519081016040528092919081815260200182805461675090619105565b801561679d5780601f106167725761010080835404028352916020019161679d565b820191906000526020600020905b81548152906001019060200180831161678057829003601f168201915b505050505081526020016008820180546167b690619105565b80601f01602080910402602001604051908101604052809291908181526020018280546167e290619105565b801561682f5780601f106168045761010080835404028352916020019161682f565b820191906000526020600020905b81548152906001019060200180831161681257829003601f168201915b5050505050815260200160098201805461684890619105565b80601f016020809104026020016040519081016040528092919081815260200182805461687490619105565b80156168c15780601f10616896576101008083540402835291602001916168c1565b820191906000526020600020905b8154815290600101906020018083116168a457829003601f168201915b5050509183525050600a8201546020820152600b82015460409091019060ff1660038111156168f2576168f26180d0565b6003811115616903576169036180d0565b8152602001600b820160019054906101000a900460ff16600481111561692b5761692b6180d0565b600481111561693c5761693c6180d0565b815250509550846040518060c001604052908160008201805461695e90619105565b80601f016020809104026020016040519081016040528092919081815260200182805461698a90619105565b80156169d75780601f106169ac576101008083540402835291602001916169d7565b820191906000526020600020905b8154815290600101906020018083116169ba57829003601f168201915b505050505081526020016001820180546169f090619105565b80601f0160208091040260200160405190810160405280929190818152602001828054616a1c90619105565b8015616a695780601f10616a3e57610100808354040283529160200191616a69565b820191906000526020600020905b815481529060010190602001808311616a4c57829003601f168201915b50505050508152602001600282018054616a8290619105565b80601f0160208091040260200160405190810160405280929190818152602001828054616aae90619105565b8015616afb5780601f10616ad057610100808354040283529160200191616afb565b820191906000526020600020905b815481529060010190602001808311616ade57829003601f168201915b50505050508152602001600382018054616b1490619105565b80601f0160208091040260200160405190810160405280929190818152602001828054616b4090619105565b8015616b8d5780601f10616b6257610100808354040283529160200191616b8d565b820191906000526020600020905b815481529060010190602001808311616b7057829003601f168201915b50505050508152602001600482018054616ba690619105565b80601f0160208091040260200160405190810160405280929190818152602001828054616bd290619105565b8015616c1f5780601f10616bf457610100808354040283529160200191616c1f565b820191906000526020600020905b815481529060010190602001808311616c0257829003601f168201915b505050505081526020016005820154815250509450836040518060e0016040529081600082018054616c5090619105565b80601f0160208091040260200160405190810160405280929190818152602001828054616c7c90619105565b8015616cc95780601f10616c9e57610100808354040283529160200191616cc9565b820191906000526020600020905b815481529060010190602001808311616cac57829003601f168201915b50505050508152602001600182018054616ce290619105565b80601f0160208091040260200160405190810160405280929190818152602001828054616d0e90619105565b8015616d5b5780601f10616d3057610100808354040283529160200191616d5b565b820191906000526020600020905b815481529060010190602001808311616d3e57829003601f168201915b50505050508152602001600282018054616d7490619105565b80601f0160208091040260200160405190810160405280929190818152602001828054616da090619105565b8015616ded5780601f10616dc257610100808354040283529160200191616ded565b820191906000526020600020905b815481529060010190602001808311616dd057829003601f168201915b50505050508152602001600382018054616e0690619105565b80601f0160208091040260200160405190810160405280929190818152602001828054616e3290619105565b8015616e7f5780601f10616e5457610100808354040283529160200191616e7f565b820191906000526020600020905b815481529060010190602001808311616e6257829003601f168201915b50505050508152602001600482018054616e9890619105565b80601f0160208091040260200160405190810160405280929190818152602001828054616ec490619105565b8015616f115780601f10616ee657610100808354040283529160200191616f11565b820191906000526020600020905b815481529060010190602001808311616ef457829003601f168201915b50505050508152602001600582018054616f2a90619105565b80601f0160208091040260200160405190810160405280929190818152602001828054616f5690619105565b8015616fa35780601f10616f7857610100808354040283529160200191616fa3565b820191906000526020600020905b815481529060010190602001808311616f8657829003601f168201915b5050505050815260200160068201548152505093508260405180610100016040529081600082018054616fd590619105565b80601f016020809104026020016040519081016040528092919081815260200182805461700190619105565b801561704e5780601f106170235761010080835404028352916020019161704e565b820191906000526020600020905b81548152906001019060200180831161703157829003601f168201915b5050505050815260200160018201805461706790619105565b80601f016020809104026020016040519081016040528092919081815260200182805461709390619105565b80156170e05780601f106170b5576101008083540402835291602001916170e0565b820191906000526020600020905b8154815290600101906020018083116170c357829003601f168201915b505050505081526020016002820180546170f990619105565b80601f016020809104026020016040519081016040528092919081815260200182805461712590619105565b80156171725780601f1061714757610100808354040283529160200191617172565b820191906000526020600020905b81548152906001019060200180831161715557829003601f168201915b5050505050815260200160038201805461718b90619105565b80601f01602080910402602001604051908101604052809291908181526020018280546171b790619105565b80156172045780601f106171d957610100808354040283529160200191617204565b820191906000526020600020905b8154815290600101906020018083116171e757829003601f168201915b5050505050815260200160048201805461721d90619105565b80601f016020809104026020016040519081016040528092919081815260200182805461724990619105565b80156172965780601f1061726b57610100808354040283529160200191617296565b820191906000526020600020905b81548152906001019060200180831161727957829003601f168201915b505050505081526020016005820180546172af90619105565b80601f01602080910402602001604051908101604052809291908181526020018280546172db90619105565b80156173285780601f106172fd57610100808354040283529160200191617328565b820191906000526020600020905b81548152906001019060200180831161730b57829003601f168201915b5050505050815260200160068201805461734190619105565b80601f016020809104026020016040519081016040528092919081815260200182805461736d90619105565b80156173ba5780601f1061738f576101008083540402835291602001916173ba565b820191906000526020600020905b81548152906001019060200180831161739d57829003601f168201915b505050505081526020016007820154815250509250816040518060e00160405290816000820180546173eb90619105565b80601f016020809104026020016040519081016040528092919081815260200182805461741790619105565b80156174645780601f1061743957610100808354040283529160200191617464565b820191906000526020600020905b81548152906001019060200180831161744757829003601f168201915b5050505050815260200160018201805461747d90619105565b80601f01602080910402602001604051908101604052809291908181526020018280546174a990619105565b80156174f65780601f106174cb576101008083540402835291602001916174f6565b820191906000526020600020905b8154815290600101906020018083116174d957829003601f168201915b5050505050815260200160028201805461750f90619105565b80601f016020809104026020016040519081016040528092919081815260200182805461753b90619105565b80156175885780601f1061755d57610100808354040283529160200191617588565b820191906000526020600020905b81548152906001019060200180831161756b57829003601f168201915b505050505081526020016003820180546175a190619105565b80601f01602080910402602001604051908101604052809291908181526020018280546175cd90619105565b801561761a5780601f106175ef5761010080835404028352916020019161761a565b820191906000526020600020905b8154815290600101906020018083116175fd57829003601f168201915b5050505050815260200160048201805461763390619105565b80601f016020809104026020016040519081016040528092919081815260200182805461765f90619105565b80156176ac5780601f10617681576101008083540402835291602001916176ac565b820191906000526020600020905b81548152906001019060200180831161768f57829003601f168201915b505050505081526020016005820180546176c590619105565b80601f01602080910402602001604051908101604052809291908181526020018280546176f190619105565b801561773e5780601f106177135761010080835404028352916020019161773e565b820191906000526020600020905b81548152906001019060200180831161772157829003601f168201915b505050505081526020016006820154815250509150806040518060e001604052908160008201805461776f90619105565b80601f016020809104026020016040519081016040528092919081815260200182805461779b90619105565b80156177e85780601f106177bd576101008083540402835291602001916177e8565b820191906000526020600020905b8154815290600101906020018083116177cb57829003601f168201915b5050505050815260200160018201805461780190619105565b80601f016020809104026020016040519081016040528092919081815260200182805461782d90619105565b801561787a5780601f1061784f5761010080835404028352916020019161787a565b820191906000526020600020905b81548152906001019060200180831161785d57829003601f168201915b5050505050815260200160028201805461789390619105565b80601f01602080910402602001604051908101604052809291908181526020018280546178bf90619105565b801561790c5780601f106178e15761010080835404028352916020019161790c565b820191906000526020600020905b8154815290600101906020018083116178ef57829003601f168201915b5050505050815260200160038201805461792590619105565b80601f016020809104026020016040519081016040528092919081815260200182805461795190619105565b801561799e5780601f106179735761010080835404028352916020019161799e565b820191906000526020600020905b81548152906001019060200180831161798157829003601f168201915b505050505081526020016004820180546179b790619105565b80601f01602080910402602001604051908101604052809291908181526020018280546179e390619105565b8015617a305780601f10617a0557610100808354040283529160200191617a30565b820191906000526020600020905b815481529060010190602001808311617a1357829003601f168201915b50505050508152602001600582018054617a4990619105565b80601f0160208091040260200160405190810160405280929190818152602001828054617a7590619105565b8015617ac25780601f10617a9757610100808354040283529160200191617ac2565b820191906000526020600020905b815481529060010190602001808311617aa557829003601f168201915b5050505050815260200160068201548152505090509650965096509650965096505091939550919395565b600080600783604051617b00919061907b565b908152604051908190036020019020541192915050565b604051806101a00160405280606081526020016060815260200160608152602001606081526020016060815260200160608152602001606081526020016060815260200160608152602001606081526020016000815260200160006003811115617b8357617b836180d0565b81526020016000905290565b508054617b9b90619105565b6000825580601f10617bab575050565b601f016020900490600052602060002090810190617bc99190617d3d565b50565b60405180610180016040528060608152602001606081526020016060815260200160608152602001606081526020016060815260200160608152602001606081526020016000815260200160608152602001600081526020016000151581525090565b6040518060e00160405280606081526020016060815260200160608152602001606081526020016060815260200160608152602001600081525090565b60405180610100016040528060608152602001606081526020016060815260200160608152602001606081526020016060815260200160608152602001600081525090565b828054828255906000526020600020908101928215617cf7579160200282015b82811115617cf75782518290617ce7908261919a565b5091602001919060010190617cd1565b50617d03929150617d52565b5090565b6040518060c001604052806060815260200160608152602001606081526020016060815260200160608152602001600081525090565b5b80821115617d035760008155600101617d3e565b80821115617d03576000617d668282617b8f565b50600101617d52565b634e487b7160e01b600052604160045260246000fd5b60405161016081016001600160401b0381118282101715617da857617da8617d6f565b60405290565b604051601f8201601f191681016001600160401b0381118282101715617dd657617dd6617d6f565b604052919050565b600082601f830112617def57600080fd5b81356001600160401b03811115617e0857617e08617d6f565b617e1b601f8201601f1916602001617dae565b818152846020838601011115617e3057600080fd5b816020850160208301376000918101602001919091529392505050565b60008060008060008060c08789031215617e6657600080fd5b86356001600160401b03811115617e7c57600080fd5b617e8889828a01617dde565b96505060208701356001600160401b03811115617ea457600080fd5b617eb089828a01617dde565b95505060408701356001600160401b03811115617ecc57600080fd5b617ed889828a01617dde565b94505060608701356001600160401b03811115617ef457600080fd5b617f0089828a01617dde565b93505060808701356001600160401b03811115617f1c57600080fd5b617f2889828a01617dde565b92505060a08701356001600160401b03811115617f4457600080fd5b617f5089828a01617dde565b9150509295509295509295565b600080600080600060a08688031215617f7557600080fd5b85356001600160401b03811115617f8b57600080fd5b617f9788828901617dde565b95505060208601356001600160401b03811115617fb357600080fd5b617fbf88828901617dde565b94505060408601356001600160401b03811115617fdb57600080fd5b617fe788828901617dde565b93505060608601356001600160401b0381111561800357600080fd5b61800f88828901617dde565b92505060808601356001600160401b0381111561802b57600080fd5b61803788828901617dde565b9150509295509295909350565b60006020828403121561805657600080fd5b81356001600160401b0381111561806c57600080fd5b61807884828501617dde565b949350505050565b60005b8381101561809b578181015183820152602001618083565b50506000910152565b600081518084526180bc816020860160208601618080565b601f01601f19169290920160200192915050565b634e487b7160e01b600052602160045260246000fd5b600481106180f6576180f66180d0565b9052565b600581106180f6576180f66180d0565b600081516101a084526181216101a08501826180a4565b90506020830151848203602086015261813a82826180a4565b9150506040830151848203604086015261815482826180a4565b9150506060830151848203606086015261816e82826180a4565b9150506080830151848203608086015261818882826180a4565b91505060a083015184820360a08601526181a282826180a4565b91505060c083015184820360c08601526181bc82826180a4565b91505060e083015184820360e08601526181d682826180a4565b9150506101008301518482036101008601526181f282826180a4565b91505061012083015184820361012086015261820e82826180a4565b9150506101408301516101408501526101608301516182316101608601826180e6565b506101808301516127ed6101808601826180fa565b6000602082016020835280845180835260408501915060408160051b86010192506020860160005b8281101561829f57603f1987860301845261828a85835161810a565b9450602093840193919091019060010161826e565b50929695505050505050565b80356001600160a01b03811681146182c257600080fd5b919050565b6000602082840312156182d957600080fd5b6182e2826182ab565b9392505050565b600080604083850312156182fc57600080fd5b82356001600160401b0381111561831257600080fd5b61831e85828601617dde565b95602094909401359450505050565b6000806040838503121561834057600080fd5b82356001600160401b0381111561835657600080fd5b61836285828601617dde565b92505060208301356001600160401b0381111561837e57600080fd5b61838a85828601617dde565b9150509250929050565b600080600080600080600080610100898b0312156183b157600080fd5b88356001600160401b038111156183c757600080fd5b6183d38b828c01617dde565b98505060208901356001600160401b038111156183ef57600080fd5b6183fb8b828c01617dde565b97505060408901356001600160401b0381111561841757600080fd5b6184238b828c01617dde565b96505060608901356001600160401b0381111561843f57600080fd5b61844b8b828c01617dde565b95505060808901356001600160401b0381111561846757600080fd5b6184738b828c01617dde565b94505060a08901356001600160401b0381111561848f57600080fd5b61849b8b828c01617dde565b93505060c08901356001600160401b038111156184b757600080fd5b6184c38b828c01617dde565b92505060e08901356001600160401b038111156184df57600080fd5b6184eb8b828c01617dde565b9150509295985092959890939650565b600080600080600080600060e0888a03121561851657600080fd5b87356001600160401b0381111561852c57600080fd5b6185388a828b01617dde565b97505060208801356001600160401b0381111561855457600080fd5b6185608a828b01617dde565b96505060408801356001600160401b0381111561857c57600080fd5b6185888a828b01617dde565b95505060608801356001600160401b038111156185a457600080fd5b6185b08a828b01617dde565b94505060808801356001600160401b038111156185cc57600080fd5b6185d88a828b01617dde565b93505060a08801356001600160401b038111156185f457600080fd5b6186008a828b01617dde565b92505060c08801356001600160401b0381111561861c57600080fd5b6186288a828b01617dde565b91505092959891949750929550565b600082825180855260208501945060208160051b8301016020850160005b8381101561868757601f198584030188526186718383516180a4565b6020988901989093509190910190600101618655565b50909695505050505050565b6020815260006182e26020830184618637565b6000815161018084526186bd6101808501826180a4565b9050602083015184820360208601526186d682826180a4565b915050604083015184820360408601526186f082826180a4565b9150506060830151848203606086015261870a82826180a4565b9150506080830151848203608086015261872482826180a4565b91505060a083015184820360a086015261873e82826180a4565b91505060c083015184820360c086015261875882826180a4565b91505060e083015184820360e086015261877282826180a4565b91505061010083015161010085015261012083015184820361012086015261879a8282618637565b9150506101408301516101408501526101608301516127ed61016086018215159052565b6000602082016020835280845180835260408501915060408160051b86010192506020860160005b8281101561829f57603f198786030184526188028583516186a6565b945060209384019391909101906001016187e6565b6020815260006182e260208301846186a6565b6000806040838503121561883d57600080fd5b618846836182ab565b91506020830135801515811461885b57600080fd5b809150509250929050565b6000815160e0845261887b60e08501826180a4565b90506020830151848203602086015261889482826180a4565b915050604083015184820360408601526188ae82826180a4565b915050606083015184820360608601526188c882826180a4565b915050608083015184820360808601526188e282826180a4565b91505060a083015184820360a08601526188fc82826180a4565b91505060c083015160c08501528091505092915050565b6020815260006182e26020830184618866565b6020815260006182e2602083018461810a565b6000815161010084526189506101008501826180a4565b90506020830151848203602086015261896982826180a4565b9150506040830151848203604086015261898382826180a4565b9150506060830151848203606086015261899d82826180a4565b915050608083015184820360808601526189b782826180a4565b91505060a083015184820360a08601526189d182826180a4565b91505060c083015184820360c08601526189eb82826180a4565b91505060e083015160e08501528091505092915050565b6020815260006182e26020830184618939565b600082601f830112618a2657600080fd5b81356001600160401b03811115618a3f57618a3f617d6f565b8060051b618a4f60208201617dae565b91825260208185018101929081019086841115618a6b57600080fd5b6020860192505b83831015618ab15782356001600160401b03811115618a9057600080fd5b618a9f886020838a0101617dde565b83525060209283019290910190618a72565b9695505050505050565b60008060008060008060c08789031215618ad457600080fd5b86356001600160401b03811115618aea57600080fd5b618af689828a01617dde565b96505060208701356001600160401b03811115618b1257600080fd5b618b1e89828a01617dde565b95505060408701356001600160401b03811115618b3a57600080fd5b618b4689828a01617dde565b94505060608701356001600160401b03811115618b6257600080fd5b618b6e89828a01617dde565b9350506080870135915060a08701356001600160401b03811115618b9157600080fd5b617f5089828a01618a15565b6000815160c08452618bb260c08501826180a4565b905060208301518482036020860152618bcb82826180a4565b91505060408301518482036040860152618be582826180a4565b91505060608301518482036060860152618bff82826180a4565b91505060808301518482036080860152618c1982826180a4565b91505060a083015160a08501528091505092915050565b6020815260006182e26020830184618b9d565b8035600581106182c257600080fd5b600060208284031215618c6457600080fd5b81356001600160401b03811115618c7a57600080fd5b82016101608185031215618c8d57600080fd5b618c95617d85565b81356001600160401b03811115618cab57600080fd5b618cb786828501617dde565b82525060208201356001600160401b03811115618cd357600080fd5b618cdf86828501617dde565b60208301525060408201356001600160401b03811115618cfe57600080fd5b618d0a86828501617dde565b60408301525060608201356001600160401b03811115618d2957600080fd5b618d3586828501617dde565b60608301525060808201356001600160401b03811115618d5457600080fd5b618d6086828501617dde565b60808301525060a08201356001600160401b03811115618d7f57600080fd5b618d8b86828501617dde565b60a08301525060c08201356001600160401b03811115618daa57600080fd5b618db686828501617dde565b60c08301525060e08201356001600160401b03811115618dd557600080fd5b618de186828501617dde565b60e0830152506101008201356001600160401b03811115618e0157600080fd5b618e0d86828501617dde565b610100830152506101208201356001600160401b03811115618e2e57600080fd5b618e3a86828501617dde565b61012083015250618e4e6101408301618c43565b610140820152949350505050565b6000806000806000806000806000806101408b8d031215618e7c57600080fd5b8a356001600160401b03811115618e9257600080fd5b618e9e8d828e01617dde565b9a505060208b01356001600160401b03811115618eba57600080fd5b618ec68d828e01617dde565b99505060408b01356001600160401b03811115618ee257600080fd5b618eee8d828e01617dde565b98505060608b01356001600160401b03811115618f0a57600080fd5b618f168d828e01617dde565b97505060808b01356001600160401b03811115618f3257600080fd5b618f3e8d828e01617dde565b96505060a08b01356001600160401b03811115618f5a57600080fd5b618f668d828e01617dde565b95505060c08b01356001600160401b03811115618f8257600080fd5b618f8e8d828e01617dde565b94505060e08b01356001600160401b03811115618faa57600080fd5b618fb68d828e01617dde565b9350506101008b013591506101208b01356001600160401b03811115618fdb57600080fd5b618fe78d828e01618a15565b9150509295989b9194979a5092959850565b60c08152600061900c60c083018961810a565b828103602084015261901e8189618b9d565b905082810360408401526190328188618866565b905082810360608401526190468187618939565b9050828103608084015261905a8186618866565b905082810360a084015261906e8185618866565b9998505050505050505050565b6000825161908d818460208701618080565b9190910192915050565b60208082526024908201527f50726f647563744d616e6167656d656e743a2050726f64756374206e6f7420666040820152631bdd5b9960e21b606082015260800190565b60208082526010908201526f50726f6475637420696e61637469766560801b604082015260600190565b600181811c9082168061911957607f821691505b6020821081036114f557634e487b7160e01b600052602260045260246000fd5b601f82111561918057806000526020600020601f840160051c810160208510156191605750805b601f840160051c820191505b81811015615b09576000815560010161916c565b505050565b600019600383901b1c191660019190911b1790565b81516001600160401b038111156191b3576191b3617d6f565b6191c7816191c18454619105565b84619139565b6020601f8211600181146191f557600083156191e35750848201515b6191ed8482619185565b855550615b09565b600084815260208120601f198516915b828110156192255787850151825560209485019460019092019101619205565b50848210156192435786840151600019600387901b60f8161c191681555b50505050600190811b01905550565b6020808252601e908201527f4661726d4d616e6167656d656e743a204661726d206e6f7420666f756e640000604082015260600190565b634e487b7160e01b600052603260045260246000fd5b6020808252600d908201526c4661726d20696e61637469766560981b604082015260600190565b634e487b7160e01b600052601160045260246000fd5b818103818111156192ef576192ef6192c6565b92915050565b808201808211156192ef576192ef6192c6565b818103619313575050565b61931d8254619105565b6001600160401b0381111561933457619334617d6f565b619342816191c18454619105565b6000601f82116001811461936757600083156191e35750848201546191ed8482619185565b600085815260209020601f19841690600086815260209020845b838110156193a15782860154825560019586019590910190602001619381565b50858310156193bf5781850154600019600388901b60f8161c191681555b5050505050600190811b01905550565b634e487b7160e01b600052603160045260246000fd5b606081016193f382866180e6565b61940060208301856180e6565b826040830152949350505050565b60208082526021908201527f416363657373436f6e74726f6c3a204f6e6c792061646d696e20616c6c6f77656040820152601960fa1b606082015260800190565b6020808252601e908201527f416363657373436f6e74726f6c3a20496e76616c696420616464726573730000604082015260600190565b60208082526018908201527756616c69646174696f6e3a20496e76616c6964206172656160401b604082015260600190565b6000600182016194ca576194ca6192c6565b5060010190565b604081016194df82856180e6565b8260208301529392505050565b60208082526021908201527f416363657373436f6e74726f6c3a204f6e6c79206f776e657220616c6c6f77656040820152601960fa1b606082015260800190565b600080835461953b81619105565b600182168015619552576001811461956757619597565b60ff1983168652811515820286019350619597565b86600052602060002060005b8381101561958f57815488820152600190910190602001619573565b505081860193505b50919594505050505056fea26469706673582212200800e3b998d9386c5e4becee712fd47435841954a538cfc39a579bc36f94919a64736f6c634300081c0033","opcodes":"PUSH1 0x80 PUSH1 0x40 MSTORE CALLVALUE DUP1 ISZERO PUSH1 0xF JUMPI PUSH1 0x0 DUP1 REVERT JUMPDEST POP PUSH1 0x12 DUP1 SLOAD PUSH1 0x1 PUSH1 0x1 PUSH1 0xA0 SHL SUB NOT SWAP1 DUP2 AND CALLER SWAP1 DUP2 OR SWAP1 SWAP3 SSTORE PUSH1 0x13 DUP1 SLOAD DUP3 AND DUP4 OR SWAP1 SSTORE PUSH1 0x14 DUP1 SLOAD SWAP1 SWAP2 AND DUP3 OR SWAP1 SSTORE PUSH1 0x0 PUSH1 0x10 DUP2 SWAP1 SSTORE PUSH1 0x11 DUP2 SWAP1 SSTORE SWAP1 DUP2 MSTORE PUSH1 0x15 PUSH1 0x20 SWAP1 DUP2 MSTORE PUSH1 0x40 DUP1 DUP4 KECCAK256 DUP1 SLOAD PUSH1 0xFF NOT SWAP1 DUP2 AND PUSH1 0x1 SWAP1 DUP2 OR SWAP1 SWAP3 SSTORE PUSH1 0x16 DUP5 MSTORE DUP3 DUP6 KECCAK256 DUP1 SLOAD DUP3 AND DUP4 OR SWAP1 SSTORE PUSH1 0x17 SWAP1 SWAP4 MSTORE SWAP3 KECCAK256 DUP1 SLOAD SWAP1 SWAP2 AND SWAP1 SWAP2 OR SWAP1 SSTORE PUSH2 0x95D8 DUP1 PUSH2 0x96 PUSH1 0x0 CODECOPY PUSH1 0x0 RETURN INVALID PUSH1 0x80 PUSH1 0x40 MSTORE CALLVALUE DUP1 ISZERO PUSH2 0x10 JUMPI PUSH1 0x0 DUP1 REVERT JUMPDEST POP PUSH1 0x4 CALLDATASIZE LT PUSH2 0x25C JUMPI PUSH1 0x0 CALLDATALOAD PUSH1 0xE0 SHR DUP1 PUSH4 0x8999BD5 EQ PUSH2 0x261 JUMPI DUP1 PUSH4 0xA87BF53 EQ PUSH2 0x276 JUMPI DUP1 PUSH4 0x1389B62A EQ PUSH2 0x289 JUMPI DUP1 PUSH4 0x168FC898 EQ PUSH2 0x29C JUMPI DUP1 PUSH4 0x17C4C94C EQ PUSH2 0x2B9 JUMPI DUP1 PUSH4 0x1828983A EQ PUSH2 0x2D9 JUMPI DUP1 PUSH4 0x1ACD172A EQ PUSH2 0x30C JUMPI DUP1 PUSH4 0x1BF703B2 EQ PUSH2 0x31F JUMPI DUP1 PUSH4 0x2152736A EQ PUSH2 0x332 JUMPI DUP1 PUSH4 0x2B213F23 EQ PUSH2 0x345 JUMPI DUP1 PUSH4 0x2B7AC3F3 EQ PUSH2 0x358 JUMPI DUP1 PUSH4 0x2EDA5A4F EQ PUSH2 0x383 JUMPI DUP1 PUSH4 0x2F9F7989 EQ PUSH2 0x398 JUMPI DUP1 PUSH4 0x32A486D8 EQ PUSH2 0x3AB JUMPI DUP1 PUSH4 0x42BF2696 EQ PUSH2 0x3BE JUMPI DUP1 PUSH4 0x4B87ECAE EQ PUSH2 0x3DE JUMPI DUP1 PUSH4 0x53CC92F0 EQ PUSH2 0x3FE JUMPI DUP1 PUSH4 0x570AEA8A EQ PUSH2 0x411 JUMPI DUP1 PUSH4 0x5D30BA4A EQ PUSH2 0x419 JUMPI DUP1 PUSH4 0x5DE7F904 EQ PUSH2 0x42C JUMPI DUP1 PUSH4 0x5EE485B7 EQ PUSH2 0x43F JUMPI DUP1 PUSH4 0x5F121B52 EQ PUSH2 0x447 JUMPI DUP1 PUSH4 0x5F99A659 EQ PUSH2 0x45A JUMPI DUP1 PUSH4 0x63BF3E95 EQ PUSH2 0x47A JUMPI DUP1 PUSH4 0x67C2A360 EQ PUSH2 0x48D JUMPI DUP1 PUSH4 0x68111CCE EQ PUSH2 0x4A0 JUMPI DUP1 PUSH4 0x68304A62 EQ PUSH2 0x4C0 JUMPI DUP1 PUSH4 0x6ECA2CCC EQ PUSH2 0x4D3 JUMPI DUP1 PUSH4 0x7281A7CD EQ PUSH2 0x4F3 JUMPI DUP1 PUSH4 0x72C9379B EQ PUSH2 0x506 JUMPI DUP1 PUSH4 0x76BBE0C2 EQ PUSH2 0x519 JUMPI DUP1 PUSH4 0x8343F955 EQ PUSH2 0x521 JUMPI DUP1 PUSH4 0x8388E2BA EQ PUSH2 0x541 JUMPI DUP1 PUSH4 0x8A9D8733 EQ PUSH2 0x549 JUMPI DUP1 PUSH4 0x8DA5CB5B EQ PUSH2 0x55C JUMPI DUP1 PUSH4 0x9012CAC1 EQ PUSH2 0x56F JUMPI DUP1 PUSH4 0x90C63477 EQ PUSH2 0x582 JUMPI DUP1 PUSH4 0x97FC007C EQ PUSH2 0x595 JUMPI DUP1 PUSH4 0xA057B22A EQ PUSH2 0x5A8 JUMPI DUP1 PUSH4 0xA3857069 EQ PUSH2 0x5BB JUMPI DUP1 PUSH4 0xAE3CB7D4 EQ PUSH2 0x5CE JUMPI DUP1 PUSH4 0xB377FA61 EQ PUSH2 0x5F1 JUMPI DUP1 PUSH4 0xBBFD014C EQ PUSH2 0x604 JUMPI DUP1 PUSH4 0xC256940D EQ PUSH2 0x617 JUMPI DUP1 PUSH4 0xC7C38588 EQ PUSH2 0x63A JUMPI DUP1 PUSH4 0xCFDE0CE8 EQ PUSH2 0x64D JUMPI DUP1 PUSH4 0xDE653398 EQ PUSH2 0x660 JUMPI DUP1 PUSH4 0xE2F273BD EQ PUSH2 0x673 JUMPI DUP1 PUSH4 0xF851A440 EQ PUSH2 0x686 JUMPI DUP1 PUSH4 0xF9559774 EQ PUSH2 0x699 JUMPI DUP1 PUSH4 0xFB1A931F EQ PUSH2 0x6A1 JUMPI DUP1 PUSH4 0xFDDC968E EQ PUSH2 0x6C6 JUMPI JUMPDEST PUSH1 0x0 DUP1 REVERT JUMPDEST PUSH2 0x274 PUSH2 0x26F CALLDATASIZE PUSH1 0x4 PUSH2 0x7E4D JUMP JUMPDEST PUSH2 0x6D9 JUMP JUMPDEST STOP JUMPDEST PUSH2 0x274 PUSH2 0x284 CALLDATASIZE PUSH1 0x4 PUSH2 0x7F5D JUMP JUMPDEST PUSH2 0x938 JUMP JUMPDEST PUSH2 0x274 PUSH2 0x297 CALLDATASIZE PUSH1 0x4 PUSH2 0x7F5D JUMP JUMPDEST PUSH2 0xB69 JUMP JUMPDEST PUSH2 0x2A6 PUSH3 0xF4240 DUP2 JUMP JUMPDEST PUSH1 0x40 MLOAD SWAP1 DUP2 MSTORE PUSH1 0x20 ADD JUMPDEST PUSH1 0x40 MLOAD DUP1 SWAP2 SUB SWAP1 RETURN JUMPDEST PUSH2 0x2CC PUSH2 0x2C7 CALLDATASIZE PUSH1 0x4 PUSH2 0x8044 JUMP JUMPDEST PUSH2 0xCC7 JUMP JUMPDEST PUSH1 0x40 MLOAD PUSH2 0x2B0 SWAP2 SWAP1 PUSH2 0x8246 JUMP JUMPDEST PUSH2 0x2FC PUSH2 0x2E7 CALLDATASIZE PUSH1 0x4 PUSH2 0x82C7 JUMP JUMPDEST PUSH1 0x15 PUSH1 0x20 MSTORE PUSH1 0x0 SWAP1 DUP2 MSTORE PUSH1 0x40 SWAP1 KECCAK256 SLOAD PUSH1 0xFF AND DUP2 JUMP JUMPDEST PUSH1 0x40 MLOAD SWAP1 ISZERO ISZERO DUP2 MSTORE PUSH1 0x20 ADD PUSH2 0x2B0 JUMP JUMPDEST PUSH2 0x274 PUSH2 0x31A CALLDATASIZE PUSH1 0x4 PUSH2 0x82E9 JUMP JUMPDEST PUSH2 0x14FB JUMP JUMPDEST PUSH2 0x274 PUSH2 0x32D CALLDATASIZE PUSH1 0x4 PUSH2 0x832D JUMP JUMPDEST PUSH2 0x167A JUMP JUMPDEST PUSH2 0x274 PUSH2 0x340 CALLDATASIZE PUSH1 0x4 PUSH2 0x8394 JUMP JUMPDEST PUSH2 0x1836 JUMP JUMPDEST PUSH2 0x274 PUSH2 0x353 CALLDATASIZE PUSH1 0x4 PUSH2 0x84FB JUMP JUMPDEST PUSH2 0x19C8 JUMP JUMPDEST PUSH1 0x14 SLOAD PUSH2 0x36B SWAP1 PUSH1 0x1 PUSH1 0x1 PUSH1 0xA0 SHL SUB AND DUP2 JUMP JUMPDEST PUSH1 0x40 MLOAD PUSH1 0x1 PUSH1 0x1 PUSH1 0xA0 SHL SUB SWAP1 SWAP2 AND DUP2 MSTORE PUSH1 0x20 ADD PUSH2 0x2B0 JUMP JUMPDEST PUSH2 0x38B PUSH2 0x1C38 JUMP JUMPDEST PUSH1 0x40 MLOAD PUSH2 0x2B0 SWAP2 SWAP1 PUSH2 0x8693 JUMP JUMPDEST PUSH2 0x274 PUSH2 0x3A6 CALLDATASIZE PUSH1 0x4 PUSH2 0x8044 JUMP JUMPDEST PUSH2 0x1D11 JUMP JUMPDEST PUSH2 0x274 PUSH2 0x3B9 CALLDATASIZE PUSH1 0x4 PUSH2 0x7E4D JUMP JUMPDEST PUSH2 0x1E1B JUMP JUMPDEST PUSH2 0x3D1 PUSH2 0x3CC CALLDATASIZE PUSH1 0x4 PUSH2 0x8044 JUMP JUMPDEST PUSH2 0x205D JUMP JUMPDEST PUSH1 0x40 MLOAD PUSH2 0x2B0 SWAP2 SWAP1 PUSH2 0x87BE JUMP JUMPDEST PUSH2 0x3F1 PUSH2 0x3EC CALLDATASIZE PUSH1 0x4 PUSH2 0x8044 JUMP JUMPDEST PUSH2 0x27F5 JUMP JUMPDEST PUSH1 0x40 MLOAD PUSH2 0x2B0 SWAP2 SWAP1 PUSH2 0x8817 JUMP JUMPDEST PUSH2 0x274 PUSH2 0x40C CALLDATASIZE PUSH1 0x4 PUSH2 0x882A JUMP JUMPDEST PUSH2 0x2DFB JUMP JUMPDEST PUSH1 0x11 SLOAD PUSH2 0x2A6 JUMP JUMPDEST PUSH2 0x274 PUSH2 0x427 CALLDATASIZE PUSH1 0x4 PUSH2 0x7E4D JUMP JUMPDEST PUSH2 0x2E8B JUMP JUMPDEST PUSH2 0x38B PUSH2 0x43A CALLDATASIZE PUSH1 0x4 PUSH2 0x8044 JUMP JUMPDEST PUSH2 0x3000 JUMP JUMPDEST PUSH1 0x10 SLOAD PUSH2 0x2A6 JUMP JUMPDEST PUSH2 0x274 PUSH2 0x455 CALLDATASIZE PUSH1 0x4 PUSH2 0x82C7 JUMP JUMPDEST PUSH2 0x30F7 JUMP JUMPDEST PUSH2 0x46D PUSH2 0x468 CALLDATASIZE PUSH1 0x4 PUSH2 0x8044 JUMP JUMPDEST PUSH2 0x31BC JUMP JUMPDEST PUSH1 0x40 MLOAD PUSH2 0x2B0 SWAP2 SWAP1 PUSH2 0x8913 JUMP JUMPDEST PUSH2 0x274 PUSH2 0x488 CALLDATASIZE PUSH1 0x4 PUSH2 0x84FB JUMP JUMPDEST PUSH2 0x35AB JUMP JUMPDEST PUSH2 0x274 PUSH2 0x49B CALLDATASIZE PUSH1 0x4 PUSH2 0x82C7 JUMP JUMPDEST PUSH2 0x3746 JUMP JUMPDEST PUSH2 0x4B3 PUSH2 0x4AE CALLDATASIZE PUSH1 0x4 PUSH2 0x8044 JUMP JUMPDEST PUSH2 0x3803 JUMP JUMPDEST PUSH1 0x40 MLOAD PUSH2 0x2B0 SWAP2 SWAP1 PUSH2 0x8926 JUMP JUMPDEST PUSH2 0x38B PUSH2 0x4CE CALLDATASIZE PUSH1 0x4 PUSH2 0x8044 JUMP JUMPDEST PUSH2 0x3EA5 JUMP JUMPDEST PUSH2 0x4E6 PUSH2 0x4E1 CALLDATASIZE PUSH1 0x4 PUSH2 0x8044 JUMP JUMPDEST PUSH2 0x3FE0 JUMP JUMPDEST PUSH1 0x40 MLOAD PUSH2 0x2B0 SWAP2 SWAP1 PUSH2 0x8A02 JUMP JUMPDEST PUSH2 0x274 PUSH2 0x501 CALLDATASIZE PUSH1 0x4 PUSH2 0x8ABB JUMP JUMPDEST PUSH2 0x4462 JUMP JUMPDEST PUSH2 0x46D PUSH2 0x514 CALLDATASIZE PUSH1 0x4 PUSH2 0x8044 JUMP JUMPDEST PUSH2 0x45D2 JUMP JUMPDEST PUSH2 0x2A6 PUSH1 0xA DUP2 JUMP JUMPDEST PUSH2 0x534 PUSH2 0x52F CALLDATASIZE PUSH1 0x4 PUSH2 0x8044 JUMP JUMPDEST PUSH2 0x462A JUMP JUMPDEST PUSH1 0x40 MLOAD PUSH2 0x2B0 SWAP2 SWAP1 PUSH2 0x8C30 JUMP JUMPDEST PUSH2 0x2A6 PUSH1 0x1 DUP2 JUMP JUMPDEST PUSH2 0x274 PUSH2 0x557 CALLDATASIZE PUSH1 0x4 PUSH2 0x8C52 JUMP JUMPDEST PUSH2 0x4987 JUMP JUMPDEST PUSH1 0x12 SLOAD PUSH2 0x36B SWAP1 PUSH1 0x1 PUSH1 0x1 PUSH1 0xA0 SHL SUB AND DUP2 JUMP JUMPDEST PUSH2 0x274 PUSH2 0x57D CALLDATASIZE PUSH1 0x4 PUSH2 0x7E4D JUMP JUMPDEST PUSH2 0x4E2F JUMP JUMPDEST PUSH2 0x46D PUSH2 0x590 CALLDATASIZE PUSH1 0x4 PUSH2 0x8044 JUMP JUMPDEST PUSH2 0x5029 JUMP JUMPDEST PUSH2 0x274 PUSH2 0x5A3 CALLDATASIZE PUSH1 0x4 PUSH2 0x82C7 JUMP JUMPDEST PUSH2 0x5081 JUMP JUMPDEST PUSH2 0x2FC PUSH2 0x5B6 CALLDATASIZE PUSH1 0x4 PUSH2 0x8044 JUMP JUMPDEST PUSH2 0x50F3 JUMP JUMPDEST PUSH2 0x274 PUSH2 0x5C9 CALLDATASIZE PUSH1 0x4 PUSH2 0x882A JUMP JUMPDEST PUSH2 0x511E JUMP JUMPDEST PUSH2 0x2FC PUSH2 0x5DC CALLDATASIZE PUSH1 0x4 PUSH2 0x82C7 JUMP JUMPDEST PUSH1 0x17 PUSH1 0x20 MSTORE PUSH1 0x0 SWAP1 DUP2 MSTORE PUSH1 0x40 SWAP1 KECCAK256 SLOAD PUSH1 0xFF AND DUP2 JUMP JUMPDEST PUSH2 0x274 PUSH2 0x5FF CALLDATASIZE PUSH1 0x4 PUSH2 0x7E4D JUMP JUMPDEST PUSH2 0x51AE JUMP JUMPDEST PUSH2 0x274 PUSH2 0x612 CALLDATASIZE PUSH1 0x4 PUSH2 0x7E4D JUMP JUMPDEST PUSH2 0x5323 JUMP JUMPDEST PUSH2 0x2FC PUSH2 0x625 CALLDATASIZE PUSH1 0x4 PUSH2 0x82C7 JUMP JUMPDEST PUSH1 0x16 PUSH1 0x20 MSTORE PUSH1 0x0 SWAP1 DUP2 MSTORE PUSH1 0x40 SWAP1 KECCAK256 SLOAD PUSH1 0xFF AND DUP2 JUMP JUMPDEST PUSH2 0x274 PUSH2 0x648 CALLDATASIZE PUSH1 0x4 PUSH2 0x8E5C JUMP JUMPDEST PUSH2 0x5498 JUMP JUMPDEST PUSH2 0x274 PUSH2 0x65B CALLDATASIZE PUSH1 0x4 PUSH2 0x8044 JUMP JUMPDEST PUSH2 0x59CB JUMP JUMPDEST PUSH2 0x274 PUSH2 0x66E CALLDATASIZE PUSH1 0x4 PUSH2 0x832D JUMP JUMPDEST PUSH2 0x5A61 JUMP JUMPDEST PUSH2 0x274 PUSH2 0x681 CALLDATASIZE PUSH1 0x4 PUSH2 0x82C7 JUMP JUMPDEST PUSH2 0x5B10 JUMP JUMPDEST PUSH1 0x13 SLOAD PUSH2 0x36B SWAP1 PUSH1 0x1 PUSH1 0x1 PUSH1 0xA0 SHL SUB AND DUP2 JUMP JUMPDEST PUSH2 0x3D1 PUSH2 0x5B82 JUMP JUMPDEST PUSH2 0x6B4 PUSH2 0x6AF CALLDATASIZE PUSH1 0x4 PUSH2 0x8044 JUMP JUMPDEST PUSH2 0x61E5 JUMP JUMPDEST PUSH1 0x40 MLOAD PUSH2 0x2B0 SWAP7 SWAP6 SWAP5 SWAP4 SWAP3 SWAP2 SWAP1 PUSH2 0x8FF9 JUMP JUMPDEST PUSH2 0x2FC PUSH2 0x6D4 CALLDATASIZE PUSH1 0x4 PUSH2 0x8044 JUMP JUMPDEST PUSH2 0x7AED JUMP JUMPDEST DUP6 PUSH1 0xA DUP2 PUSH1 0x40 MLOAD PUSH2 0x6EA SWAP2 SWAP1 PUSH2 0x907B JUMP JUMPDEST SWAP1 DUP2 MSTORE PUSH1 0x40 MLOAD SWAP1 DUP2 SWAP1 SUB PUSH1 0x20 ADD SWAP1 KECCAK256 SLOAD PUSH1 0xFF AND PUSH2 0x722 JUMPI PUSH1 0x40 MLOAD PUSH3 0x461BCD PUSH1 0xE5 SHL DUP2 MSTORE PUSH1 0x4 ADD PUSH2 0x719 SWAP1 PUSH2 0x9097 JUMP JUMPDEST PUSH1 0x40 MLOAD DUP1 SWAP2 SUB SWAP1 REVERT JUMPDEST PUSH1 0x0 DUP7 MLOAD GT PUSH2 0x76C JUMPI PUSH1 0x40 MLOAD PUSH3 0x461BCD PUSH1 0xE5 SHL DUP2 MSTORE PUSH1 0x20 PUSH1 0x4 DUP3 ADD MSTORE PUSH1 0x16 PUSH1 0x24 DUP3 ADD MSTORE PUSH22 0x456D707479206469737472696275746F72206E616D65 PUSH1 0x50 SHL PUSH1 0x44 DUP3 ADD MSTORE PUSH1 0x64 ADD PUSH2 0x719 JUMP JUMPDEST PUSH1 0x0 DUP5 MLOAD GT PUSH2 0x7B7 JUMPI PUSH1 0x40 MLOAD PUSH3 0x461BCD PUSH1 0xE5 SHL DUP2 MSTORE PUSH1 0x20 PUSH1 0x4 DUP3 ADD MSTORE PUSH1 0x17 PUSH1 0x24 DUP3 ADD MSTORE PUSH23 0x456D70747920646973747269627574696F6E2064617465 PUSH1 0x48 SHL PUSH1 0x44 DUP3 ADD MSTORE PUSH1 0x64 ADD PUSH2 0x719 JUMP JUMPDEST PUSH1 0x0 PUSH1 0x1 DUP9 PUSH1 0x40 MLOAD PUSH2 0x7C9 SWAP2 SWAP1 PUSH2 0x907B JUMP JUMPDEST SWAP1 DUP2 MSTORE PUSH1 0x40 MLOAD SWAP1 DUP2 SWAP1 SUB PUSH1 0x20 ADD SWAP1 KECCAK256 PUSH1 0xB ADD SLOAD PUSH1 0xFF AND PUSH1 0x3 DUP2 GT ISZERO PUSH2 0x7F0 JUMPI PUSH2 0x7F0 PUSH2 0x80D0 JUMP JUMPDEST EQ PUSH2 0x80D JUMPI PUSH1 0x40 MLOAD PUSH3 0x461BCD PUSH1 0xE5 SHL DUP2 MSTORE PUSH1 0x4 ADD PUSH2 0x719 SWAP1 PUSH2 0x90DB JUMP JUMPDEST PUSH1 0x40 MLOAD DUP1 PUSH1 0xE0 ADD PUSH1 0x40 MSTORE DUP1 DUP9 DUP2 MSTORE PUSH1 0x20 ADD DUP8 DUP2 MSTORE PUSH1 0x20 ADD DUP7 DUP2 MSTORE PUSH1 0x20 ADD DUP6 DUP2 MSTORE PUSH1 0x20 ADD DUP5 DUP2 MSTORE PUSH1 0x20 ADD DUP4 DUP2 MSTORE PUSH1 0x20 ADD TIMESTAMP DUP2 MSTORE POP PUSH1 0x6 DUP9 PUSH1 0x40 MLOAD PUSH2 0x850 SWAP2 SWAP1 PUSH2 0x907B JUMP JUMPDEST SWAP1 DUP2 MSTORE PUSH1 0x40 MLOAD SWAP1 DUP2 SWAP1 SUB PUSH1 0x20 ADD SWAP1 KECCAK256 DUP2 MLOAD DUP2 SWAP1 PUSH2 0x86D SWAP1 DUP3 PUSH2 0x919A JUMP JUMPDEST POP PUSH1 0x20 DUP3 ADD MLOAD PUSH1 0x1 DUP3 ADD SWAP1 PUSH2 0x882 SWAP1 DUP3 PUSH2 0x919A JUMP JUMPDEST POP PUSH1 0x40 DUP3 ADD MLOAD PUSH1 0x2 DUP3 ADD SWAP1 PUSH2 0x897 SWAP1 DUP3 PUSH2 0x919A JUMP JUMPDEST POP PUSH1 0x60 DUP3 ADD MLOAD PUSH1 0x3 DUP3 ADD SWAP1 PUSH2 0x8AC SWAP1 DUP3 PUSH2 0x919A JUMP JUMPDEST POP PUSH1 0x80 DUP3 ADD MLOAD PUSH1 0x4 DUP3 ADD SWAP1 PUSH2 0x8C1 SWAP1 DUP3 PUSH2 0x919A JUMP JUMPDEST POP PUSH1 0xA0 DUP3 ADD MLOAD PUSH1 0x5 DUP3 ADD SWAP1 PUSH2 0x8D6 SWAP1 DUP3 PUSH2 0x919A JUMP JUMPDEST POP PUSH1 0xC0 SWAP2 SWAP1 SWAP2 ADD MLOAD PUSH1 0x6 SWAP1 SWAP2 ADD SSTORE PUSH1 0x40 MLOAD CALLER SWAP1 PUSH2 0x8F4 SWAP1 DUP10 SWAP1 PUSH2 0x907B JUMP JUMPDEST PUSH1 0x40 MLOAD SWAP1 DUP2 SWAP1 SUB DUP2 KECCAK256 TIMESTAMP DUP3 MSTORE SWAP1 PUSH32 0xBB8ADAB3C1A6BD291AD2E1ACE5FFE3BB8E7ABE64C4CA6041DE89D76873C32EFB SWAP1 PUSH1 0x20 ADD JUMPDEST PUSH1 0x40 MLOAD DUP1 SWAP2 SUB SWAP1 LOG3 POP POP POP POP POP POP POP JUMP JUMPDEST DUP5 PUSH1 0xA DUP2 PUSH1 0x40 MLOAD PUSH2 0x949 SWAP2 SWAP1 PUSH2 0x907B JUMP JUMPDEST SWAP1 DUP2 MSTORE PUSH1 0x40 MLOAD SWAP1 DUP2 SWAP1 SUB PUSH1 0x20 ADD SWAP1 KECCAK256 SLOAD PUSH1 0xFF AND PUSH2 0x978 JUMPI PUSH1 0x40 MLOAD PUSH3 0x461BCD PUSH1 0xE5 SHL DUP2 MSTORE PUSH1 0x4 ADD PUSH2 0x719 SWAP1 PUSH2 0x9097 JUMP JUMPDEST PUSH1 0x0 DUP6 MLOAD GT PUSH2 0x9BE JUMPI PUSH1 0x40 MLOAD PUSH3 0x461BCD PUSH1 0xE5 SHL DUP2 MSTORE PUSH1 0x20 PUSH1 0x4 DUP3 ADD MSTORE PUSH1 0x12 PUSH1 0x24 DUP3 ADD MSTORE PUSH18 0x456D7074792070726F63657373206E616D65 PUSH1 0x70 SHL PUSH1 0x44 DUP3 ADD MSTORE PUSH1 0x64 ADD PUSH2 0x719 JUMP JUMPDEST PUSH1 0x0 DUP4 MLOAD GT PUSH2 0xA05 JUMPI PUSH1 0x40 MLOAD PUSH3 0x461BCD PUSH1 0xE5 SHL DUP2 MSTORE PUSH1 0x20 PUSH1 0x4 DUP3 ADD MSTORE PUSH1 0x13 PUSH1 0x24 DUP3 ADD MSTORE PUSH19 0x456D70747920706C616E74696E672064617465 PUSH1 0x68 SHL PUSH1 0x44 DUP3 ADD MSTORE PUSH1 0x64 ADD PUSH2 0x719 JUMP JUMPDEST PUSH1 0x0 PUSH1 0x1 DUP8 PUSH1 0x40 MLOAD PUSH2 0xA17 SWAP2 SWAP1 PUSH2 0x907B JUMP JUMPDEST SWAP1 DUP2 MSTORE PUSH1 0x40 MLOAD SWAP1 DUP2 SWAP1 SUB PUSH1 0x20 ADD SWAP1 KECCAK256 PUSH1 0xB ADD SLOAD PUSH1 0xFF AND PUSH1 0x3 DUP2 GT ISZERO PUSH2 0xA3E JUMPI PUSH2 0xA3E PUSH2 0x80D0 JUMP JUMPDEST EQ PUSH2 0xA5B JUMPI PUSH1 0x40 MLOAD PUSH3 0x461BCD PUSH1 0xE5 SHL DUP2 MSTORE PUSH1 0x4 ADD PUSH2 0x719 SWAP1 PUSH2 0x90DB JUMP JUMPDEST PUSH1 0x40 MLOAD DUP1 PUSH1 0xC0 ADD PUSH1 0x40 MSTORE DUP1 DUP8 DUP2 MSTORE PUSH1 0x20 ADD DUP7 DUP2 MSTORE PUSH1 0x20 ADD DUP6 DUP2 MSTORE PUSH1 0x20 ADD DUP5 DUP2 MSTORE PUSH1 0x20 ADD DUP4 DUP2 MSTORE PUSH1 0x20 ADD TIMESTAMP DUP2 MSTORE POP PUSH1 0x2 DUP8 PUSH1 0x40 MLOAD PUSH2 0xA98 SWAP2 SWAP1 PUSH2 0x907B JUMP JUMPDEST SWAP1 DUP2 MSTORE PUSH1 0x40 MLOAD SWAP1 DUP2 SWAP1 SUB PUSH1 0x20 ADD SWAP1 KECCAK256 DUP2 MLOAD DUP2 SWAP1 PUSH2 0xAB5 SWAP1 DUP3 PUSH2 0x919A JUMP JUMPDEST POP PUSH1 0x20 DUP3 ADD MLOAD PUSH1 0x1 DUP3 ADD SWAP1 PUSH2 0xACA SWAP1 DUP3 PUSH2 0x919A JUMP JUMPDEST POP PUSH1 0x40 DUP3 ADD MLOAD PUSH1 0x2 DUP3 ADD SWAP1 PUSH2 0xADF SWAP1 DUP3 PUSH2 0x919A JUMP JUMPDEST POP PUSH1 0x60 DUP3 ADD MLOAD PUSH1 0x3 DUP3 ADD SWAP1 PUSH2 0xAF4 SWAP1 DUP3 PUSH2 0x919A JUMP JUMPDEST POP PUSH1 0x80 DUP3 ADD MLOAD PUSH1 0x4 DUP3 ADD SWAP1 PUSH2 0xB09 SWAP1 DUP3 PUSH2 0x919A JUMP JUMPDEST POP PUSH1 0xA0 SWAP2 SWAP1 SWAP2 ADD MLOAD PUSH1 0x5 SWAP1 SWAP2 ADD SSTORE PUSH1 0x40 MLOAD CALLER SWAP1 PUSH2 0xB27 SWAP1 DUP9 SWAP1 PUSH2 0x907B JUMP JUMPDEST PUSH1 0x40 MLOAD SWAP1 DUP2 SWAP1 SUB DUP2 KECCAK256 TIMESTAMP DUP3 MSTORE SWAP1 PUSH32 0x736EBA6422149150B0298698BABA84119DB0CDF3AB6AE02DE485EBD2F674995 SWAP1 PUSH1 0x20 ADD PUSH1 0x40 MLOAD DUP1 SWAP2 SUB SWAP1 LOG3 POP POP POP POP POP POP JUMP JUMPDEST DUP5 PUSH1 0xA DUP2 PUSH1 0x40 MLOAD PUSH2 0xB7A SWAP2 SWAP1 PUSH2 0x907B JUMP JUMPDEST SWAP1 DUP2 MSTORE PUSH1 0x40 MLOAD SWAP1 DUP2 SWAP1 SUB PUSH1 0x20 ADD SWAP1 KECCAK256 SLOAD PUSH1 0xFF AND PUSH2 0xBA9 JUMPI PUSH1 0x40 MLOAD PUSH3 0x461BCD PUSH1 0xE5 SHL DUP2 MSTORE PUSH1 0x4 ADD PUSH2 0x719 SWAP1 PUSH2 0x9097 JUMP JUMPDEST PUSH1 0x0 PUSH1 0x1 DUP8 PUSH1 0x40 MLOAD PUSH2 0xBBB SWAP2 SWAP1 PUSH2 0x907B JUMP JUMPDEST SWAP1 DUP2 MSTORE PUSH1 0x40 MLOAD SWAP1 DUP2 SWAP1 SUB PUSH1 0x20 ADD SWAP1 KECCAK256 PUSH1 0xB ADD SLOAD PUSH1 0xFF AND PUSH1 0x3 DUP2 GT ISZERO PUSH2 0xBE2 JUMPI PUSH2 0xBE2 PUSH2 0x80D0 JUMP JUMPDEST EQ PUSH2 0xBFF JUMPI PUSH1 0x40 MLOAD PUSH3 0x461BCD PUSH1 0xE5 SHL DUP2 MSTORE PUSH1 0x4 ADD PUSH2 0x719 SWAP1 PUSH2 0x90DB JUMP JUMPDEST PUSH1 0x0 PUSH1 0x2 DUP8 PUSH1 0x40 MLOAD PUSH2 0xC11 SWAP2 SWAP1 PUSH2 0x907B JUMP JUMPDEST SWAP1 DUP2 MSTORE PUSH1 0x20 ADD PUSH1 0x40 MLOAD DUP1 SWAP2 SUB SWAP1 KECCAK256 SWAP1 POP PUSH1 0x0 DUP7 MLOAD GT ISZERO PUSH2 0xC3B JUMPI PUSH1 0x1 DUP2 ADD PUSH2 0xC39 DUP8 DUP3 PUSH2 0x919A JUMP JUMPDEST POP JUMPDEST DUP5 MLOAD ISZERO PUSH2 0xC52 JUMPI PUSH1 0x2 DUP2 ADD PUSH2 0xC50 DUP7 DUP3 PUSH2 0x919A JUMP JUMPDEST POP JUMPDEST DUP4 MLOAD ISZERO PUSH2 0xC69 JUMPI PUSH1 0x3 DUP2 ADD PUSH2 0xC67 DUP6 DUP3 PUSH2 0x919A JUMP JUMPDEST POP JUMPDEST DUP3 MLOAD ISZERO PUSH2 0xC80 JUMPI PUSH1 0x4 DUP2 ADD PUSH2 0xC7E DUP5 DUP3 PUSH2 0x919A JUMP JUMPDEST POP JUMPDEST PUSH1 0x40 MLOAD CALLER SWAP1 PUSH2 0xC90 SWAP1 DUP10 SWAP1 PUSH2 0x907B JUMP JUMPDEST PUSH1 0x40 MLOAD SWAP1 DUP2 SWAP1 SUB DUP2 KECCAK256 TIMESTAMP DUP3 MSTORE SWAP1 PUSH32 0x47BFD662F27898375579078D8EF1F75E72EAEB374278CFEF9ABEBAD36CBCA61E SWAP1 PUSH1 0x20 ADD PUSH2 0x927 JUMP JUMPDEST PUSH1 0x60 DUP2 PUSH1 0x9 DUP2 PUSH1 0x40 MLOAD PUSH2 0xCDA SWAP2 SWAP1 PUSH2 0x907B JUMP JUMPDEST SWAP1 DUP2 MSTORE PUSH1 0x40 MLOAD SWAP1 DUP2 SWAP1 SUB PUSH1 0x20 ADD SWAP1 KECCAK256 SLOAD PUSH1 0xFF AND PUSH2 0xD09 JUMPI PUSH1 0x40 MLOAD PUSH3 0x461BCD PUSH1 0xE5 SHL DUP2 MSTORE PUSH1 0x4 ADD PUSH2 0x719 SWAP1 PUSH2 0x9252 JUMP JUMPDEST PUSH1 0x0 PUSH1 0x8 DUP5 PUSH1 0x40 MLOAD PUSH2 0xD1B SWAP2 SWAP1 PUSH2 0x907B JUMP JUMPDEST SWAP1 DUP2 MSTORE PUSH1 0x20 ADD PUSH1 0x40 MLOAD DUP1 SWAP2 SUB SWAP1 KECCAK256 DUP1 SLOAD DUP1 PUSH1 0x20 MUL PUSH1 0x20 ADD PUSH1 0x40 MLOAD SWAP1 DUP2 ADD PUSH1 0x40 MSTORE DUP1 SWAP3 SWAP2 SWAP1 DUP2 DUP2 MSTORE PUSH1 0x20 ADD PUSH1 0x0 SWAP1 JUMPDEST DUP3 DUP3 LT ISZERO PUSH2 0xDF5 JUMPI DUP4 DUP3 SWAP1 PUSH1 0x0 MSTORE PUSH1 0x20 PUSH1 0x0 KECCAK256 ADD DUP1 SLOAD PUSH2 0xD68 SWAP1 PUSH2 0x9105 JUMP JUMPDEST DUP1 PUSH1 0x1F ADD PUSH1 0x20 DUP1 SWAP2 DIV MUL PUSH1 0x20 ADD PUSH1 0x40 MLOAD SWAP1 DUP2 ADD PUSH1 0x40 MSTORE DUP1 SWAP3 SWAP2 SWAP1 DUP2 DUP2 MSTORE PUSH1 0x20 ADD DUP3 DUP1 SLOAD PUSH2 0xD94 SWAP1 PUSH2 0x9105 JUMP JUMPDEST DUP1 ISZERO PUSH2 0xDE1 JUMPI DUP1 PUSH1 0x1F LT PUSH2 0xDB6 JUMPI PUSH2 0x100 DUP1 DUP4 SLOAD DIV MUL DUP4 MSTORE SWAP2 PUSH1 0x20 ADD SWAP2 PUSH2 0xDE1 JUMP JUMPDEST DUP3 ADD SWAP2 SWAP1 PUSH1 0x0 MSTORE PUSH1 0x20 PUSH1 0x0 KECCAK256 SWAP1 JUMPDEST DUP2 SLOAD DUP2 MSTORE SWAP1 PUSH1 0x1 ADD SWAP1 PUSH1 0x20 ADD DUP1 DUP4 GT PUSH2 0xDC4 JUMPI DUP3 SWAP1 SUB PUSH1 0x1F AND DUP3 ADD SWAP2 JUMPDEST POP POP POP POP POP DUP2 MSTORE PUSH1 0x20 ADD SWAP1 PUSH1 0x1 ADD SWAP1 PUSH2 0xD49 JUMP JUMPDEST POP POP POP POP SWAP1 POP PUSH1 0x0 DUP2 MLOAD PUSH1 0x1 PUSH1 0x1 PUSH1 0x40 SHL SUB DUP2 GT ISZERO PUSH2 0xE16 JUMPI PUSH2 0xE16 PUSH2 0x7D6F JUMP JUMPDEST PUSH1 0x40 MLOAD SWAP1 DUP1 DUP3 MSTORE DUP1 PUSH1 0x20 MUL PUSH1 0x20 ADD DUP3 ADD PUSH1 0x40 MSTORE DUP1 ISZERO PUSH2 0xE4F JUMPI DUP2 PUSH1 0x20 ADD JUMPDEST PUSH2 0xE3C PUSH2 0x7B17 JUMP JUMPDEST DUP2 MSTORE PUSH1 0x20 ADD SWAP1 PUSH1 0x1 SWAP1 SUB SWAP1 DUP2 PUSH2 0xE34 JUMPI SWAP1 POP JUMPDEST POP SWAP1 POP PUSH1 0x0 JUMPDEST DUP3 MLOAD DUP2 LT ISZERO PUSH2 0x14F0 JUMPI PUSH1 0x1 DUP4 DUP3 DUP2 MLOAD DUP2 LT PUSH2 0xE72 JUMPI PUSH2 0xE72 PUSH2 0x9289 JUMP JUMPDEST PUSH1 0x20 MUL PUSH1 0x20 ADD ADD MLOAD PUSH1 0x40 MLOAD PUSH2 0xE87 SWAP2 SWAP1 PUSH2 0x907B JUMP JUMPDEST SWAP1 DUP2 MSTORE PUSH1 0x20 ADD PUSH1 0x40 MLOAD DUP1 SWAP2 SUB SWAP1 KECCAK256 PUSH1 0x40 MLOAD DUP1 PUSH2 0x1A0 ADD PUSH1 0x40 MSTORE SWAP1 DUP2 PUSH1 0x0 DUP3 ADD DUP1 SLOAD PUSH2 0xEB1 SWAP1 PUSH2 0x9105 JUMP JUMPDEST DUP1 PUSH1 0x1F ADD PUSH1 0x20 DUP1 SWAP2 DIV MUL PUSH1 0x20 ADD PUSH1 0x40 MLOAD SWAP1 DUP2 ADD PUSH1 0x40 MSTORE DUP1 SWAP3 SWAP2 SWAP1 DUP2 DUP2 MSTORE PUSH1 0x20 ADD DUP3 DUP1 SLOAD PUSH2 0xEDD SWAP1 PUSH2 0x9105 JUMP JUMPDEST DUP1 ISZERO PUSH2 0xF2A JUMPI DUP1 PUSH1 0x1F LT PUSH2 0xEFF JUMPI PUSH2 0x100 DUP1 DUP4 SLOAD DIV MUL DUP4 MSTORE SWAP2 PUSH1 0x20 ADD SWAP2 PUSH2 0xF2A JUMP JUMPDEST DUP3 ADD SWAP2 SWAP1 PUSH1 0x0 MSTORE PUSH1 0x20 PUSH1 0x0 KECCAK256 SWAP1 JUMPDEST DUP2 SLOAD DUP2 MSTORE SWAP1 PUSH1 0x1 ADD SWAP1 PUSH1 0x20 ADD DUP1 DUP4 GT PUSH2 0xF0D JUMPI DUP3 SWAP1 SUB PUSH1 0x1F AND DUP3 ADD SWAP2 JUMPDEST POP POP POP POP POP DUP2 MSTORE PUSH1 0x20 ADD PUSH1 0x1 DUP3 ADD DUP1 SLOAD PUSH2 0xF43 SWAP1 PUSH2 0x9105 JUMP JUMPDEST DUP1 PUSH1 0x1F ADD PUSH1 0x20 DUP1 SWAP2 DIV MUL PUSH1 0x20 ADD PUSH1 0x40 MLOAD SWAP1 DUP2 ADD PUSH1 0x40 MSTORE DUP1 SWAP3 SWAP2 SWAP1 DUP2 DUP2 MSTORE PUSH1 0x20 ADD DUP3 DUP1 SLOAD PUSH2 0xF6F SWAP1 PUSH2 0x9105 JUMP JUMPDEST DUP1 ISZERO PUSH2 0xFBC JUMPI DUP1 PUSH1 0x1F LT PUSH2 0xF91 JUMPI PUSH2 0x100 DUP1 DUP4 SLOAD DIV MUL DUP4 MSTORE SWAP2 PUSH1 0x20 ADD SWAP2 PUSH2 0xFBC JUMP JUMPDEST DUP3 ADD SWAP2 SWAP1 PUSH1 0x0 MSTORE PUSH1 0x20 PUSH1 0x0 KECCAK256 SWAP1 JUMPDEST DUP2 SLOAD DUP2 MSTORE SWAP1 PUSH1 0x1 ADD SWAP1 PUSH1 0x20 ADD DUP1 DUP4 GT PUSH2 0xF9F JUMPI DUP3 SWAP1 SUB PUSH1 0x1F AND DUP3 ADD SWAP2 JUMPDEST POP POP POP POP POP DUP2 MSTORE PUSH1 0x20 ADD PUSH1 0x2 DUP3 ADD DUP1 SLOAD PUSH2 0xFD5 SWAP1 PUSH2 0x9105 JUMP JUMPDEST DUP1 PUSH1 0x1F ADD PUSH1 0x20 DUP1 SWAP2 DIV MUL PUSH1 0x20 ADD PUSH1 0x40 MLOAD SWAP1 DUP2 ADD PUSH1 0x40 MSTORE DUP1 SWAP3 SWAP2 SWAP1 DUP2 DUP2 MSTORE PUSH1 0x20 ADD DUP3 DUP1 SLOAD PUSH2 0x1001 SWAP1 PUSH2 0x9105 JUMP JUMPDEST DUP1 ISZERO PUSH2 0x104E JUMPI DUP1 PUSH1 0x1F LT PUSH2 0x1023 JUMPI PUSH2 0x100 DUP1 DUP4 SLOAD DIV MUL DUP4 MSTORE SWAP2 PUSH1 0x20 ADD SWAP2 PUSH2 0x104E JUMP JUMPDEST DUP3 ADD SWAP2 SWAP1 PUSH1 0x0 MSTORE PUSH1 0x20 PUSH1 0x0 KECCAK256 SWAP1 JUMPDEST DUP2 SLOAD DUP2 MSTORE SWAP1 PUSH1 0x1 ADD SWAP1 PUSH1 0x20 ADD DUP1 DUP4 GT PUSH2 0x1031 JUMPI DUP3 SWAP1 SUB PUSH1 0x1F AND DUP3 ADD SWAP2 JUMPDEST POP POP POP POP POP DUP2 MSTORE PUSH1 0x20 ADD PUSH1 0x3 DUP3 ADD DUP1 SLOAD PUSH2 0x1067 SWAP1 PUSH2 0x9105 JUMP JUMPDEST DUP1 PUSH1 0x1F ADD PUSH1 0x20 DUP1 SWAP2 DIV MUL PUSH1 0x20 ADD PUSH1 0x40 MLOAD SWAP1 DUP2 ADD PUSH1 0x40 MSTORE DUP1 SWAP3 SWAP2 SWAP1 DUP2 DUP2 MSTORE PUSH1 0x20 ADD DUP3 DUP1 SLOAD PUSH2 0x1093 SWAP1 PUSH2 0x9105 JUMP JUMPDEST DUP1 ISZERO PUSH2 0x10E0 JUMPI DUP1 PUSH1 0x1F LT PUSH2 0x10B5 JUMPI PUSH2 0x100 DUP1 DUP4 SLOAD DIV MUL DUP4 MSTORE SWAP2 PUSH1 0x20 ADD SWAP2 PUSH2 0x10E0 JUMP JUMPDEST DUP3 ADD SWAP2 SWAP1 PUSH1 0x0 MSTORE PUSH1 0x20 PUSH1 0x0 KECCAK256 SWAP1 JUMPDEST DUP2 SLOAD DUP2 MSTORE SWAP1 PUSH1 0x1 ADD SWAP1 PUSH1 0x20 ADD DUP1 DUP4 GT PUSH2 0x10C3 JUMPI DUP3 SWAP1 SUB PUSH1 0x1F AND DUP3 ADD SWAP2 JUMPDEST POP POP POP POP POP DUP2 MSTORE PUSH1 0x20 ADD PUSH1 0x4 DUP3 ADD DUP1 SLOAD PUSH2 0x10F9 SWAP1 PUSH2 0x9105 JUMP JUMPDEST DUP1 PUSH1 0x1F ADD PUSH1 0x20 DUP1 SWAP2 DIV MUL PUSH1 0x20 ADD PUSH1 0x40 MLOAD SWAP1 DUP2 ADD PUSH1 0x40 MSTORE DUP1 SWAP3 SWAP2 SWAP1 DUP2 DUP2 MSTORE PUSH1 0x20 ADD DUP3 DUP1 SLOAD PUSH2 0x1125 SWAP1 PUSH2 0x9105 JUMP JUMPDEST DUP1 ISZERO PUSH2 0x1172 JUMPI DUP1 PUSH1 0x1F LT PUSH2 0x1147 JUMPI PUSH2 0x100 DUP1 DUP4 SLOAD DIV MUL DUP4 MSTORE SWAP2 PUSH1 0x20 ADD SWAP2 PUSH2 0x1172 JUMP JUMPDEST DUP3 ADD SWAP2 SWAP1 PUSH1 0x0 MSTORE PUSH1 0x20 PUSH1 0x0 KECCAK256 SWAP1 JUMPDEST DUP2 SLOAD DUP2 MSTORE SWAP1 PUSH1 0x1 ADD SWAP1 PUSH1 0x20 ADD DUP1 DUP4 GT PUSH2 0x1155 JUMPI DUP3 SWAP1 SUB PUSH1 0x1F AND DUP3 ADD SWAP2 JUMPDEST POP POP POP POP POP DUP2 MSTORE PUSH1 0x20 ADD PUSH1 0x5 DUP3 ADD DUP1 SLOAD PUSH2 0x118B SWAP1 PUSH2 0x9105 JUMP JUMPDEST DUP1 PUSH1 0x1F ADD PUSH1 0x20 DUP1 SWAP2 DIV MUL PUSH1 0x20 ADD PUSH1 0x40 MLOAD SWAP1 DUP2 ADD PUSH1 0x40 MSTORE DUP1 SWAP3 SWAP2 SWAP1 DUP2 DUP2 MSTORE PUSH1 0x20 ADD DUP3 DUP1 SLOAD PUSH2 0x11B7 SWAP1 PUSH2 0x9105 JUMP JUMPDEST DUP1 ISZERO PUSH2 0x1204 JUMPI DUP1 PUSH1 0x1F LT PUSH2 0x11D9 JUMPI PUSH2 0x100 DUP1 DUP4 SLOAD DIV MUL DUP4 MSTORE SWAP2 PUSH1 0x20 ADD SWAP2 PUSH2 0x1204 JUMP JUMPDEST DUP3 ADD SWAP2 SWAP1 PUSH1 0x0 MSTORE PUSH1 0x20 PUSH1 0x0 KECCAK256 SWAP1 JUMPDEST DUP2 SLOAD DUP2 MSTORE SWAP1 PUSH1 0x1 ADD SWAP1 PUSH1 0x20 ADD DUP1 DUP4 GT PUSH2 0x11E7 JUMPI DUP3 SWAP1 SUB PUSH1 0x1F AND DUP3 ADD SWAP2 JUMPDEST POP POP POP POP POP DUP2 MSTORE PUSH1 0x20 ADD PUSH1 0x6 DUP3 ADD DUP1 SLOAD PUSH2 0x121D SWAP1 PUSH2 0x9105 JUMP JUMPDEST DUP1 PUSH1 0x1F ADD PUSH1 0x20 DUP1 SWAP2 DIV MUL PUSH1 0x20 ADD PUSH1 0x40 MLOAD SWAP1 DUP2 ADD PUSH1 0x40 MSTORE DUP1 SWAP3 SWAP2 SWAP1 DUP2 DUP2 MSTORE PUSH1 0x20 ADD DUP3 DUP1 SLOAD PUSH2 0x1249 SWAP1 PUSH2 0x9105 JUMP JUMPDEST DUP1 ISZERO PUSH2 0x1296 JUMPI DUP1 PUSH1 0x1F LT PUSH2 0x126B JUMPI PUSH2 0x100 DUP1 DUP4 SLOAD DIV MUL DUP4 MSTORE SWAP2 PUSH1 0x20 ADD SWAP2 PUSH2 0x1296 JUMP JUMPDEST DUP3 ADD SWAP2 SWAP1 PUSH1 0x0 MSTORE PUSH1 0x20 PUSH1 0x0 KECCAK256 SWAP1 JUMPDEST DUP2 SLOAD DUP2 MSTORE SWAP1 PUSH1 0x1 ADD SWAP1 PUSH1 0x20 ADD DUP1 DUP4 GT PUSH2 0x1279 JUMPI DUP3 SWAP1 SUB PUSH1 0x1F AND DUP3 ADD SWAP2 JUMPDEST POP POP POP POP POP DUP2 MSTORE PUSH1 0x20 ADD PUSH1 0x7 DUP3 ADD DUP1 SLOAD PUSH2 0x12AF SWAP1 PUSH2 0x9105 JUMP JUMPDEST DUP1 PUSH1 0x1F ADD PUSH1 0x20 DUP1 SWAP2 DIV MUL PUSH1 0x20 ADD PUSH1 0x40 MLOAD SWAP1 DUP2 ADD PUSH1 0x40 MSTORE DUP1 SWAP3 SWAP2 SWAP1 DUP2 DUP2 MSTORE PUSH1 0x20 ADD DUP3 DUP1 SLOAD PUSH2 0x12DB SWAP1 PUSH2 0x9105 JUMP JUMPDEST DUP1 ISZERO PUSH2 0x1328 JUMPI DUP1 PUSH1 0x1F LT PUSH2 0x12FD JUMPI PUSH2 0x100 DUP1 DUP4 SLOAD DIV MUL DUP4 MSTORE SWAP2 PUSH1 0x20 ADD SWAP2 PUSH2 0x1328 JUMP JUMPDEST DUP3 ADD SWAP2 SWAP1 PUSH1 0x0 MSTORE PUSH1 0x20 PUSH1 0x0 KECCAK256 SWAP1 JUMPDEST DUP2 SLOAD DUP2 MSTORE SWAP1 PUSH1 0x1 ADD SWAP1 PUSH1 0x20 ADD DUP1 DUP4 GT PUSH2 0x130B JUMPI DUP3 SWAP1 SUB PUSH1 0x1F AND DUP3 ADD SWAP2 JUMPDEST POP POP POP POP POP DUP2 MSTORE PUSH1 0x20 ADD PUSH1 0x8 DUP3 ADD DUP1 SLOAD PUSH2 0x1341 SWAP1 PUSH2 0x9105 JUMP JUMPDEST DUP1 PUSH1 0x1F ADD PUSH1 0x20 DUP1 SWAP2 DIV MUL PUSH1 0x20 ADD PUSH1 0x40 MLOAD SWAP1 DUP2 ADD PUSH1 0x40 MSTORE DUP1 SWAP3 SWAP2 SWAP1 DUP2 DUP2 MSTORE PUSH1 0x20 ADD DUP3 DUP1 SLOAD PUSH2 0x136D SWAP1 PUSH2 0x9105 JUMP JUMPDEST DUP1 ISZERO PUSH2 0x13BA JUMPI DUP1 PUSH1 0x1F LT PUSH2 0x138F JUMPI PUSH2 0x100 DUP1 DUP4 SLOAD DIV MUL DUP4 MSTORE SWAP2 PUSH1 0x20 ADD SWAP2 PUSH2 0x13BA JUMP JUMPDEST DUP3 ADD SWAP2 SWAP1 PUSH1 0x0 MSTORE PUSH1 0x20 PUSH1 0x0 KECCAK256 SWAP1 JUMPDEST DUP2 SLOAD DUP2 MSTORE SWAP1 PUSH1 0x1 ADD SWAP1 PUSH1 0x20 ADD DUP1 DUP4 GT PUSH2 0x139D JUMPI DUP3 SWAP1 SUB PUSH1 0x1F AND DUP3 ADD SWAP2 JUMPDEST POP POP POP POP POP DUP2 MSTORE PUSH1 0x20 ADD PUSH1 0x9 DUP3 ADD DUP1 SLOAD PUSH2 0x13D3 SWAP1 PUSH2 0x9105 JUMP JUMPDEST DUP1 PUSH1 0x1F ADD PUSH1 0x20 DUP1 SWAP2 DIV MUL PUSH1 0x20 ADD PUSH1 0x40 MLOAD SWAP1 DUP2 ADD PUSH1 0x40 MSTORE DUP1 SWAP3 SWAP2 SWAP1 DUP2 DUP2 MSTORE PUSH1 0x20 ADD DUP3 DUP1 SLOAD PUSH2 0x13FF SWAP1 PUSH2 0x9105 JUMP JUMPDEST DUP1 ISZERO PUSH2 0x144C JUMPI DUP1 PUSH1 0x1F LT PUSH2 0x1421 JUMPI PUSH2 0x100 DUP1 DUP4 SLOAD DIV MUL DUP4 MSTORE SWAP2 PUSH1 0x20 ADD SWAP2 PUSH2 0x144C JUMP JUMPDEST DUP3 ADD SWAP2 SWAP1 PUSH1 0x0 MSTORE PUSH1 0x20 PUSH1 0x0 KECCAK256 SWAP1 JUMPDEST DUP2 SLOAD DUP2 MSTORE SWAP1 PUSH1 0x1 ADD SWAP1 PUSH1 0x20 ADD DUP1 DUP4 GT PUSH2 0x142F JUMPI DUP3 SWAP1 SUB PUSH1 0x1F AND DUP3 ADD SWAP2 JUMPDEST POP POP POP SWAP2 DUP4 MSTORE POP POP PUSH1 0xA DUP3 ADD SLOAD PUSH1 0x20 DUP3 ADD MSTORE PUSH1 0xB DUP3 ADD SLOAD PUSH1 0x40 SWAP1 SWAP2 ADD SWAP1 PUSH1 0xFF AND PUSH1 0x3 DUP2 GT ISZERO PUSH2 0x147D JUMPI PUSH2 0x147D PUSH2 0x80D0 JUMP JUMPDEST PUSH1 0x3 DUP2 GT ISZERO PUSH2 0x148E JUMPI PUSH2 0x148E PUSH2 0x80D0 JUMP JUMPDEST DUP2 MSTORE PUSH1 0x20 ADD PUSH1 0xB DUP3 ADD PUSH1 0x1 SWAP1 SLOAD SWAP1 PUSH2 0x100 EXP SWAP1 DIV PUSH1 0xFF AND PUSH1 0x4 DUP2 GT ISZERO PUSH2 0x14B6 JUMPI PUSH2 0x14B6 PUSH2 0x80D0 JUMP JUMPDEST PUSH1 0x4 DUP2 GT ISZERO PUSH2 0x14C7 JUMPI PUSH2 0x14C7 PUSH2 0x80D0 JUMP JUMPDEST DUP2 MSTORE POP POP DUP3 DUP3 DUP2 MLOAD DUP2 LT PUSH2 0x14DD JUMPI PUSH2 0x14DD PUSH2 0x9289 JUMP JUMPDEST PUSH1 0x20 SWAP1 DUP2 MUL SWAP2 SWAP1 SWAP2 ADD ADD MSTORE PUSH1 0x1 ADD PUSH2 0xE55 JUMP JUMPDEST POP SWAP3 POP POP JUMPDEST POP SWAP2 SWAP1 POP JUMP JUMPDEST DUP2 PUSH1 0x9 DUP2 PUSH1 0x40 MLOAD PUSH2 0x150C SWAP2 SWAP1 PUSH2 0x907B JUMP JUMPDEST SWAP1 DUP2 MSTORE PUSH1 0x40 MLOAD SWAP1 DUP2 SWAP1 SUB PUSH1 0x20 ADD SWAP1 KECCAK256 SLOAD PUSH1 0xFF AND PUSH2 0x153B JUMPI PUSH1 0x40 MLOAD PUSH3 0x461BCD PUSH1 0xE5 SHL DUP2 MSTORE PUSH1 0x4 ADD PUSH2 0x719 SWAP1 PUSH2 0x9252 JUMP JUMPDEST PUSH1 0x0 DUP1 DUP5 PUSH1 0x40 MLOAD PUSH2 0x154C SWAP2 SWAP1 PUSH2 0x907B JUMP JUMPDEST SWAP1 DUP2 MSTORE PUSH1 0x40 MLOAD SWAP1 DUP2 SWAP1 SUB PUSH1 0x20 ADD SWAP1 KECCAK256 PUSH1 0xB DUP2 ADD SLOAD SWAP1 SWAP2 POP PUSH1 0xFF AND PUSH2 0x1582 JUMPI PUSH1 0x40 MLOAD PUSH3 0x461BCD PUSH1 0xE5 SHL DUP2 MSTORE PUSH1 0x4 ADD PUSH2 0x719 SWAP1 PUSH2 0x929F JUMP JUMPDEST PUSH1 0x9 DUP2 ADD SLOAD DUP4 LT PUSH2 0x15CB JUMPI PUSH1 0x40 MLOAD PUSH3 0x461BCD PUSH1 0xE5 SHL DUP2 MSTORE PUSH1 0x20 PUSH1 0x4 DUP3 ADD MSTORE PUSH1 0x13 PUSH1 0x24 DUP3 ADD MSTORE PUSH19 0x92DCECC2D8D2C840D2DAC2CECA40D2DCC8CAF PUSH1 0x6B SHL PUSH1 0x44 DUP3 ADD MSTORE PUSH1 0x64 ADD PUSH2 0x719 JUMP JUMPDEST DUP3 JUMPDEST PUSH1 0x9 DUP3 ADD SLOAD PUSH2 0x15DE SWAP1 PUSH1 0x1 SWAP1 PUSH2 0x92DC JUMP JUMPDEST DUP2 LT ISZERO PUSH2 0x1642 JUMPI PUSH1 0x9 DUP3 ADD PUSH2 0x15F4 DUP3 PUSH1 0x1 PUSH2 0x92F5 JUMP JUMPDEST DUP2 SLOAD DUP2 LT PUSH2 0x1604 JUMPI PUSH2 0x1604 PUSH2 0x9289 JUMP JUMPDEST SWAP1 PUSH1 0x0 MSTORE PUSH1 0x20 PUSH1 0x0 KECCAK256 ADD DUP3 PUSH1 0x9 ADD DUP3 DUP2 SLOAD DUP2 LT PUSH2 0x1623 JUMPI PUSH2 0x1623 PUSH2 0x9289 JUMP JUMPDEST SWAP1 PUSH1 0x0 MSTORE PUSH1 0x20 PUSH1 0x0 KECCAK256 ADD SWAP1 DUP2 PUSH2 0x1639 SWAP2 SWAP1 PUSH2 0x9308 JUMP JUMPDEST POP PUSH1 0x1 ADD PUSH2 0x15CD JUMP JUMPDEST POP DUP1 PUSH1 0x9 ADD DUP1 SLOAD DUP1 PUSH2 0x1656 JUMPI PUSH2 0x1656 PUSH2 0x93CF JUMP JUMPDEST PUSH1 0x1 SWAP1 SUB DUP2 DUP2 SWAP1 PUSH1 0x0 MSTORE PUSH1 0x20 PUSH1 0x0 KECCAK256 ADD PUSH1 0x0 PUSH2 0x1672 SWAP2 SWAP1 PUSH2 0x7B8F JUMP JUMPDEST SWAP1 SSTORE POP POP POP POP JUMP JUMPDEST PUSH1 0x0 DUP3 MLOAD GT PUSH2 0x16C1 JUMPI PUSH1 0x40 MLOAD PUSH3 0x461BCD PUSH1 0xE5 SHL DUP2 MSTORE PUSH1 0x20 PUSH1 0x4 DUP3 ADD MSTORE PUSH1 0x13 PUSH1 0x24 DUP3 ADD MSTORE PUSH19 0x456D7074792063617465676F7279206E616D65 PUSH1 0x68 SHL PUSH1 0x44 DUP3 ADD MSTORE PUSH1 0x64 ADD PUSH2 0x719 JUMP JUMPDEST PUSH1 0x0 DUP2 MLOAD GT PUSH2 0x1701 JUMPI PUSH1 0x40 MLOAD PUSH3 0x461BCD PUSH1 0xE5 SHL DUP2 MSTORE PUSH1 0x20 PUSH1 0x4 DUP3 ADD MSTORE PUSH1 0xC PUSH1 0x24 DUP3 ADD MSTORE PUSH12 0x115B5C1D1E481D5CD95C9259 PUSH1 0xA2 SHL PUSH1 0x44 DUP3 ADD MSTORE PUSH1 0x64 ADD PUSH2 0x719 JUMP JUMPDEST PUSH1 0xB DUP3 PUSH1 0x40 MLOAD PUSH2 0x1711 SWAP2 SWAP1 PUSH2 0x907B JUMP JUMPDEST SWAP1 DUP2 MSTORE PUSH1 0x40 MLOAD SWAP1 DUP2 SWAP1 SUB PUSH1 0x20 ADD SWAP1 KECCAK256 SLOAD PUSH1 0xFF AND PUSH2 0x1798 JUMPI PUSH1 0x1 PUSH1 0xB DUP4 PUSH1 0x40 MLOAD PUSH2 0x173A SWAP2 SWAP1 PUSH2 0x907B JUMP JUMPDEST SWAP1 DUP2 MSTORE PUSH1 0x40 MLOAD SWAP1 DUP2 SWAP1 SUB PUSH1 0x20 ADD SWAP1 KECCAK256 DUP1 SLOAD SWAP2 ISZERO ISZERO PUSH1 0xFF NOT SWAP1 SWAP3 AND SWAP2 SWAP1 SWAP2 OR SWAP1 SSTORE PUSH1 0xF DUP1 SLOAD PUSH1 0x1 DUP2 ADD DUP3 SSTORE PUSH1 0x0 SWAP2 SWAP1 SWAP2 MSTORE PUSH32 0x8D1108E10BCB7C27DDDFC02ED9D693A074039D026CF4EA4240B40F7D581AC802 ADD PUSH2 0x1796 DUP4 DUP3 PUSH2 0x919A JUMP JUMPDEST POP JUMPDEST PUSH1 0xC DUP2 PUSH1 0x40 MLOAD PUSH2 0x17A8 SWAP2 SWAP1 PUSH2 0x907B JUMP JUMPDEST SWAP1 DUP2 MSTORE PUSH1 0x40 MLOAD PUSH1 0x20 SWAP2 DUP2 SWAP1 SUB DUP3 ADD SWAP1 KECCAK256 DUP1 SLOAD PUSH1 0x1 DUP2 ADD DUP3 SSTORE PUSH1 0x0 SWAP2 DUP3 MSTORE SWAP2 SWAP1 KECCAK256 ADD PUSH2 0x17D3 DUP4 DUP3 PUSH2 0x919A JUMP JUMPDEST POP DUP1 PUSH1 0x40 MLOAD PUSH2 0x17E2 SWAP2 SWAP1 PUSH2 0x907B JUMP JUMPDEST PUSH1 0x40 MLOAD DUP1 SWAP2 SUB SWAP1 KECCAK256 DUP3 PUSH1 0x40 MLOAD PUSH2 0x17F8 SWAP2 SWAP1 PUSH2 0x907B JUMP JUMPDEST PUSH1 0x40 MLOAD SWAP1 DUP2 SWAP1 SUB DUP2 KECCAK256 TIMESTAMP DUP3 MSTORE SWAP1 PUSH32 0x5E6DF2257B4C845C94AF93EDEA83E40F79AE07FF30DD36212C450B8BB84ED20 SWAP1 PUSH1 0x20 ADD PUSH1 0x40 MLOAD DUP1 SWAP2 SUB SWAP1 LOG3 POP POP JUMP JUMPDEST DUP8 PUSH1 0xA DUP2 PUSH1 0x40 MLOAD PUSH2 0x1847 SWAP2 SWAP1 PUSH2 0x907B JUMP JUMPDEST SWAP1 DUP2 MSTORE PUSH1 0x40 MLOAD SWAP1 DUP2 SWAP1 SUB PUSH1 0x20 ADD SWAP1 KECCAK256 SLOAD PUSH1 0xFF AND PUSH2 0x1876 JUMPI PUSH1 0x40 MLOAD PUSH3 0x461BCD PUSH1 0xE5 SHL DUP2 MSTORE PUSH1 0x4 ADD PUSH2 0x719 SWAP1 PUSH2 0x9097 JUMP JUMPDEST PUSH1 0x0 PUSH1 0x1 DUP11 PUSH1 0x40 MLOAD PUSH2 0x1888 SWAP2 SWAP1 PUSH2 0x907B JUMP JUMPDEST SWAP1 DUP2 MSTORE PUSH1 0x40 MLOAD SWAP1 DUP2 SWAP1 SUB PUSH1 0x20 ADD SWAP1 KECCAK256 SWAP1 POP PUSH1 0x0 PUSH1 0xB DUP3 ADD SLOAD PUSH1 0xFF AND PUSH1 0x3 DUP2 GT ISZERO PUSH2 0x18B4 JUMPI PUSH2 0x18B4 PUSH2 0x80D0 JUMP JUMPDEST EQ PUSH2 0x18D1 JUMPI PUSH1 0x40 MLOAD PUSH3 0x461BCD PUSH1 0xE5 SHL DUP2 MSTORE PUSH1 0x4 ADD PUSH2 0x719 SWAP1 PUSH2 0x90DB JUMP JUMPDEST DUP9 MLOAD ISZERO PUSH2 0x18E8 JUMPI PUSH1 0x3 DUP2 ADD PUSH2 0x18E6 DUP11 DUP3 PUSH2 0x919A JUMP JUMPDEST POP JUMPDEST DUP8 MLOAD ISZERO PUSH2 0x18FF JUMPI PUSH1 0x4 DUP2 ADD PUSH2 0x18FD DUP10 DUP3 PUSH2 0x919A JUMP JUMPDEST POP JUMPDEST DUP7 MLOAD ISZERO PUSH2 0x1916 JUMPI PUSH1 0x5 DUP2 ADD PUSH2 0x1914 DUP9 DUP3 PUSH2 0x919A JUMP JUMPDEST POP JUMPDEST DUP6 MLOAD ISZERO PUSH2 0x192D JUMPI PUSH1 0x6 DUP2 ADD PUSH2 0x192B DUP8 DUP3 PUSH2 0x919A JUMP JUMPDEST POP JUMPDEST DUP5 MLOAD ISZERO PUSH2 0x1944 JUMPI PUSH1 0x7 DUP2 ADD PUSH2 0x1942 DUP7 DUP3 PUSH2 0x919A JUMP JUMPDEST POP JUMPDEST DUP4 MLOAD ISZERO PUSH2 0x195B JUMPI PUSH1 0x8 DUP2 ADD PUSH2 0x1959 DUP6 DUP3 PUSH2 0x919A JUMP JUMPDEST POP JUMPDEST DUP3 MLOAD ISZERO PUSH2 0x1972 JUMPI PUSH1 0x9 DUP2 ADD PUSH2 0x1970 DUP5 DUP3 PUSH2 0x919A JUMP JUMPDEST POP JUMPDEST PUSH1 0x40 MLOAD CALLER SWAP1 PUSH2 0x1982 SWAP1 DUP13 SWAP1 PUSH2 0x907B JUMP JUMPDEST PUSH1 0x40 MLOAD SWAP1 DUP2 SWAP1 SUB DUP2 KECCAK256 TIMESTAMP DUP3 MSTORE SWAP1 PUSH32 0x2DA0E00D0FAFFBC3BC6BE6965CE63783D5726604D2372778EBDB1B21F5FFAB96 SWAP1 PUSH1 0x20 ADD PUSH1 0x40 MLOAD DUP1 SWAP2 SUB SWAP1 LOG3 POP POP POP POP POP POP POP POP POP POP JUMP JUMPDEST DUP7 PUSH1 0xA DUP2 PUSH1 0x40 MLOAD PUSH2 0x19D9 SWAP2 SWAP1 PUSH2 0x907B JUMP JUMPDEST SWAP1 DUP2 MSTORE PUSH1 0x40 MLOAD SWAP1 DUP2 SWAP1 SUB PUSH1 0x20 ADD SWAP1 KECCAK256 SLOAD PUSH1 0xFF AND PUSH2 0x1A08 JUMPI PUSH1 0x40 MLOAD PUSH3 0x461BCD PUSH1 0xE5 SHL DUP2 MSTORE PUSH1 0x4 ADD PUSH2 0x719 SWAP1 PUSH2 0x9097 JUMP JUMPDEST PUSH1 0x0 DUP8 MLOAD GT PUSH2 0x1A51 JUMPI PUSH1 0x40 MLOAD PUSH3 0x461BCD PUSH1 0xE5 SHL DUP2 MSTORE PUSH1 0x20 PUSH1 0x4 DUP3 ADD MSTORE PUSH1 0x15 PUSH1 0x24 DUP3 ADD MSTORE PUSH21 0x456D7074792066657274696C697A6572206E616D65 PUSH1 0x58 SHL PUSH1 0x44 DUP3 ADD MSTORE PUSH1 0x64 ADD PUSH2 0x719 JUMP JUMPDEST PUSH1 0x0 DUP6 MLOAD GT PUSH2 0x1A9A JUMPI PUSH1 0x40 MLOAD PUSH3 0x461BCD PUSH1 0xE5 SHL DUP2 MSTORE PUSH1 0x20 PUSH1 0x4 DUP3 ADD MSTORE PUSH1 0x15 PUSH1 0x24 DUP3 ADD MSTORE PUSH21 0x456D7074792066657274696C697A65722064617465 PUSH1 0x58 SHL PUSH1 0x44 DUP3 ADD MSTORE PUSH1 0x64 ADD PUSH2 0x719 JUMP JUMPDEST PUSH1 0x0 PUSH1 0x1 DUP10 PUSH1 0x40 MLOAD PUSH2 0x1AAC SWAP2 SWAP1 PUSH2 0x907B JUMP JUMPDEST SWAP1 DUP2 MSTORE PUSH1 0x40 MLOAD SWAP1 DUP2 SWAP1 SUB PUSH1 0x20 ADD SWAP1 KECCAK256 PUSH1 0xB ADD SLOAD PUSH1 0xFF AND PUSH1 0x3 DUP2 GT ISZERO PUSH2 0x1AD3 JUMPI PUSH2 0x1AD3 PUSH2 0x80D0 JUMP JUMPDEST EQ PUSH2 0x1AF0 JUMPI PUSH1 0x40 MLOAD PUSH3 0x461BCD PUSH1 0xE5 SHL DUP2 MSTORE PUSH1 0x4 ADD PUSH2 0x719 SWAP1 PUSH2 0x90DB JUMP JUMPDEST PUSH1 0x40 MLOAD DUP1 PUSH2 0x100 ADD PUSH1 0x40 MSTORE DUP1 DUP10 DUP2 MSTORE PUSH1 0x20 ADD DUP9 DUP2 MSTORE PUSH1 0x20 ADD DUP8 DUP2 MSTORE PUSH1 0x20 ADD DUP7 DUP2 MSTORE PUSH1 0x20 ADD DUP6 DUP2 MSTORE PUSH1 0x20 ADD DUP5 DUP2 MSTORE PUSH1 0x20 ADD DUP4 DUP2 MSTORE PUSH1 0x20 ADD TIMESTAMP DUP2 MSTORE POP PUSH1 0x4 DUP10 PUSH1 0x40 MLOAD PUSH2 0x1B3A SWAP2 SWAP1 PUSH2 0x907B JUMP JUMPDEST SWAP1 DUP2 MSTORE PUSH1 0x40 MLOAD SWAP1 DUP2 SWAP1 SUB PUSH1 0x20 ADD SWAP1 KECCAK256 DUP2 MLOAD DUP2 SWAP1 PUSH2 0x1B57 SWAP1 DUP3 PUSH2 0x919A JUMP JUMPDEST POP PUSH1 0x20 DUP3 ADD MLOAD PUSH1 0x1 DUP3 ADD SWAP1 PUSH2 0x1B6C SWAP1 DUP3 PUSH2 0x919A JUMP JUMPDEST POP PUSH1 0x40 DUP3 ADD MLOAD PUSH1 0x2 DUP3 ADD SWAP1 PUSH2 0x1B81 SWAP1 DUP3 PUSH2 0x919A JUMP JUMPDEST POP PUSH1 0x60 DUP3 ADD MLOAD PUSH1 0x3 DUP3 ADD SWAP1 PUSH2 0x1B96 SWAP1 DUP3 PUSH2 0x919A JUMP JUMPDEST POP PUSH1 0x80 DUP3 ADD MLOAD PUSH1 0x4 DUP3 ADD SWAP1 PUSH2 0x1BAB SWAP1 DUP3 PUSH2 0x919A JUMP JUMPDEST POP PUSH1 0xA0 DUP3 ADD MLOAD PUSH1 0x5 DUP3 ADD SWAP1 PUSH2 0x1BC0 SWAP1 DUP3 PUSH2 0x919A JUMP JUMPDEST POP PUSH1 0xC0 DUP3 ADD MLOAD PUSH1 0x6 DUP3 ADD SWAP1 PUSH2 0x1BD5 SWAP1 DUP3 PUSH2 0x919A JUMP JUMPDEST POP PUSH1 0xE0 SWAP2 SWAP1 SWAP2 ADD MLOAD PUSH1 0x7 SWAP1 SWAP2 ADD SSTORE PUSH1 0x40 MLOAD CALLER SWAP1 PUSH2 0x1BF3 SWAP1 DUP11 SWAP1 PUSH2 0x907B JUMP JUMPDEST PUSH1 0x40 MLOAD SWAP1 DUP2 SWAP1 SUB DUP2 KECCAK256 TIMESTAMP DUP3 MSTORE SWAP1 PUSH32 0xB69CB5F284000FAAF902E5335B11028E9BFEC54BC9DD0C35FA621CD348A5B172 SWAP1 PUSH1 0x20 ADD JUMPDEST PUSH1 0x40 MLOAD DUP1 SWAP2 SUB SWAP1 LOG3 POP POP POP POP POP POP POP POP JUMP JUMPDEST PUSH1 0x60 PUSH1 0xF DUP1 SLOAD DUP1 PUSH1 0x20 MUL PUSH1 0x20 ADD PUSH1 0x40 MLOAD SWAP1 DUP2 ADD PUSH1 0x40 MSTORE DUP1 SWAP3 SWAP2 SWAP1 DUP2 DUP2 MSTORE PUSH1 0x20 ADD PUSH1 0x0 SWAP1 JUMPDEST DUP3 DUP3 LT ISZERO PUSH2 0x1D08 JUMPI DUP4 DUP3 SWAP1 PUSH1 0x0 MSTORE PUSH1 0x20 PUSH1 0x0 KECCAK256 ADD DUP1 SLOAD PUSH2 0x1C7B SWAP1 PUSH2 0x9105 JUMP JUMPDEST DUP1 PUSH1 0x1F ADD PUSH1 0x20 DUP1 SWAP2 DIV MUL PUSH1 0x20 ADD PUSH1 0x40 MLOAD SWAP1 DUP2 ADD PUSH1 0x40 MSTORE DUP1 SWAP3 SWAP2 SWAP1 DUP2 DUP2 MSTORE PUSH1 0x20 ADD DUP3 DUP1 SLOAD PUSH2 0x1CA7 SWAP1 PUSH2 0x9105 JUMP JUMPDEST DUP1 ISZERO PUSH2 0x1CF4 JUMPI DUP1 PUSH1 0x1F LT PUSH2 0x1CC9 JUMPI PUSH2 0x100 DUP1 DUP4 SLOAD DIV MUL DUP4 MSTORE SWAP2 PUSH1 0x20 ADD SWAP2 PUSH2 0x1CF4 JUMP JUMPDEST DUP3 ADD SWAP2 SWAP1 PUSH1 0x0 MSTORE PUSH1 0x20 PUSH1 0x0 KECCAK256 SWAP1 JUMPDEST DUP2 SLOAD DUP2 MSTORE SWAP1 PUSH1 0x1 ADD SWAP1 PUSH1 0x20 ADD DUP1 DUP4 GT PUSH2 0x1CD7 JUMPI DUP3 SWAP1 SUB PUSH1 0x1F AND DUP3 ADD SWAP2 JUMPDEST POP POP POP POP POP DUP2 MSTORE PUSH1 0x20 ADD SWAP1 PUSH1 0x1 ADD SWAP1 PUSH2 0x1C5C JUMP JUMPDEST POP POP POP POP SWAP1 POP SWAP1 JUMP JUMPDEST DUP1 PUSH1 0xA DUP2 PUSH1 0x40 MLOAD PUSH2 0x1D22 SWAP2 SWAP1 PUSH2 0x907B JUMP JUMPDEST SWAP1 DUP2 MSTORE PUSH1 0x40 MLOAD SWAP1 DUP2 SWAP1 SUB PUSH1 0x20 ADD SWAP1 KECCAK256 SLOAD PUSH1 0xFF AND PUSH2 0x1D51 JUMPI PUSH1 0x40 MLOAD PUSH3 0x461BCD PUSH1 0xE5 SHL DUP2 MSTORE PUSH1 0x4 ADD PUSH2 0x719 SWAP1 PUSH2 0x9097 JUMP JUMPDEST PUSH1 0x0 PUSH1 0x1 DUP4 PUSH1 0x40 MLOAD PUSH2 0x1D63 SWAP2 SWAP1 PUSH2 0x907B JUMP JUMPDEST SWAP1 DUP2 MSTORE PUSH1 0x40 MLOAD SWAP1 DUP2 SWAP1 SUB PUSH1 0x20 ADD SWAP1 KECCAK256 SWAP1 POP PUSH1 0x0 PUSH1 0xB DUP3 ADD SLOAD PUSH1 0xFF AND PUSH1 0x3 DUP2 GT ISZERO PUSH2 0x1D8F JUMPI PUSH2 0x1D8F PUSH2 0x80D0 JUMP JUMPDEST EQ PUSH2 0x1DAC JUMPI PUSH1 0x40 MLOAD PUSH3 0x461BCD PUSH1 0xE5 SHL DUP2 MSTORE PUSH1 0x4 ADD PUSH2 0x719 SWAP1 PUSH2 0x90DB JUMP JUMPDEST PUSH1 0xB DUP2 ADD DUP1 SLOAD PUSH1 0xFF NOT DUP2 AND PUSH1 0x1 OR SWAP1 SWAP2 SSTORE PUSH1 0x40 MLOAD PUSH1 0xFF SWAP1 SWAP2 AND SWAP1 PUSH2 0x1DD1 SWAP1 DUP6 SWAP1 PUSH2 0x907B JUMP JUMPDEST PUSH1 0x40 MLOAD DUP1 SWAP2 SUB SWAP1 KECCAK256 PUSH32 0x9895F6CC815AC59447155D546C4C2C8C06EB356C8AD31CA291706975A99A1C31 DUP3 PUSH1 0x1 TIMESTAMP PUSH1 0x40 MLOAD PUSH2 0x1E0D SWAP4 SWAP3 SWAP2 SWAP1 PUSH2 0x93E5 JUMP JUMPDEST PUSH1 0x40 MLOAD DUP1 SWAP2 SUB SWAP1 LOG2 POP POP POP POP JUMP JUMPDEST DUP6 PUSH1 0xA DUP2 PUSH1 0x40 MLOAD PUSH2 0x1E2C SWAP2 SWAP1 PUSH2 0x907B JUMP JUMPDEST SWAP1 DUP2 MSTORE PUSH1 0x40 MLOAD SWAP1 DUP2 SWAP1 SUB PUSH1 0x20 ADD SWAP1 KECCAK256 SLOAD PUSH1 0xFF AND PUSH2 0x1E5B JUMPI PUSH1 0x40 MLOAD PUSH3 0x461BCD PUSH1 0xE5 SHL DUP2 MSTORE PUSH1 0x4 ADD PUSH2 0x719 SWAP1 PUSH2 0x9097 JUMP JUMPDEST PUSH1 0x0 DUP7 MLOAD GT PUSH2 0x1EA2 JUMPI PUSH1 0x40 MLOAD PUSH3 0x461BCD PUSH1 0xE5 SHL DUP2 MSTORE PUSH1 0x20 PUSH1 0x4 DUP3 ADD MSTORE PUSH1 0x13 PUSH1 0x24 DUP3 ADD MSTORE PUSH19 0x456D707479206D65646963696E65206E616D65 PUSH1 0x68 SHL PUSH1 0x44 DUP3 ADD MSTORE PUSH1 0x64 ADD PUSH2 0x719 JUMP JUMPDEST PUSH1 0x0 DUP5 MLOAD GT PUSH2 0x1EE9 JUMPI PUSH1 0x40 MLOAD PUSH3 0x461BCD PUSH1 0xE5 SHL DUP2 MSTORE PUSH1 0x20 PUSH1 0x4 DUP3 ADD MSTORE PUSH1 0x13 PUSH1 0x24 DUP3 ADD MSTORE PUSH19 0x456D707479206D65646963696E652064617465 PUSH1 0x68 SHL PUSH1 0x44 DUP3 ADD MSTORE PUSH1 0x64 ADD PUSH2 0x719 JUMP JUMPDEST PUSH1 0x0 PUSH1 0x1 DUP9 PUSH1 0x40 MLOAD PUSH2 0x1EFB SWAP2 SWAP1 PUSH2 0x907B JUMP JUMPDEST SWAP1 DUP2 MSTORE PUSH1 0x40 MLOAD SWAP1 DUP2 SWAP1 SUB PUSH1 0x20 ADD SWAP1 KECCAK256 PUSH1 0xB ADD SLOAD PUSH1 0xFF AND PUSH1 0x3 DUP2 GT ISZERO PUSH2 0x1F22 JUMPI PUSH2 0x1F22 PUSH2 0x80D0 JUMP JUMPDEST EQ PUSH2 0x1F3F JUMPI PUSH1 0x40 MLOAD PUSH3 0x461BCD PUSH1 0xE5 SHL DUP2 MSTORE PUSH1 0x4 ADD PUSH2 0x719 SWAP1 PUSH2 0x90DB JUMP JUMPDEST PUSH1 0x40 MLOAD DUP1 PUSH1 0xE0 ADD PUSH1 0x40 MSTORE DUP1 DUP9 DUP2 MSTORE PUSH1 0x20 ADD DUP8 DUP2 MSTORE PUSH1 0x20 ADD DUP7 DUP2 MSTORE PUSH1 0x20 ADD DUP6 DUP2 MSTORE PUSH1 0x20 ADD DUP5 DUP2 MSTORE PUSH1 0x20 ADD DUP4 DUP2 MSTORE PUSH1 0x20 ADD TIMESTAMP DUP2 MSTORE POP PUSH1 0x3 DUP9 PUSH1 0x40 MLOAD PUSH2 0x1F82 SWAP2 SWAP1 PUSH2 0x907B JUMP JUMPDEST SWAP1 DUP2 MSTORE PUSH1 0x40 MLOAD SWAP1 DUP2 SWAP1 SUB PUSH1 0x20 ADD SWAP1 KECCAK256 DUP2 MLOAD DUP2 SWAP1 PUSH2 0x1F9F SWAP1 DUP3 PUSH2 0x919A JUMP JUMPDEST POP PUSH1 0x20 DUP3 ADD MLOAD PUSH1 0x1 DUP3 ADD SWAP1 PUSH2 0x1FB4 SWAP1 DUP3 PUSH2 0x919A JUMP JUMPDEST POP PUSH1 0x40 DUP3 ADD MLOAD PUSH1 0x2 DUP3 ADD SWAP1 PUSH2 0x1FC9 SWAP1 DUP3 PUSH2 0x919A JUMP JUMPDEST POP PUSH1 0x60 DUP3 ADD MLOAD PUSH1 0x3 DUP3 ADD SWAP1 PUSH2 0x1FDE SWAP1 DUP3 PUSH2 0x919A JUMP JUMPDEST POP PUSH1 0x80 DUP3 ADD MLOAD PUSH1 0x4 DUP3 ADD SWAP1 PUSH2 0x1FF3 SWAP1 DUP3 PUSH2 0x919A JUMP JUMPDEST POP PUSH1 0xA0 DUP3 ADD MLOAD PUSH1 0x5 DUP3 ADD SWAP1 PUSH2 0x2008 SWAP1 DUP3 PUSH2 0x919A JUMP JUMPDEST POP PUSH1 0xC0 SWAP2 SWAP1 SWAP2 ADD MLOAD PUSH1 0x6 SWAP1 SWAP2 ADD SSTORE PUSH1 0x40 MLOAD CALLER SWAP1 PUSH2 0x2026 SWAP1 DUP10 SWAP1 PUSH2 0x907B JUMP JUMPDEST PUSH1 0x40 MLOAD SWAP1 DUP2 SWAP1 SUB DUP2 KECCAK256 TIMESTAMP DUP3 MSTORE SWAP1 PUSH32 0xDABC2EFEADCB13E5EDC13C5CB7D4ABB2C8900FDC6835B9469AF6E409818A303D SWAP1 PUSH1 0x20 ADD PUSH2 0x927 JUMP JUMPDEST PUSH1 0x60 PUSH1 0x0 PUSH1 0x7 DUP4 PUSH1 0x40 MLOAD PUSH2 0x2071 SWAP2 SWAP1 PUSH2 0x907B JUMP JUMPDEST SWAP1 DUP2 MSTORE PUSH1 0x20 ADD PUSH1 0x40 MLOAD DUP1 SWAP2 SUB SWAP1 KECCAK256 DUP1 SLOAD DUP1 PUSH1 0x20 MUL PUSH1 0x20 ADD PUSH1 0x40 MLOAD SWAP1 DUP2 ADD PUSH1 0x40 MSTORE DUP1 SWAP3 SWAP2 SWAP1 DUP2 DUP2 MSTORE PUSH1 0x20 ADD PUSH1 0x0 SWAP1 JUMPDEST DUP3 DUP3 LT ISZERO PUSH2 0x214B JUMPI DUP4 DUP3 SWAP1 PUSH1 0x0 MSTORE PUSH1 0x20 PUSH1 0x0 KECCAK256 ADD DUP1 SLOAD PUSH2 0x20BE SWAP1 PUSH2 0x9105 JUMP JUMPDEST DUP1 PUSH1 0x1F ADD PUSH1 0x20 DUP1 SWAP2 DIV MUL PUSH1 0x20 ADD PUSH1 0x40 MLOAD SWAP1 DUP2 ADD PUSH1 0x40 MSTORE DUP1 SWAP3 SWAP2 SWAP1 DUP2 DUP2 MSTORE PUSH1 0x20 ADD DUP3 DUP1 SLOAD PUSH2 0x20EA SWAP1 PUSH2 0x9105 JUMP JUMPDEST DUP1 ISZERO PUSH2 0x2137 JUMPI DUP1 PUSH1 0x1F LT PUSH2 0x210C JUMPI PUSH2 0x100 DUP1 DUP4 SLOAD DIV MUL DUP4 MSTORE SWAP2 PUSH1 0x20 ADD SWAP2 PUSH2 0x2137 JUMP JUMPDEST DUP3 ADD SWAP2 SWAP1 PUSH1 0x0 MSTORE PUSH1 0x20 PUSH1 0x0 KECCAK256 SWAP1 JUMPDEST DUP2 SLOAD DUP2 MSTORE SWAP1 PUSH1 0x1 ADD SWAP1 PUSH1 0x20 ADD DUP1 DUP4 GT PUSH2 0x211A JUMPI DUP3 SWAP1 SUB PUSH1 0x1F AND DUP3 ADD SWAP2 JUMPDEST POP POP POP POP POP DUP2 MSTORE PUSH1 0x20 ADD SWAP1 PUSH1 0x1 ADD SWAP1 PUSH2 0x209F JUMP JUMPDEST POP POP POP POP SWAP1 POP PUSH1 0x0 DUP2 MLOAD GT PUSH2 0x2193 JUMPI PUSH1 0x40 MLOAD PUSH3 0x461BCD PUSH1 0xE5 SHL DUP2 MSTORE PUSH1 0x20 PUSH1 0x4 DUP3 ADD MSTORE PUSH1 0xE PUSH1 0x24 DUP3 ADD MSTORE PUSH14 0x155CD95C881B9BDD08199BDD5B99 PUSH1 0x92 SHL PUSH1 0x44 DUP3 ADD MSTORE PUSH1 0x64 ADD PUSH2 0x719 JUMP JUMPDEST PUSH1 0x0 DUP2 MLOAD PUSH1 0x1 PUSH1 0x1 PUSH1 0x40 SHL SUB DUP2 GT ISZERO PUSH2 0x21AE JUMPI PUSH2 0x21AE PUSH2 0x7D6F JUMP JUMPDEST PUSH1 0x40 MLOAD SWAP1 DUP1 DUP3 MSTORE DUP1 PUSH1 0x20 MUL PUSH1 0x20 ADD DUP3 ADD PUSH1 0x40 MSTORE DUP1 ISZERO PUSH2 0x21E7 JUMPI DUP2 PUSH1 0x20 ADD JUMPDEST PUSH2 0x21D4 PUSH2 0x7BCC JUMP JUMPDEST DUP2 MSTORE PUSH1 0x20 ADD SWAP1 PUSH1 0x1 SWAP1 SUB SWAP1 DUP2 PUSH2 0x21CC JUMPI SWAP1 POP JUMPDEST POP SWAP1 POP PUSH1 0x0 JUMPDEST DUP3 MLOAD DUP2 LT ISZERO PUSH2 0x27ED JUMPI PUSH1 0x0 DUP4 DUP3 DUP2 MLOAD DUP2 LT PUSH2 0x220A JUMPI PUSH2 0x220A PUSH2 0x9289 JUMP JUMPDEST PUSH1 0x20 MUL PUSH1 0x20 ADD ADD MLOAD PUSH1 0x40 MLOAD PUSH2 0x221F SWAP2 SWAP1 PUSH2 0x907B JUMP JUMPDEST SWAP1 DUP2 MSTORE PUSH1 0x20 ADD PUSH1 0x40 MLOAD DUP1 SWAP2 SUB SWAP1 KECCAK256 PUSH1 0x40 MLOAD DUP1 PUSH2 0x180 ADD PUSH1 0x40 MSTORE SWAP1 DUP2 PUSH1 0x0 DUP3 ADD DUP1 SLOAD PUSH2 0x2249 SWAP1 PUSH2 0x9105 JUMP JUMPDEST DUP1 PUSH1 0x1F ADD PUSH1 0x20 DUP1 SWAP2 DIV MUL PUSH1 0x20 ADD PUSH1 0x40 MLOAD SWAP1 DUP2 ADD PUSH1 0x40 MSTORE DUP1 SWAP3 SWAP2 SWAP1 DUP2 DUP2 MSTORE PUSH1 0x20 ADD DUP3 DUP1 SLOAD PUSH2 0x2275 SWAP1 PUSH2 0x9105 JUMP JUMPDEST DUP1 ISZERO PUSH2 0x22C2 JUMPI DUP1 PUSH1 0x1F LT PUSH2 0x2297 JUMPI PUSH2 0x100 DUP1 DUP4 SLOAD DIV MUL DUP4 MSTORE SWAP2 PUSH1 0x20 ADD SWAP2 PUSH2 0x22C2 JUMP JUMPDEST DUP3 ADD SWAP2 SWAP1 PUSH1 0x0 MSTORE PUSH1 0x20 PUSH1 0x0 KECCAK256 SWAP1 JUMPDEST DUP2 SLOAD DUP2 MSTORE SWAP1 PUSH1 0x1 ADD SWAP1 PUSH1 0x20 ADD DUP1 DUP4 GT PUSH2 0x22A5 JUMPI DUP3 SWAP1 SUB PUSH1 0x1F AND DUP3 ADD SWAP2 JUMPDEST POP POP POP POP POP DUP2 MSTORE PUSH1 0x20 ADD PUSH1 0x1 DUP3 ADD DUP1 SLOAD PUSH2 0x22DB SWAP1 PUSH2 0x9105 JUMP JUMPDEST DUP1 PUSH1 0x1F ADD PUSH1 0x20 DUP1 SWAP2 DIV MUL PUSH1 0x20 ADD PUSH1 0x40 MLOAD SWAP1 DUP2 ADD PUSH1 0x40 MSTORE DUP1 SWAP3 SWAP2 SWAP1 DUP2 DUP2 MSTORE PUSH1 0x20 ADD DUP3 DUP1 SLOAD PUSH2 0x2307 SWAP1 PUSH2 0x9105 JUMP JUMPDEST DUP1 ISZERO PUSH2 0x2354 JUMPI DUP1 PUSH1 0x1F LT PUSH2 0x2329 JUMPI PUSH2 0x100 DUP1 DUP4 SLOAD DIV MUL DUP4 MSTORE SWAP2 PUSH1 0x20 ADD SWAP2 PUSH2 0x2354 JUMP JUMPDEST DUP3 ADD SWAP2 SWAP1 PUSH1 0x0 MSTORE PUSH1 0x20 PUSH1 0x0 KECCAK256 SWAP1 JUMPDEST DUP2 SLOAD DUP2 MSTORE SWAP1 PUSH1 0x1 ADD SWAP1 PUSH1 0x20 ADD DUP1 DUP4 GT PUSH2 0x2337 JUMPI DUP3 SWAP1 SUB PUSH1 0x1F AND DUP3 ADD SWAP2 JUMPDEST POP POP POP POP POP DUP2 MSTORE PUSH1 0x20 ADD PUSH1 0x2 DUP3 ADD DUP1 SLOAD PUSH2 0x236D SWAP1 PUSH2 0x9105 JUMP JUMPDEST DUP1 PUSH1 0x1F ADD PUSH1 0x20 DUP1 SWAP2 DIV MUL PUSH1 0x20 ADD PUSH1 0x40 MLOAD SWAP1 DUP2 ADD PUSH1 0x40 MSTORE DUP1 SWAP3 SWAP2 SWAP1 DUP2 DUP2 MSTORE PUSH1 0x20 ADD DUP3 DUP1 SLOAD PUSH2 0x2399 SWAP1 PUSH2 0x9105 JUMP JUMPDEST DUP1 ISZERO PUSH2 0x23E6 JUMPI DUP1 PUSH1 0x1F LT PUSH2 0x23BB JUMPI PUSH2 0x100 DUP1 DUP4 SLOAD DIV MUL DUP4 MSTORE SWAP2 PUSH1 0x20 ADD SWAP2 PUSH2 0x23E6 JUMP JUMPDEST DUP3 ADD SWAP2 SWAP1 PUSH1 0x0 MSTORE PUSH1 0x20 PUSH1 0x0 KECCAK256 SWAP1 JUMPDEST DUP2 SLOAD DUP2 MSTORE SWAP1 PUSH1 0x1 ADD SWAP1 PUSH1 0x20 ADD DUP1 DUP4 GT PUSH2 0x23C9 JUMPI DUP3 SWAP1 SUB PUSH1 0x1F AND DUP3 ADD SWAP2 JUMPDEST POP POP POP POP POP DUP2 MSTORE PUSH1 0x20 ADD PUSH1 0x3 DUP3 ADD DUP1 SLOAD PUSH2 0x23FF SWAP1 PUSH2 0x9105 JUMP JUMPDEST DUP1 PUSH1 0x1F ADD PUSH1 0x20 DUP1 SWAP2 DIV MUL PUSH1 0x20 ADD PUSH1 0x40 MLOAD SWAP1 DUP2 ADD PUSH1 0x40 MSTORE DUP1 SWAP3 SWAP2 SWAP1 DUP2 DUP2 MSTORE PUSH1 0x20 ADD DUP3 DUP1 SLOAD PUSH2 0x242B SWAP1 PUSH2 0x9105 JUMP JUMPDEST DUP1 ISZERO PUSH2 0x2478 JUMPI DUP1 PUSH1 0x1F LT PUSH2 0x244D JUMPI PUSH2 0x100 DUP1 DUP4 SLOAD DIV MUL DUP4 MSTORE SWAP2 PUSH1 0x20 ADD SWAP2 PUSH2 0x2478 JUMP JUMPDEST DUP3 ADD SWAP2 SWAP1 PUSH1 0x0 MSTORE PUSH1 0x20 PUSH1 0x0 KECCAK256 SWAP1 JUMPDEST DUP2 SLOAD DUP2 MSTORE SWAP1 PUSH1 0x1 ADD SWAP1 PUSH1 0x20 ADD DUP1 DUP4 GT PUSH2 0x245B JUMPI DUP3 SWAP1 SUB PUSH1 0x1F AND DUP3 ADD SWAP2 JUMPDEST POP POP POP POP POP DUP2 MSTORE PUSH1 0x20 ADD PUSH1 0x4 DUP3 ADD DUP1 SLOAD PUSH2 0x2491 SWAP1 PUSH2 0x9105 JUMP JUMPDEST DUP1 PUSH1 0x1F ADD PUSH1 0x20 DUP1 SWAP2 DIV MUL PUSH1 0x20 ADD PUSH1 0x40 MLOAD SWAP1 DUP2 ADD PUSH1 0x40 MSTORE DUP1 SWAP3 SWAP2 SWAP1 DUP2 DUP2 MSTORE PUSH1 0x20 ADD DUP3 DUP1 SLOAD PUSH2 0x24BD SWAP1 PUSH2 0x9105 JUMP JUMPDEST DUP1 ISZERO PUSH2 0x250A JUMPI DUP1 PUSH1 0x1F LT PUSH2 0x24DF JUMPI PUSH2 0x100 DUP1 DUP4 SLOAD DIV MUL DUP4 MSTORE SWAP2 PUSH1 0x20 ADD SWAP2 PUSH2 0x250A JUMP JUMPDEST DUP3 ADD SWAP2 SWAP1 PUSH1 0x0 MSTORE PUSH1 0x20 PUSH1 0x0 KECCAK256 SWAP1 JUMPDEST DUP2 SLOAD DUP2 MSTORE SWAP1 PUSH1 0x1 ADD SWAP1 PUSH1 0x20 ADD DUP1 DUP4 GT PUSH2 0x24ED JUMPI DUP3 SWAP1 SUB PUSH1 0x1F AND DUP3 ADD SWAP2 JUMPDEST POP POP POP POP POP DUP2 MSTORE PUSH1 0x20 ADD PUSH1 0x5 DUP3 ADD DUP1 SLOAD PUSH2 0x2523 SWAP1 PUSH2 0x9105 JUMP JUMPDEST DUP1 PUSH1 0x1F ADD PUSH1 0x20 DUP1 SWAP2 DIV MUL PUSH1 0x20 ADD PUSH1 0x40 MLOAD SWAP1 DUP2 ADD PUSH1 0x40 MSTORE DUP1 SWAP3 SWAP2 SWAP1 DUP2 DUP2 MSTORE PUSH1 0x20 ADD DUP3 DUP1 SLOAD PUSH2 0x254F SWAP1 PUSH2 0x9105 JUMP JUMPDEST DUP1 ISZERO PUSH2 0x259C JUMPI DUP1 PUSH1 0x1F LT PUSH2 0x2571 JUMPI PUSH2 0x100 DUP1 DUP4 SLOAD DIV MUL DUP4 MSTORE SWAP2 PUSH1 0x20 ADD SWAP2 PUSH2 0x259C JUMP JUMPDEST DUP3 ADD SWAP2 SWAP1 PUSH1 0x0 MSTORE PUSH1 0x20 PUSH1 0x0 KECCAK256 SWAP1 JUMPDEST DUP2 SLOAD DUP2 MSTORE SWAP1 PUSH1 0x1 ADD SWAP1 PUSH1 0x20 ADD DUP1 DUP4 GT PUSH2 0x257F JUMPI DUP3 SWAP1 SUB PUSH1 0x1F AND DUP3 ADD SWAP2 JUMPDEST POP POP POP POP POP DUP2 MSTORE PUSH1 0x20 ADD PUSH1 0x6 DUP3 ADD DUP1 SLOAD PUSH2 0x25B5 SWAP1 PUSH2 0x9105 JUMP JUMPDEST DUP1 PUSH1 0x1F ADD PUSH1 0x20 DUP1 SWAP2 DIV MUL PUSH1 0x20 ADD PUSH1 0x40 MLOAD SWAP1 DUP2 ADD PUSH1 0x40 MSTORE DUP1 SWAP3 SWAP2 SWAP1 DUP2 DUP2 MSTORE PUSH1 0x20 ADD DUP3 DUP1 SLOAD PUSH2 0x25E1 SWAP1 PUSH2 0x9105 JUMP JUMPDEST DUP1 ISZERO PUSH2 0x262E JUMPI DUP1 PUSH1 0x1F LT PUSH2 0x2603 JUMPI PUSH2 0x100 DUP1 DUP4 SLOAD DIV MUL DUP4 MSTORE SWAP2 PUSH1 0x20 ADD SWAP2 PUSH2 0x262E JUMP JUMPDEST DUP3 ADD SWAP2 SWAP1 PUSH1 0x0 MSTORE PUSH1 0x20 PUSH1 0x0 KECCAK256 SWAP1 JUMPDEST DUP2 SLOAD DUP2 MSTORE SWAP1 PUSH1 0x1 ADD SWAP1 PUSH1 0x20 ADD DUP1 DUP4 GT PUSH2 0x2611 JUMPI DUP3 SWAP1 SUB PUSH1 0x1F AND DUP3 ADD SWAP2 JUMPDEST POP POP POP POP POP DUP2 MSTORE PUSH1 0x20 ADD PUSH1 0x7 DUP3 ADD DUP1 SLOAD PUSH2 0x2647 SWAP1 PUSH2 0x9105 JUMP JUMPDEST DUP1 PUSH1 0x1F ADD PUSH1 0x20 DUP1 SWAP2 DIV MUL PUSH1 0x20 ADD PUSH1 0x40 MLOAD SWAP1 DUP2 ADD PUSH1 0x40 MSTORE DUP1 SWAP3 SWAP2 SWAP1 DUP2 DUP2 MSTORE PUSH1 0x20 ADD DUP3 DUP1 SLOAD PUSH2 0x2673 SWAP1 PUSH2 0x9105 JUMP JUMPDEST DUP1 ISZERO PUSH2 0x26C0 JUMPI DUP1 PUSH1 0x1F LT PUSH2 0x2695 JUMPI PUSH2 0x100 DUP1 DUP4 SLOAD DIV MUL DUP4 MSTORE SWAP2 PUSH1 0x20 ADD SWAP2 PUSH2 0x26C0 JUMP JUMPDEST DUP3 ADD SWAP2 SWAP1 PUSH1 0x0 MSTORE PUSH1 0x20 PUSH1 0x0 KECCAK256 SWAP1 JUMPDEST DUP2 SLOAD DUP2 MSTORE SWAP1 PUSH1 0x1 ADD SWAP1 PUSH1 0x20 ADD DUP1 DUP4 GT PUSH2 0x26A3 JUMPI DUP3 SWAP1 SUB PUSH1 0x1F AND DUP3 ADD SWAP2 JUMPDEST POP POP POP POP POP DUP2 MSTORE PUSH1 0x20 ADD PUSH1 0x8 DUP3 ADD SLOAD DUP2 MSTORE PUSH1 0x20 ADD PUSH1 0x9 DUP3 ADD DUP1 SLOAD DUP1 PUSH1 0x20 MUL PUSH1 0x20 ADD PUSH1 0x40 MLOAD SWAP1 DUP2 ADD PUSH1 0x40 MSTORE DUP1 SWAP3 SWAP2 SWAP1 DUP2 DUP2 MSTORE PUSH1 0x20 ADD PUSH1 0x0 SWAP1 JUMPDEST DUP3 DUP3 LT ISZERO PUSH2 0x27A4 JUMPI DUP4 DUP3 SWAP1 PUSH1 0x0 MSTORE PUSH1 0x20 PUSH1 0x0 KECCAK256 ADD DUP1 SLOAD PUSH2 0x2717 SWAP1 PUSH2 0x9105 JUMP JUMPDEST DUP1 PUSH1 0x1F ADD PUSH1 0x20 DUP1 SWAP2 DIV MUL PUSH1 0x20 ADD PUSH1 0x40 MLOAD SWAP1 DUP2 ADD PUSH1 0x40 MSTORE DUP1 SWAP3 SWAP2 SWAP1 DUP2 DUP2 MSTORE PUSH1 0x20 ADD DUP3 DUP1 SLOAD PUSH2 0x2743 SWAP1 PUSH2 0x9105 JUMP JUMPDEST DUP1 ISZERO PUSH2 0x2790 JUMPI DUP1 PUSH1 0x1F LT PUSH2 0x2765 JUMPI PUSH2 0x100 DUP1 DUP4 SLOAD DIV MUL DUP4 MSTORE SWAP2 PUSH1 0x20 ADD SWAP2 PUSH2 0x2790 JUMP JUMPDEST DUP3 ADD SWAP2 SWAP1 PUSH1 0x0 MSTORE PUSH1 0x20 PUSH1 0x0 KECCAK256 SWAP1 JUMPDEST DUP2 SLOAD DUP2 MSTORE SWAP1 PUSH1 0x1 ADD SWAP1 PUSH1 0x20 ADD DUP1 DUP4 GT PUSH2 0x2773 JUMPI DUP3 SWAP1 SUB PUSH1 0x1F AND DUP3 ADD SWAP2 JUMPDEST POP POP POP POP POP DUP2 MSTORE PUSH1 0x20 ADD SWAP1 PUSH1 0x1 ADD SWAP1 PUSH2 0x26F8 JUMP JUMPDEST POP POP POP SWAP1 DUP3 MSTORE POP PUSH1 0xA DUP3 ADD SLOAD PUSH1 0x20 DUP3 ADD MSTORE PUSH1 0xB SWAP1 SWAP2 ADD SLOAD PUSH1 0xFF AND ISZERO ISZERO PUSH1 0x40 SWAP1 SWAP2 ADD MSTORE DUP3 MLOAD DUP4 SWAP1 DUP4 SWAP1 DUP2 LT PUSH2 0x27DA JUMPI PUSH2 0x27DA PUSH2 0x9289 JUMP JUMPDEST PUSH1 0x20 SWAP1 DUP2 MUL SWAP2 SWAP1 SWAP2 ADD ADD MSTORE PUSH1 0x1 ADD PUSH2 0x21ED JUMP JUMPDEST POP SWAP4 SWAP3 POP POP POP JUMP JUMPDEST PUSH2 0x27FD PUSH2 0x7BCC JUMP JUMPDEST DUP2 PUSH1 0x9 DUP2 PUSH1 0x40 MLOAD PUSH2 0x280E SWAP2 SWAP1 PUSH2 0x907B JUMP JUMPDEST SWAP1 DUP2 MSTORE PUSH1 0x40 MLOAD SWAP1 DUP2 SWAP1 SUB PUSH1 0x20 ADD SWAP1 KECCAK256 SLOAD PUSH1 0xFF AND PUSH2 0x283D JUMPI PUSH1 0x40 MLOAD PUSH3 0x461BCD PUSH1 0xE5 SHL DUP2 MSTORE PUSH1 0x4 ADD PUSH2 0x719 SWAP1 PUSH2 0x9252 JUMP JUMPDEST PUSH1 0x0 DUP4 PUSH1 0x40 MLOAD PUSH2 0x284D SWAP2 SWAP1 PUSH2 0x907B JUMP JUMPDEST SWAP1 DUP2 MSTORE PUSH1 0x20 ADD PUSH1 0x40 MLOAD DUP1 SWAP2 SUB SWAP1 KECCAK256 PUSH1 0x40 MLOAD DUP1 PUSH2 0x180 ADD PUSH1 0x40 MSTORE SWAP1 DUP2 PUSH1 0x0 DUP3 ADD DUP1 SLOAD PUSH2 0x2877 SWAP1 PUSH2 0x9105 JUMP JUMPDEST DUP1 PUSH1 0x1F ADD PUSH1 0x20 DUP1 SWAP2 DIV MUL PUSH1 0x20 ADD PUSH1 0x40 MLOAD SWAP1 DUP2 ADD PUSH1 0x40 MSTORE DUP1 SWAP3 SWAP2 SWAP1 DUP2 DUP2 MSTORE PUSH1 0x20 ADD DUP3 DUP1 SLOAD PUSH2 0x28A3 SWAP1 PUSH2 0x9105 JUMP JUMPDEST DUP1 ISZERO PUSH2 0x28F0 JUMPI DUP1 PUSH1 0x1F LT PUSH2 0x28C5 JUMPI PUSH2 0x100 DUP1 DUP4 SLOAD DIV MUL DUP4 MSTORE SWAP2 PUSH1 0x20 ADD SWAP2 PUSH2 0x28F0 JUMP JUMPDEST DUP3 ADD SWAP2 SWAP1 PUSH1 0x0 MSTORE PUSH1 0x20 PUSH1 0x0 KECCAK256 SWAP1 JUMPDEST DUP2 SLOAD DUP2 MSTORE SWAP1 PUSH1 0x1 ADD SWAP1 PUSH1 0x20 ADD DUP1 DUP4 GT PUSH2 0x28D3 JUMPI DUP3 SWAP1 SUB PUSH1 0x1F AND DUP3 ADD SWAP2 JUMPDEST POP POP POP POP POP DUP2 MSTORE PUSH1 0x20 ADD PUSH1 0x1 DUP3 ADD DUP1 SLOAD PUSH2 0x2909 SWAP1 PUSH2 0x9105 JUMP JUMPDEST DUP1 PUSH1 0x1F ADD PUSH1 0x20 DUP1 SWAP2 DIV MUL PUSH1 0x20 ADD PUSH1 0x40 MLOAD SWAP1 DUP2 ADD PUSH1 0x40 MSTORE DUP1 SWAP3 SWAP2 SWAP1 DUP2 DUP2 MSTORE PUSH1 0x20 ADD DUP3 DUP1 SLOAD PUSH2 0x2935 SWAP1 PUSH2 0x9105 JUMP JUMPDEST DUP1 ISZERO PUSH2 0x2982 JUMPI DUP1 PUSH1 0x1F LT PUSH2 0x2957 JUMPI PUSH2 0x100 DUP1 DUP4 SLOAD DIV MUL DUP4 MSTORE SWAP2 PUSH1 0x20 ADD SWAP2 PUSH2 0x2982 JUMP JUMPDEST DUP3 ADD SWAP2 SWAP1 PUSH1 0x0 MSTORE PUSH1 0x20 PUSH1 0x0 KECCAK256 SWAP1 JUMPDEST DUP2 SLOAD DUP2 MSTORE SWAP1 PUSH1 0x1 ADD SWAP1 PUSH1 0x20 ADD DUP1 DUP4 GT PUSH2 0x2965 JUMPI DUP3 SWAP1 SUB PUSH1 0x1F AND DUP3 ADD SWAP2 JUMPDEST POP POP POP POP POP DUP2 MSTORE PUSH1 0x20 ADD PUSH1 0x2 DUP3 ADD DUP1 SLOAD PUSH2 0x299B SWAP1 PUSH2 0x9105 JUMP JUMPDEST DUP1 PUSH1 0x1F ADD PUSH1 0x20 DUP1 SWAP2 DIV MUL PUSH1 0x20 ADD PUSH1 0x40 MLOAD SWAP1 DUP2 ADD PUSH1 0x40 MSTORE DUP1 SWAP3 SWAP2 SWAP1 DUP2 DUP2 MSTORE PUSH1 0x20 ADD DUP3 DUP1 SLOAD PUSH2 0x29C7 SWAP1 PUSH2 0x9105 JUMP JUMPDEST DUP1 ISZERO PUSH2 0x2A14 JUMPI DUP1 PUSH1 0x1F LT PUSH2 0x29E9 JUMPI PUSH2 0x100 DUP1 DUP4 SLOAD DIV MUL DUP4 MSTORE SWAP2 PUSH1 0x20 ADD SWAP2 PUSH2 0x2A14 JUMP JUMPDEST DUP3 ADD SWAP2 SWAP1 PUSH1 0x0 MSTORE PUSH1 0x20 PUSH1 0x0 KECCAK256 SWAP1 JUMPDEST DUP2 SLOAD DUP2 MSTORE SWAP1 PUSH1 0x1 ADD SWAP1 PUSH1 0x20 ADD DUP1 DUP4 GT PUSH2 0x29F7 JUMPI DUP3 SWAP1 SUB PUSH1 0x1F AND DUP3 ADD SWAP2 JUMPDEST POP POP POP POP POP DUP2 MSTORE PUSH1 0x20 ADD PUSH1 0x3 DUP3 ADD DUP1 SLOAD PUSH2 0x2A2D SWAP1 PUSH2 0x9105 JUMP JUMPDEST DUP1 PUSH1 0x1F ADD PUSH1 0x20 DUP1 SWAP2 DIV MUL PUSH1 0x20 ADD PUSH1 0x40 MLOAD SWAP1 DUP2 ADD PUSH1 0x40 MSTORE DUP1 SWAP3 SWAP2 SWAP1 DUP2 DUP2 MSTORE PUSH1 0x20 ADD DUP3 DUP1 SLOAD PUSH2 0x2A59 SWAP1 PUSH2 0x9105 JUMP JUMPDEST DUP1 ISZERO PUSH2 0x2AA6 JUMPI DUP1 PUSH1 0x1F LT PUSH2 0x2A7B JUMPI PUSH2 0x100 DUP1 DUP4 SLOAD DIV MUL DUP4 MSTORE SWAP2 PUSH1 0x20 ADD SWAP2 PUSH2 0x2AA6 JUMP JUMPDEST DUP3 ADD SWAP2 SWAP1 PUSH1 0x0 MSTORE PUSH1 0x20 PUSH1 0x0 KECCAK256 SWAP1 JUMPDEST DUP2 SLOAD DUP2 MSTORE SWAP1 PUSH1 0x1 ADD SWAP1 PUSH1 0x20 ADD DUP1 DUP4 GT PUSH2 0x2A89 JUMPI DUP3 SWAP1 SUB PUSH1 0x1F AND DUP3 ADD SWAP2 JUMPDEST POP POP POP POP POP DUP2 MSTORE PUSH1 0x20 ADD PUSH1 0x4 DUP3 ADD DUP1 SLOAD PUSH2 0x2ABF SWAP1 PUSH2 0x9105 JUMP JUMPDEST DUP1 PUSH1 0x1F ADD PUSH1 0x20 DUP1 SWAP2 DIV MUL PUSH1 0x20 ADD PUSH1 0x40 MLOAD SWAP1 DUP2 ADD PUSH1 0x40 MSTORE DUP1 SWAP3 SWAP2 SWAP1 DUP2 DUP2 MSTORE PUSH1 0x20 ADD DUP3 DUP1 SLOAD PUSH2 0x2AEB SWAP1 PUSH2 0x9105 JUMP JUMPDEST DUP1 ISZERO PUSH2 0x2B38 JUMPI DUP1 PUSH1 0x1F LT PUSH2 0x2B0D JUMPI PUSH2 0x100 DUP1 DUP4 SLOAD DIV MUL DUP4 MSTORE SWAP2 PUSH1 0x20 ADD SWAP2 PUSH2 0x2B38 JUMP JUMPDEST DUP3 ADD SWAP2 SWAP1 PUSH1 0x0 MSTORE PUSH1 0x20 PUSH1 0x0 KECCAK256 SWAP1 JUMPDEST DUP2 SLOAD DUP2 MSTORE SWAP1 PUSH1 0x1 ADD SWAP1 PUSH1 0x20 ADD DUP1 DUP4 GT PUSH2 0x2B1B JUMPI DUP3 SWAP1 SUB PUSH1 0x1F AND DUP3 ADD SWAP2 JUMPDEST POP POP POP POP POP DUP2 MSTORE PUSH1 0x20 ADD PUSH1 0x5 DUP3 ADD DUP1 SLOAD PUSH2 0x2B51 SWAP1 PUSH2 0x9105 JUMP JUMPDEST DUP1 PUSH1 0x1F ADD PUSH1 0x20 DUP1 SWAP2 DIV MUL PUSH1 0x20 ADD PUSH1 0x40 MLOAD SWAP1 DUP2 ADD PUSH1 0x40 MSTORE DUP1 SWAP3 SWAP2 SWAP1 DUP2 DUP2 MSTORE PUSH1 0x20 ADD DUP3 DUP1 SLOAD PUSH2 0x2B7D SWAP1 PUSH2 0x9105 JUMP JUMPDEST DUP1 ISZERO PUSH2 0x2BCA JUMPI DUP1 PUSH1 0x1F LT PUSH2 0x2B9F JUMPI PUSH2 0x100 DUP1 DUP4 SLOAD DIV MUL DUP4 MSTORE SWAP2 PUSH1 0x20 ADD SWAP2 PUSH2 0x2BCA JUMP JUMPDEST DUP3 ADD SWAP2 SWAP1 PUSH1 0x0 MSTORE PUSH1 0x20 PUSH1 0x0 KECCAK256 SWAP1 JUMPDEST DUP2 SLOAD DUP2 MSTORE SWAP1 PUSH1 0x1 ADD SWAP1 PUSH1 0x20 ADD DUP1 DUP4 GT PUSH2 0x2BAD JUMPI DUP3 SWAP1 SUB PUSH1 0x1F AND DUP3 ADD SWAP2 JUMPDEST POP POP POP POP POP DUP2 MSTORE PUSH1 0x20 ADD PUSH1 0x6 DUP3 ADD DUP1 SLOAD PUSH2 0x2BE3 SWAP1 PUSH2 0x9105 JUMP JUMPDEST DUP1 PUSH1 0x1F ADD PUSH1 0x20 DUP1 SWAP2 DIV MUL PUSH1 0x20 ADD PUSH1 0x40 MLOAD SWAP1 DUP2 ADD PUSH1 0x40 MSTORE DUP1 SWAP3 SWAP2 SWAP1 DUP2 DUP2 MSTORE PUSH1 0x20 ADD DUP3 DUP1 SLOAD PUSH2 0x2C0F SWAP1 PUSH2 0x9105 JUMP JUMPDEST DUP1 ISZERO PUSH2 0x2C5C JUMPI DUP1 PUSH1 0x1F LT PUSH2 0x2C31 JUMPI PUSH2 0x100 DUP1 DUP4 SLOAD DIV MUL DUP4 MSTORE SWAP2 PUSH1 0x20 ADD SWAP2 PUSH2 0x2C5C JUMP JUMPDEST DUP3 ADD SWAP2 SWAP1 PUSH1 0x0 MSTORE PUSH1 0x20 PUSH1 0x0 KECCAK256 SWAP1 JUMPDEST DUP2 SLOAD DUP2 MSTORE SWAP1 PUSH1 0x1 ADD SWAP1 PUSH1 0x20 ADD DUP1 DUP4 GT PUSH2 0x2C3F JUMPI DUP3 SWAP1 SUB PUSH1 0x1F AND DUP3 ADD SWAP2 JUMPDEST POP POP POP POP POP DUP2 MSTORE PUSH1 0x20 ADD PUSH1 0x7 DUP3 ADD DUP1 SLOAD PUSH2 0x2C75 SWAP1 PUSH2 0x9105 JUMP JUMPDEST DUP1 PUSH1 0x1F ADD PUSH1 0x20 DUP1 SWAP2 DIV MUL PUSH1 0x20 ADD PUSH1 0x40 MLOAD SWAP1 DUP2 ADD PUSH1 0x40 MSTORE DUP1 SWAP3 SWAP2 SWAP1 DUP2 DUP2 MSTORE PUSH1 0x20 ADD DUP3 DUP1 SLOAD PUSH2 0x2CA1 SWAP1 PUSH2 0x9105 JUMP JUMPDEST DUP1 ISZERO PUSH2 0x2CEE JUMPI DUP1 PUSH1 0x1F LT PUSH2 0x2CC3 JUMPI PUSH2 0x100 DUP1 DUP4 SLOAD DIV MUL DUP4 MSTORE SWAP2 PUSH1 0x20 ADD SWAP2 PUSH2 0x2CEE JUMP JUMPDEST DUP3 ADD SWAP2 SWAP1 PUSH1 0x0 MSTORE PUSH1 0x20 PUSH1 0x0 KECCAK256 SWAP1 JUMPDEST DUP2 SLOAD DUP2 MSTORE SWAP1 PUSH1 0x1 ADD SWAP1 PUSH1 0x20 ADD DUP1 DUP4 GT PUSH2 0x2CD1 JUMPI DUP3 SWAP1 SUB PUSH1 0x1F AND DUP3 ADD SWAP2 JUMPDEST POP POP POP POP POP DUP2 MSTORE PUSH1 0x20 ADD PUSH1 0x8 DUP3 ADD SLOAD DUP2 MSTORE PUSH1 0x20 ADD PUSH1 0x9 DUP3 ADD DUP1 SLOAD DUP1 PUSH1 0x20 MUL PUSH1 0x20 ADD PUSH1 0x40 MLOAD SWAP1 DUP2 ADD PUSH1 0x40 MSTORE DUP1 SWAP3 SWAP2 SWAP1 DUP2 DUP2 MSTORE PUSH1 0x20 ADD PUSH1 0x0 SWAP1 JUMPDEST DUP3 DUP3 LT ISZERO PUSH2 0x2DD2 JUMPI DUP4 DUP3 SWAP1 PUSH1 0x0 MSTORE PUSH1 0x20 PUSH1 0x0 KECCAK256 ADD DUP1 SLOAD PUSH2 0x2D45 SWAP1 PUSH2 0x9105 JUMP JUMPDEST DUP1 PUSH1 0x1F ADD PUSH1 0x20 DUP1 SWAP2 DIV MUL PUSH1 0x20 ADD PUSH1 0x40 MLOAD SWAP1 DUP2 ADD PUSH1 0x40 MSTORE DUP1 SWAP3 SWAP2 SWAP1 DUP2 DUP2 MSTORE PUSH1 0x20 ADD DUP3 DUP1 SLOAD PUSH2 0x2D71 SWAP1 PUSH2 0x9105 JUMP JUMPDEST DUP1 ISZERO PUSH2 0x2DBE JUMPI DUP1 PUSH1 0x1F LT PUSH2 0x2D93 JUMPI PUSH2 0x100 DUP1 DUP4 SLOAD DIV MUL DUP4 MSTORE SWAP2 PUSH1 0x20 ADD SWAP2 PUSH2 0x2DBE JUMP JUMPDEST DUP3 ADD SWAP2 SWAP1 PUSH1 0x0 MSTORE PUSH1 0x20 PUSH1 0x0 KECCAK256 SWAP1 JUMPDEST DUP2 SLOAD DUP2 MSTORE SWAP1 PUSH1 0x1 ADD SWAP1 PUSH1 0x20 ADD DUP1 DUP4 GT PUSH2 0x2DA1 JUMPI DUP3 SWAP1 SUB PUSH1 0x1F AND DUP3 ADD SWAP2 JUMPDEST POP POP POP POP POP DUP2 MSTORE PUSH1 0x20 ADD SWAP1 PUSH1 0x1 ADD SWAP1 PUSH2 0x2D26 JUMP JUMPDEST POP POP POP SWAP1 DUP3 MSTORE POP PUSH1 0xA DUP3 ADD SLOAD PUSH1 0x20 DUP3 ADD MSTORE PUSH1 0xB SWAP1 SWAP2 ADD SLOAD PUSH1 0xFF AND ISZERO ISZERO PUSH1 0x40 SWAP1 SWAP2 ADD MSTORE SWAP4 SWAP3 POP POP POP JUMP JUMPDEST PUSH1 0x13 SLOAD PUSH1 0x1 PUSH1 0x1 PUSH1 0xA0 SHL SUB AND CALLER EQ DUP1 PUSH2 0x2E1E JUMPI POP PUSH1 0x12 SLOAD PUSH1 0x1 PUSH1 0x1 PUSH1 0xA0 SHL SUB AND CALLER EQ JUMPDEST PUSH2 0x2E3A JUMPI PUSH1 0x40 MLOAD PUSH3 0x461BCD PUSH1 0xE5 SHL DUP2 MSTORE PUSH1 0x4 ADD PUSH2 0x719 SWAP1 PUSH2 0x940E JUMP JUMPDEST PUSH1 0x1 PUSH1 0x1 PUSH1 0xA0 SHL SUB DUP3 AND PUSH2 0x2E60 JUMPI PUSH1 0x40 MLOAD PUSH3 0x461BCD PUSH1 0xE5 SHL DUP2 MSTORE PUSH1 0x4 ADD PUSH2 0x719 SWAP1 PUSH2 0x944F JUMP JUMPDEST PUSH1 0x1 PUSH1 0x1 PUSH1 0xA0 SHL SUB SWAP2 SWAP1 SWAP2 AND PUSH1 0x0 SWAP1 DUP2 MSTORE PUSH1 0x16 PUSH1 0x20 MSTORE PUSH1 0x40 SWAP1 KECCAK256 DUP1 SLOAD PUSH1 0xFF NOT AND SWAP2 ISZERO ISZERO SWAP2 SWAP1 SWAP2 OR SWAP1 SSTORE JUMP JUMPDEST DUP6 PUSH1 0xA DUP2 PUSH1 0x40 MLOAD PUSH2 0x2E9C SWAP2 SWAP1 PUSH2 0x907B JUMP JUMPDEST SWAP1 DUP2 MSTORE PUSH1 0x40 MLOAD SWAP1 DUP2 SWAP1 SUB PUSH1 0x20 ADD SWAP1 KECCAK256 SLOAD PUSH1 0xFF AND PUSH2 0x2ECB JUMPI PUSH1 0x40 MLOAD PUSH3 0x461BCD PUSH1 0xE5 SHL DUP2 MSTORE PUSH1 0x4 ADD PUSH2 0x719 SWAP1 PUSH2 0x9097 JUMP JUMPDEST PUSH1 0x0 PUSH1 0x1 DUP9 PUSH1 0x40 MLOAD PUSH2 0x2EDD SWAP2 SWAP1 PUSH2 0x907B JUMP JUMPDEST SWAP1 DUP2 MSTORE PUSH1 0x40 MLOAD SWAP1 DUP2 SWAP1 SUB PUSH1 0x20 ADD SWAP1 KECCAK256 PUSH1 0xB ADD SLOAD PUSH1 0xFF AND PUSH1 0x3 DUP2 GT ISZERO PUSH2 0x2F04 JUMPI PUSH2 0x2F04 PUSH2 0x80D0 JUMP JUMPDEST EQ PUSH2 0x2F21 JUMPI PUSH1 0x40 MLOAD PUSH3 0x461BCD PUSH1 0xE5 SHL DUP2 MSTORE PUSH1 0x4 ADD PUSH2 0x719 SWAP1 PUSH2 0x90DB JUMP JUMPDEST PUSH1 0x0 PUSH1 0x6 DUP9 PUSH1 0x40 MLOAD PUSH2 0x2F33 SWAP2 SWAP1 PUSH2 0x907B JUMP JUMPDEST SWAP1 DUP2 MSTORE PUSH1 0x20 ADD PUSH1 0x40 MLOAD DUP1 SWAP2 SUB SWAP1 KECCAK256 SWAP1 POP PUSH1 0x0 DUP8 MLOAD GT ISZERO PUSH2 0x2F5D JUMPI PUSH1 0x1 DUP2 ADD PUSH2 0x2F5B DUP9 DUP3 PUSH2 0x919A JUMP JUMPDEST POP JUMPDEST DUP6 MLOAD ISZERO PUSH2 0x2F74 JUMPI PUSH1 0x2 DUP2 ADD PUSH2 0x2F72 DUP8 DUP3 PUSH2 0x919A JUMP JUMPDEST POP JUMPDEST DUP5 MLOAD ISZERO PUSH2 0x2F8B JUMPI PUSH1 0x3 DUP2 ADD PUSH2 0x2F89 DUP7 DUP3 PUSH2 0x919A JUMP JUMPDEST POP JUMPDEST DUP4 MLOAD ISZERO PUSH2 0x2FA2 JUMPI PUSH1 0x4 DUP2 ADD PUSH2 0x2FA0 DUP6 DUP3 PUSH2 0x919A JUMP JUMPDEST POP JUMPDEST DUP3 MLOAD ISZERO PUSH2 0x2FB9 JUMPI PUSH1 0x5 DUP2 ADD PUSH2 0x2FB7 DUP5 DUP3 PUSH2 0x919A JUMP JUMPDEST POP JUMPDEST PUSH1 0x40 MLOAD CALLER SWAP1 PUSH2 0x2FC9 SWAP1 DUP11 SWAP1 PUSH2 0x907B JUMP JUMPDEST PUSH1 0x40 MLOAD SWAP1 DUP2 SWAP1 SUB DUP2 KECCAK256 TIMESTAMP DUP3 MSTORE SWAP1 PUSH32 0x8EDFF5FB0001B970E714A5FF212FF0CC36277E68B7BCD1C2CCE936B03A8CEE4A SWAP1 PUSH1 0x20 ADD PUSH2 0x1C26 JUMP JUMPDEST PUSH1 0x60 PUSH1 0xC DUP3 PUSH1 0x40 MLOAD PUSH2 0x3012 SWAP2 SWAP1 PUSH2 0x907B JUMP JUMPDEST SWAP1 DUP2 MSTORE PUSH1 0x20 ADD PUSH1 0x40 MLOAD DUP1 SWAP2 SUB SWAP1 KECCAK256 DUP1 SLOAD DUP1 PUSH1 0x20 MUL PUSH1 0x20 ADD PUSH1 0x40 MLOAD SWAP1 DUP2 ADD PUSH1 0x40 MSTORE DUP1 SWAP3 SWAP2 SWAP1 DUP2 DUP2 MSTORE PUSH1 0x20 ADD PUSH1 0x0 SWAP1 JUMPDEST DUP3 DUP3 LT ISZERO PUSH2 0x30EC JUMPI DUP4 DUP3 SWAP1 PUSH1 0x0 MSTORE PUSH1 0x20 PUSH1 0x0 KECCAK256 ADD DUP1 SLOAD PUSH2 0x305F SWAP1 PUSH2 0x9105 JUMP JUMPDEST DUP1 PUSH1 0x1F ADD PUSH1 0x20 DUP1 SWAP2 DIV MUL PUSH1 0x20 ADD PUSH1 0x40 MLOAD SWAP1 DUP2 ADD PUSH1 0x40 MSTORE DUP1 SWAP3 SWAP2 SWAP1 DUP2 DUP2 MSTORE PUSH1 0x20 ADD DUP3 DUP1 SLOAD PUSH2 0x308B SWAP1 PUSH2 0x9105 JUMP JUMPDEST DUP1 ISZERO PUSH2 0x30D8 JUMPI DUP1 PUSH1 0x1F LT PUSH2 0x30AD JUMPI PUSH2 0x100 DUP1 DUP4 SLOAD DIV MUL DUP4 MSTORE SWAP2 PUSH1 0x20 ADD SWAP2 PUSH2 0x30D8 JUMP JUMPDEST DUP3 ADD SWAP2 SWAP1 PUSH1 0x0 MSTORE PUSH1 0x20 PUSH1 0x0 KECCAK256 SWAP1 JUMPDEST DUP2 SLOAD DUP2 MSTORE SWAP1 PUSH1 0x1 ADD SWAP1 PUSH1 0x20 ADD DUP1 DUP4 GT PUSH2 0x30BB JUMPI DUP3 SWAP1 SUB PUSH1 0x1F AND DUP3 ADD SWAP2 JUMPDEST POP POP POP POP POP DUP2 MSTORE PUSH1 0x20 ADD SWAP1 PUSH1 0x1 ADD SWAP1 PUSH2 0x3040 JUMP JUMPDEST POP POP POP POP SWAP1 POP SWAP2 SWAP1 POP JUMP JUMPDEST PUSH1 0x13 SLOAD PUSH1 0x1 PUSH1 0x1 PUSH1 0xA0 SHL SUB AND CALLER EQ DUP1 PUSH2 0x311A JUMPI POP PUSH1 0x12 SLOAD PUSH1 0x1 PUSH1 0x1 PUSH1 0xA0 SHL SUB AND CALLER EQ JUMPDEST PUSH2 0x3136 JUMPI PUSH1 0x40 MLOAD PUSH3 0x461BCD PUSH1 0xE5 SHL DUP2 MSTORE PUSH1 0x4 ADD PUSH2 0x719 SWAP1 PUSH2 0x940E JUMP JUMPDEST PUSH1 0x1 PUSH1 0x1 PUSH1 0xA0 SHL SUB DUP2 AND PUSH2 0x315C JUMPI PUSH1 0x40 MLOAD PUSH3 0x461BCD PUSH1 0xE5 SHL DUP2 MSTORE PUSH1 0x4 ADD PUSH2 0x719 SWAP1 PUSH2 0x944F JUMP JUMPDEST PUSH1 0x1 PUSH1 0x1 PUSH1 0xA0 SHL SUB DUP2 AND PUSH1 0x0 DUP2 DUP2 MSTORE PUSH1 0x15 PUSH1 0x20 MSTORE PUSH1 0x40 SWAP1 DUP2 SWAP1 KECCAK256 DUP1 SLOAD PUSH1 0xFF NOT AND SWAP1 SSTORE MLOAD CALLER SWAP2 SWAP1 PUSH32 0x8CEBB7EE3BE71749A084AC512B95C394EFB658B987C0D0A288B81E7490581CD3 SWAP1 PUSH2 0x31B1 SWAP1 TIMESTAMP DUP2 MSTORE PUSH1 0x20 ADD SWAP1 JUMP JUMPDEST PUSH1 0x40 MLOAD DUP1 SWAP2 SUB SWAP1 LOG3 POP JUMP JUMPDEST PUSH2 0x31C4 PUSH2 0x7C2F JUMP JUMPDEST DUP2 PUSH1 0xA DUP2 PUSH1 0x40 MLOAD PUSH2 0x31D5 SWAP2 SWAP1 PUSH2 0x907B JUMP JUMPDEST SWAP1 DUP2 MSTORE PUSH1 0x40 MLOAD SWAP1 DUP2 SWAP1 SUB PUSH1 0x20 ADD SWAP1 KECCAK256 SLOAD PUSH1 0xFF AND PUSH2 0x3204 JUMPI PUSH1 0x40 MLOAD PUSH3 0x461BCD PUSH1 0xE5 SHL DUP2 MSTORE PUSH1 0x4 ADD PUSH2 0x719 SWAP1 PUSH2 0x9097 JUMP JUMPDEST PUSH1 0x6 DUP4 PUSH1 0x40 MLOAD PUSH2 0x3214 SWAP2 SWAP1 PUSH2 0x907B JUMP JUMPDEST SWAP1 DUP2 MSTORE PUSH1 0x20 ADD PUSH1 0x40 MLOAD DUP1 SWAP2 SUB SWAP1 KECCAK256 PUSH1 0x40 MLOAD DUP1 PUSH1 0xE0 ADD PUSH1 0x40 MSTORE SWAP1 DUP2 PUSH1 0x0 DUP3 ADD DUP1 SLOAD PUSH2 0x323D SWAP1 PUSH2 0x9105 JUMP JUMPDEST DUP1 PUSH1 0x1F ADD PUSH1 0x20 DUP1 SWAP2 DIV MUL PUSH1 0x20 ADD PUSH1 0x40 MLOAD SWAP1 DUP2 ADD PUSH1 0x40 MSTORE DUP1 SWAP3 SWAP2 SWAP1 DUP2 DUP2 MSTORE PUSH1 0x20 ADD DUP3 DUP1 SLOAD PUSH2 0x3269 SWAP1 PUSH2 0x9105 JUMP JUMPDEST DUP1 ISZERO PUSH2 0x32B6 JUMPI DUP1 PUSH1 0x1F LT PUSH2 0x328B JUMPI PUSH2 0x100 DUP1 DUP4 SLOAD DIV MUL DUP4 MSTORE SWAP2 PUSH1 0x20 ADD SWAP2 PUSH2 0x32B6 JUMP JUMPDEST DUP3 ADD SWAP2 SWAP1 PUSH1 0x0 MSTORE PUSH1 0x20 PUSH1 0x0 KECCAK256 SWAP1 JUMPDEST DUP2 SLOAD DUP2 MSTORE SWAP1 PUSH1 0x1 ADD SWAP1 PUSH1 0x20 ADD DUP1 DUP4 GT PUSH2 0x3299 JUMPI DUP3 SWAP1 SUB PUSH1 0x1F AND DUP3 ADD SWAP2 JUMPDEST POP POP POP POP POP DUP2 MSTORE PUSH1 0x20 ADD PUSH1 0x1 DUP3 ADD DUP1 SLOAD PUSH2 0x32CF SWAP1 PUSH2 0x9105 JUMP JUMPDEST DUP1 PUSH1 0x1F ADD PUSH1 0x20 DUP1 SWAP2 DIV MUL PUSH1 0x20 ADD PUSH1 0x40 MLOAD SWAP1 DUP2 ADD PUSH1 0x40 MSTORE DUP1 SWAP3 SWAP2 SWAP1 DUP2 DUP2 MSTORE PUSH1 0x20 ADD DUP3 DUP1 SLOAD PUSH2 0x32FB SWAP1 PUSH2 0x9105 JUMP JUMPDEST DUP1 ISZERO PUSH2 0x3348 JUMPI DUP1 PUSH1 0x1F LT PUSH2 0x331D JUMPI PUSH2 0x100 DUP1 DUP4 SLOAD DIV MUL DUP4 MSTORE SWAP2 PUSH1 0x20 ADD SWAP2 PUSH2 0x3348 JUMP JUMPDEST DUP3 ADD SWAP2 SWAP1 PUSH1 0x0 MSTORE PUSH1 0x20 PUSH1 0x0 KECCAK256 SWAP1 JUMPDEST DUP2 SLOAD DUP2 MSTORE SWAP1 PUSH1 0x1 ADD SWAP1 PUSH1 0x20 ADD DUP1 DUP4 GT PUSH2 0x332B JUMPI DUP3 SWAP1 SUB PUSH1 0x1F AND DUP3 ADD SWAP2 JUMPDEST POP POP POP POP POP DUP2 MSTORE PUSH1 0x20 ADD PUSH1 0x2 DUP3 ADD DUP1 SLOAD PUSH2 0x3361 SWAP1 PUSH2 0x9105 JUMP JUMPDEST DUP1 PUSH1 0x1F ADD PUSH1 0x20 DUP1 SWAP2 DIV MUL PUSH1 0x20 ADD PUSH1 0x40 MLOAD SWAP1 DUP2 ADD PUSH1 0x40 MSTORE DUP1 SWAP3 SWAP2 SWAP1 DUP2 DUP2 MSTORE PUSH1 0x20 ADD DUP3 DUP1 SLOAD PUSH2 0x338D SWAP1 PUSH2 0x9105 JUMP JUMPDEST DUP1 ISZERO PUSH2 0x33DA JUMPI DUP1 PUSH1 0x1F LT PUSH2 0x33AF JUMPI PUSH2 0x100 DUP1 DUP4 SLOAD DIV MUL DUP4 MSTORE SWAP2 PUSH1 0x20 ADD SWAP2 PUSH2 0x33DA JUMP JUMPDEST DUP3 ADD SWAP2 SWAP1 PUSH1 0x0 MSTORE PUSH1 0x20 PUSH1 0x0 KECCAK256 SWAP1 JUMPDEST DUP2 SLOAD DUP2 MSTORE SWAP1 PUSH1 0x1 ADD SWAP1 PUSH1 0x20 ADD DUP1 DUP4 GT PUSH2 0x33BD JUMPI DUP3 SWAP1 SUB PUSH1 0x1F AND DUP3 ADD SWAP2 JUMPDEST POP POP POP POP POP DUP2 MSTORE PUSH1 0x20 ADD PUSH1 0x3 DUP3 ADD DUP1 SLOAD PUSH2 0x33F3 SWAP1 PUSH2 0x9105 JUMP JUMPDEST DUP1 PUSH1 0x1F ADD PUSH1 0x20 DUP1 SWAP2 DIV MUL PUSH1 0x20 ADD PUSH1 0x40 MLOAD SWAP1 DUP2 ADD PUSH1 0x40 MSTORE DUP1 SWAP3 SWAP2 SWAP1 DUP2 DUP2 MSTORE PUSH1 0x20 ADD DUP3 DUP1 SLOAD PUSH2 0x341F SWAP1 PUSH2 0x9105 JUMP JUMPDEST DUP1 ISZERO PUSH2 0x346C JUMPI DUP1 PUSH1 0x1F LT PUSH2 0x3441 JUMPI PUSH2 0x100 DUP1 DUP4 SLOAD DIV MUL DUP4 MSTORE SWAP2 PUSH1 0x20 ADD SWAP2 PUSH2 0x346C JUMP JUMPDEST DUP3 ADD SWAP2 SWAP1 PUSH1 0x0 MSTORE PUSH1 0x20 PUSH1 0x0 KECCAK256 SWAP1 JUMPDEST DUP2 SLOAD DUP2 MSTORE SWAP1 PUSH1 0x1 ADD SWAP1 PUSH1 0x20 ADD DUP1 DUP4 GT PUSH2 0x344F JUMPI DUP3 SWAP1 SUB PUSH1 0x1F AND DUP3 ADD SWAP2 JUMPDEST POP POP POP POP POP DUP2 MSTORE PUSH1 0x20 ADD PUSH1 0x4 DUP3 ADD DUP1 SLOAD PUSH2 0x3485 SWAP1 PUSH2 0x9105 JUMP JUMPDEST DUP1 PUSH1 0x1F ADD PUSH1 0x20 DUP1 SWAP2 DIV MUL PUSH1 0x20 ADD PUSH1 0x40 MLOAD SWAP1 DUP2 ADD PUSH1 0x40 MSTORE DUP1 SWAP3 SWAP2 SWAP1 DUP2 DUP2 MSTORE PUSH1 0x20 ADD DUP3 DUP1 SLOAD PUSH2 0x34B1 SWAP1 PUSH2 0x9105 JUMP JUMPDEST DUP1 ISZERO PUSH2 0x34FE JUMPI DUP1 PUSH1 0x1F LT PUSH2 0x34D3 JUMPI PUSH2 0x100 DUP1 DUP4 SLOAD DIV MUL DUP4 MSTORE SWAP2 PUSH1 0x20 ADD SWAP2 PUSH2 0x34FE JUMP JUMPDEST DUP3 ADD SWAP2 SWAP1 PUSH1 0x0 MSTORE PUSH1 0x20 PUSH1 0x0 KECCAK256 SWAP1 JUMPDEST DUP2 SLOAD DUP2 MSTORE SWAP1 PUSH1 0x1 ADD SWAP1 PUSH1 0x20 ADD DUP1 DUP4 GT PUSH2 0x34E1 JUMPI DUP3 SWAP1 SUB PUSH1 0x1F AND DUP3 ADD SWAP2 JUMPDEST POP POP POP POP POP DUP2 MSTORE PUSH1 0x20 ADD PUSH1 0x5 DUP3 ADD DUP1 SLOAD PUSH2 0x3517 SWAP1 PUSH2 0x9105 JUMP JUMPDEST DUP1 PUSH1 0x1F ADD PUSH1 0x20 DUP1 SWAP2 DIV MUL PUSH1 0x20 ADD PUSH1 0x40 MLOAD SWAP1 DUP2 ADD PUSH1 0x40 MSTORE DUP1 SWAP3 SWAP2 SWAP1 DUP2 DUP2 MSTORE PUSH1 0x20 ADD DUP3 DUP1 SLOAD PUSH2 0x3543 SWAP1 PUSH2 0x9105 JUMP JUMPDEST DUP1 ISZERO PUSH2 0x3590 JUMPI DUP1 PUSH1 0x1F LT PUSH2 0x3565 JUMPI PUSH2 0x100 DUP1 DUP4 SLOAD DIV MUL DUP4 MSTORE SWAP2 PUSH1 0x20 ADD SWAP2 PUSH2 0x3590 JUMP JUMPDEST DUP3 ADD SWAP2 SWAP1 PUSH1 0x0 MSTORE PUSH1 0x20 PUSH1 0x0 KECCAK256 SWAP1 JUMPDEST DUP2 SLOAD DUP2 MSTORE SWAP1 PUSH1 0x1 ADD SWAP1 PUSH1 0x20 ADD DUP1 DUP4 GT PUSH2 0x3573 JUMPI DUP3 SWAP1 SUB PUSH1 0x1F AND DUP3 ADD SWAP2 JUMPDEST POP POP POP POP POP DUP2 MSTORE PUSH1 0x20 ADD PUSH1 0x6 DUP3 ADD SLOAD DUP2 MSTORE POP POP SWAP2 POP POP SWAP2 SWAP1 POP JUMP JUMPDEST DUP7 PUSH1 0xA DUP2 PUSH1 0x40 MLOAD PUSH2 0x35BC SWAP2 SWAP1 PUSH2 0x907B JUMP JUMPDEST SWAP1 DUP2 MSTORE PUSH1 0x40 MLOAD SWAP1 DUP2 SWAP1 SUB PUSH1 0x20 ADD SWAP1 KECCAK256 SLOAD PUSH1 0xFF AND PUSH2 0x35EB JUMPI PUSH1 0x40 MLOAD PUSH3 0x461BCD PUSH1 0xE5 SHL DUP2 MSTORE PUSH1 0x4 ADD PUSH2 0x719 SWAP1 PUSH2 0x9097 JUMP JUMPDEST PUSH1 0x0 PUSH1 0x1 DUP10 PUSH1 0x40 MLOAD PUSH2 0x35FD SWAP2 SWAP1 PUSH2 0x907B JUMP JUMPDEST SWAP1 DUP2 MSTORE PUSH1 0x40 MLOAD SWAP1 DUP2 SWAP1 SUB PUSH1 0x20 ADD SWAP1 KECCAK256 PUSH1 0xB ADD SLOAD PUSH1 0xFF AND PUSH1 0x3 DUP2 GT ISZERO PUSH2 0x3624 JUMPI PUSH2 0x3624 PUSH2 0x80D0 JUMP JUMPDEST EQ PUSH2 0x3641 JUMPI PUSH1 0x40 MLOAD PUSH3 0x461BCD PUSH1 0xE5 SHL DUP2 MSTORE PUSH1 0x4 ADD PUSH2 0x719 SWAP1 PUSH2 0x90DB JUMP JUMPDEST PUSH1 0x0 PUSH1 0x4 DUP10 PUSH1 0x40 MLOAD PUSH2 0x3653 SWAP2 SWAP1 PUSH2 0x907B JUMP JUMPDEST SWAP1 DUP2 MSTORE PUSH1 0x20 ADD PUSH1 0x40 MLOAD DUP1 SWAP2 SUB SWAP1 KECCAK256 SWAP1 POP PUSH1 0x0 DUP9 MLOAD GT ISZERO PUSH2 0x367D JUMPI PUSH1 0x1 DUP2 ADD PUSH2 0x367B DUP10 DUP3 PUSH2 0x919A JUMP JUMPDEST POP JUMPDEST DUP7 MLOAD ISZERO PUSH2 0x3694 JUMPI PUSH1 0x2 DUP2 ADD PUSH2 0x3692 DUP9 DUP3 PUSH2 0x919A JUMP JUMPDEST POP JUMPDEST DUP6 MLOAD ISZERO PUSH2 0x36AB JUMPI PUSH1 0x3 DUP2 ADD PUSH2 0x36A9 DUP8 DUP3 PUSH2 0x919A JUMP JUMPDEST POP JUMPDEST DUP5 MLOAD ISZERO PUSH2 0x36C2 JUMPI PUSH1 0x4 DUP2 ADD PUSH2 0x36C0 DUP7 DUP3 PUSH2 0x919A JUMP JUMPDEST POP JUMPDEST DUP4 MLOAD ISZERO PUSH2 0x36D9 JUMPI PUSH1 0x5 DUP2 ADD PUSH2 0x36D7 DUP6 DUP3 PUSH2 0x919A JUMP JUMPDEST POP JUMPDEST DUP3 MLOAD ISZERO PUSH2 0x36F0 JUMPI PUSH1 0x6 DUP2 ADD PUSH2 0x36EE DUP5 DUP3 PUSH2 0x919A JUMP JUMPDEST POP JUMPDEST PUSH1 0x40 MLOAD CALLER SWAP1 PUSH2 0x3700 SWAP1 DUP12 SWAP1 PUSH2 0x907B JUMP JUMPDEST PUSH1 0x40 MLOAD SWAP1 DUP2 SWAP1 SUB DUP2 KECCAK256 TIMESTAMP DUP3 MSTORE SWAP1 PUSH32 0x305C732A44389B3CEE22630C751C352B9AE9F439C350C06EEFB41ABED4ADCC53 SWAP1 PUSH1 0x20 ADD JUMPDEST PUSH1 0x40 MLOAD DUP1 SWAP2 SUB SWAP1 LOG3 POP POP POP POP POP POP POP POP POP JUMP JUMPDEST PUSH1 0x13 SLOAD PUSH1 0x1 PUSH1 0x1 PUSH1 0xA0 SHL SUB AND CALLER EQ DUP1 PUSH2 0x3769 JUMPI POP PUSH1 0x12 SLOAD PUSH1 0x1 PUSH1 0x1 PUSH1 0xA0 SHL SUB AND CALLER EQ JUMPDEST PUSH2 0x3785 JUMPI PUSH1 0x40 MLOAD PUSH3 0x461BCD PUSH1 0xE5 SHL DUP2 MSTORE PUSH1 0x4 ADD PUSH2 0x719 SWAP1 PUSH2 0x940E JUMP JUMPDEST PUSH1 0x1 PUSH1 0x1 PUSH1 0xA0 SHL SUB DUP2 AND PUSH2 0x37AB JUMPI PUSH1 0x40 MLOAD PUSH3 0x461BCD PUSH1 0xE5 SHL DUP2 MSTORE PUSH1 0x4 ADD PUSH2 0x719 SWAP1 PUSH2 0x944F JUMP JUMPDEST PUSH1 0x1 PUSH1 0x1 PUSH1 0xA0 SHL SUB DUP2 AND PUSH1 0x0 DUP2 DUP2 MSTORE PUSH1 0x15 PUSH1 0x20 MSTORE PUSH1 0x40 SWAP1 DUP2 SWAP1 KECCAK256 DUP1 SLOAD PUSH1 0xFF NOT AND PUSH1 0x1 OR SWAP1 SSTORE MLOAD CALLER SWAP2 SWAP1 PUSH32 0xCF30C65174BFA0467D5E66FCCCC313FEFFBE8D52A2EACC0C9F3BBB6431FD8224 SWAP1 PUSH2 0x31B1 SWAP1 TIMESTAMP DUP2 MSTORE PUSH1 0x20 ADD SWAP1 JUMP JUMPDEST PUSH2 0x380B PUSH2 0x7B17 JUMP JUMPDEST DUP2 PUSH1 0xA DUP2 PUSH1 0x40 MLOAD PUSH2 0x381C SWAP2 SWAP1 PUSH2 0x907B JUMP JUMPDEST SWAP1 DUP2 MSTORE PUSH1 0x40 MLOAD SWAP1 DUP2 SWAP1 SUB PUSH1 0x20 ADD SWAP1 KECCAK256 SLOAD PUSH1 0xFF AND PUSH2 0x384B JUMPI PUSH1 0x40 MLOAD PUSH3 0x461BCD PUSH1 0xE5 SHL DUP2 MSTORE PUSH1 0x4 ADD PUSH2 0x719 SWAP1 PUSH2 0x9097 JUMP JUMPDEST PUSH1 0x1 DUP4 PUSH1 0x40 MLOAD PUSH2 0x385B SWAP2 SWAP1 PUSH2 0x907B JUMP JUMPDEST SWAP1 DUP2 MSTORE PUSH1 0x20 ADD PUSH1 0x40 MLOAD DUP1 SWAP2 SUB SWAP1 KECCAK256 PUSH1 0x40 MLOAD DUP1 PUSH2 0x1A0 ADD PUSH1 0x40 MSTORE SWAP1 DUP2 PUSH1 0x0 DUP3 ADD DUP1 SLOAD PUSH2 0x3885 SWAP1 PUSH2 0x9105 JUMP JUMPDEST DUP1 PUSH1 0x1F ADD PUSH1 0x20 DUP1 SWAP2 DIV MUL PUSH1 0x20 ADD PUSH1 0x40 MLOAD SWAP1 DUP2 ADD PUSH1 0x40 MSTORE DUP1 SWAP3 SWAP2 SWAP1 DUP2 DUP2 MSTORE PUSH1 0x20 ADD DUP3 DUP1 SLOAD PUSH2 0x38B1 SWAP1 PUSH2 0x9105 JUMP JUMPDEST DUP1 ISZERO PUSH2 0x38FE JUMPI DUP1 PUSH1 0x1F LT PUSH2 0x38D3 JUMPI PUSH2 0x100 DUP1 DUP4 SLOAD DIV MUL DUP4 MSTORE SWAP2 PUSH1 0x20 ADD SWAP2 PUSH2 0x38FE JUMP JUMPDEST DUP3 ADD SWAP2 SWAP1 PUSH1 0x0 MSTORE PUSH1 0x20 PUSH1 0x0 KECCAK256 SWAP1 JUMPDEST DUP2 SLOAD DUP2 MSTORE SWAP1 PUSH1 0x1 ADD SWAP1 PUSH1 0x20 ADD DUP1 DUP4 GT PUSH2 0x38E1 JUMPI DUP3 SWAP1 SUB PUSH1 0x1F AND DUP3 ADD SWAP2 JUMPDEST POP POP POP POP POP DUP2 MSTORE PUSH1 0x20 ADD PUSH1 0x1 DUP3 ADD DUP1 SLOAD PUSH2 0x3917 SWAP1 PUSH2 0x9105 JUMP JUMPDEST DUP1 PUSH1 0x1F ADD PUSH1 0x20 DUP1 SWAP2 DIV MUL PUSH1 0x20 ADD PUSH1 0x40 MLOAD SWAP1 DUP2 ADD PUSH1 0x40 MSTORE DUP1 SWAP3 SWAP2 SWAP1 DUP2 DUP2 MSTORE PUSH1 0x20 ADD DUP3 DUP1 SLOAD PUSH2 0x3943 SWAP1 PUSH2 0x9105 JUMP JUMPDEST DUP1 ISZERO PUSH2 0x3990 JUMPI DUP1 PUSH1 0x1F LT PUSH2 0x3965 JUMPI PUSH2 0x100 DUP1 DUP4 SLOAD DIV MUL DUP4 MSTORE SWAP2 PUSH1 0x20 ADD SWAP2 PUSH2 0x3990 JUMP JUMPDEST DUP3 ADD SWAP2 SWAP1 PUSH1 0x0 MSTORE PUSH1 0x20 PUSH1 0x0 KECCAK256 SWAP1 JUMPDEST DUP2 SLOAD DUP2 MSTORE SWAP1 PUSH1 0x1 ADD SWAP1 PUSH1 0x20 ADD DUP1 DUP4 GT PUSH2 0x3973 JUMPI DUP3 SWAP1 SUB PUSH1 0x1F AND DUP3 ADD SWAP2 JUMPDEST POP POP POP POP POP DUP2 MSTORE PUSH1 0x20 ADD PUSH1 0x2 DUP3 ADD DUP1 SLOAD PUSH2 0x39A9 SWAP1 PUSH2 0x9105 JUMP JUMPDEST DUP1 PUSH1 0x1F ADD PUSH1 0x20 DUP1 SWAP2 DIV MUL PUSH1 0x20 ADD PUSH1 0x40 MLOAD SWAP1 DUP2 ADD PUSH1 0x40 MSTORE DUP1 SWAP3 SWAP2 SWAP1 DUP2 DUP2 MSTORE PUSH1 0x20 ADD DUP3 DUP1 SLOAD PUSH2 0x39D5 SWAP1 PUSH2 0x9105 JUMP JUMPDEST DUP1 ISZERO PUSH2 0x3A22 JUMPI DUP1 PUSH1 0x1F LT PUSH2 0x39F7 JUMPI PUSH2 0x100 DUP1 DUP4 SLOAD DIV MUL DUP4 MSTORE SWAP2 PUSH1 0x20 ADD SWAP2 PUSH2 0x3A22 JUMP JUMPDEST DUP3 ADD SWAP2 SWAP1 PUSH1 0x0 MSTORE PUSH1 0x20 PUSH1 0x0 KECCAK256 SWAP1 JUMPDEST DUP2 SLOAD DUP2 MSTORE SWAP1 PUSH1 0x1 ADD SWAP1 PUSH1 0x20 ADD DUP1 DUP4 GT PUSH2 0x3A05 JUMPI DUP3 SWAP1 SUB PUSH1 0x1F AND DUP3 ADD SWAP2 JUMPDEST POP POP POP POP POP DUP2 MSTORE PUSH1 0x20 ADD PUSH1 0x3 DUP3 ADD DUP1 SLOAD PUSH2 0x3A3B SWAP1 PUSH2 0x9105 JUMP JUMPDEST DUP1 PUSH1 0x1F ADD PUSH1 0x20 DUP1 SWAP2 DIV MUL PUSH1 0x20 ADD PUSH1 0x40 MLOAD SWAP1 DUP2 ADD PUSH1 0x40 MSTORE DUP1 SWAP3 SWAP2 SWAP1 DUP2 DUP2 MSTORE PUSH1 0x20 ADD DUP3 DUP1 SLOAD PUSH2 0x3A67 SWAP1 PUSH2 0x9105 JUMP JUMPDEST DUP1 ISZERO PUSH2 0x3AB4 JUMPI DUP1 PUSH1 0x1F LT PUSH2 0x3A89 JUMPI PUSH2 0x100 DUP1 DUP4 SLOAD DIV MUL DUP4 MSTORE SWAP2 PUSH1 0x20 ADD SWAP2 PUSH2 0x3AB4 JUMP JUMPDEST DUP3 ADD SWAP2 SWAP1 PUSH1 0x0 MSTORE PUSH1 0x20 PUSH1 0x0 KECCAK256 SWAP1 JUMPDEST DUP2 SLOAD DUP2 MSTORE SWAP1 PUSH1 0x1 ADD SWAP1 PUSH1 0x20 ADD DUP1 DUP4 GT PUSH2 0x3A97 JUMPI DUP3 SWAP1 SUB PUSH1 0x1F AND DUP3 ADD SWAP2 JUMPDEST POP POP POP POP POP DUP2 MSTORE PUSH1 0x20 ADD PUSH1 0x4 DUP3 ADD DUP1 SLOAD PUSH2 0x3ACD SWAP1 PUSH2 0x9105 JUMP JUMPDEST DUP1 PUSH1 0x1F ADD PUSH1 0x20 DUP1 SWAP2 DIV MUL PUSH1 0x20 ADD PUSH1 0x40 MLOAD SWAP1 DUP2 ADD PUSH1 0x40 MSTORE DUP1 SWAP3 SWAP2 SWAP1 DUP2 DUP2 MSTORE PUSH1 0x20 ADD DUP3 DUP1 SLOAD PUSH2 0x3AF9 SWAP1 PUSH2 0x9105 JUMP JUMPDEST DUP1 ISZERO PUSH2 0x3B46 JUMPI DUP1 PUSH1 0x1F LT PUSH2 0x3B1B JUMPI PUSH2 0x100 DUP1 DUP4 SLOAD DIV MUL DUP4 MSTORE SWAP2 PUSH1 0x20 ADD SWAP2 PUSH2 0x3B46 JUMP JUMPDEST DUP3 ADD SWAP2 SWAP1 PUSH1 0x0 MSTORE PUSH1 0x20 PUSH1 0x0 KECCAK256 SWAP1 JUMPDEST DUP2 SLOAD DUP2 MSTORE SWAP1 PUSH1 0x1 ADD SWAP1 PUSH1 0x20 ADD DUP1 DUP4 GT PUSH2 0x3B29 JUMPI DUP3 SWAP1 SUB PUSH1 0x1F AND DUP3 ADD SWAP2 JUMPDEST POP POP POP POP POP DUP2 MSTORE PUSH1 0x20 ADD PUSH1 0x5 DUP3 ADD DUP1 SLOAD PUSH2 0x3B5F SWAP1 PUSH2 0x9105 JUMP JUMPDEST DUP1 PUSH1 0x1F ADD PUSH1 0x20 DUP1 SWAP2 DIV MUL PUSH1 0x20 ADD PUSH1 0x40 MLOAD SWAP1 DUP2 ADD PUSH1 0x40 MSTORE DUP1 SWAP3 SWAP2 SWAP1 DUP2 DUP2 MSTORE PUSH1 0x20 ADD DUP3 DUP1 SLOAD PUSH2 0x3B8B SWAP1 PUSH2 0x9105 JUMP JUMPDEST DUP1 ISZERO PUSH2 0x3BD8 JUMPI DUP1 PUSH1 0x1F LT PUSH2 0x3BAD JUMPI PUSH2 0x100 DUP1 DUP4 SLOAD DIV MUL DUP4 MSTORE SWAP2 PUSH1 0x20 ADD SWAP2 PUSH2 0x3BD8 JUMP JUMPDEST DUP3 ADD SWAP2 SWAP1 PUSH1 0x0 MSTORE PUSH1 0x20 PUSH1 0x0 KECCAK256 SWAP1 JUMPDEST DUP2 SLOAD DUP2 MSTORE SWAP1 PUSH1 0x1 ADD SWAP1 PUSH1 0x20 ADD DUP1 DUP4 GT PUSH2 0x3BBB JUMPI DUP3 SWAP1 SUB PUSH1 0x1F AND DUP3 ADD SWAP2 JUMPDEST POP POP POP POP POP DUP2 MSTORE PUSH1 0x20 ADD PUSH1 0x6 DUP3 ADD DUP1 SLOAD PUSH2 0x3BF1 SWAP1 PUSH2 0x9105 JUMP JUMPDEST DUP1 PUSH1 0x1F ADD PUSH1 0x20 DUP1 SWAP2 DIV MUL PUSH1 0x20 ADD PUSH1 0x40 MLOAD SWAP1 DUP2 ADD PUSH1 0x40 MSTORE DUP1 SWAP3 SWAP2 SWAP1 DUP2 DUP2 MSTORE PUSH1 0x20 ADD DUP3 DUP1 SLOAD PUSH2 0x3C1D SWAP1 PUSH2 0x9105 JUMP JUMPDEST DUP1 ISZERO PUSH2 0x3C6A JUMPI DUP1 PUSH1 0x1F LT PUSH2 0x3C3F JUMPI PUSH2 0x100 DUP1 DUP4 SLOAD DIV MUL DUP4 MSTORE SWAP2 PUSH1 0x20 ADD SWAP2 PUSH2 0x3C6A JUMP JUMPDEST DUP3 ADD SWAP2 SWAP1 PUSH1 0x0 MSTORE PUSH1 0x20 PUSH1 0x0 KECCAK256 SWAP1 JUMPDEST DUP2 SLOAD DUP2 MSTORE SWAP1 PUSH1 0x1 ADD SWAP1 PUSH1 0x20 ADD DUP1 DUP4 GT PUSH2 0x3C4D JUMPI DUP3 SWAP1 SUB PUSH1 0x1F AND DUP3 ADD SWAP2 JUMPDEST POP POP POP POP POP DUP2 MSTORE PUSH1 0x20 ADD PUSH1 0x7 DUP3 ADD DUP1 SLOAD PUSH2 0x3C83 SWAP1 PUSH2 0x9105 JUMP JUMPDEST DUP1 PUSH1 0x1F ADD PUSH1 0x20 DUP1 SWAP2 DIV MUL PUSH1 0x20 ADD PUSH1 0x40 MLOAD SWAP1 DUP2 ADD PUSH1 0x40 MSTORE DUP1 SWAP3 SWAP2 SWAP1 DUP2 DUP2 MSTORE PUSH1 0x20 ADD DUP3 DUP1 SLOAD PUSH2 0x3CAF SWAP1 PUSH2 0x9105 JUMP JUMPDEST DUP1 ISZERO PUSH2 0x3CFC JUMPI DUP1 PUSH1 0x1F LT PUSH2 0x3CD1 JUMPI PUSH2 0x100 DUP1 DUP4 SLOAD DIV MUL DUP4 MSTORE SWAP2 PUSH1 0x20 ADD SWAP2 PUSH2 0x3CFC JUMP JUMPDEST DUP3 ADD SWAP2 SWAP1 PUSH1 0x0 MSTORE PUSH1 0x20 PUSH1 0x0 KECCAK256 SWAP1 JUMPDEST DUP2 SLOAD DUP2 MSTORE SWAP1 PUSH1 0x1 ADD SWAP1 PUSH1 0x20 ADD DUP1 DUP4 GT PUSH2 0x3CDF JUMPI DUP3 SWAP1 SUB PUSH1 0x1F AND DUP3 ADD SWAP2 JUMPDEST POP POP POP POP POP DUP2 MSTORE PUSH1 0x20 ADD PUSH1 0x8 DUP3 ADD DUP1 SLOAD PUSH2 0x3D15 SWAP1 PUSH2 0x9105 JUMP JUMPDEST DUP1 PUSH1 0x1F ADD PUSH1 0x20 DUP1 SWAP2 DIV MUL PUSH1 0x20 ADD PUSH1 0x40 MLOAD SWAP1 DUP2 ADD PUSH1 0x40 MSTORE DUP1 SWAP3 SWAP2 SWAP1 DUP2 DUP2 MSTORE PUSH1 0x20 ADD DUP3 DUP1 SLOAD PUSH2 0x3D41 SWAP1 PUSH2 0x9105 JUMP JUMPDEST DUP1 ISZERO PUSH2 0x3D8E JUMPI DUP1 PUSH1 0x1F LT PUSH2 0x3D63 JUMPI PUSH2 0x100 DUP1 DUP4 SLOAD DIV MUL DUP4 MSTORE SWAP2 PUSH1 0x20 ADD SWAP2 PUSH2 0x3D8E JUMP JUMPDEST DUP3 ADD SWAP2 SWAP1 PUSH1 0x0 MSTORE PUSH1 0x20 PUSH1 0x0 KECCAK256 SWAP1 JUMPDEST DUP2 SLOAD DUP2 MSTORE SWAP1 PUSH1 0x1 ADD SWAP1 PUSH1 0x20 ADD DUP1 DUP4 GT PUSH2 0x3D71 JUMPI DUP3 SWAP1 SUB PUSH1 0x1F AND DUP3 ADD SWAP2 JUMPDEST POP POP POP POP POP DUP2 MSTORE PUSH1 0x20 ADD PUSH1 0x9 DUP3 ADD DUP1 SLOAD PUSH2 0x3DA7 SWAP1 PUSH2 0x9105 JUMP JUMPDEST DUP1 PUSH1 0x1F ADD PUSH1 0x20 DUP1 SWAP2 DIV MUL PUSH1 0x20 ADD PUSH1 0x40 MLOAD SWAP1 DUP2 ADD PUSH1 0x40 MSTORE DUP1 SWAP3 SWAP2 SWAP1 DUP2 DUP2 MSTORE PUSH1 0x20 ADD DUP3 DUP1 SLOAD PUSH2 0x3DD3 SWAP1 PUSH2 0x9105 JUMP JUMPDEST DUP1 ISZERO PUSH2 0x3E20 JUMPI DUP1 PUSH1 0x1F LT PUSH2 0x3DF5 JUMPI PUSH2 0x100 DUP1 DUP4 SLOAD DIV MUL DUP4 MSTORE SWAP2 PUSH1 0x20 ADD SWAP2 PUSH2 0x3E20 JUMP JUMPDEST DUP3 ADD SWAP2 SWAP1 PUSH1 0x0 MSTORE PUSH1 0x20 PUSH1 0x0 KECCAK256 SWAP1 JUMPDEST DUP2 SLOAD DUP2 MSTORE SWAP1 PUSH1 0x1 ADD SWAP1 PUSH1 0x20 ADD DUP1 DUP4 GT PUSH2 0x3E03 JUMPI DUP3 SWAP1 SUB PUSH1 0x1F AND DUP3 ADD SWAP2 JUMPDEST POP POP POP SWAP2 DUP4 MSTORE POP POP PUSH1 0xA DUP3 ADD SLOAD PUSH1 0x20 DUP3 ADD MSTORE PUSH1 0xB DUP3 ADD SLOAD PUSH1 0x40 SWAP1 SWAP2 ADD SWAP1 PUSH1 0xFF AND PUSH1 0x3 DUP2 GT ISZERO PUSH2 0x3E51 JUMPI PUSH2 0x3E51 PUSH2 0x80D0 JUMP JUMPDEST PUSH1 0x3 DUP2 GT ISZERO PUSH2 0x3E62 JUMPI PUSH2 0x3E62 PUSH2 0x80D0 JUMP JUMPDEST DUP2 MSTORE PUSH1 0x20 ADD PUSH1 0xB DUP3 ADD PUSH1 0x1 SWAP1 SLOAD SWAP1 PUSH2 0x100 EXP SWAP1 DIV PUSH1 0xFF AND PUSH1 0x4 DUP2 GT ISZERO PUSH2 0x3E8A JUMPI PUSH2 0x3E8A PUSH2 0x80D0 JUMP JUMPDEST PUSH1 0x4 DUP2 GT ISZERO PUSH2 0x3E9B JUMPI PUSH2 0x3E9B PUSH2 0x80D0 JUMP JUMPDEST SWAP1 MSTORE POP SWAP4 SWAP3 POP POP POP JUMP JUMPDEST PUSH1 0x60 DUP2 PUSH1 0x9 DUP2 PUSH1 0x40 MLOAD PUSH2 0x3EB8 SWAP2 SWAP1 PUSH2 0x907B JUMP JUMPDEST SWAP1 DUP2 MSTORE PUSH1 0x40 MLOAD SWAP1 DUP2 SWAP1 SUB PUSH1 0x20 ADD SWAP1 KECCAK256 SLOAD PUSH1 0xFF AND PUSH2 0x3EE7 JUMPI PUSH1 0x40 MLOAD PUSH3 0x461BCD PUSH1 0xE5 SHL DUP2 MSTORE PUSH1 0x4 ADD PUSH2 0x719 SWAP1 PUSH2 0x9252 JUMP JUMPDEST PUSH1 0x0 DUP4 PUSH1 0x40 MLOAD PUSH2 0x3EF7 SWAP2 SWAP1 PUSH2 0x907B JUMP JUMPDEST SWAP1 DUP2 MSTORE PUSH1 0x20 ADD PUSH1 0x40 MLOAD DUP1 SWAP2 SUB SWAP1 KECCAK256 PUSH1 0x9 ADD DUP1 SLOAD DUP1 PUSH1 0x20 MUL PUSH1 0x20 ADD PUSH1 0x40 MLOAD SWAP1 DUP2 ADD PUSH1 0x40 MSTORE DUP1 SWAP3 SWAP2 SWAP1 DUP2 DUP2 MSTORE PUSH1 0x20 ADD PUSH1 0x0 SWAP1 JUMPDEST DUP3 DUP3 LT ISZERO PUSH2 0x3FD4 JUMPI DUP4 DUP3 SWAP1 PUSH1 0x0 MSTORE PUSH1 0x20 PUSH1 0x0 KECCAK256 ADD DUP1 SLOAD PUSH2 0x3F47 SWAP1 PUSH2 0x9105 JUMP JUMPDEST DUP1 PUSH1 0x1F ADD PUSH1 0x20 DUP1 SWAP2 DIV MUL PUSH1 0x20 ADD PUSH1 0x40 MLOAD SWAP1 DUP2 ADD PUSH1 0x40 MSTORE DUP1 SWAP3 SWAP2 SWAP1 DUP2 DUP2 MSTORE PUSH1 0x20 ADD DUP3 DUP1 SLOAD PUSH2 0x3F73 SWAP1 PUSH2 0x9105 JUMP JUMPDEST DUP1 ISZERO PUSH2 0x3FC0 JUMPI DUP1 PUSH1 0x1F LT PUSH2 0x3F95 JUMPI PUSH2 0x100 DUP1 DUP4 SLOAD DIV MUL DUP4 MSTORE SWAP2 PUSH1 0x20 ADD SWAP2 PUSH2 0x3FC0 JUMP JUMPDEST DUP3 ADD SWAP2 SWAP1 PUSH1 0x0 MSTORE PUSH1 0x20 PUSH1 0x0 KECCAK256 SWAP1 JUMPDEST DUP2 SLOAD DUP2 MSTORE SWAP1 PUSH1 0x1 ADD SWAP1 PUSH1 0x20 ADD DUP1 DUP4 GT PUSH2 0x3FA3 JUMPI DUP3 SWAP1 SUB PUSH1 0x1F AND DUP3 ADD SWAP2 JUMPDEST POP POP POP POP POP DUP2 MSTORE PUSH1 0x20 ADD SWAP1 PUSH1 0x1 ADD SWAP1 PUSH2 0x3F28 JUMP JUMPDEST POP POP POP POP SWAP2 POP POP SWAP2 SWAP1 POP JUMP JUMPDEST PUSH2 0x3FE8 PUSH2 0x7C6C JUMP JUMPDEST DUP2 PUSH1 0xA DUP2 PUSH1 0x40 MLOAD PUSH2 0x3FF9 SWAP2 SWAP1 PUSH2 0x907B JUMP JUMPDEST SWAP1 DUP2 MSTORE PUSH1 0x40 MLOAD SWAP1 DUP2 SWAP1 SUB PUSH1 0x20 ADD SWAP1 KECCAK256 SLOAD PUSH1 0xFF AND PUSH2 0x4028 JUMPI PUSH1 0x40 MLOAD PUSH3 0x461BCD PUSH1 0xE5 SHL DUP2 MSTORE PUSH1 0x4 ADD PUSH2 0x719 SWAP1 PUSH2 0x9097 JUMP JUMPDEST PUSH1 0x4 DUP4 PUSH1 0x40 MLOAD PUSH2 0x4038 SWAP2 SWAP1 PUSH2 0x907B JUMP JUMPDEST SWAP1 DUP2 MSTORE PUSH1 0x20 ADD PUSH1 0x40 MLOAD DUP1 SWAP2 SUB SWAP1 KECCAK256 PUSH1 0x40 MLOAD DUP1 PUSH2 0x100 ADD PUSH1 0x40 MSTORE SWAP1 DUP2 PUSH1 0x0 DUP3 ADD DUP1 SLOAD PUSH2 0x4062 SWAP1 PUSH2 0x9105 JUMP JUMPDEST DUP1 PUSH1 0x1F ADD PUSH1 0x20 DUP1 SWAP2 DIV MUL PUSH1 0x20 ADD PUSH1 0x40 MLOAD SWAP1 DUP2 ADD PUSH1 0x40 MSTORE DUP1 SWAP3 SWAP2 SWAP1 DUP2 DUP2 MSTORE PUSH1 0x20 ADD DUP3 DUP1 SLOAD PUSH2 0x408E SWAP1 PUSH2 0x9105 JUMP JUMPDEST DUP1 ISZERO PUSH2 0x40DB JUMPI DUP1 PUSH1 0x1F LT PUSH2 0x40B0 JUMPI PUSH2 0x100 DUP1 DUP4 SLOAD DIV MUL DUP4 MSTORE SWAP2 PUSH1 0x20 ADD SWAP2 PUSH2 0x40DB JUMP JUMPDEST DUP3 ADD SWAP2 SWAP1 PUSH1 0x0 MSTORE PUSH1 0x20 PUSH1 0x0 KECCAK256 SWAP1 JUMPDEST DUP2 SLOAD DUP2 MSTORE SWAP1 PUSH1 0x1 ADD SWAP1 PUSH1 0x20 ADD DUP1 DUP4 GT PUSH2 0x40BE JUMPI DUP3 SWAP1 SUB PUSH1 0x1F AND DUP3 ADD SWAP2 JUMPDEST POP POP POP POP POP DUP2 MSTORE PUSH1 0x20 ADD PUSH1 0x1 DUP3 ADD DUP1 SLOAD PUSH2 0x40F4 SWAP1 PUSH2 0x9105 JUMP JUMPDEST DUP1 PUSH1 0x1F ADD PUSH1 0x20 DUP1 SWAP2 DIV MUL PUSH1 0x20 ADD PUSH1 0x40 MLOAD SWAP1 DUP2 ADD PUSH1 0x40 MSTORE DUP1 SWAP3 SWAP2 SWAP1 DUP2 DUP2 MSTORE PUSH1 0x20 ADD DUP3 DUP1 SLOAD PUSH2 0x4120 SWAP1 PUSH2 0x9105 JUMP JUMPDEST DUP1 ISZERO PUSH2 0x416D JUMPI DUP1 PUSH1 0x1F LT PUSH2 0x4142 JUMPI PUSH2 0x100 DUP1 DUP4 SLOAD DIV MUL DUP4 MSTORE SWAP2 PUSH1 0x20 ADD SWAP2 PUSH2 0x416D JUMP JUMPDEST DUP3 ADD SWAP2 SWAP1 PUSH1 0x0 MSTORE PUSH1 0x20 PUSH1 0x0 KECCAK256 SWAP1 JUMPDEST DUP2 SLOAD DUP2 MSTORE SWAP1 PUSH1 0x1 ADD SWAP1 PUSH1 0x20 ADD DUP1 DUP4 GT PUSH2 0x4150 JUMPI DUP3 SWAP1 SUB PUSH1 0x1F AND DUP3 ADD SWAP2 JUMPDEST POP POP POP POP POP DUP2 MSTORE PUSH1 0x20 ADD PUSH1 0x2 DUP3 ADD DUP1 SLOAD PUSH2 0x4186 SWAP1 PUSH2 0x9105 JUMP JUMPDEST DUP1 PUSH1 0x1F ADD PUSH1 0x20 DUP1 SWAP2 DIV MUL PUSH1 0x20 ADD PUSH1 0x40 MLOAD SWAP1 DUP2 ADD PUSH1 0x40 MSTORE DUP1 SWAP3 SWAP2 SWAP1 DUP2 DUP2 MSTORE PUSH1 0x20 ADD DUP3 DUP1 SLOAD PUSH2 0x41B2 SWAP1 PUSH2 0x9105 JUMP JUMPDEST DUP1 ISZERO PUSH2 0x41FF JUMPI DUP1 PUSH1 0x1F LT PUSH2 0x41D4 JUMPI PUSH2 0x100 DUP1 DUP4 SLOAD DIV MUL DUP4 MSTORE SWAP2 PUSH1 0x20 ADD SWAP2 PUSH2 0x41FF JUMP JUMPDEST DUP3 ADD SWAP2 SWAP1 PUSH1 0x0 MSTORE PUSH1 0x20 PUSH1 0x0 KECCAK256 SWAP1 JUMPDEST DUP2 SLOAD DUP2 MSTORE SWAP1 PUSH1 0x1 ADD SWAP1 PUSH1 0x20 ADD DUP1 DUP4 GT PUSH2 0x41E2 JUMPI DUP3 SWAP1 SUB PUSH1 0x1F AND DUP3 ADD SWAP2 JUMPDEST POP POP POP POP POP DUP2 MSTORE PUSH1 0x20 ADD PUSH1 0x3 DUP3 ADD DUP1 SLOAD PUSH2 0x4218 SWAP1 PUSH2 0x9105 JUMP JUMPDEST DUP1 PUSH1 0x1F ADD PUSH1 0x20 DUP1 SWAP2 DIV MUL PUSH1 0x20 ADD PUSH1 0x40 MLOAD SWAP1 DUP2 ADD PUSH1 0x40 MSTORE DUP1 SWAP3 SWAP2 SWAP1 DUP2 DUP2 MSTORE PUSH1 0x20 ADD DUP3 DUP1 SLOAD PUSH2 0x4244 SWAP1 PUSH2 0x9105 JUMP JUMPDEST DUP1 ISZERO PUSH2 0x4291 JUMPI DUP1 PUSH1 0x1F LT PUSH2 0x4266 JUMPI PUSH2 0x100 DUP1 DUP4 SLOAD DIV MUL DUP4 MSTORE SWAP2 PUSH1 0x20 ADD SWAP2 PUSH2 0x4291 JUMP JUMPDEST DUP3 ADD SWAP2 SWAP1 PUSH1 0x0 MSTORE PUSH1 0x20 PUSH1 0x0 KECCAK256 SWAP1 JUMPDEST DUP2 SLOAD DUP2 MSTORE SWAP1 PUSH1 0x1 ADD SWAP1 PUSH1 0x20 ADD DUP1 DUP4 GT PUSH2 0x4274 JUMPI DUP3 SWAP1 SUB PUSH1 0x1F AND DUP3 ADD SWAP2 JUMPDEST POP POP POP POP POP DUP2 MSTORE PUSH1 0x20 ADD PUSH1 0x4 DUP3 ADD DUP1 SLOAD PUSH2 0x42AA SWAP1 PUSH2 0x9105 JUMP JUMPDEST DUP1 PUSH1 0x1F ADD PUSH1 0x20 DUP1 SWAP2 DIV MUL PUSH1 0x20 ADD PUSH1 0x40 MLOAD SWAP1 DUP2 ADD PUSH1 0x40 MSTORE DUP1 SWAP3 SWAP2 SWAP1 DUP2 DUP2 MSTORE PUSH1 0x20 ADD DUP3 DUP1 SLOAD PUSH2 0x42D6 SWAP1 PUSH2 0x9105 JUMP JUMPDEST DUP1 ISZERO PUSH2 0x4323 JUMPI DUP1 PUSH1 0x1F LT PUSH2 0x42F8 JUMPI PUSH2 0x100 DUP1 DUP4 SLOAD DIV MUL DUP4 MSTORE SWAP2 PUSH1 0x20 ADD SWAP2 PUSH2 0x4323 JUMP JUMPDEST DUP3 ADD SWAP2 SWAP1 PUSH1 0x0 MSTORE PUSH1 0x20 PUSH1 0x0 KECCAK256 SWAP1 JUMPDEST DUP2 SLOAD DUP2 MSTORE SWAP1 PUSH1 0x1 ADD SWAP1 PUSH1 0x20 ADD DUP1 DUP4 GT PUSH2 0x4306 JUMPI DUP3 SWAP1 SUB PUSH1 0x1F AND DUP3 ADD SWAP2 JUMPDEST POP POP POP POP POP DUP2 MSTORE PUSH1 0x20 ADD PUSH1 0x5 DUP3 ADD DUP1 SLOAD PUSH2 0x433C SWAP1 PUSH2 0x9105 JUMP JUMPDEST DUP1 PUSH1 0x1F ADD PUSH1 0x20 DUP1 SWAP2 DIV MUL PUSH1 0x20 ADD PUSH1 0x40 MLOAD SWAP1 DUP2 ADD PUSH1 0x40 MSTORE DUP1 SWAP3 SWAP2 SWAP1 DUP2 DUP2 MSTORE PUSH1 0x20 ADD DUP3 DUP1 SLOAD PUSH2 0x4368 SWAP1 PUSH2 0x9105 JUMP JUMPDEST DUP1 ISZERO PUSH2 0x43B5 JUMPI DUP1 PUSH1 0x1F LT PUSH2 0x438A JUMPI PUSH2 0x100 DUP1 DUP4 SLOAD DIV MUL DUP4 MSTORE SWAP2 PUSH1 0x20 ADD SWAP2 PUSH2 0x43B5 JUMP JUMPDEST DUP3 ADD SWAP2 SWAP1 PUSH1 0x0 MSTORE PUSH1 0x20 PUSH1 0x0 KECCAK256 SWAP1 JUMPDEST DUP2 SLOAD DUP2 MSTORE SWAP1 PUSH1 0x1 ADD SWAP1 PUSH1 0x20 ADD DUP1 DUP4 GT PUSH2 0x4398 JUMPI DUP3 SWAP1 SUB PUSH1 0x1F AND DUP3 ADD SWAP2 JUMPDEST POP POP POP POP POP DUP2 MSTORE PUSH1 0x20 ADD PUSH1 0x6 DUP3 ADD DUP1 SLOAD PUSH2 0x43CE SWAP1 PUSH2 0x9105 JUMP JUMPDEST DUP1 PUSH1 0x1F ADD PUSH1 0x20 DUP1 SWAP2 DIV MUL PUSH1 0x20 ADD PUSH1 0x40 MLOAD SWAP1 DUP2 ADD PUSH1 0x40 MSTORE DUP1 SWAP3 SWAP2 SWAP1 DUP2 DUP2 MSTORE PUSH1 0x20 ADD DUP3 DUP1 SLOAD PUSH2 0x43FA SWAP1 PUSH2 0x9105 JUMP JUMPDEST DUP1 ISZERO PUSH2 0x4447 JUMPI DUP1 PUSH1 0x1F LT PUSH2 0x441C JUMPI PUSH2 0x100 DUP1 DUP4 SLOAD DIV MUL DUP4 MSTORE SWAP2 PUSH1 0x20 ADD SWAP2 PUSH2 0x4447 JUMP JUMPDEST DUP3 ADD SWAP2 SWAP1 PUSH1 0x0 MSTORE PUSH1 0x20 PUSH1 0x0 KECCAK256 SWAP1 JUMPDEST DUP2 SLOAD DUP2 MSTORE SWAP1 PUSH1 0x1 ADD SWAP1 PUSH1 0x20 ADD DUP1 DUP4 GT PUSH2 0x442A JUMPI DUP3 SWAP1 SUB PUSH1 0x1F AND DUP3 ADD SWAP2 JUMPDEST POP POP POP POP POP DUP2 MSTORE PUSH1 0x20 ADD PUSH1 0x7 DUP3 ADD SLOAD DUP2 MSTORE POP POP SWAP2 POP POP SWAP2 SWAP1 POP JUMP JUMPDEST DUP6 PUSH1 0x9 DUP2 PUSH1 0x40 MLOAD PUSH2 0x4473 SWAP2 SWAP1 PUSH2 0x907B JUMP JUMPDEST SWAP1 DUP2 MSTORE PUSH1 0x40 MLOAD SWAP1 DUP2 SWAP1 SUB PUSH1 0x20 ADD SWAP1 KECCAK256 SLOAD PUSH1 0xFF AND PUSH2 0x44A2 JUMPI PUSH1 0x40 MLOAD PUSH3 0x461BCD PUSH1 0xE5 SHL DUP2 MSTORE PUSH1 0x4 ADD PUSH2 0x719 SWAP1 PUSH2 0x9252 JUMP JUMPDEST DUP3 PUSH1 0x1 DUP2 LT ISZERO DUP1 ISZERO PUSH2 0x44B7 JUMPI POP PUSH3 0xF4240 DUP2 GT ISZERO JUMPDEST PUSH2 0x44D3 JUMPI PUSH1 0x40 MLOAD PUSH3 0x461BCD PUSH1 0xE5 SHL DUP2 MSTORE PUSH1 0x4 ADD PUSH2 0x719 SWAP1 PUSH2 0x9486 JUMP JUMPDEST PUSH1 0x0 DUP1 DUP10 PUSH1 0x40 MLOAD PUSH2 0x44E4 SWAP2 SWAP1 PUSH2 0x907B JUMP JUMPDEST SWAP1 DUP2 MSTORE PUSH1 0x40 MLOAD SWAP1 DUP2 SWAP1 SUB PUSH1 0x20 ADD SWAP1 KECCAK256 PUSH1 0xB DUP2 ADD SLOAD SWAP1 SWAP2 POP PUSH1 0xFF AND PUSH2 0x451A JUMPI PUSH1 0x40 MLOAD PUSH3 0x461BCD PUSH1 0xE5 SHL DUP2 MSTORE PUSH1 0x4 ADD PUSH2 0x719 SWAP1 PUSH2 0x929F JUMP JUMPDEST DUP8 MLOAD ISZERO PUSH2 0x4531 JUMPI PUSH1 0x2 DUP2 ADD PUSH2 0x452F DUP10 DUP3 PUSH2 0x919A JUMP JUMPDEST POP JUMPDEST DUP7 MLOAD ISZERO PUSH2 0x4548 JUMPI PUSH1 0x6 DUP2 ADD PUSH2 0x4546 DUP9 DUP3 PUSH2 0x919A JUMP JUMPDEST POP JUMPDEST DUP6 MLOAD ISZERO PUSH2 0x455F JUMPI PUSH1 0x7 DUP2 ADD PUSH2 0x455D DUP8 DUP3 PUSH2 0x919A JUMP JUMPDEST POP JUMPDEST DUP5 ISZERO PUSH2 0x456D JUMPI PUSH1 0x8 DUP2 ADD DUP6 SWAP1 SSTORE JUMPDEST DUP4 MLOAD ISZERO PUSH2 0x458B JUMPI DUP4 MLOAD PUSH2 0x4589 SWAP1 PUSH1 0x9 DUP4 ADD SWAP1 PUSH1 0x20 DUP8 ADD SWAP1 PUSH2 0x7CB1 JUMP JUMPDEST POP JUMPDEST PUSH1 0x40 MLOAD CALLER SWAP1 PUSH2 0x459B SWAP1 DUP12 SWAP1 PUSH2 0x907B JUMP JUMPDEST PUSH1 0x40 MLOAD SWAP1 DUP2 SWAP1 SUB DUP2 KECCAK256 TIMESTAMP DUP3 MSTORE SWAP1 PUSH32 0x7908F4A28DD6C5A9AEB08C489560BE79C59288098B557DF57513830B32461519 SWAP1 PUSH1 0x20 ADD PUSH2 0x3733 JUMP JUMPDEST PUSH2 0x45DA PUSH2 0x7C2F JUMP JUMPDEST DUP2 PUSH1 0xA DUP2 PUSH1 0x40 MLOAD PUSH2 0x45EB SWAP2 SWAP1 PUSH2 0x907B JUMP JUMPDEST SWAP1 DUP2 MSTORE PUSH1 0x40 MLOAD SWAP1 DUP2 SWAP1 SUB PUSH1 0x20 ADD SWAP1 KECCAK256 SLOAD PUSH1 0xFF AND PUSH2 0x461A JUMPI PUSH1 0x40 MLOAD PUSH3 0x461BCD PUSH1 0xE5 SHL DUP2 MSTORE PUSH1 0x4 ADD PUSH2 0x719 SWAP1 PUSH2 0x9097 JUMP JUMPDEST PUSH1 0x5 DUP4 PUSH1 0x40 MLOAD PUSH2 0x3214 SWAP2 SWAP1 PUSH2 0x907B JUMP JUMPDEST PUSH2 0x4632 PUSH2 0x7D07 JUMP JUMPDEST DUP2 PUSH1 0xA DUP2 PUSH1 0x40 MLOAD PUSH2 0x4643 SWAP2 SWAP1 PUSH2 0x907B JUMP JUMPDEST SWAP1 DUP2 MSTORE PUSH1 0x40 MLOAD SWAP1 DUP2 SWAP1 SUB PUSH1 0x20 ADD SWAP1 KECCAK256 SLOAD PUSH1 0xFF AND PUSH2 0x4672 JUMPI PUSH1 0x40 MLOAD PUSH3 0x461BCD PUSH1 0xE5 SHL DUP2 MSTORE PUSH1 0x4 ADD PUSH2 0x719 SWAP1 PUSH2 0x9097 JUMP JUMPDEST PUSH1 0x2 DUP4 PUSH1 0x40 MLOAD PUSH2 0x4682 SWAP2 SWAP1 PUSH2 0x907B JUMP JUMPDEST SWAP1 DUP2 MSTORE PUSH1 0x20 ADD PUSH1 0x40 MLOAD DUP1 SWAP2 SUB SWAP1 KECCAK256 PUSH1 0x40 MLOAD DUP1 PUSH1 0xC0 ADD PUSH1 0x40 MSTORE SWAP1 DUP2 PUSH1 0x0 DUP3 ADD DUP1 SLOAD PUSH2 0x46AB SWAP1 PUSH2 0x9105 JUMP JUMPDEST DUP1 PUSH1 0x1F ADD PUSH1 0x20 DUP1 SWAP2 DIV MUL PUSH1 0x20 ADD PUSH1 0x40 MLOAD SWAP1 DUP2 ADD PUSH1 0x40 MSTORE DUP1 SWAP3 SWAP2 SWAP1 DUP2 DUP2 MSTORE PUSH1 0x20 ADD DUP3 DUP1 SLOAD PUSH2 0x46D7 SWAP1 PUSH2 0x9105 JUMP JUMPDEST DUP1 ISZERO PUSH2 0x4724 JUMPI DUP1 PUSH1 0x1F LT PUSH2 0x46F9 JUMPI PUSH2 0x100 DUP1 DUP4 SLOAD DIV MUL DUP4 MSTORE SWAP2 PUSH1 0x20 ADD SWAP2 PUSH2 0x4724 JUMP JUMPDEST DUP3 ADD SWAP2 SWAP1 PUSH1 0x0 MSTORE PUSH1 0x20 PUSH1 0x0 KECCAK256 SWAP1 JUMPDEST DUP2 SLOAD DUP2 MSTORE SWAP1 PUSH1 0x1 ADD SWAP1 PUSH1 0x20 ADD DUP1 DUP4 GT PUSH2 0x4707 JUMPI DUP3 SWAP1 SUB PUSH1 0x1F AND DUP3 ADD SWAP2 JUMPDEST POP POP POP POP POP DUP2 MSTORE PUSH1 0x20 ADD PUSH1 0x1 DUP3 ADD DUP1 SLOAD PUSH2 0x473D SWAP1 PUSH2 0x9105 JUMP JUMPDEST DUP1 PUSH1 0x1F ADD PUSH1 0x20 DUP1 SWAP2 DIV MUL PUSH1 0x20 ADD PUSH1 0x40 MLOAD SWAP1 DUP2 ADD PUSH1 0x40 MSTORE DUP1 SWAP3 SWAP2 SWAP1 DUP2 DUP2 MSTORE PUSH1 0x20 ADD DUP3 DUP1 SLOAD PUSH2 0x4769 SWAP1 PUSH2 0x9105 JUMP JUMPDEST DUP1 ISZERO PUSH2 0x47B6 JUMPI DUP1 PUSH1 0x1F LT PUSH2 0x478B JUMPI PUSH2 0x100 DUP1 DUP4 SLOAD DIV MUL DUP4 MSTORE SWAP2 PUSH1 0x20 ADD SWAP2 PUSH2 0x47B6 JUMP JUMPDEST DUP3 ADD SWAP2 SWAP1 PUSH1 0x0 MSTORE PUSH1 0x20 PUSH1 0x0 KECCAK256 SWAP1 JUMPDEST DUP2 SLOAD DUP2 MSTORE SWAP1 PUSH1 0x1 ADD SWAP1 PUSH1 0x20 ADD DUP1 DUP4 GT PUSH2 0x4799 JUMPI DUP3 SWAP1 SUB PUSH1 0x1F AND DUP3 ADD SWAP2 JUMPDEST POP POP POP POP POP DUP2 MSTORE PUSH1 0x20 ADD PUSH1 0x2 DUP3 ADD DUP1 SLOAD PUSH2 0x47CF SWAP1 PUSH2 0x9105 JUMP JUMPDEST DUP1 PUSH1 0x1F ADD PUSH1 0x20 DUP1 SWAP2 DIV MUL PUSH1 0x20 ADD PUSH1 0x40 MLOAD SWAP1 DUP2 ADD PUSH1 0x40 MSTORE DUP1 SWAP3 SWAP2 SWAP1 DUP2 DUP2 MSTORE PUSH1 0x20 ADD DUP3 DUP1 SLOAD PUSH2 0x47FB SWAP1 PUSH2 0x9105 JUMP JUMPDEST DUP1 ISZERO PUSH2 0x4848 JUMPI DUP1 PUSH1 0x1F LT PUSH2 0x481D JUMPI PUSH2 0x100 DUP1 DUP4 SLOAD DIV MUL DUP4 MSTORE SWAP2 PUSH1 0x20 ADD SWAP2 PUSH2 0x4848 JUMP JUMPDEST DUP3 ADD SWAP2 SWAP1 PUSH1 0x0 MSTORE PUSH1 0x20 PUSH1 0x0 KECCAK256 SWAP1 JUMPDEST DUP2 SLOAD DUP2 MSTORE SWAP1 PUSH1 0x1 ADD SWAP1 PUSH1 0x20 ADD DUP1 DUP4 GT PUSH2 0x482B JUMPI DUP3 SWAP1 SUB PUSH1 0x1F AND DUP3 ADD SWAP2 JUMPDEST POP POP POP POP POP DUP2 MSTORE PUSH1 0x20 ADD PUSH1 0x3 DUP3 ADD DUP1 SLOAD PUSH2 0x4861 SWAP1 PUSH2 0x9105 JUMP JUMPDEST DUP1 PUSH1 0x1F ADD PUSH1 0x20 DUP1 SWAP2 DIV MUL PUSH1 0x20 ADD PUSH1 0x40 MLOAD SWAP1 DUP2 ADD PUSH1 0x40 MSTORE DUP1 SWAP3 SWAP2 SWAP1 DUP2 DUP2 MSTORE PUSH1 0x20 ADD DUP3 DUP1 SLOAD PUSH2 0x488D SWAP1 PUSH2 0x9105 JUMP JUMPDEST DUP1 ISZERO PUSH2 0x48DA JUMPI DUP1 PUSH1 0x1F LT PUSH2 0x48AF JUMPI PUSH2 0x100 DUP1 DUP4 SLOAD DIV MUL DUP4 MSTORE SWAP2 PUSH1 0x20 ADD SWAP2 PUSH2 0x48DA JUMP JUMPDEST DUP3 ADD SWAP2 SWAP1 PUSH1 0x0 MSTORE PUSH1 0x20 PUSH1 0x0 KECCAK256 SWAP1 JUMPDEST DUP2 SLOAD DUP2 MSTORE SWAP1 PUSH1 0x1 ADD SWAP1 PUSH1 0x20 ADD DUP1 DUP4 GT PUSH2 0x48BD JUMPI DUP3 SWAP1 SUB PUSH1 0x1F AND DUP3 ADD SWAP2 JUMPDEST POP POP POP POP POP DUP2 MSTORE PUSH1 0x20 ADD PUSH1 0x4 DUP3 ADD DUP1 SLOAD PUSH2 0x48F3 SWAP1 PUSH2 0x9105 JUMP JUMPDEST DUP1 PUSH1 0x1F ADD PUSH1 0x20 DUP1 SWAP2 DIV MUL PUSH1 0x20 ADD PUSH1 0x40 MLOAD SWAP1 DUP2 ADD PUSH1 0x40 MSTORE DUP1 SWAP3 SWAP2 SWAP1 DUP2 DUP2 MSTORE PUSH1 0x20 ADD DUP3 DUP1 SLOAD PUSH2 0x491F SWAP1 PUSH2 0x9105 JUMP JUMPDEST DUP1 ISZERO PUSH2 0x496C JUMPI DUP1 PUSH1 0x1F LT PUSH2 0x4941 JUMPI PUSH2 0x100 DUP1 DUP4 SLOAD DIV MUL DUP4 MSTORE SWAP2 PUSH1 0x20 ADD SWAP2 PUSH2 0x496C JUMP JUMPDEST DUP3 ADD SWAP2 SWAP1 PUSH1 0x0 MSTORE PUSH1 0x20 PUSH1 0x0 KECCAK256 SWAP1 JUMPDEST DUP2 SLOAD DUP2 MSTORE SWAP1 PUSH1 0x1 ADD SWAP1 PUSH1 0x20 ADD DUP1 DUP4 GT PUSH2 0x494F JUMPI DUP3 SWAP1 SUB PUSH1 0x1F AND DUP3 ADD SWAP2 JUMPDEST POP POP POP POP POP DUP2 MSTORE PUSH1 0x20 ADD PUSH1 0x5 DUP3 ADD SLOAD DUP2 MSTORE POP POP SWAP2 POP POP SWAP2 SWAP1 POP JUMP JUMPDEST PUSH1 0x0 DUP2 PUSH1 0x20 ADD MLOAD MLOAD GT PUSH2 0x49D0 JUMPI PUSH1 0x40 MLOAD PUSH3 0x461BCD PUSH1 0xE5 SHL DUP2 MSTORE PUSH1 0x20 PUSH1 0x4 DUP3 ADD MSTORE PUSH1 0x11 PUSH1 0x24 DUP3 ADD MSTORE PUSH17 0x456D7074792070726F64756374436F6465 PUSH1 0x78 SHL PUSH1 0x44 DUP3 ADD MSTORE PUSH1 0x64 ADD PUSH2 0x719 JUMP JUMPDEST PUSH1 0x0 DUP2 PUSH1 0x60 ADD MLOAD MLOAD GT PUSH2 0x4A12 JUMPI PUSH1 0x40 MLOAD PUSH3 0x461BCD PUSH1 0xE5 SHL DUP2 MSTORE PUSH1 0x20 PUSH1 0x4 DUP3 ADD MSTORE PUSH1 0xA PUSH1 0x24 DUP3 ADD MSTORE PUSH10 0x456D707479206E616D65 PUSH1 0xB0 SHL PUSH1 0x44 DUP3 ADD MSTORE PUSH1 0x64 ADD PUSH2 0x719 JUMP JUMPDEST PUSH1 0xA DUP2 PUSH1 0x20 ADD MLOAD PUSH1 0x40 MLOAD PUSH2 0x4A26 SWAP2 SWAP1 PUSH2 0x907B JUMP JUMPDEST SWAP1 DUP2 MSTORE PUSH1 0x40 MLOAD SWAP1 DUP2 SWAP1 SUB PUSH1 0x20 ADD SWAP1 KECCAK256 SLOAD PUSH1 0xFF AND ISZERO PUSH2 0x4A77 JUMPI PUSH1 0x40 MLOAD PUSH3 0x461BCD PUSH1 0xE5 SHL DUP2 MSTORE PUSH1 0x20 PUSH1 0x4 DUP3 ADD MSTORE PUSH1 0xE PUSH1 0x24 DUP3 ADD MSTORE PUSH14 0x50726F6475637420657869737473 PUSH1 0x90 SHL PUSH1 0x44 DUP3 ADD MSTORE PUSH1 0x64 ADD PUSH2 0x719 JUMP JUMPDEST DUP1 MLOAD PUSH1 0x40 MLOAD PUSH1 0x9 SWAP2 PUSH2 0x4A88 SWAP2 PUSH2 0x907B JUMP JUMPDEST SWAP1 DUP2 MSTORE PUSH1 0x40 MLOAD SWAP1 DUP2 SWAP1 SUB PUSH1 0x20 ADD SWAP1 KECCAK256 SLOAD PUSH1 0xFF AND PUSH2 0x4AD8 JUMPI PUSH1 0x40 MLOAD PUSH3 0x461BCD PUSH1 0xE5 SHL DUP2 MSTORE PUSH1 0x20 PUSH1 0x4 DUP3 ADD MSTORE PUSH1 0xE PUSH1 0x24 DUP3 ADD MSTORE PUSH14 0x11985C9B481B9BDD08199BDD5B99 PUSH1 0x92 SHL PUSH1 0x44 DUP3 ADD MSTORE PUSH1 0x64 ADD PUSH2 0x719 JUMP JUMPDEST DUP1 MLOAD PUSH1 0x40 MLOAD PUSH1 0x8 SWAP2 PUSH2 0x4AE9 SWAP2 PUSH2 0x907B JUMP JUMPDEST SWAP1 DUP2 MSTORE PUSH1 0x40 MLOAD PUSH1 0x20 SWAP2 DUP2 SWAP1 SUB DUP3 ADD SWAP1 KECCAK256 DUP3 DUP3 ADD MLOAD DUP2 SLOAD PUSH1 0x1 DUP2 ADD DUP4 SSTORE PUSH1 0x0 SWAP3 DUP4 MSTORE SWAP3 SWAP1 SWAP2 KECCAK256 SWAP1 SWAP2 ADD SWAP1 PUSH2 0x4B1C SWAP1 DUP3 PUSH2 0x919A JUMP JUMPDEST POP PUSH1 0x20 DUP2 ADD MLOAD PUSH1 0xE DUP1 SLOAD PUSH1 0x1 DUP2 ADD DUP3 SSTORE PUSH1 0x0 SWAP2 SWAP1 SWAP2 MSTORE PUSH32 0xBB7B4A454DC3493923482F07822329ED19E8244EFF582CC204F8554C3620C3FD ADD SWAP1 PUSH2 0x4B5F SWAP1 DUP3 PUSH2 0x919A JUMP JUMPDEST POP PUSH1 0x1 PUSH1 0xA DUP3 PUSH1 0x20 ADD MLOAD PUSH1 0x40 MLOAD PUSH2 0x4B76 SWAP2 SWAP1 PUSH2 0x907B JUMP JUMPDEST SWAP1 DUP2 MSTORE PUSH1 0x40 MLOAD SWAP1 DUP2 SWAP1 SUB PUSH1 0x20 ADD SWAP1 KECCAK256 DUP1 SLOAD SWAP2 ISZERO ISZERO PUSH1 0xFF NOT SWAP1 SWAP3 AND SWAP2 SWAP1 SWAP2 OR SWAP1 SSTORE PUSH1 0x11 DUP1 SLOAD SWAP1 PUSH1 0x0 PUSH2 0x4BA6 DUP4 PUSH2 0x94B8 JUMP JUMPDEST SWAP2 SWAP1 POP SSTORE POP PUSH1 0x40 MLOAD DUP1 PUSH2 0x1A0 ADD PUSH1 0x40 MSTORE DUP1 DUP3 PUSH1 0x0 ADD MLOAD DUP2 MSTORE PUSH1 0x20 ADD DUP3 PUSH1 0x20 ADD MLOAD DUP2 MSTORE PUSH1 0x20 ADD DUP3 PUSH1 0x40 ADD MLOAD DUP2 MSTORE PUSH1 0x20 ADD DUP3 PUSH1 0x60 ADD MLOAD DUP2 MSTORE PUSH1 0x20 ADD DUP3 PUSH1 0x80 ADD MLOAD DUP2 MSTORE PUSH1 0x20 ADD DUP3 PUSH1 0xA0 ADD MLOAD DUP2 MSTORE PUSH1 0x20 ADD DUP3 PUSH1 0xC0 ADD MLOAD DUP2 MSTORE PUSH1 0x20 ADD DUP3 PUSH1 0xE0 ADD MLOAD DUP2 MSTORE PUSH1 0x20 ADD DUP3 PUSH2 0x100 ADD MLOAD DUP2 MSTORE PUSH1 0x20 ADD DUP3 PUSH2 0x120 ADD MLOAD DUP2 MSTORE PUSH1 0x20 ADD TIMESTAMP DUP2 MSTORE PUSH1 0x20 ADD PUSH1 0x0 PUSH1 0x3 DUP2 GT ISZERO PUSH2 0x4C36 JUMPI PUSH2 0x4C36 PUSH2 0x80D0 JUMP JUMPDEST DUP2 MSTORE PUSH1 0x20 ADD DUP3 PUSH2 0x140 ADD MLOAD PUSH1 0x4 DUP2 GT ISZERO PUSH2 0x4C52 JUMPI PUSH2 0x4C52 PUSH2 0x80D0 JUMP JUMPDEST SWAP1 MSTORE PUSH1 0x20 DUP3 ADD MLOAD PUSH1 0x40 MLOAD PUSH1 0x1 SWAP2 PUSH2 0x4C68 SWAP2 PUSH2 0x907B JUMP JUMPDEST SWAP1 DUP2 MSTORE PUSH1 0x40 MLOAD SWAP1 DUP2 SWAP1 SUB PUSH1 0x20 ADD SWAP1 KECCAK256 DUP2 MLOAD DUP2 SWAP1 PUSH2 0x4C85 SWAP1 DUP3 PUSH2 0x919A JUMP JUMPDEST POP PUSH1 0x20 DUP3 ADD MLOAD PUSH1 0x1 DUP3 ADD SWAP1 PUSH2 0x4C9A SWAP1 DUP3 PUSH2 0x919A JUMP JUMPDEST POP PUSH1 0x40 DUP3 ADD MLOAD PUSH1 0x2 DUP3 ADD SWAP1 PUSH2 0x4CAF SWAP1 DUP3 PUSH2 0x919A JUMP JUMPDEST POP PUSH1 0x60 DUP3 ADD MLOAD PUSH1 0x3 DUP3 ADD SWAP1 PUSH2 0x4CC4 SWAP1 DUP3 PUSH2 0x919A JUMP JUMPDEST POP PUSH1 0x80 DUP3 ADD MLOAD PUSH1 0x4 DUP3 ADD SWAP1 PUSH2 0x4CD9 SWAP1 DUP3 PUSH2 0x919A JUMP JUMPDEST POP PUSH1 0xA0 DUP3 ADD MLOAD PUSH1 0x5 DUP3 ADD SWAP1 PUSH2 0x4CEE SWAP1 DUP3 PUSH2 0x919A JUMP JUMPDEST POP PUSH1 0xC0 DUP3 ADD MLOAD PUSH1 0x6 DUP3 ADD SWAP1 PUSH2 0x4D03 SWAP1 DUP3 PUSH2 0x919A JUMP JUMPDEST POP PUSH1 0xE0 DUP3 ADD MLOAD PUSH1 0x7 DUP3 ADD SWAP1 PUSH2 0x4D18 SWAP1 DUP3 PUSH2 0x919A JUMP JUMPDEST POP PUSH2 0x100 DUP3 ADD MLOAD PUSH1 0x8 DUP3 ADD SWAP1 PUSH2 0x4D2E SWAP1 DUP3 PUSH2 0x919A JUMP JUMPDEST POP PUSH2 0x120 DUP3 ADD MLOAD PUSH1 0x9 DUP3 ADD SWAP1 PUSH2 0x4D44 SWAP1 DUP3 PUSH2 0x919A JUMP JUMPDEST POP PUSH2 0x140 DUP3 ADD MLOAD PUSH1 0xA DUP3 ADD SSTORE PUSH2 0x160 DUP3 ADD MLOAD PUSH1 0xB DUP3 ADD DUP1 SLOAD PUSH1 0xFF NOT AND PUSH1 0x1 DUP4 PUSH1 0x3 DUP2 GT ISZERO PUSH2 0x4D74 JUMPI PUSH2 0x4D74 PUSH2 0x80D0 JUMP JUMPDEST MUL OR SWAP1 SSTORE POP PUSH2 0x180 DUP3 ADD MLOAD PUSH1 0xB DUP3 ADD DUP1 SLOAD PUSH2 0xFF00 NOT AND PUSH2 0x100 DUP4 PUSH1 0x4 DUP2 GT ISZERO PUSH2 0x4D9F JUMPI PUSH2 0x4D9F PUSH2 0x80D0 JUMP JUMPDEST MUL OR SWAP1 SSTORE POP SWAP1 POP POP DUP1 PUSH1 0x40 ADD MLOAD PUSH1 0x40 MLOAD PUSH2 0x4DB9 SWAP2 SWAP1 PUSH2 0x907B JUMP JUMPDEST PUSH1 0x40 MLOAD DUP1 SWAP2 SUB SWAP1 KECCAK256 DUP2 PUSH1 0x20 ADD MLOAD PUSH1 0x40 MLOAD PUSH2 0x4DD3 SWAP2 SWAP1 PUSH2 0x907B JUMP JUMPDEST PUSH1 0x40 MLOAD SWAP1 DUP2 SWAP1 SUB DUP2 KECCAK256 DUP4 MLOAD SWAP1 SWAP2 PUSH2 0x4DEA SWAP2 SWAP1 PUSH2 0x907B JUMP JUMPDEST PUSH1 0x40 MLOAD DUP1 SWAP2 SUB SWAP1 KECCAK256 PUSH32 0x5A5521C478D56E992F7DE0CE91468BE033673A45127AF6E98E5D3F54F495CC69 PUSH1 0x0 TIMESTAMP PUSH1 0x40 MLOAD PUSH2 0x4E24 SWAP3 SWAP2 SWAP1 PUSH2 0x94D1 JUMP JUMPDEST PUSH1 0x40 MLOAD DUP1 SWAP2 SUB SWAP1 LOG4 POP JUMP JUMPDEST DUP6 PUSH1 0xA DUP2 PUSH1 0x40 MLOAD PUSH2 0x4E40 SWAP2 SWAP1 PUSH2 0x907B JUMP JUMPDEST SWAP1 DUP2 MSTORE PUSH1 0x40 MLOAD SWAP1 DUP2 SWAP1 SUB PUSH1 0x20 ADD SWAP1 KECCAK256 SLOAD PUSH1 0xFF AND PUSH2 0x4E6F JUMPI PUSH1 0x40 MLOAD PUSH3 0x461BCD PUSH1 0xE5 SHL DUP2 MSTORE PUSH1 0x4 ADD PUSH2 0x719 SWAP1 PUSH2 0x9097 JUMP JUMPDEST PUSH1 0x0 DUP7 MLOAD GT PUSH2 0x4EB5 JUMPI PUSH1 0x40 MLOAD PUSH3 0x461BCD PUSH1 0xE5 SHL DUP2 MSTORE PUSH1 0x20 PUSH1 0x4 DUP3 ADD MSTORE PUSH1 0x12 PUSH1 0x24 DUP3 ADD MSTORE PUSH18 0x456D70747920686172766573742064617465 PUSH1 0x70 SHL PUSH1 0x44 DUP3 ADD MSTORE PUSH1 0x64 ADD PUSH2 0x719 JUMP JUMPDEST PUSH1 0x0 PUSH1 0x1 DUP9 PUSH1 0x40 MLOAD PUSH2 0x4EC7 SWAP2 SWAP1 PUSH2 0x907B JUMP JUMPDEST SWAP1 DUP2 MSTORE PUSH1 0x40 MLOAD SWAP1 DUP2 SWAP1 SUB PUSH1 0x20 ADD SWAP1 KECCAK256 PUSH1 0xB ADD SLOAD PUSH1 0xFF AND PUSH1 0x3 DUP2 GT ISZERO PUSH2 0x4EEE JUMPI PUSH2 0x4EEE PUSH2 0x80D0 JUMP JUMPDEST EQ PUSH2 0x4F0B JUMPI PUSH1 0x40 MLOAD PUSH3 0x461BCD PUSH1 0xE5 SHL DUP2 MSTORE PUSH1 0x4 ADD PUSH2 0x719 SWAP1 PUSH2 0x90DB JUMP JUMPDEST PUSH1 0x40 MLOAD DUP1 PUSH1 0xE0 ADD PUSH1 0x40 MSTORE DUP1 DUP9 DUP2 MSTORE PUSH1 0x20 ADD DUP8 DUP2 MSTORE PUSH1 0x20 ADD DUP7 DUP2 MSTORE PUSH1 0x20 ADD DUP6 DUP2 MSTORE PUSH1 0x20 ADD DUP5 DUP2 MSTORE PUSH1 0x20 ADD DUP4 DUP2 MSTORE PUSH1 0x20 ADD TIMESTAMP DUP2 MSTORE POP PUSH1 0x5 DUP9 PUSH1 0x40 MLOAD PUSH2 0x4F4E SWAP2 SWAP1 PUSH2 0x907B JUMP JUMPDEST SWAP1 DUP2 MSTORE PUSH1 0x40 MLOAD SWAP1 DUP2 SWAP1 SUB PUSH1 0x20 ADD SWAP1 KECCAK256 DUP2 MLOAD DUP2 SWAP1 PUSH2 0x4F6B SWAP1 DUP3 PUSH2 0x919A JUMP JUMPDEST POP PUSH1 0x20 DUP3 ADD MLOAD PUSH1 0x1 DUP3 ADD SWAP1 PUSH2 0x4F80 SWAP1 DUP3 PUSH2 0x919A JUMP JUMPDEST POP PUSH1 0x40 DUP3 ADD MLOAD PUSH1 0x2 DUP3 ADD SWAP1 PUSH2 0x4F95 SWAP1 DUP3 PUSH2 0x919A JUMP JUMPDEST POP PUSH1 0x60 DUP3 ADD MLOAD PUSH1 0x3 DUP3 ADD SWAP1 PUSH2 0x4FAA SWAP1 DUP3 PUSH2 0x919A JUMP JUMPDEST POP PUSH1 0x80 DUP3 ADD MLOAD PUSH1 0x4 DUP3 ADD SWAP1 PUSH2 0x4FBF SWAP1 DUP3 PUSH2 0x919A JUMP JUMPDEST POP PUSH1 0xA0 DUP3 ADD MLOAD PUSH1 0x5 DUP3 ADD SWAP1 PUSH2 0x4FD4 SWAP1 DUP3 PUSH2 0x919A JUMP JUMPDEST POP PUSH1 0xC0 SWAP2 SWAP1 SWAP2 ADD MLOAD PUSH1 0x6 SWAP1 SWAP2 ADD SSTORE PUSH1 0x40 MLOAD CALLER SWAP1 PUSH2 0x4FF2 SWAP1 DUP10 SWAP1 PUSH2 0x907B JUMP JUMPDEST PUSH1 0x40 MLOAD SWAP1 DUP2 SWAP1 SUB DUP2 KECCAK256 TIMESTAMP DUP3 MSTORE SWAP1 PUSH32 0xB7ACEF2065AD5C1AAD123C6C17DCE6A2A935464B3892D793D527E2C8BED4BEA1 SWAP1 PUSH1 0x20 ADD PUSH2 0x927 JUMP JUMPDEST PUSH2 0x5031 PUSH2 0x7C2F JUMP JUMPDEST DUP2 PUSH1 0xA DUP2 PUSH1 0x40 MLOAD PUSH2 0x5042 SWAP2 SWAP1 PUSH2 0x907B JUMP JUMPDEST SWAP1 DUP2 MSTORE PUSH1 0x40 MLOAD SWAP1 DUP2 SWAP1 SUB PUSH1 0x20 ADD SWAP1 KECCAK256 SLOAD PUSH1 0xFF AND PUSH2 0x5071 JUMPI PUSH1 0x40 MLOAD PUSH3 0x461BCD PUSH1 0xE5 SHL DUP2 MSTORE PUSH1 0x4 ADD PUSH2 0x719 SWAP1 PUSH2 0x9097 JUMP JUMPDEST PUSH1 0x3 DUP4 PUSH1 0x40 MLOAD PUSH2 0x3214 SWAP2 SWAP1 PUSH2 0x907B JUMP JUMPDEST PUSH1 0x12 SLOAD PUSH1 0x1 PUSH1 0x1 PUSH1 0xA0 SHL SUB AND CALLER EQ PUSH2 0x50AB JUMPI PUSH1 0x40 MLOAD PUSH3 0x461BCD PUSH1 0xE5 SHL DUP2 MSTORE PUSH1 0x4 ADD PUSH2 0x719 SWAP1 PUSH2 0x94EC JUMP JUMPDEST PUSH1 0x1 PUSH1 0x1 PUSH1 0xA0 SHL SUB DUP2 AND PUSH2 0x50D1 JUMPI PUSH1 0x40 MLOAD PUSH3 0x461BCD PUSH1 0xE5 SHL DUP2 MSTORE PUSH1 0x4 ADD PUSH2 0x719 SWAP1 PUSH2 0x944F JUMP JUMPDEST PUSH1 0x14 DUP1 SLOAD PUSH1 0x1 PUSH1 0x1 PUSH1 0xA0 SHL SUB NOT AND PUSH1 0x1 PUSH1 0x1 PUSH1 0xA0 SHL SUB SWAP3 SWAP1 SWAP3 AND SWAP2 SWAP1 SWAP2 OR SWAP1 SSTORE JUMP JUMPDEST PUSH1 0x0 PUSH1 0xB DUP3 PUSH1 0x40 MLOAD PUSH2 0x5105 SWAP2 SWAP1 PUSH2 0x907B JUMP JUMPDEST SWAP1 DUP2 MSTORE PUSH1 0x40 MLOAD SWAP1 DUP2 SWAP1 SUB PUSH1 0x20 ADD SWAP1 KECCAK256 SLOAD PUSH1 0xFF AND SWAP3 SWAP2 POP POP JUMP JUMPDEST PUSH1 0x13 SLOAD PUSH1 0x1 PUSH1 0x1 PUSH1 0xA0 SHL SUB AND CALLER EQ DUP1 PUSH2 0x5141 JUMPI POP PUSH1 0x12 SLOAD PUSH1 0x1 PUSH1 0x1 PUSH1 0xA0 SHL SUB AND CALLER EQ JUMPDEST PUSH2 0x515D JUMPI PUSH1 0x40 MLOAD PUSH3 0x461BCD PUSH1 0xE5 SHL DUP2 MSTORE PUSH1 0x4 ADD PUSH2 0x719 SWAP1 PUSH2 0x940E JUMP JUMPDEST PUSH1 0x1 PUSH1 0x1 PUSH1 0xA0 SHL SUB DUP3 AND PUSH2 0x5183 JUMPI PUSH1 0x40 MLOAD PUSH3 0x461BCD PUSH1 0xE5 SHL DUP2 MSTORE PUSH1 0x4 ADD PUSH2 0x719 SWAP1 PUSH2 0x944F JUMP JUMPDEST PUSH1 0x1 PUSH1 0x1 PUSH1 0xA0 SHL SUB SWAP2 SWAP1 SWAP2 AND PUSH1 0x0 SWAP1 DUP2 MSTORE PUSH1 0x17 PUSH1 0x20 MSTORE PUSH1 0x40 SWAP1 KECCAK256 DUP1 SLOAD PUSH1 0xFF NOT AND SWAP2 ISZERO ISZERO SWAP2 SWAP1 SWAP2 OR SWAP1 SSTORE JUMP JUMPDEST DUP6 PUSH1 0xA DUP2 PUSH1 0x40 MLOAD PUSH2 0x51BF SWAP2 SWAP1 PUSH2 0x907B JUMP JUMPDEST SWAP1 DUP2 MSTORE PUSH1 0x40 MLOAD SWAP1 DUP2 SWAP1 SUB PUSH1 0x20 ADD SWAP1 KECCAK256 SLOAD PUSH1 0xFF AND PUSH2 0x51EE JUMPI PUSH1 0x40 MLOAD PUSH3 0x461BCD PUSH1 0xE5 SHL DUP2 MSTORE PUSH1 0x4 ADD PUSH2 0x719 SWAP1 PUSH2 0x9097 JUMP JUMPDEST PUSH1 0x0 PUSH1 0x1 DUP9 PUSH1 0x40 MLOAD PUSH2 0x5200 SWAP2 SWAP1 PUSH2 0x907B JUMP JUMPDEST SWAP1 DUP2 MSTORE PUSH1 0x40 MLOAD SWAP1 DUP2 SWAP1 SUB PUSH1 0x20 ADD SWAP1 KECCAK256 PUSH1 0xB ADD SLOAD PUSH1 0xFF AND PUSH1 0x3 DUP2 GT ISZERO PUSH2 0x5227 JUMPI PUSH2 0x5227 PUSH2 0x80D0 JUMP JUMPDEST EQ PUSH2 0x5244 JUMPI PUSH1 0x40 MLOAD PUSH3 0x461BCD PUSH1 0xE5 SHL DUP2 MSTORE PUSH1 0x4 ADD PUSH2 0x719 SWAP1 PUSH2 0x90DB JUMP JUMPDEST PUSH1 0x0 PUSH1 0x5 DUP9 PUSH1 0x40 MLOAD PUSH2 0x5256 SWAP2 SWAP1 PUSH2 0x907B JUMP JUMPDEST SWAP1 DUP2 MSTORE PUSH1 0x20 ADD PUSH1 0x40 MLOAD DUP1 SWAP2 SUB SWAP1 KECCAK256 SWAP1 POP PUSH1 0x0 DUP8 MLOAD GT ISZERO PUSH2 0x5280 JUMPI PUSH1 0x1 DUP2 ADD PUSH2 0x527E DUP9 DUP3 PUSH2 0x919A JUMP JUMPDEST POP JUMPDEST DUP6 MLOAD ISZERO PUSH2 0x5297 JUMPI PUSH1 0x2 DUP2 ADD PUSH2 0x5295 DUP8 DUP3 PUSH2 0x919A JUMP JUMPDEST POP JUMPDEST DUP5 MLOAD ISZERO PUSH2 0x52AE JUMPI PUSH1 0x3 DUP2 ADD PUSH2 0x52AC DUP7 DUP3 PUSH2 0x919A JUMP JUMPDEST POP JUMPDEST DUP4 MLOAD ISZERO PUSH2 0x52C5 JUMPI PUSH1 0x4 DUP2 ADD PUSH2 0x52C3 DUP6 DUP3 PUSH2 0x919A JUMP JUMPDEST POP JUMPDEST DUP3 MLOAD ISZERO PUSH2 0x52DC JUMPI PUSH1 0x5 DUP2 ADD PUSH2 0x52DA DUP5 DUP3 PUSH2 0x919A JUMP JUMPDEST POP JUMPDEST PUSH1 0x40 MLOAD CALLER SWAP1 PUSH2 0x52EC SWAP1 DUP11 SWAP1 PUSH2 0x907B JUMP JUMPDEST PUSH1 0x40 MLOAD SWAP1 DUP2 SWAP1 SUB DUP2 KECCAK256 TIMESTAMP DUP3 MSTORE SWAP1 PUSH32 0xBCCB8F97B9186074FFE5006945F32FE9CFD0F4767308D7FA16D031F9EEDE68CB SWAP1 PUSH1 0x20 ADD PUSH2 0x1C26 JUMP JUMPDEST DUP6 PUSH1 0xA DUP2 PUSH1 0x40 MLOAD PUSH2 0x5334 SWAP2 SWAP1 PUSH2 0x907B JUMP JUMPDEST SWAP1 DUP2 MSTORE PUSH1 0x40 MLOAD SWAP1 DUP2 SWAP1 SUB PUSH1 0x20 ADD SWAP1 KECCAK256 SLOAD PUSH1 0xFF AND PUSH2 0x5363 JUMPI PUSH1 0x40 MLOAD PUSH3 0x461BCD PUSH1 0xE5 SHL DUP2 MSTORE PUSH1 0x4 ADD PUSH2 0x719 SWAP1 PUSH2 0x9097 JUMP JUMPDEST PUSH1 0x0 PUSH1 0x1 DUP9 PUSH1 0x40 MLOAD PUSH2 0x5375 SWAP2 SWAP1 PUSH2 0x907B JUMP JUMPDEST SWAP1 DUP2 MSTORE PUSH1 0x40 MLOAD SWAP1 DUP2 SWAP1 SUB PUSH1 0x20 ADD SWAP1 KECCAK256 PUSH1 0xB ADD SLOAD PUSH1 0xFF AND PUSH1 0x3 DUP2 GT ISZERO PUSH2 0x539C JUMPI PUSH2 0x539C PUSH2 0x80D0 JUMP JUMPDEST EQ PUSH2 0x53B9 JUMPI PUSH1 0x40 MLOAD PUSH3 0x461BCD PUSH1 0xE5 SHL DUP2 MSTORE PUSH1 0x4 ADD PUSH2 0x719 SWAP1 PUSH2 0x90DB JUMP JUMPDEST PUSH1 0x0 PUSH1 0x3 DUP9 PUSH1 0x40 MLOAD PUSH2 0x53CB SWAP2 SWAP1 PUSH2 0x907B JUMP JUMPDEST SWAP1 DUP2 MSTORE PUSH1 0x20 ADD PUSH1 0x40 MLOAD DUP1 SWAP2 SUB SWAP1 KECCAK256 SWAP1 POP PUSH1 0x0 DUP8 MLOAD GT ISZERO PUSH2 0x53F5 JUMPI PUSH1 0x1 DUP2 ADD PUSH2 0x53F3 DUP9 DUP3 PUSH2 0x919A JUMP JUMPDEST POP JUMPDEST DUP6 MLOAD ISZERO PUSH2 0x540C JUMPI PUSH1 0x2 DUP2 ADD PUSH2 0x540A DUP8 DUP3 PUSH2 0x919A JUMP JUMPDEST POP JUMPDEST DUP5 MLOAD ISZERO PUSH2 0x5423 JUMPI PUSH1 0x3 DUP2 ADD PUSH2 0x5421 DUP7 DUP3 PUSH2 0x919A JUMP JUMPDEST POP JUMPDEST DUP4 MLOAD ISZERO PUSH2 0x543A JUMPI PUSH1 0x4 DUP2 ADD PUSH2 0x5438 DUP6 DUP3 PUSH2 0x919A JUMP JUMPDEST POP JUMPDEST DUP3 MLOAD ISZERO PUSH2 0x5451 JUMPI PUSH1 0x5 DUP2 ADD PUSH2 0x544F DUP5 DUP3 PUSH2 0x919A JUMP JUMPDEST POP JUMPDEST PUSH1 0x40 MLOAD CALLER SWAP1 PUSH2 0x5461 SWAP1 DUP11 SWAP1 PUSH2 0x907B JUMP JUMPDEST PUSH1 0x40 MLOAD SWAP1 DUP2 SWAP1 SUB DUP2 KECCAK256 TIMESTAMP DUP3 MSTORE SWAP1 PUSH32 0x5E2DE4424F41FCA1BD37B1D63212448CB99DB7EBA4E8A70DDF62819E6421DEB SWAP1 PUSH1 0x20 ADD PUSH2 0x1C26 JUMP JUMPDEST CALLER PUSH1 0x0 SWAP1 DUP2 MSTORE PUSH1 0x15 PUSH1 0x20 MSTORE PUSH1 0x40 SWAP1 KECCAK256 SLOAD PUSH1 0xFF AND DUP1 PUSH2 0x54C0 JUMPI POP PUSH1 0x12 SLOAD PUSH1 0x1 PUSH1 0x1 PUSH1 0xA0 SHL SUB AND CALLER EQ JUMPDEST PUSH2 0x550C JUMPI PUSH1 0x40 MLOAD PUSH3 0x461BCD PUSH1 0xE5 SHL DUP2 MSTORE PUSH1 0x20 PUSH1 0x4 DUP3 ADD MSTORE PUSH1 0x1D PUSH1 0x24 DUP3 ADD MSTORE PUSH32 0x416363657373436F6E74726F6C3A204E6F7420617574686F72697A6564000000 PUSH1 0x44 DUP3 ADD MSTORE PUSH1 0x64 ADD PUSH2 0x719 JUMP JUMPDEST DUP2 PUSH1 0x1 DUP2 LT ISZERO DUP1 ISZERO PUSH2 0x5521 JUMPI POP PUSH3 0xF4240 DUP2 GT ISZERO JUMPDEST PUSH2 0x553D JUMPI PUSH1 0x40 MLOAD PUSH3 0x461BCD PUSH1 0xE5 SHL DUP2 MSTORE PUSH1 0x4 ADD PUSH2 0x719 SWAP1 PUSH2 0x9486 JUMP JUMPDEST DUP2 MLOAD PUSH1 0xA DUP2 GT ISZERO PUSH2 0x558E JUMPI PUSH1 0x40 MLOAD PUSH3 0x461BCD PUSH1 0xE5 SHL DUP2 MSTORE PUSH1 0x20 PUSH1 0x4 DUP3 ADD MSTORE PUSH1 0x1B PUSH1 0x24 DUP3 ADD MSTORE PUSH27 0x56616C69646174696F6E3A20546F6F206D616E7920696D61676573 PUSH1 0x28 SHL PUSH1 0x44 DUP3 ADD MSTORE PUSH1 0x64 ADD PUSH2 0x719 JUMP JUMPDEST PUSH1 0x0 DUP13 MLOAD GT PUSH2 0x55DC JUMPI PUSH1 0x40 MLOAD PUSH3 0x461BCD PUSH1 0xE5 SHL DUP2 MSTORE PUSH1 0x20 PUSH1 0x4 DUP3 ADD MSTORE PUSH1 0x1A PUSH1 0x24 DUP3 ADD MSTORE PUSH26 0x56616C69646174696F6E3A20456D707479206661726D436F6465 PUSH1 0x30 SHL PUSH1 0x44 DUP3 ADD MSTORE PUSH1 0x64 ADD PUSH2 0x719 JUMP JUMPDEST PUSH1 0x0 DUP12 MLOAD GT PUSH2 0x562A JUMPI PUSH1 0x40 MLOAD PUSH3 0x461BCD PUSH1 0xE5 SHL DUP2 MSTORE PUSH1 0x20 PUSH1 0x4 DUP3 ADD MSTORE PUSH1 0x1A PUSH1 0x24 DUP3 ADD MSTORE PUSH26 0x56616C69646174696F6E3A20456D7074792066756C6C6E616D65 PUSH1 0x30 SHL PUSH1 0x44 DUP3 ADD MSTORE PUSH1 0x64 ADD PUSH2 0x719 JUMP JUMPDEST PUSH1 0x0 DUP11 MLOAD GT PUSH2 0x5678 JUMPI PUSH1 0x40 MLOAD PUSH3 0x461BCD PUSH1 0xE5 SHL DUP2 MSTORE PUSH1 0x20 PUSH1 0x4 DUP3 ADD MSTORE PUSH1 0x1A PUSH1 0x24 DUP3 ADD MSTORE PUSH26 0x56616C69646174696F6E3A20456D707479206E616D654661726D PUSH1 0x30 SHL PUSH1 0x44 DUP3 ADD MSTORE PUSH1 0x64 ADD PUSH2 0x719 JUMP JUMPDEST PUSH1 0x0 DUP10 MLOAD GT PUSH2 0x56C4 JUMPI PUSH1 0x40 MLOAD PUSH3 0x461BCD PUSH1 0xE5 SHL DUP2 MSTORE PUSH1 0x20 PUSH1 0x4 DUP3 ADD MSTORE PUSH1 0x18 PUSH1 0x24 DUP3 ADD MSTORE PUSH24 0x15985B1A59185D1A5BDB8E88115B5C1D1E481D5CD95C9259 PUSH1 0x42 SHL PUSH1 0x44 DUP3 ADD MSTORE PUSH1 0x64 ADD PUSH2 0x719 JUMP JUMPDEST PUSH1 0x9 DUP13 PUSH1 0x40 MLOAD PUSH2 0x56D4 SWAP2 SWAP1 PUSH2 0x907B JUMP JUMPDEST SWAP1 DUP2 MSTORE PUSH1 0x40 MLOAD SWAP1 DUP2 SWAP1 SUB PUSH1 0x20 ADD SWAP1 KECCAK256 SLOAD PUSH1 0xFF AND ISZERO PUSH2 0x5734 JUMPI PUSH1 0x40 MLOAD PUSH3 0x461BCD PUSH1 0xE5 SHL DUP2 MSTORE PUSH1 0x20 PUSH1 0x4 DUP3 ADD MSTORE PUSH1 0x1F PUSH1 0x24 DUP3 ADD MSTORE PUSH32 0x56616C69646174696F6E3A204661726D20616C72656164792065786973747300 PUSH1 0x44 DUP3 ADD MSTORE PUSH1 0x64 ADD PUSH2 0x719 JUMP JUMPDEST PUSH1 0x7 DUP10 PUSH1 0x40 MLOAD PUSH2 0x5744 SWAP2 SWAP1 PUSH2 0x907B JUMP JUMPDEST SWAP1 DUP2 MSTORE PUSH1 0x40 MLOAD PUSH1 0x20 SWAP2 DUP2 SWAP1 SUB DUP3 ADD SWAP1 KECCAK256 DUP1 SLOAD PUSH1 0x1 DUP2 ADD DUP3 SSTORE PUSH1 0x0 SWAP2 DUP3 MSTORE SWAP2 SWAP1 KECCAK256 ADD PUSH2 0x576F DUP14 DUP3 PUSH2 0x919A JUMP JUMPDEST POP PUSH1 0xD DUP1 SLOAD PUSH1 0x1 DUP2 ADD DUP3 SSTORE PUSH1 0x0 SWAP2 SWAP1 SWAP2 MSTORE PUSH32 0xD7B6990105719101DABEB77144F2A3385C8033ACD3AF97E9423A695E81AD1EB5 ADD PUSH2 0x57AC DUP14 DUP3 PUSH2 0x919A JUMP JUMPDEST POP PUSH1 0x1 PUSH1 0x9 DUP14 PUSH1 0x40 MLOAD PUSH2 0x57BF SWAP2 SWAP1 PUSH2 0x907B JUMP JUMPDEST SWAP1 DUP2 MSTORE PUSH1 0x40 MLOAD SWAP1 DUP2 SWAP1 SUB PUSH1 0x20 ADD SWAP1 KECCAK256 DUP1 SLOAD SWAP2 ISZERO ISZERO PUSH1 0xFF NOT SWAP1 SWAP3 AND SWAP2 SWAP1 SWAP2 OR SWAP1 SSTORE PUSH1 0x10 DUP1 SLOAD SWAP1 PUSH1 0x0 PUSH2 0x57EF DUP4 PUSH2 0x94B8 JUMP JUMPDEST SWAP2 SWAP1 POP SSTORE POP PUSH1 0x40 MLOAD DUP1 PUSH2 0x180 ADD PUSH1 0x40 MSTORE DUP1 DUP14 DUP2 MSTORE PUSH1 0x20 ADD DUP13 DUP2 MSTORE PUSH1 0x20 ADD DUP12 DUP2 MSTORE PUSH1 0x20 ADD DUP11 DUP2 MSTORE PUSH1 0x20 ADD DUP10 DUP2 MSTORE PUSH1 0x20 ADD DUP9 DUP2 MSTORE PUSH1 0x20 ADD DUP8 DUP2 MSTORE PUSH1 0x20 ADD DUP7 DUP2 MSTORE PUSH1 0x20 ADD DUP6 DUP2 MSTORE PUSH1 0x20 ADD DUP5 DUP2 MSTORE PUSH1 0x20 ADD TIMESTAMP DUP2 MSTORE PUSH1 0x20 ADD PUSH1 0x1 ISZERO ISZERO DUP2 MSTORE POP PUSH1 0x0 DUP14 PUSH1 0x40 MLOAD PUSH2 0x5859 SWAP2 SWAP1 PUSH2 0x907B JUMP JUMPDEST SWAP1 DUP2 MSTORE PUSH1 0x40 MLOAD SWAP1 DUP2 SWAP1 SUB PUSH1 0x20 ADD SWAP1 KECCAK256 DUP2 MLOAD DUP2 SWAP1 PUSH2 0x5876 SWAP1 DUP3 PUSH2 0x919A JUMP JUMPDEST POP PUSH1 0x20 DUP3 ADD MLOAD PUSH1 0x1 DUP3 ADD SWAP1 PUSH2 0x588B SWAP1 DUP3 PUSH2 0x919A JUMP JUMPDEST POP PUSH1 0x40 DUP3 ADD MLOAD PUSH1 0x2 DUP3 ADD SWAP1 PUSH2 0x58A0 SWAP1 DUP3 PUSH2 0x919A JUMP JUMPDEST POP PUSH1 0x60 DUP3 ADD MLOAD PUSH1 0x3 DUP3 ADD SWAP1 PUSH2 0x58B5 SWAP1 DUP3 PUSH2 0x919A JUMP JUMPDEST POP PUSH1 0x80 DUP3 ADD MLOAD PUSH1 0x4 DUP3 ADD SWAP1 PUSH2 0x58CA SWAP1 DUP3 PUSH2 0x919A JUMP JUMPDEST POP PUSH1 0xA0 DUP3 ADD MLOAD PUSH1 0x5 DUP3 ADD SWAP1 PUSH2 0x58DF SWAP1 DUP3 PUSH2 0x919A JUMP JUMPDEST POP PUSH1 0xC0 DUP3 ADD MLOAD PUSH1 0x6 DUP3 ADD SWAP1 PUSH2 0x58F4 SWAP1 DUP3 PUSH2 0x919A JUMP JUMPDEST POP PUSH1 0xE0 DUP3 ADD MLOAD PUSH1 0x7 DUP3 ADD SWAP1 PUSH2 0x5909 SWAP1 DUP3 PUSH2 0x919A JUMP JUMPDEST POP PUSH2 0x100 DUP3 ADD MLOAD PUSH1 0x8 DUP3 ADD SSTORE PUSH2 0x120 DUP3 ADD MLOAD DUP1 MLOAD PUSH2 0x5931 SWAP2 PUSH1 0x9 DUP5 ADD SWAP2 PUSH1 0x20 SWAP1 SWAP2 ADD SWAP1 PUSH2 0x7CB1 JUMP JUMPDEST POP PUSH2 0x140 DUP3 ADD MLOAD PUSH1 0xA DUP3 ADD SSTORE PUSH2 0x160 SWAP1 SWAP2 ADD MLOAD PUSH1 0xB SWAP1 SWAP2 ADD DUP1 SLOAD PUSH1 0xFF NOT AND SWAP2 ISZERO ISZERO SWAP2 SWAP1 SWAP2 OR SWAP1 SSTORE PUSH1 0x40 MLOAD CALLER SWAP1 PUSH2 0x5968 SWAP1 DUP12 SWAP1 PUSH2 0x907B JUMP JUMPDEST PUSH1 0x40 MLOAD DUP1 SWAP2 SUB SWAP1 KECCAK256 DUP14 PUSH1 0x40 MLOAD PUSH2 0x597E SWAP2 SWAP1 PUSH2 0x907B JUMP JUMPDEST PUSH1 0x40 DUP1 MLOAD SWAP2 DUP3 SWAP1 SUB DUP3 KECCAK256 DUP9 DUP4 MSTORE TIMESTAMP PUSH1 0x20 DUP5 ADD MSTORE SWAP2 PUSH32 0x94A1B71779FA0FAC5C0048E5D6894687D9BCF5AD5669AA2EE9C8DEC5F49884E3 SWAP2 ADD PUSH1 0x40 MLOAD DUP1 SWAP2 SUB SWAP1 LOG4 POP POP POP POP POP POP POP POP POP POP POP POP JUMP JUMPDEST DUP1 PUSH1 0x9 DUP2 PUSH1 0x40 MLOAD PUSH2 0x59DC SWAP2 SWAP1 PUSH2 0x907B JUMP JUMPDEST SWAP1 DUP2 MSTORE PUSH1 0x40 MLOAD SWAP1 DUP2 SWAP1 SUB PUSH1 0x20 ADD SWAP1 KECCAK256 SLOAD PUSH1 0xFF AND PUSH2 0x5A0B JUMPI PUSH1 0x40 MLOAD PUSH3 0x461BCD PUSH1 0xE5 SHL DUP2 MSTORE PUSH1 0x4 ADD PUSH2 0x719 SWAP1 PUSH2 0x9252 JUMP JUMPDEST PUSH1 0x0 DUP1 DUP4 PUSH1 0x40 MLOAD PUSH2 0x5A1C SWAP2 SWAP1 PUSH2 0x907B JUMP JUMPDEST SWAP1 DUP2 MSTORE PUSH1 0x40 MLOAD SWAP1 DUP2 SWAP1 SUB PUSH1 0x20 ADD SWAP1 KECCAK256 PUSH1 0xB DUP2 ADD SLOAD SWAP1 SWAP2 POP PUSH1 0xFF AND PUSH2 0x5A52 JUMPI PUSH1 0x40 MLOAD PUSH3 0x461BCD PUSH1 0xE5 SHL DUP2 MSTORE PUSH1 0x4 ADD PUSH2 0x719 SWAP1 PUSH2 0x929F JUMP JUMPDEST PUSH1 0xB ADD DUP1 SLOAD PUSH1 0xFF NOT AND SWAP1 SSTORE POP POP JUMP JUMPDEST DUP2 PUSH1 0x9 DUP2 PUSH1 0x40 MLOAD PUSH2 0x5A72 SWAP2 SWAP1 PUSH2 0x907B JUMP JUMPDEST SWAP1 DUP2 MSTORE PUSH1 0x40 MLOAD SWAP1 DUP2 SWAP1 SUB PUSH1 0x20 ADD SWAP1 KECCAK256 SLOAD PUSH1 0xFF AND PUSH2 0x5AA1 JUMPI PUSH1 0x40 MLOAD PUSH3 0x461BCD PUSH1 0xE5 SHL DUP2 MSTORE PUSH1 0x4 ADD PUSH2 0x719 SWAP1 PUSH2 0x9252 JUMP JUMPDEST PUSH1 0x0 DUP1 DUP5 PUSH1 0x40 MLOAD PUSH2 0x5AB2 SWAP2 SWAP1 PUSH2 0x907B JUMP JUMPDEST SWAP1 DUP2 MSTORE PUSH1 0x40 MLOAD SWAP1 DUP2 SWAP1 SUB PUSH1 0x20 ADD SWAP1 KECCAK256 PUSH1 0xB DUP2 ADD SLOAD SWAP1 SWAP2 POP PUSH1 0xFF AND PUSH2 0x5AE8 JUMPI PUSH1 0x40 MLOAD PUSH3 0x461BCD PUSH1 0xE5 SHL DUP2 MSTORE PUSH1 0x4 ADD PUSH2 0x719 SWAP1 PUSH2 0x929F JUMP JUMPDEST PUSH1 0x9 DUP2 ADD DUP1 SLOAD PUSH1 0x1 DUP2 ADD DUP3 SSTORE PUSH1 0x0 SWAP2 DUP3 MSTORE PUSH1 0x20 SWAP1 SWAP2 KECCAK256 ADD PUSH2 0x5B09 DUP5 DUP3 PUSH2 0x919A JUMP JUMPDEST POP POP POP POP POP JUMP JUMPDEST PUSH1 0x12 SLOAD PUSH1 0x1 PUSH1 0x1 PUSH1 0xA0 SHL SUB AND CALLER EQ PUSH2 0x5B3A JUMPI PUSH1 0x40 MLOAD PUSH3 0x461BCD PUSH1 0xE5 SHL DUP2 MSTORE PUSH1 0x4 ADD PUSH2 0x719 SWAP1 PUSH2 0x94EC JUMP JUMPDEST PUSH1 0x1 PUSH1 0x1 PUSH1 0xA0 SHL SUB DUP2 AND PUSH2 0x5B60 JUMPI PUSH1 0x40 MLOAD PUSH3 0x461BCD PUSH1 0xE5 SHL DUP2 MSTORE PUSH1 0x4 ADD PUSH2 0x719 SWAP1 PUSH2 0x944F JUMP JUMPDEST PUSH1 0x13 DUP1 SLOAD PUSH1 0x1 PUSH1 0x1 PUSH1 0xA0 SHL SUB NOT AND PUSH1 0x1 PUSH1 0x1 PUSH1 0xA0 SHL SUB SWAP3 SWAP1 SWAP3 AND SWAP2 SWAP1 SWAP2 OR SWAP1 SSTORE JUMP JUMPDEST PUSH1 0xD SLOAD PUSH1 0x60 SWAP1 PUSH1 0x0 SWAP1 PUSH1 0x1 PUSH1 0x1 PUSH1 0x40 SHL SUB DUP2 GT ISZERO PUSH2 0x5BA2 JUMPI PUSH2 0x5BA2 PUSH2 0x7D6F JUMP JUMPDEST PUSH1 0x40 MLOAD SWAP1 DUP1 DUP3 MSTORE DUP1 PUSH1 0x20 MUL PUSH1 0x20 ADD DUP3 ADD PUSH1 0x40 MSTORE DUP1 ISZERO PUSH2 0x5BDB JUMPI DUP2 PUSH1 0x20 ADD JUMPDEST PUSH2 0x5BC8 PUSH2 0x7BCC JUMP JUMPDEST DUP2 MSTORE PUSH1 0x20 ADD SWAP1 PUSH1 0x1 SWAP1 SUB SWAP1 DUP2 PUSH2 0x5BC0 JUMPI SWAP1 POP JUMPDEST POP SWAP1 POP PUSH1 0x0 JUMPDEST PUSH1 0xD SLOAD DUP2 LT ISZERO PUSH2 0x14F5 JUMPI PUSH1 0x0 PUSH1 0xD DUP3 DUP2 SLOAD DUP2 LT PUSH2 0x5C00 JUMPI PUSH2 0x5C00 PUSH2 0x9289 JUMP JUMPDEST SWAP1 PUSH1 0x0 MSTORE PUSH1 0x20 PUSH1 0x0 KECCAK256 ADD PUSH1 0x40 MLOAD PUSH2 0x5C17 SWAP2 SWAP1 PUSH2 0x952D JUMP JUMPDEST SWAP1 DUP2 MSTORE PUSH1 0x20 ADD PUSH1 0x40 MLOAD DUP1 SWAP2 SUB SWAP1 KECCAK256 PUSH1 0x40 MLOAD DUP1 PUSH2 0x180 ADD PUSH1 0x40 MSTORE SWAP1 DUP2 PUSH1 0x0 DUP3 ADD DUP1 SLOAD PUSH2 0x5C41 SWAP1 PUSH2 0x9105 JUMP JUMPDEST DUP1 PUSH1 0x1F ADD PUSH1 0x20 DUP1 SWAP2 DIV MUL PUSH1 0x20 ADD PUSH1 0x40 MLOAD SWAP1 DUP2 ADD PUSH1 0x40 MSTORE DUP1 SWAP3 SWAP2 SWAP1 DUP2 DUP2 MSTORE PUSH1 0x20 ADD DUP3 DUP1 SLOAD PUSH2 0x5C6D SWAP1 PUSH2 0x9105 JUMP JUMPDEST DUP1 ISZERO PUSH2 0x5CBA JUMPI DUP1 PUSH1 0x1F LT PUSH2 0x5C8F JUMPI PUSH2 0x100 DUP1 DUP4 SLOAD DIV MUL DUP4 MSTORE SWAP2 PUSH1 0x20 ADD SWAP2 PUSH2 0x5CBA JUMP JUMPDEST DUP3 ADD SWAP2 SWAP1 PUSH1 0x0 MSTORE PUSH1 0x20 PUSH1 0x0 KECCAK256 SWAP1 JUMPDEST DUP2 SLOAD DUP2 MSTORE SWAP1 PUSH1 0x1 ADD SWAP1 PUSH1 0x20 ADD DUP1 DUP4 GT PUSH2 0x5C9D JUMPI DUP3 SWAP1 SUB PUSH1 0x1F AND DUP3 ADD SWAP2 JUMPDEST POP POP POP POP POP DUP2 MSTORE PUSH1 0x20 ADD PUSH1 0x1 DUP3 ADD DUP1 SLOAD PUSH2 0x5CD3 SWAP1 PUSH2 0x9105 JUMP JUMPDEST DUP1 PUSH1 0x1F ADD PUSH1 0x20 DUP1 SWAP2 DIV MUL PUSH1 0x20 ADD PUSH1 0x40 MLOAD SWAP1 DUP2 ADD PUSH1 0x40 MSTORE DUP1 SWAP3 SWAP2 SWAP1 DUP2 DUP2 MSTORE PUSH1 0x20 ADD DUP3 DUP1 SLOAD PUSH2 0x5CFF SWAP1 PUSH2 0x9105 JUMP JUMPDEST DUP1 ISZERO PUSH2 0x5D4C JUMPI DUP1 PUSH1 0x1F LT PUSH2 0x5D21 JUMPI PUSH2 0x100 DUP1 DUP4 SLOAD DIV MUL DUP4 MSTORE SWAP2 PUSH1 0x20 ADD SWAP2 PUSH2 0x5D4C JUMP JUMPDEST DUP3 ADD SWAP2 SWAP1 PUSH1 0x0 MSTORE PUSH1 0x20 PUSH1 0x0 KECCAK256 SWAP1 JUMPDEST DUP2 SLOAD DUP2 MSTORE SWAP1 PUSH1 0x1 ADD SWAP1 PUSH1 0x20 ADD DUP1 DUP4 GT PUSH2 0x5D2F JUMPI DUP3 SWAP1 SUB PUSH1 0x1F AND DUP3 ADD SWAP2 JUMPDEST POP POP POP POP POP DUP2 MSTORE PUSH1 0x20 ADD PUSH1 0x2 DUP3 ADD DUP1 SLOAD PUSH2 0x5D65 SWAP1 PUSH2 0x9105 JUMP JUMPDEST DUP1 PUSH1 0x1F ADD PUSH1 0x20 DUP1 SWAP2 DIV MUL PUSH1 0x20 ADD PUSH1 0x40 MLOAD SWAP1 DUP2 ADD PUSH1 0x40 MSTORE DUP1 SWAP3 SWAP2 SWAP1 DUP2 DUP2 MSTORE PUSH1 0x20 ADD DUP3 DUP1 SLOAD PUSH2 0x5D91 SWAP1 PUSH2 0x9105 JUMP JUMPDEST DUP1 ISZERO PUSH2 0x5DDE JUMPI DUP1 PUSH1 0x1F LT PUSH2 0x5DB3 JUMPI PUSH2 0x100 DUP1 DUP4 SLOAD DIV MUL DUP4 MSTORE SWAP2 PUSH1 0x20 ADD SWAP2 PUSH2 0x5DDE JUMP JUMPDEST DUP3 ADD SWAP2 SWAP1 PUSH1 0x0 MSTORE PUSH1 0x20 PUSH1 0x0 KECCAK256 SWAP1 JUMPDEST DUP2 SLOAD DUP2 MSTORE SWAP1 PUSH1 0x1 ADD SWAP1 PUSH1 0x20 ADD DUP1 DUP4 GT PUSH2 0x5DC1 JUMPI DUP3 SWAP1 SUB PUSH1 0x1F AND DUP3 ADD SWAP2 JUMPDEST POP POP POP POP POP DUP2 MSTORE PUSH1 0x20 ADD PUSH1 0x3 DUP3 ADD DUP1 SLOAD PUSH2 0x5DF7 SWAP1 PUSH2 0x9105 JUMP JUMPDEST DUP1 PUSH1 0x1F ADD PUSH1 0x20 DUP1 SWAP2 DIV MUL PUSH1 0x20 ADD PUSH1 0x40 MLOAD SWAP1 DUP2 ADD PUSH1 0x40 MSTORE DUP1 SWAP3 SWAP2 SWAP1 DUP2 DUP2 MSTORE PUSH1 0x20 ADD DUP3 DUP1 SLOAD PUSH2 0x5E23 SWAP1 PUSH2 0x9105 JUMP JUMPDEST DUP1 ISZERO PUSH2 0x5E70 JUMPI DUP1 PUSH1 0x1F LT PUSH2 0x5E45 JUMPI PUSH2 0x100 DUP1 DUP4 SLOAD DIV MUL DUP4 MSTORE SWAP2 PUSH1 0x20 ADD SWAP2 PUSH2 0x5E70 JUMP JUMPDEST DUP3 ADD SWAP2 SWAP1 PUSH1 0x0 MSTORE PUSH1 0x20 PUSH1 0x0 KECCAK256 SWAP1 JUMPDEST DUP2 SLOAD DUP2 MSTORE SWAP1 PUSH1 0x1 ADD SWAP1 PUSH1 0x20 ADD DUP1 DUP4 GT PUSH2 0x5E53 JUMPI DUP3 SWAP1 SUB PUSH1 0x1F AND DUP3 ADD SWAP2 JUMPDEST POP POP POP POP POP DUP2 MSTORE PUSH1 0x20 ADD PUSH1 0x4 DUP3 ADD DUP1 SLOAD PUSH2 0x5E89 SWAP1 PUSH2 0x9105 JUMP JUMPDEST DUP1 PUSH1 0x1F ADD PUSH1 0x20 DUP1 SWAP2 DIV MUL PUSH1 0x20 ADD PUSH1 0x40 MLOAD SWAP1 DUP2 ADD PUSH1 0x40 MSTORE DUP1 SWAP3 SWAP2 SWAP1 DUP2 DUP2 MSTORE PUSH1 0x20 ADD DUP3 DUP1 SLOAD PUSH2 0x5EB5 SWAP1 PUSH2 0x9105 JUMP JUMPDEST DUP1 ISZERO PUSH2 0x5F02 JUMPI DUP1 PUSH1 0x1F LT PUSH2 0x5ED7 JUMPI PUSH2 0x100 DUP1 DUP4 SLOAD DIV MUL DUP4 MSTORE SWAP2 PUSH1 0x20 ADD SWAP2 PUSH2 0x5F02 JUMP JUMPDEST DUP3 ADD SWAP2 SWAP1 PUSH1 0x0 MSTORE PUSH1 0x20 PUSH1 0x0 KECCAK256 SWAP1 JUMPDEST DUP2 SLOAD DUP2 MSTORE SWAP1 PUSH1 0x1 ADD SWAP1 PUSH1 0x20 ADD DUP1 DUP4 GT PUSH2 0x5EE5 JUMPI DUP3 SWAP1 SUB PUSH1 0x1F AND DUP3 ADD SWAP2 JUMPDEST POP POP POP POP POP DUP2 MSTORE PUSH1 0x20 ADD PUSH1 0x5 DUP3 ADD DUP1 SLOAD PUSH2 0x5F1B SWAP1 PUSH2 0x9105 JUMP JUMPDEST DUP1 PUSH1 0x1F ADD PUSH1 0x20 DUP1 SWAP2 DIV MUL PUSH1 0x20 ADD PUSH1 0x40 MLOAD SWAP1 DUP2 ADD PUSH1 0x40 MSTORE DUP1 SWAP3 SWAP2 SWAP1 DUP2 DUP2 MSTORE PUSH1 0x20 ADD DUP3 DUP1 SLOAD PUSH2 0x5F47 SWAP1 PUSH2 0x9105 JUMP JUMPDEST DUP1 ISZERO PUSH2 0x5F94 JUMPI DUP1 PUSH1 0x1F LT PUSH2 0x5F69 JUMPI PUSH2 0x100 DUP1 DUP4 SLOAD DIV MUL DUP4 MSTORE SWAP2 PUSH1 0x20 ADD SWAP2 PUSH2 0x5F94 JUMP JUMPDEST DUP3 ADD SWAP2 SWAP1 PUSH1 0x0 MSTORE PUSH1 0x20 PUSH1 0x0 KECCAK256 SWAP1 JUMPDEST DUP2 SLOAD DUP2 MSTORE SWAP1 PUSH1 0x1 ADD SWAP1 PUSH1 0x20 ADD DUP1 DUP4 GT PUSH2 0x5F77 JUMPI DUP3 SWAP1 SUB PUSH1 0x1F AND DUP3 ADD SWAP2 JUMPDEST POP POP POP POP POP DUP2 MSTORE PUSH1 0x20 ADD PUSH1 0x6 DUP3 ADD DUP1 SLOAD PUSH2 0x5FAD SWAP1 PUSH2 0x9105 JUMP JUMPDEST DUP1 PUSH1 0x1F ADD PUSH1 0x20 DUP1 SWAP2 DIV MUL PUSH1 0x20 ADD PUSH1 0x40 MLOAD SWAP1 DUP2 ADD PUSH1 0x40 MSTORE DUP1 SWAP3 SWAP2 SWAP1 DUP2 DUP2 MSTORE PUSH1 0x20 ADD DUP3 DUP1 SLOAD PUSH2 0x5FD9 SWAP1 PUSH2 0x9105 JUMP JUMPDEST DUP1 ISZERO PUSH2 0x6026 JUMPI DUP1 PUSH1 0x1F LT PUSH2 0x5FFB JUMPI PUSH2 0x100 DUP1 DUP4 SLOAD DIV MUL DUP4 MSTORE SWAP2 PUSH1 0x20 ADD SWAP2 PUSH2 0x6026 JUMP JUMPDEST DUP3 ADD SWAP2 SWAP1 PUSH1 0x0 MSTORE PUSH1 0x20 PUSH1 0x0 KECCAK256 SWAP1 JUMPDEST DUP2 SLOAD DUP2 MSTORE SWAP1 PUSH1 0x1 ADD SWAP1 PUSH1 0x20 ADD DUP1 DUP4 GT PUSH2 0x6009 JUMPI DUP3 SWAP1 SUB PUSH1 0x1F AND DUP3 ADD SWAP2 JUMPDEST POP POP POP POP POP DUP2 MSTORE PUSH1 0x20 ADD PUSH1 0x7 DUP3 ADD DUP1 SLOAD PUSH2 0x603F SWAP1 PUSH2 0x9105 JUMP JUMPDEST DUP1 PUSH1 0x1F ADD PUSH1 0x20 DUP1 SWAP2 DIV MUL PUSH1 0x20 ADD PUSH1 0x40 MLOAD SWAP1 DUP2 ADD PUSH1 0x40 MSTORE DUP1 SWAP3 SWAP2 SWAP1 DUP2 DUP2 MSTORE PUSH1 0x20 ADD DUP3 DUP1 SLOAD PUSH2 0x606B SWAP1 PUSH2 0x9105 JUMP JUMPDEST DUP1 ISZERO PUSH2 0x60B8 JUMPI DUP1 PUSH1 0x1F LT PUSH2 0x608D JUMPI PUSH2 0x100 DUP1 DUP4 SLOAD DIV MUL DUP4 MSTORE SWAP2 PUSH1 0x20 ADD SWAP2 PUSH2 0x60B8 JUMP JUMPDEST DUP3 ADD SWAP2 SWAP1 PUSH1 0x0 MSTORE PUSH1 0x20 PUSH1 0x0 KECCAK256 SWAP1 JUMPDEST DUP2 SLOAD DUP2 MSTORE SWAP1 PUSH1 0x1 ADD SWAP1 PUSH1 0x20 ADD DUP1 DUP4 GT PUSH2 0x609B JUMPI DUP3 SWAP1 SUB PUSH1 0x1F AND DUP3 ADD SWAP2 JUMPDEST POP POP POP POP POP DUP2 MSTORE PUSH1 0x20 ADD PUSH1 0x8 DUP3 ADD SLOAD DUP2 MSTORE PUSH1 0x20 ADD PUSH1 0x9 DUP3 ADD DUP1 SLOAD DUP1 PUSH1 0x20 MUL PUSH1 0x20 ADD PUSH1 0x40 MLOAD SWAP1 DUP2 ADD PUSH1 0x40 MSTORE DUP1 SWAP3 SWAP2 SWAP1 DUP2 DUP2 MSTORE PUSH1 0x20 ADD PUSH1 0x0 SWAP1 JUMPDEST DUP3 DUP3 LT ISZERO PUSH2 0x619C JUMPI DUP4 DUP3 SWAP1 PUSH1 0x0 MSTORE PUSH1 0x20 PUSH1 0x0 KECCAK256 ADD DUP1 SLOAD PUSH2 0x610F SWAP1 PUSH2 0x9105 JUMP JUMPDEST DUP1 PUSH1 0x1F ADD PUSH1 0x20 DUP1 SWAP2 DIV MUL PUSH1 0x20 ADD PUSH1 0x40 MLOAD SWAP1 DUP2 ADD PUSH1 0x40 MSTORE DUP1 SWAP3 SWAP2 SWAP1 DUP2 DUP2 MSTORE PUSH1 0x20 ADD DUP3 DUP1 SLOAD PUSH2 0x613B SWAP1 PUSH2 0x9105 JUMP JUMPDEST DUP1 ISZERO PUSH2 0x6188 JUMPI DUP1 PUSH1 0x1F LT PUSH2 0x615D JUMPI PUSH2 0x100 DUP1 DUP4 SLOAD DIV MUL DUP4 MSTORE SWAP2 PUSH1 0x20 ADD SWAP2 PUSH2 0x6188 JUMP JUMPDEST DUP3 ADD SWAP2 SWAP1 PUSH1 0x0 MSTORE PUSH1 0x20 PUSH1 0x0 KECCAK256 SWAP1 JUMPDEST DUP2 SLOAD DUP2 MSTORE SWAP1 PUSH1 0x1 ADD SWAP1 PUSH1 0x20 ADD DUP1 DUP4 GT PUSH2 0x616B JUMPI DUP3 SWAP1 SUB PUSH1 0x1F AND DUP3 ADD SWAP2 JUMPDEST POP POP POP POP POP DUP2 MSTORE PUSH1 0x20 ADD SWAP1 PUSH1 0x1 ADD SWAP1 PUSH2 0x60F0 JUMP JUMPDEST POP POP POP SWAP1 DUP3 MSTORE POP PUSH1 0xA DUP3 ADD SLOAD PUSH1 0x20 DUP3 ADD MSTORE PUSH1 0xB SWAP1 SWAP2 ADD SLOAD PUSH1 0xFF AND ISZERO ISZERO PUSH1 0x40 SWAP1 SWAP2 ADD MSTORE DUP3 MLOAD DUP4 SWAP1 DUP4 SWAP1 DUP2 LT PUSH2 0x61D2 JUMPI PUSH2 0x61D2 PUSH2 0x9289 JUMP JUMPDEST PUSH1 0x20 SWAP1 DUP2 MUL SWAP2 SWAP1 SWAP2 ADD ADD MSTORE PUSH1 0x1 ADD PUSH2 0x5BE1 JUMP JUMPDEST PUSH2 0x61ED PUSH2 0x7B17 JUMP JUMPDEST PUSH2 0x61F5 PUSH2 0x7D07 JUMP JUMPDEST PUSH2 0x61FD PUSH2 0x7C2F JUMP JUMPDEST PUSH2 0x6205 PUSH2 0x7C6C JUMP JUMPDEST PUSH2 0x620D PUSH2 0x7C2F JUMP JUMPDEST PUSH2 0x6215 PUSH2 0x7C2F JUMP JUMPDEST DUP7 PUSH1 0xA DUP2 PUSH1 0x40 MLOAD PUSH2 0x6226 SWAP2 SWAP1 PUSH2 0x907B JUMP JUMPDEST SWAP1 DUP2 MSTORE PUSH1 0x40 MLOAD SWAP1 DUP2 SWAP1 SUB PUSH1 0x20 ADD SWAP1 KECCAK256 SLOAD PUSH1 0xFF AND PUSH2 0x6255 JUMPI PUSH1 0x40 MLOAD PUSH3 0x461BCD PUSH1 0xE5 SHL DUP2 MSTORE PUSH1 0x4 ADD PUSH2 0x719 SWAP1 PUSH2 0x9097 JUMP JUMPDEST PUSH1 0x1 DUP9 PUSH1 0x40 MLOAD PUSH2 0x6265 SWAP2 SWAP1 PUSH2 0x907B JUMP JUMPDEST SWAP1 DUP2 MSTORE PUSH1 0x20 ADD PUSH1 0x40 MLOAD DUP1 SWAP2 SUB SWAP1 KECCAK256 PUSH1 0x2 DUP10 PUSH1 0x40 MLOAD PUSH2 0x6283 SWAP2 SWAP1 PUSH2 0x907B JUMP JUMPDEST SWAP1 DUP2 MSTORE PUSH1 0x20 ADD PUSH1 0x40 MLOAD DUP1 SWAP2 SUB SWAP1 KECCAK256 PUSH1 0x3 DUP11 PUSH1 0x40 MLOAD PUSH2 0x62A1 SWAP2 SWAP1 PUSH2 0x907B JUMP JUMPDEST SWAP1 DUP2 MSTORE PUSH1 0x20 ADD PUSH1 0x40 MLOAD DUP1 SWAP2 SUB SWAP1 KECCAK256 PUSH1 0x4 DUP12 PUSH1 0x40 MLOAD PUSH2 0x62BF SWAP2 SWAP1 PUSH2 0x907B JUMP JUMPDEST SWAP1 DUP2 MSTORE PUSH1 0x20 ADD PUSH1 0x40 MLOAD DUP1 SWAP2 SUB SWAP1 KECCAK256 PUSH1 0x5 DUP13 PUSH1 0x40 MLOAD PUSH2 0x62DD SWAP2 SWAP1 PUSH2 0x907B JUMP JUMPDEST SWAP1 DUP2 MSTORE PUSH1 0x20 ADD PUSH1 0x40 MLOAD DUP1 SWAP2 SUB SWAP1 KECCAK256 PUSH1 0x6 DUP14 PUSH1 0x40 MLOAD PUSH2 0x62FB SWAP2 SWAP1 PUSH2 0x907B JUMP JUMPDEST SWAP1 DUP2 MSTORE PUSH1 0x20 ADD PUSH1 0x40 MLOAD DUP1 SWAP2 SUB SWAP1 KECCAK256 DUP6 PUSH1 0x40 MLOAD DUP1 PUSH2 0x1A0 ADD PUSH1 0x40 MSTORE SWAP1 DUP2 PUSH1 0x0 DUP3 ADD DUP1 SLOAD PUSH2 0x6326 SWAP1 PUSH2 0x9105 JUMP JUMPDEST DUP1 PUSH1 0x1F ADD PUSH1 0x20 DUP1 SWAP2 DIV MUL PUSH1 0x20 ADD PUSH1 0x40 MLOAD SWAP1 DUP2 ADD PUSH1 0x40 MSTORE DUP1 SWAP3 SWAP2 SWAP1 DUP2 DUP2 MSTORE PUSH1 0x20 ADD DUP3 DUP1 SLOAD PUSH2 0x6352 SWAP1 PUSH2 0x9105 JUMP JUMPDEST DUP1 ISZERO PUSH2 0x639F JUMPI DUP1 PUSH1 0x1F LT PUSH2 0x6374 JUMPI PUSH2 0x100 DUP1 DUP4 SLOAD DIV MUL DUP4 MSTORE SWAP2 PUSH1 0x20 ADD SWAP2 PUSH2 0x639F JUMP JUMPDEST DUP3 ADD SWAP2 SWAP1 PUSH1 0x0 MSTORE PUSH1 0x20 PUSH1 0x0 KECCAK256 SWAP1 JUMPDEST DUP2 SLOAD DUP2 MSTORE SWAP1 PUSH1 0x1 ADD SWAP1 PUSH1 0x20 ADD DUP1 DUP4 GT PUSH2 0x6382 JUMPI DUP3 SWAP1 SUB PUSH1 0x1F AND DUP3 ADD SWAP2 JUMPDEST POP POP POP POP POP DUP2 MSTORE PUSH1 0x20 ADD PUSH1 0x1 DUP3 ADD DUP1 SLOAD PUSH2 0x63B8 SWAP1 PUSH2 0x9105 JUMP JUMPDEST DUP1 PUSH1 0x1F ADD PUSH1 0x20 DUP1 SWAP2 DIV MUL PUSH1 0x20 ADD PUSH1 0x40 MLOAD SWAP1 DUP2 ADD PUSH1 0x40 MSTORE DUP1 SWAP3 SWAP2 SWAP1 DUP2 DUP2 MSTORE PUSH1 0x20 ADD DUP3 DUP1 SLOAD PUSH2 0x63E4 SWAP1 PUSH2 0x9105 JUMP JUMPDEST DUP1 ISZERO PUSH2 0x6431 JUMPI DUP1 PUSH1 0x1F LT PUSH2 0x6406 JUMPI PUSH2 0x100 DUP1 DUP4 SLOAD DIV MUL DUP4 MSTORE SWAP2 PUSH1 0x20 ADD SWAP2 PUSH2 0x6431 JUMP JUMPDEST DUP3 ADD SWAP2 SWAP1 PUSH1 0x0 MSTORE PUSH1 0x20 PUSH1 0x0 KECCAK256 SWAP1 JUMPDEST DUP2 SLOAD DUP2 MSTORE SWAP1 PUSH1 0x1 ADD SWAP1 PUSH1 0x20 ADD DUP1 DUP4 GT PUSH2 0x6414 JUMPI DUP3 SWAP1 SUB PUSH1 0x1F AND DUP3 ADD SWAP2 JUMPDEST POP POP POP POP POP DUP2 MSTORE PUSH1 0x20 ADD PUSH1 0x2 DUP3 ADD DUP1 SLOAD PUSH2 0x644A SWAP1 PUSH2 0x9105 JUMP JUMPDEST DUP1 PUSH1 0x1F ADD PUSH1 0x20 DUP1 SWAP2 DIV MUL PUSH1 0x20 ADD PUSH1 0x40 MLOAD SWAP1 DUP2 ADD PUSH1 0x40 MSTORE DUP1 SWAP3 SWAP2 SWAP1 DUP2 DUP2 MSTORE PUSH1 0x20 ADD DUP3 DUP1 SLOAD PUSH2 0x6476 SWAP1 PUSH2 0x9105 JUMP JUMPDEST DUP1 ISZERO PUSH2 0x64C3 JUMPI DUP1 PUSH1 0x1F LT PUSH2 0x6498 JUMPI PUSH2 0x100 DUP1 DUP4 SLOAD DIV MUL DUP4 MSTORE SWAP2 PUSH1 0x20 ADD SWAP2 PUSH2 0x64C3 JUMP JUMPDEST DUP3 ADD SWAP2 SWAP1 PUSH1 0x0 MSTORE PUSH1 0x20 PUSH1 0x0 KECCAK256 SWAP1 JUMPDEST DUP2 SLOAD DUP2 MSTORE SWAP1 PUSH1 0x1 ADD SWAP1 PUSH1 0x20 ADD DUP1 DUP4 GT PUSH2 0x64A6 JUMPI DUP3 SWAP1 SUB PUSH1 0x1F AND DUP3 ADD SWAP2 JUMPDEST POP POP POP POP POP DUP2 MSTORE PUSH1 0x20 ADD PUSH1 0x3 DUP3 ADD DUP1 SLOAD PUSH2 0x64DC SWAP1 PUSH2 0x9105 JUMP JUMPDEST DUP1 PUSH1 0x1F ADD PUSH1 0x20 DUP1 SWAP2 DIV MUL PUSH1 0x20 ADD PUSH1 0x40 MLOAD SWAP1 DUP2 ADD PUSH1 0x40 MSTORE DUP1 SWAP3 SWAP2 SWAP1 DUP2 DUP2 MSTORE PUSH1 0x20 ADD DUP3 DUP1 SLOAD PUSH2 0x6508 SWAP1 PUSH2 0x9105 JUMP JUMPDEST DUP1 ISZERO PUSH2 0x6555 JUMPI DUP1 PUSH1 0x1F LT PUSH2 0x652A JUMPI PUSH2 0x100 DUP1 DUP4 SLOAD DIV MUL DUP4 MSTORE SWAP2 PUSH1 0x20 ADD SWAP2 PUSH2 0x6555 JUMP JUMPDEST DUP3 ADD SWAP2 SWAP1 PUSH1 0x0 MSTORE PUSH1 0x20 PUSH1 0x0 KECCAK256 SWAP1 JUMPDEST DUP2 SLOAD DUP2 MSTORE SWAP1 PUSH1 0x1 ADD SWAP1 PUSH1 0x20 ADD DUP1 DUP4 GT PUSH2 0x6538 JUMPI DUP3 SWAP1 SUB PUSH1 0x1F AND DUP3 ADD SWAP2 JUMPDEST POP POP POP POP POP DUP2 MSTORE PUSH1 0x20 ADD PUSH1 0x4 DUP3 ADD DUP1 SLOAD PUSH2 0x656E SWAP1 PUSH2 0x9105 JUMP JUMPDEST DUP1 PUSH1 0x1F ADD PUSH1 0x20 DUP1 SWAP2 DIV MUL PUSH1 0x20 ADD PUSH1 0x40 MLOAD SWAP1 DUP2 ADD PUSH1 0x40 MSTORE DUP1 SWAP3 SWAP2 SWAP1 DUP2 DUP2 MSTORE PUSH1 0x20 ADD DUP3 DUP1 SLOAD PUSH2 0x659A SWAP1 PUSH2 0x9105 JUMP JUMPDEST DUP1 ISZERO PUSH2 0x65E7 JUMPI DUP1 PUSH1 0x1F LT PUSH2 0x65BC JUMPI PUSH2 0x100 DUP1 DUP4 SLOAD DIV MUL DUP4 MSTORE SWAP2 PUSH1 0x20 ADD SWAP2 PUSH2 0x65E7 JUMP JUMPDEST DUP3 ADD SWAP2 SWAP1 PUSH1 0x0 MSTORE PUSH1 0x20 PUSH1 0x0 KECCAK256 SWAP1 JUMPDEST DUP2 SLOAD DUP2 MSTORE SWAP1 PUSH1 0x1 ADD SWAP1 PUSH1 0x20 ADD DUP1 DUP4 GT PUSH2 0x65CA JUMPI DUP3 SWAP1 SUB PUSH1 0x1F AND DUP3 ADD SWAP2 JUMPDEST POP POP POP POP POP DUP2 MSTORE PUSH1 0x20 ADD PUSH1 0x5 DUP3 ADD DUP1 SLOAD PUSH2 0x6600 SWAP1 PUSH2 0x9105 JUMP JUMPDEST DUP1 PUSH1 0x1F ADD PUSH1 0x20 DUP1 SWAP2 DIV MUL PUSH1 0x20 ADD PUSH1 0x40 MLOAD SWAP1 DUP2 ADD PUSH1 0x40 MSTORE DUP1 SWAP3 SWAP2 SWAP1 DUP2 DUP2 MSTORE PUSH1 0x20 ADD DUP3 DUP1 SLOAD PUSH2 0x662C SWAP1 PUSH2 0x9105 JUMP JUMPDEST DUP1 ISZERO PUSH2 0x6679 JUMPI DUP1 PUSH1 0x1F LT PUSH2 0x664E JUMPI PUSH2 0x100 DUP1 DUP4 SLOAD DIV MUL DUP4 MSTORE SWAP2 PUSH1 0x20 ADD SWAP2 PUSH2 0x6679 JUMP JUMPDEST DUP3 ADD SWAP2 SWAP1 PUSH1 0x0 MSTORE PUSH1 0x20 PUSH1 0x0 KECCAK256 SWAP1 JUMPDEST DUP2 SLOAD DUP2 MSTORE SWAP1 PUSH1 0x1 ADD SWAP1 PUSH1 0x20 ADD DUP1 DUP4 GT PUSH2 0x665C JUMPI DUP3 SWAP1 SUB PUSH1 0x1F AND DUP3 ADD SWAP2 JUMPDEST POP POP POP POP POP DUP2 MSTORE PUSH1 0x20 ADD PUSH1 0x6 DUP3 ADD DUP1 SLOAD PUSH2 0x6692 SWAP1 PUSH2 0x9105 JUMP JUMPDEST DUP1 PUSH1 0x1F ADD PUSH1 0x20 DUP1 SWAP2 DIV MUL PUSH1 0x20 ADD PUSH1 0x40 MLOAD SWAP1 DUP2 ADD PUSH1 0x40 MSTORE DUP1 SWAP3 SWAP2 SWAP1 DUP2 DUP2 MSTORE PUSH1 0x20 ADD DUP3 DUP1 SLOAD PUSH2 0x66BE SWAP1 PUSH2 0x9105 JUMP JUMPDEST DUP1 ISZERO PUSH2 0x670B JUMPI DUP1 PUSH1 0x1F LT PUSH2 0x66E0 JUMPI PUSH2 0x100 DUP1 DUP4 SLOAD DIV MUL DUP4 MSTORE SWAP2 PUSH1 0x20 ADD SWAP2 PUSH2 0x670B JUMP JUMPDEST DUP3 ADD SWAP2 SWAP1 PUSH1 0x0 MSTORE PUSH1 0x20 PUSH1 0x0 KECCAK256 SWAP1 JUMPDEST DUP2 SLOAD DUP2 MSTORE SWAP1 PUSH1 0x1 ADD SWAP1 PUSH1 0x20 ADD DUP1 DUP4 GT PUSH2 0x66EE JUMPI DUP3 SWAP1 SUB PUSH1 0x1F AND DUP3 ADD SWAP2 JUMPDEST POP POP POP POP POP DUP2 MSTORE PUSH1 0x20 ADD PUSH1 0x7 DUP3 ADD DUP1 SLOAD PUSH2 0x6724 SWAP1 PUSH2 0x9105 JUMP JUMPDEST DUP1 PUSH1 0x1F ADD PUSH1 0x20 DUP1 SWAP2 DIV MUL PUSH1 0x20 ADD PUSH1 0x40 MLOAD SWAP1 DUP2 ADD PUSH1 0x40 MSTORE DUP1 SWAP3 SWAP2 SWAP1 DUP2 DUP2 MSTORE PUSH1 0x20 ADD DUP3 DUP1 SLOAD PUSH2 0x6750 SWAP1 PUSH2 0x9105 JUMP JUMPDEST DUP1 ISZERO PUSH2 0x679D JUMPI DUP1 PUSH1 0x1F LT PUSH2 0x6772 JUMPI PUSH2 0x100 DUP1 DUP4 SLOAD DIV MUL DUP4 MSTORE SWAP2 PUSH1 0x20 ADD SWAP2 PUSH2 0x679D JUMP JUMPDEST DUP3 ADD SWAP2 SWAP1 PUSH1 0x0 MSTORE PUSH1 0x20 PUSH1 0x0 KECCAK256 SWAP1 JUMPDEST DUP2 SLOAD DUP2 MSTORE SWAP1 PUSH1 0x1 ADD SWAP1 PUSH1 0x20 ADD DUP1 DUP4 GT PUSH2 0x6780 JUMPI DUP3 SWAP1 SUB PUSH1 0x1F AND DUP3 ADD SWAP2 JUMPDEST POP POP POP POP POP DUP2 MSTORE PUSH1 0x20 ADD PUSH1 0x8 DUP3 ADD DUP1 SLOAD PUSH2 0x67B6 SWAP1 PUSH2 0x9105 JUMP JUMPDEST DUP1 PUSH1 0x1F ADD PUSH1 0x20 DUP1 SWAP2 DIV MUL PUSH1 0x20 ADD PUSH1 0x40 MLOAD SWAP1 DUP2 ADD PUSH1 0x40 MSTORE DUP1 SWAP3 SWAP2 SWAP1 DUP2 DUP2 MSTORE PUSH1 0x20 ADD DUP3 DUP1 SLOAD PUSH2 0x67E2 SWAP1 PUSH2 0x9105 JUMP JUMPDEST DUP1 ISZERO PUSH2 0x682F JUMPI DUP1 PUSH1 0x1F LT PUSH2 0x6804 JUMPI PUSH2 0x100 DUP1 DUP4 SLOAD DIV MUL DUP4 MSTORE SWAP2 PUSH1 0x20 ADD SWAP2 PUSH2 0x682F JUMP JUMPDEST DUP3 ADD SWAP2 SWAP1 PUSH1 0x0 MSTORE PUSH1 0x20 PUSH1 0x0 KECCAK256 SWAP1 JUMPDEST DUP2 SLOAD DUP2 MSTORE SWAP1 PUSH1 0x1 ADD SWAP1 PUSH1 0x20 ADD DUP1 DUP4 GT PUSH2 0x6812 JUMPI DUP3 SWAP1 SUB PUSH1 0x1F AND DUP3 ADD SWAP2 JUMPDEST POP POP POP POP POP DUP2 MSTORE PUSH1 0x20 ADD PUSH1 0x9 DUP3 ADD DUP1 SLOAD PUSH2 0x6848 SWAP1 PUSH2 0x9105 JUMP JUMPDEST DUP1 PUSH1 0x1F ADD PUSH1 0x20 DUP1 SWAP2 DIV MUL PUSH1 0x20 ADD PUSH1 0x40 MLOAD SWAP1 DUP2 ADD PUSH1 0x40 MSTORE DUP1 SWAP3 SWAP2 SWAP1 DUP2 DUP2 MSTORE PUSH1 0x20 ADD DUP3 DUP1 SLOAD PUSH2 0x6874 SWAP1 PUSH2 0x9105 JUMP JUMPDEST DUP1 ISZERO PUSH2 0x68C1 JUMPI DUP1 PUSH1 0x1F LT PUSH2 0x6896 JUMPI PUSH2 0x100 DUP1 DUP4 SLOAD DIV MUL DUP4 MSTORE SWAP2 PUSH1 0x20 ADD SWAP2 PUSH2 0x68C1 JUMP JUMPDEST DUP3 ADD SWAP2 SWAP1 PUSH1 0x0 MSTORE PUSH1 0x20 PUSH1 0x0 KECCAK256 SWAP1 JUMPDEST DUP2 SLOAD DUP2 MSTORE SWAP1 PUSH1 0x1 ADD SWAP1 PUSH1 0x20 ADD DUP1 DUP4 GT PUSH2 0x68A4 JUMPI DUP3 SWAP1 SUB PUSH1 0x1F AND DUP3 ADD SWAP2 JUMPDEST POP POP POP SWAP2 DUP4 MSTORE POP POP PUSH1 0xA DUP3 ADD SLOAD PUSH1 0x20 DUP3 ADD MSTORE PUSH1 0xB DUP3 ADD SLOAD PUSH1 0x40 SWAP1 SWAP2 ADD SWAP1 PUSH1 0xFF AND PUSH1 0x3 DUP2 GT ISZERO PUSH2 0x68F2 JUMPI PUSH2 0x68F2 PUSH2 0x80D0 JUMP JUMPDEST PUSH1 0x3 DUP2 GT ISZERO PUSH2 0x6903 JUMPI PUSH2 0x6903 PUSH2 0x80D0 JUMP JUMPDEST DUP2 MSTORE PUSH1 0x20 ADD PUSH1 0xB DUP3 ADD PUSH1 0x1 SWAP1 SLOAD SWAP1 PUSH2 0x100 EXP SWAP1 DIV PUSH1 0xFF AND PUSH1 0x4 DUP2 GT ISZERO PUSH2 0x692B JUMPI PUSH2 0x692B PUSH2 0x80D0 JUMP JUMPDEST PUSH1 0x4 DUP2 GT ISZERO PUSH2 0x693C JUMPI PUSH2 0x693C PUSH2 0x80D0 JUMP JUMPDEST DUP2 MSTORE POP POP SWAP6 POP DUP5 PUSH1 0x40 MLOAD DUP1 PUSH1 0xC0 ADD PUSH1 0x40 MSTORE SWAP1 DUP2 PUSH1 0x0 DUP3 ADD DUP1 SLOAD PUSH2 0x695E SWAP1 PUSH2 0x9105 JUMP JUMPDEST DUP1 PUSH1 0x1F ADD PUSH1 0x20 DUP1 SWAP2 DIV MUL PUSH1 0x20 ADD PUSH1 0x40 MLOAD SWAP1 DUP2 ADD PUSH1 0x40 MSTORE DUP1 SWAP3 SWAP2 SWAP1 DUP2 DUP2 MSTORE PUSH1 0x20 ADD DUP3 DUP1 SLOAD PUSH2 0x698A SWAP1 PUSH2 0x9105 JUMP JUMPDEST DUP1 ISZERO PUSH2 0x69D7 JUMPI DUP1 PUSH1 0x1F LT PUSH2 0x69AC JUMPI PUSH2 0x100 DUP1 DUP4 SLOAD DIV MUL DUP4 MSTORE SWAP2 PUSH1 0x20 ADD SWAP2 PUSH2 0x69D7 JUMP JUMPDEST DUP3 ADD SWAP2 SWAP1 PUSH1 0x0 MSTORE PUSH1 0x20 PUSH1 0x0 KECCAK256 SWAP1 JUMPDEST DUP2 SLOAD DUP2 MSTORE SWAP1 PUSH1 0x1 ADD SWAP1 PUSH1 0x20 ADD DUP1 DUP4 GT PUSH2 0x69BA JUMPI DUP3 SWAP1 SUB PUSH1 0x1F AND DUP3 ADD SWAP2 JUMPDEST POP POP POP POP POP DUP2 MSTORE PUSH1 0x20 ADD PUSH1 0x1 DUP3 ADD DUP1 SLOAD PUSH2 0x69F0 SWAP1 PUSH2 0x9105 JUMP JUMPDEST DUP1 PUSH1 0x1F ADD PUSH1 0x20 DUP1 SWAP2 DIV MUL PUSH1 0x20 ADD PUSH1 0x40 MLOAD SWAP1 DUP2 ADD PUSH1 0x40 MSTORE DUP1 SWAP3 SWAP2 SWAP1 DUP2 DUP2 MSTORE PUSH1 0x20 ADD DUP3 DUP1 SLOAD PUSH2 0x6A1C SWAP1 PUSH2 0x9105 JUMP JUMPDEST DUP1 ISZERO PUSH2 0x6A69 JUMPI DUP1 PUSH1 0x1F LT PUSH2 0x6A3E JUMPI PUSH2 0x100 DUP1 DUP4 SLOAD DIV MUL DUP4 MSTORE SWAP2 PUSH1 0x20 ADD SWAP2 PUSH2 0x6A69 JUMP JUMPDEST DUP3 ADD SWAP2 SWAP1 PUSH1 0x0 MSTORE PUSH1 0x20 PUSH1 0x0 KECCAK256 SWAP1 JUMPDEST DUP2 SLOAD DUP2 MSTORE SWAP1 PUSH1 0x1 ADD SWAP1 PUSH1 0x20 ADD DUP1 DUP4 GT PUSH2 0x6A4C JUMPI DUP3 SWAP1 SUB PUSH1 0x1F AND DUP3 ADD SWAP2 JUMPDEST POP POP POP POP POP DUP2 MSTORE PUSH1 0x20 ADD PUSH1 0x2 DUP3 ADD DUP1 SLOAD PUSH2 0x6A82 SWAP1 PUSH2 0x9105 JUMP JUMPDEST DUP1 PUSH1 0x1F ADD PUSH1 0x20 DUP1 SWAP2 DIV MUL PUSH1 0x20 ADD PUSH1 0x40 MLOAD SWAP1 DUP2 ADD PUSH1 0x40 MSTORE DUP1 SWAP3 SWAP2 SWAP1 DUP2 DUP2 MSTORE PUSH1 0x20 ADD DUP3 DUP1 SLOAD PUSH2 0x6AAE SWAP1 PUSH2 0x9105 JUMP JUMPDEST DUP1 ISZERO PUSH2 0x6AFB JUMPI DUP1 PUSH1 0x1F LT PUSH2 0x6AD0 JUMPI PUSH2 0x100 DUP1 DUP4 SLOAD DIV MUL DUP4 MSTORE SWAP2 PUSH1 0x20 ADD SWAP2 PUSH2 0x6AFB JUMP JUMPDEST DUP3 ADD SWAP2 SWAP1 PUSH1 0x0 MSTORE PUSH1 0x20 PUSH1 0x0 KECCAK256 SWAP1 JUMPDEST DUP2 SLOAD DUP2 MSTORE SWAP1 PUSH1 0x1 ADD SWAP1 PUSH1 0x20 ADD DUP1 DUP4 GT PUSH2 0x6ADE JUMPI DUP3 SWAP1 SUB PUSH1 0x1F AND DUP3 ADD SWAP2 JUMPDEST POP POP POP POP POP DUP2 MSTORE PUSH1 0x20 ADD PUSH1 0x3 DUP3 ADD DUP1 SLOAD PUSH2 0x6B14 SWAP1 PUSH2 0x9105 JUMP JUMPDEST DUP1 PUSH1 0x1F ADD PUSH1 0x20 DUP1 SWAP2 DIV MUL PUSH1 0x20 ADD PUSH1 0x40 MLOAD SWAP1 DUP2 ADD PUSH1 0x40 MSTORE DUP1 SWAP3 SWAP2 SWAP1 DUP2 DUP2 MSTORE PUSH1 0x20 ADD DUP3 DUP1 SLOAD PUSH2 0x6B40 SWAP1 PUSH2 0x9105 JUMP JUMPDEST DUP1 ISZERO PUSH2 0x6B8D JUMPI DUP1 PUSH1 0x1F LT PUSH2 0x6B62 JUMPI PUSH2 0x100 DUP1 DUP4 SLOAD DIV MUL DUP4 MSTORE SWAP2 PUSH1 0x20 ADD SWAP2 PUSH2 0x6B8D JUMP JUMPDEST DUP3 ADD SWAP2 SWAP1 PUSH1 0x0 MSTORE PUSH1 0x20 PUSH1 0x0 KECCAK256 SWAP1 JUMPDEST DUP2 SLOAD DUP2 MSTORE SWAP1 PUSH1 0x1 ADD SWAP1 PUSH1 0x20 ADD DUP1 DUP4 GT PUSH2 0x6B70 JUMPI DUP3 SWAP1 SUB PUSH1 0x1F AND DUP3 ADD SWAP2 JUMPDEST POP POP POP POP POP DUP2 MSTORE PUSH1 0x20 ADD PUSH1 0x4 DUP3 ADD DUP1 SLOAD PUSH2 0x6BA6 SWAP1 PUSH2 0x9105 JUMP JUMPDEST DUP1 PUSH1 0x1F ADD PUSH1 0x20 DUP1 SWAP2 DIV MUL PUSH1 0x20 ADD PUSH1 0x40 MLOAD SWAP1 DUP2 ADD PUSH1 0x40 MSTORE DUP1 SWAP3 SWAP2 SWAP1 DUP2 DUP2 MSTORE PUSH1 0x20 ADD DUP3 DUP1 SLOAD PUSH2 0x6BD2 SWAP1 PUSH2 0x9105 JUMP JUMPDEST DUP1 ISZERO PUSH2 0x6C1F JUMPI DUP1 PUSH1 0x1F LT PUSH2 0x6BF4 JUMPI PUSH2 0x100 DUP1 DUP4 SLOAD DIV MUL DUP4 MSTORE SWAP2 PUSH1 0x20 ADD SWAP2 PUSH2 0x6C1F JUMP JUMPDEST DUP3 ADD SWAP2 SWAP1 PUSH1 0x0 MSTORE PUSH1 0x20 PUSH1 0x0 KECCAK256 SWAP1 JUMPDEST DUP2 SLOAD DUP2 MSTORE SWAP1 PUSH1 0x1 ADD SWAP1 PUSH1 0x20 ADD DUP1 DUP4 GT PUSH2 0x6C02 JUMPI DUP3 SWAP1 SUB PUSH1 0x1F AND DUP3 ADD SWAP2 JUMPDEST POP POP POP POP POP DUP2 MSTORE PUSH1 0x20 ADD PUSH1 0x5 DUP3 ADD SLOAD DUP2 MSTORE POP POP SWAP5 POP DUP4 PUSH1 0x40 MLOAD DUP1 PUSH1 0xE0 ADD PUSH1 0x40 MSTORE SWAP1 DUP2 PUSH1 0x0 DUP3 ADD DUP1 SLOAD PUSH2 0x6C50 SWAP1 PUSH2 0x9105 JUMP JUMPDEST DUP1 PUSH1 0x1F ADD PUSH1 0x20 DUP1 SWAP2 DIV MUL PUSH1 0x20 ADD PUSH1 0x40 MLOAD SWAP1 DUP2 ADD PUSH1 0x40 MSTORE DUP1 SWAP3 SWAP2 SWAP1 DUP2 DUP2 MSTORE PUSH1 0x20 ADD DUP3 DUP1 SLOAD PUSH2 0x6C7C SWAP1 PUSH2 0x9105 JUMP JUMPDEST DUP1 ISZERO PUSH2 0x6CC9 JUMPI DUP1 PUSH1 0x1F LT PUSH2 0x6C9E JUMPI PUSH2 0x100 DUP1 DUP4 SLOAD DIV MUL DUP4 MSTORE SWAP2 PUSH1 0x20 ADD SWAP2 PUSH2 0x6CC9 JUMP JUMPDEST DUP3 ADD SWAP2 SWAP1 PUSH1 0x0 MSTORE PUSH1 0x20 PUSH1 0x0 KECCAK256 SWAP1 JUMPDEST DUP2 SLOAD DUP2 MSTORE SWAP1 PUSH1 0x1 ADD SWAP1 PUSH1 0x20 ADD DUP1 DUP4 GT PUSH2 0x6CAC JUMPI DUP3 SWAP1 SUB PUSH1 0x1F AND DUP3 ADD SWAP2 JUMPDEST POP POP POP POP POP DUP2 MSTORE PUSH1 0x20 ADD PUSH1 0x1 DUP3 ADD DUP1 SLOAD PUSH2 0x6CE2 SWAP1 PUSH2 0x9105 JUMP JUMPDEST DUP1 PUSH1 0x1F ADD PUSH1 0x20 DUP1 SWAP2 DIV MUL PUSH1 0x20 ADD PUSH1 0x40 MLOAD SWAP1 DUP2 ADD PUSH1 0x40 MSTORE DUP1 SWAP3 SWAP2 SWAP1 DUP2 DUP2 MSTORE PUSH1 0x20 ADD DUP3 DUP1 SLOAD PUSH2 0x6D0E SWAP1 PUSH2 0x9105 JUMP JUMPDEST DUP1 ISZERO PUSH2 0x6D5B JUMPI DUP1 PUSH1 0x1F LT PUSH2 0x6D30 JUMPI PUSH2 0x100 DUP1 DUP4 SLOAD DIV MUL DUP4 MSTORE SWAP2 PUSH1 0x20 ADD SWAP2 PUSH2 0x6D5B JUMP JUMPDEST DUP3 ADD SWAP2 SWAP1 PUSH1 0x0 MSTORE PUSH1 0x20 PUSH1 0x0 KECCAK256 SWAP1 JUMPDEST DUP2 SLOAD DUP2 MSTORE SWAP1 PUSH1 0x1 ADD SWAP1 PUSH1 0x20 ADD DUP1 DUP4 GT PUSH2 0x6D3E JUMPI DUP3 SWAP1 SUB PUSH1 0x1F AND DUP3 ADD SWAP2 JUMPDEST POP POP POP POP POP DUP2 MSTORE PUSH1 0x20 ADD PUSH1 0x2 DUP3 ADD DUP1 SLOAD PUSH2 0x6D74 SWAP1 PUSH2 0x9105 JUMP JUMPDEST DUP1 PUSH1 0x1F ADD PUSH1 0x20 DUP1 SWAP2 DIV MUL PUSH1 0x20 ADD PUSH1 0x40 MLOAD SWAP1 DUP2 ADD PUSH1 0x40 MSTORE DUP1 SWAP3 SWAP2 SWAP1 DUP2 DUP2 MSTORE PUSH1 0x20 ADD DUP3 DUP1 SLOAD PUSH2 0x6DA0 SWAP1 PUSH2 0x9105 JUMP JUMPDEST DUP1 ISZERO PUSH2 0x6DED JUMPI DUP1 PUSH1 0x1F LT PUSH2 0x6DC2 JUMPI PUSH2 0x100 DUP1 DUP4 SLOAD DIV MUL DUP4 MSTORE SWAP2 PUSH1 0x20 ADD SWAP2 PUSH2 0x6DED JUMP JUMPDEST DUP3 ADD SWAP2 SWAP1 PUSH1 0x0 MSTORE PUSH1 0x20 PUSH1 0x0 KECCAK256 SWAP1 JUMPDEST DUP2 SLOAD DUP2 MSTORE SWAP1 PUSH1 0x1 ADD SWAP1 PUSH1 0x20 ADD DUP1 DUP4 GT PUSH2 0x6DD0 JUMPI DUP3 SWAP1 SUB PUSH1 0x1F AND DUP3 ADD SWAP2 JUMPDEST POP POP POP POP POP DUP2 MSTORE PUSH1 0x20 ADD PUSH1 0x3 DUP3 ADD DUP1 SLOAD PUSH2 0x6E06 SWAP1 PUSH2 0x9105 JUMP JUMPDEST DUP1 PUSH1 0x1F ADD PUSH1 0x20 DUP1 SWAP2 DIV MUL PUSH1 0x20 ADD PUSH1 0x40 MLOAD SWAP1 DUP2 ADD PUSH1 0x40 MSTORE DUP1 SWAP3 SWAP2 SWAP1 DUP2 DUP2 MSTORE PUSH1 0x20 ADD DUP3 DUP1 SLOAD PUSH2 0x6E32 SWAP1 PUSH2 0x9105 JUMP JUMPDEST DUP1 ISZERO PUSH2 0x6E7F JUMPI DUP1 PUSH1 0x1F LT PUSH2 0x6E54 JUMPI PUSH2 0x100 DUP1 DUP4 SLOAD DIV MUL DUP4 MSTORE SWAP2 PUSH1 0x20 ADD SWAP2 PUSH2 0x6E7F JUMP JUMPDEST DUP3 ADD SWAP2 SWAP1 PUSH1 0x0 MSTORE PUSH1 0x20 PUSH1 0x0 KECCAK256 SWAP1 JUMPDEST DUP2 SLOAD DUP2 MSTORE SWAP1 PUSH1 0x1 ADD SWAP1 PUSH1 0x20 ADD DUP1 DUP4 GT PUSH2 0x6E62 JUMPI DUP3 SWAP1 SUB PUSH1 0x1F AND DUP3 ADD SWAP2 JUMPDEST POP POP POP POP POP DUP2 MSTORE PUSH1 0x20 ADD PUSH1 0x4 DUP3 ADD DUP1 SLOAD PUSH2 0x6E98 SWAP1 PUSH2 0x9105 JUMP JUMPDEST DUP1 PUSH1 0x1F ADD PUSH1 0x20 DUP1 SWAP2 DIV MUL PUSH1 0x20 ADD PUSH1 0x40 MLOAD SWAP1 DUP2 ADD PUSH1 0x40 MSTORE DUP1 SWAP3 SWAP2 SWAP1 DUP2 DUP2 MSTORE PUSH1 0x20 ADD DUP3 DUP1 SLOAD PUSH2 0x6EC4 SWAP1 PUSH2 0x9105 JUMP JUMPDEST DUP1 ISZERO PUSH2 0x6F11 JUMPI DUP1 PUSH1 0x1F LT PUSH2 0x6EE6 JUMPI PUSH2 0x100 DUP1 DUP4 SLOAD DIV MUL DUP4 MSTORE SWAP2 PUSH1 0x20 ADD SWAP2 PUSH2 0x6F11 JUMP JUMPDEST DUP3 ADD SWAP2 SWAP1 PUSH1 0x0 MSTORE PUSH1 0x20 PUSH1 0x0 KECCAK256 SWAP1 JUMPDEST DUP2 SLOAD DUP2 MSTORE SWAP1 PUSH1 0x1 ADD SWAP1 PUSH1 0x20 ADD DUP1 DUP4 GT PUSH2 0x6EF4 JUMPI DUP3 SWAP1 SUB PUSH1 0x1F AND DUP3 ADD SWAP2 JUMPDEST POP POP POP POP POP DUP2 MSTORE PUSH1 0x20 ADD PUSH1 0x5 DUP3 ADD DUP1 SLOAD PUSH2 0x6F2A SWAP1 PUSH2 0x9105 JUMP JUMPDEST DUP1 PUSH1 0x1F ADD PUSH1 0x20 DUP1 SWAP2 DIV MUL PUSH1 0x20 ADD PUSH1 0x40 MLOAD SWAP1 DUP2 ADD PUSH1 0x40 MSTORE DUP1 SWAP3 SWAP2 SWAP1 DUP2 DUP2 MSTORE PUSH1 0x20 ADD DUP3 DUP1 SLOAD PUSH2 0x6F56 SWAP1 PUSH2 0x9105 JUMP JUMPDEST DUP1 ISZERO PUSH2 0x6FA3 JUMPI DUP1 PUSH1 0x1F LT PUSH2 0x6F78 JUMPI PUSH2 0x100 DUP1 DUP4 SLOAD DIV MUL DUP4 MSTORE SWAP2 PUSH1 0x20 ADD SWAP2 PUSH2 0x6FA3 JUMP JUMPDEST DUP3 ADD SWAP2 SWAP1 PUSH1 0x0 MSTORE PUSH1 0x20 PUSH1 0x0 KECCAK256 SWAP1 JUMPDEST DUP2 SLOAD DUP2 MSTORE SWAP1 PUSH1 0x1 ADD SWAP1 PUSH1 0x20 ADD DUP1 DUP4 GT PUSH2 0x6F86 JUMPI DUP3 SWAP1 SUB PUSH1 0x1F AND DUP3 ADD SWAP2 JUMPDEST POP POP POP POP POP DUP2 MSTORE PUSH1 0x20 ADD PUSH1 0x6 DUP3 ADD SLOAD DUP2 MSTORE POP POP SWAP4 POP DUP3 PUSH1 0x40 MLOAD DUP1 PUSH2 0x100 ADD PUSH1 0x40 MSTORE SWAP1 DUP2 PUSH1 0x0 DUP3 ADD DUP1 SLOAD PUSH2 0x6FD5 SWAP1 PUSH2 0x9105 JUMP JUMPDEST DUP1 PUSH1 0x1F ADD PUSH1 0x20 DUP1 SWAP2 DIV MUL PUSH1 0x20 ADD PUSH1 0x40 MLOAD SWAP1 DUP2 ADD PUSH1 0x40 MSTORE DUP1 SWAP3 SWAP2 SWAP1 DUP2 DUP2 MSTORE PUSH1 0x20 ADD DUP3 DUP1 SLOAD PUSH2 0x7001 SWAP1 PUSH2 0x9105 JUMP JUMPDEST DUP1 ISZERO PUSH2 0x704E JUMPI DUP1 PUSH1 0x1F LT PUSH2 0x7023 JUMPI PUSH2 0x100 DUP1 DUP4 SLOAD DIV MUL DUP4 MSTORE SWAP2 PUSH1 0x20 ADD SWAP2 PUSH2 0x704E JUMP JUMPDEST DUP3 ADD SWAP2 SWAP1 PUSH1 0x0 MSTORE PUSH1 0x20 PUSH1 0x0 KECCAK256 SWAP1 JUMPDEST DUP2 SLOAD DUP2 MSTORE SWAP1 PUSH1 0x1 ADD SWAP1 PUSH1 0x20 ADD DUP1 DUP4 GT PUSH2 0x7031 JUMPI DUP3 SWAP1 SUB PUSH1 0x1F AND DUP3 ADD SWAP2 JUMPDEST POP POP POP POP POP DUP2 MSTORE PUSH1 0x20 ADD PUSH1 0x1 DUP3 ADD DUP1 SLOAD PUSH2 0x7067 SWAP1 PUSH2 0x9105 JUMP JUMPDEST DUP1 PUSH1 0x1F ADD PUSH1 0x20 DUP1 SWAP2 DIV MUL PUSH1 0x20 ADD PUSH1 0x40 MLOAD SWAP1 DUP2 ADD PUSH1 0x40 MSTORE DUP1 SWAP3 SWAP2 SWAP1 DUP2 DUP2 MSTORE PUSH1 0x20 ADD DUP3 DUP1 SLOAD PUSH2 0x7093 SWAP1 PUSH2 0x9105 JUMP JUMPDEST DUP1 ISZERO PUSH2 0x70E0 JUMPI DUP1 PUSH1 0x1F LT PUSH2 0x70B5 JUMPI PUSH2 0x100 DUP1 DUP4 SLOAD DIV MUL DUP4 MSTORE SWAP2 PUSH1 0x20 ADD SWAP2 PUSH2 0x70E0 JUMP JUMPDEST DUP3 ADD SWAP2 SWAP1 PUSH1 0x0 MSTORE PUSH1 0x20 PUSH1 0x0 KECCAK256 SWAP1 JUMPDEST DUP2 SLOAD DUP2 MSTORE SWAP1 PUSH1 0x1 ADD SWAP1 PUSH1 0x20 ADD DUP1 DUP4 GT PUSH2 0x70C3 JUMPI DUP3 SWAP1 SUB PUSH1 0x1F AND DUP3 ADD SWAP2 JUMPDEST POP POP POP POP POP DUP2 MSTORE PUSH1 0x20 ADD PUSH1 0x2 DUP3 ADD DUP1 SLOAD PUSH2 0x70F9 SWAP1 PUSH2 0x9105 JUMP JUMPDEST DUP1 PUSH1 0x1F ADD PUSH1 0x20 DUP1 SWAP2 DIV MUL PUSH1 0x20 ADD PUSH1 0x40 MLOAD SWAP1 DUP2 ADD PUSH1 0x40 MSTORE DUP1 SWAP3 SWAP2 SWAP1 DUP2 DUP2 MSTORE PUSH1 0x20 ADD DUP3 DUP1 SLOAD PUSH2 0x7125 SWAP1 PUSH2 0x9105 JUMP JUMPDEST DUP1 ISZERO PUSH2 0x7172 JUMPI DUP1 PUSH1 0x1F LT PUSH2 0x7147 JUMPI PUSH2 0x100 DUP1 DUP4 SLOAD DIV MUL DUP4 MSTORE SWAP2 PUSH1 0x20 ADD SWAP2 PUSH2 0x7172 JUMP JUMPDEST DUP3 ADD SWAP2 SWAP1 PUSH1 0x0 MSTORE PUSH1 0x20 PUSH1 0x0 KECCAK256 SWAP1 JUMPDEST DUP2 SLOAD DUP2 MSTORE SWAP1 PUSH1 0x1 ADD SWAP1 PUSH1 0x20 ADD DUP1 DUP4 GT PUSH2 0x7155 JUMPI DUP3 SWAP1 SUB PUSH1 0x1F AND DUP3 ADD SWAP2 JUMPDEST POP POP POP POP POP DUP2 MSTORE PUSH1 0x20 ADD PUSH1 0x3 DUP3 ADD DUP1 SLOAD PUSH2 0x718B SWAP1 PUSH2 0x9105 JUMP JUMPDEST DUP1 PUSH1 0x1F ADD PUSH1 0x20 DUP1 SWAP2 DIV MUL PUSH1 0x20 ADD PUSH1 0x40 MLOAD SWAP1 DUP2 ADD PUSH1 0x40 MSTORE DUP1 SWAP3 SWAP2 SWAP1 DUP2 DUP2 MSTORE PUSH1 0x20 ADD DUP3 DUP1 SLOAD PUSH2 0x71B7 SWAP1 PUSH2 0x9105 JUMP JUMPDEST DUP1 ISZERO PUSH2 0x7204 JUMPI DUP1 PUSH1 0x1F LT PUSH2 0x71D9 JUMPI PUSH2 0x100 DUP1 DUP4 SLOAD DIV MUL DUP4 MSTORE SWAP2 PUSH1 0x20 ADD SWAP2 PUSH2 0x7204 JUMP JUMPDEST DUP3 ADD SWAP2 SWAP1 PUSH1 0x0 MSTORE PUSH1 0x20 PUSH1 0x0 KECCAK256 SWAP1 JUMPDEST DUP2 SLOAD DUP2 MSTORE SWAP1 PUSH1 0x1 ADD SWAP1 PUSH1 0x20 ADD DUP1 DUP4 GT PUSH2 0x71E7 JUMPI DUP3 SWAP1 SUB PUSH1 0x1F AND DUP3 ADD SWAP2 JUMPDEST POP POP POP POP POP DUP2 MSTORE PUSH1 0x20 ADD PUSH1 0x4 DUP3 ADD DUP1 SLOAD PUSH2 0x721D SWAP1 PUSH2 0x9105 JUMP JUMPDEST DUP1 PUSH1 0x1F ADD PUSH1 0x20 DUP1 SWAP2 DIV MUL PUSH1 0x20 ADD PUSH1 0x40 MLOAD SWAP1 DUP2 ADD PUSH1 0x40 MSTORE DUP1 SWAP3 SWAP2 SWAP1 DUP2 DUP2 MSTORE PUSH1 0x20 ADD DUP3 DUP1 SLOAD PUSH2 0x7249 SWAP1 PUSH2 0x9105 JUMP JUMPDEST DUP1 ISZERO PUSH2 0x7296 JUMPI DUP1 PUSH1 0x1F LT PUSH2 0x726B JUMPI PUSH2 0x100 DUP1 DUP4 SLOAD DIV MUL DUP4 MSTORE SWAP2 PUSH1 0x20 ADD SWAP2 PUSH2 0x7296 JUMP JUMPDEST DUP3 ADD SWAP2 SWAP1 PUSH1 0x0 MSTORE PUSH1 0x20 PUSH1 0x0 KECCAK256 SWAP1 JUMPDEST DUP2 SLOAD DUP2 MSTORE SWAP1 PUSH1 0x1 ADD SWAP1 PUSH1 0x20 ADD DUP1 DUP4 GT PUSH2 0x7279 JUMPI DUP3 SWAP1 SUB PUSH1 0x1F AND DUP3 ADD SWAP2 JUMPDEST POP POP POP POP POP DUP2 MSTORE PUSH1 0x20 ADD PUSH1 0x5 DUP3 ADD DUP1 SLOAD PUSH2 0x72AF SWAP1 PUSH2 0x9105 JUMP JUMPDEST DUP1 PUSH1 0x1F ADD PUSH1 0x20 DUP1 SWAP2 DIV MUL PUSH1 0x20 ADD PUSH1 0x40 MLOAD SWAP1 DUP2 ADD PUSH1 0x40 MSTORE DUP1 SWAP3 SWAP2 SWAP1 DUP2 DUP2 MSTORE PUSH1 0x20 ADD DUP3 DUP1 SLOAD PUSH2 0x72DB SWAP1 PUSH2 0x9105 JUMP JUMPDEST DUP1 ISZERO PUSH2 0x7328 JUMPI DUP1 PUSH1 0x1F LT PUSH2 0x72FD JUMPI PUSH2 0x100 DUP1 DUP4 SLOAD DIV MUL DUP4 MSTORE SWAP2 PUSH1 0x20 ADD SWAP2 PUSH2 0x7328 JUMP JUMPDEST DUP3 ADD SWAP2 SWAP1 PUSH1 0x0 MSTORE PUSH1 0x20 PUSH1 0x0 KECCAK256 SWAP1 JUMPDEST DUP2 SLOAD DUP2 MSTORE SWAP1 PUSH1 0x1 ADD SWAP1 PUSH1 0x20 ADD DUP1 DUP4 GT PUSH2 0x730B JUMPI DUP3 SWAP1 SUB PUSH1 0x1F AND DUP3 ADD SWAP2 JUMPDEST POP POP POP POP POP DUP2 MSTORE PUSH1 0x20 ADD PUSH1 0x6 DUP3 ADD DUP1 SLOAD PUSH2 0x7341 SWAP1 PUSH2 0x9105 JUMP JUMPDEST DUP1 PUSH1 0x1F ADD PUSH1 0x20 DUP1 SWAP2 DIV MUL PUSH1 0x20 ADD PUSH1 0x40 MLOAD SWAP1 DUP2 ADD PUSH1 0x40 MSTORE DUP1 SWAP3 SWAP2 SWAP1 DUP2 DUP2 MSTORE PUSH1 0x20 ADD DUP3 DUP1 SLOAD PUSH2 0x736D SWAP1 PUSH2 0x9105 JUMP JUMPDEST DUP1 ISZERO PUSH2 0x73BA JUMPI DUP1 PUSH1 0x1F LT PUSH2 0x738F JUMPI PUSH2 0x100 DUP1 DUP4 SLOAD DIV MUL DUP4 MSTORE SWAP2 PUSH1 0x20 ADD SWAP2 PUSH2 0x73BA JUMP JUMPDEST DUP3 ADD SWAP2 SWAP1 PUSH1 0x0 MSTORE PUSH1 0x20 PUSH1 0x0 KECCAK256 SWAP1 JUMPDEST DUP2 SLOAD DUP2 MSTORE SWAP1 PUSH1 0x1 ADD SWAP1 PUSH1 0x20 ADD DUP1 DUP4 GT PUSH2 0x739D JUMPI DUP3 SWAP1 SUB PUSH1 0x1F AND DUP3 ADD SWAP2 JUMPDEST POP POP POP POP POP DUP2 MSTORE PUSH1 0x20 ADD PUSH1 0x7 DUP3 ADD SLOAD DUP2 MSTORE POP POP SWAP3 POP DUP2 PUSH1 0x40 MLOAD DUP1 PUSH1 0xE0 ADD PUSH1 0x40 MSTORE SWAP1 DUP2 PUSH1 0x0 DUP3 ADD DUP1 SLOAD PUSH2 0x73EB SWAP1 PUSH2 0x9105 JUMP JUMPDEST DUP1 PUSH1 0x1F ADD PUSH1 0x20 DUP1 SWAP2 DIV MUL PUSH1 0x20 ADD PUSH1 0x40 MLOAD SWAP1 DUP2 ADD PUSH1 0x40 MSTORE DUP1 SWAP3 SWAP2 SWAP1 DUP2 DUP2 MSTORE PUSH1 0x20 ADD DUP3 DUP1 SLOAD PUSH2 0x7417 SWAP1 PUSH2 0x9105 JUMP JUMPDEST DUP1 ISZERO PUSH2 0x7464 JUMPI DUP1 PUSH1 0x1F LT PUSH2 0x7439 JUMPI PUSH2 0x100 DUP1 DUP4 SLOAD DIV MUL DUP4 MSTORE SWAP2 PUSH1 0x20 ADD SWAP2 PUSH2 0x7464 JUMP JUMPDEST DUP3 ADD SWAP2 SWAP1 PUSH1 0x0 MSTORE PUSH1 0x20 PUSH1 0x0 KECCAK256 SWAP1 JUMPDEST DUP2 SLOAD DUP2 MSTORE SWAP1 PUSH1 0x1 ADD SWAP1 PUSH1 0x20 ADD DUP1 DUP4 GT PUSH2 0x7447 JUMPI DUP3 SWAP1 SUB PUSH1 0x1F AND DUP3 ADD SWAP2 JUMPDEST POP POP POP POP POP DUP2 MSTORE PUSH1 0x20 ADD PUSH1 0x1 DUP3 ADD DUP1 SLOAD PUSH2 0x747D SWAP1 PUSH2 0x9105 JUMP JUMPDEST DUP1 PUSH1 0x1F ADD PUSH1 0x20 DUP1 SWAP2 DIV MUL PUSH1 0x20 ADD PUSH1 0x40 MLOAD SWAP1 DUP2 ADD PUSH1 0x40 MSTORE DUP1 SWAP3 SWAP2 SWAP1 DUP2 DUP2 MSTORE PUSH1 0x20 ADD DUP3 DUP1 SLOAD PUSH2 0x74A9 SWAP1 PUSH2 0x9105 JUMP JUMPDEST DUP1 ISZERO PUSH2 0x74F6 JUMPI DUP1 PUSH1 0x1F LT PUSH2 0x74CB JUMPI PUSH2 0x100 DUP1 DUP4 SLOAD DIV MUL DUP4 MSTORE SWAP2 PUSH1 0x20 ADD SWAP2 PUSH2 0x74F6 JUMP JUMPDEST DUP3 ADD SWAP2 SWAP1 PUSH1 0x0 MSTORE PUSH1 0x20 PUSH1 0x0 KECCAK256 SWAP1 JUMPDEST DUP2 SLOAD DUP2 MSTORE SWAP1 PUSH1 0x1 ADD SWAP1 PUSH1 0x20 ADD DUP1 DUP4 GT PUSH2 0x74D9 JUMPI DUP3 SWAP1 SUB PUSH1 0x1F AND DUP3 ADD SWAP2 JUMPDEST POP POP POP POP POP DUP2 MSTORE PUSH1 0x20 ADD PUSH1 0x2 DUP3 ADD DUP1 SLOAD PUSH2 0x750F SWAP1 PUSH2 0x9105 JUMP JUMPDEST DUP1 PUSH1 0x1F ADD PUSH1 0x20 DUP1 SWAP2 DIV MUL PUSH1 0x20 ADD PUSH1 0x40 MLOAD SWAP1 DUP2 ADD PUSH1 0x40 MSTORE DUP1 SWAP3 SWAP2 SWAP1 DUP2 DUP2 MSTORE PUSH1 0x20 ADD DUP3 DUP1 SLOAD PUSH2 0x753B SWAP1 PUSH2 0x9105 JUMP JUMPDEST DUP1 ISZERO PUSH2 0x7588 JUMPI DUP1 PUSH1 0x1F LT PUSH2 0x755D JUMPI PUSH2 0x100 DUP1 DUP4 SLOAD DIV MUL DUP4 MSTORE SWAP2 PUSH1 0x20 ADD SWAP2 PUSH2 0x7588 JUMP JUMPDEST DUP3 ADD SWAP2 SWAP1 PUSH1 0x0 MSTORE PUSH1 0x20 PUSH1 0x0 KECCAK256 SWAP1 JUMPDEST DUP2 SLOAD DUP2 MSTORE SWAP1 PUSH1 0x1 ADD SWAP1 PUSH1 0x20 ADD DUP1 DUP4 GT PUSH2 0x756B JUMPI DUP3 SWAP1 SUB PUSH1 0x1F AND DUP3 ADD SWAP2 JUMPDEST POP POP POP POP POP DUP2 MSTORE PUSH1 0x20 ADD PUSH1 0x3 DUP3 ADD DUP1 SLOAD PUSH2 0x75A1 SWAP1 PUSH2 0x9105 JUMP JUMPDEST DUP1 PUSH1 0x1F ADD PUSH1 0x20 DUP1 SWAP2 DIV MUL PUSH1 0x20 ADD PUSH1 0x40 MLOAD SWAP1 DUP2 ADD PUSH1 0x40 MSTORE DUP1 SWAP3 SWAP2 SWAP1 DUP2 DUP2 MSTORE PUSH1 0x20 ADD DUP3 DUP1 SLOAD PUSH2 0x75CD SWAP1 PUSH2 0x9105 JUMP JUMPDEST DUP1 ISZERO PUSH2 0x761A JUMPI DUP1 PUSH1 0x1F LT PUSH2 0x75EF JUMPI PUSH2 0x100 DUP1 DUP4 SLOAD DIV MUL DUP4 MSTORE SWAP2 PUSH1 0x20 ADD SWAP2 PUSH2 0x761A JUMP JUMPDEST DUP3 ADD SWAP2 SWAP1 PUSH1 0x0 MSTORE PUSH1 0x20 PUSH1 0x0 KECCAK256 SWAP1 JUMPDEST DUP2 SLOAD DUP2 MSTORE SWAP1 PUSH1 0x1 ADD SWAP1 PUSH1 0x20 ADD DUP1 DUP4 GT PUSH2 0x75FD JUMPI DUP3 SWAP1 SUB PUSH1 0x1F AND DUP3 ADD SWAP2 JUMPDEST POP POP POP POP POP DUP2 MSTORE PUSH1 0x20 ADD PUSH1 0x4 DUP3 ADD DUP1 SLOAD PUSH2 0x7633 SWAP1 PUSH2 0x9105 JUMP JUMPDEST DUP1 PUSH1 0x1F ADD PUSH1 0x20 DUP1 SWAP2 DIV MUL PUSH1 0x20 ADD PUSH1 0x40 MLOAD SWAP1 DUP2 ADD PUSH1 0x40 MSTORE DUP1 SWAP3 SWAP2 SWAP1 DUP2 DUP2 MSTORE PUSH1 0x20 ADD DUP3 DUP1 SLOAD PUSH2 0x765F SWAP1 PUSH2 0x9105 JUMP JUMPDEST DUP1 ISZERO PUSH2 0x76AC JUMPI DUP1 PUSH1 0x1F LT PUSH2 0x7681 JUMPI PUSH2 0x100 DUP1 DUP4 SLOAD DIV MUL DUP4 MSTORE SWAP2 PUSH1 0x20 ADD SWAP2 PUSH2 0x76AC JUMP JUMPDEST DUP3 ADD SWAP2 SWAP1 PUSH1 0x0 MSTORE PUSH1 0x20 PUSH1 0x0 KECCAK256 SWAP1 JUMPDEST DUP2 SLOAD DUP2 MSTORE SWAP1 PUSH1 0x1 ADD SWAP1 PUSH1 0x20 ADD DUP1 DUP4 GT PUSH2 0x768F JUMPI DUP3 SWAP1 SUB PUSH1 0x1F AND DUP3 ADD SWAP2 JUMPDEST POP POP POP POP POP DUP2 MSTORE PUSH1 0x20 ADD PUSH1 0x5 DUP3 ADD DUP1 SLOAD PUSH2 0x76C5 SWAP1 PUSH2 0x9105 JUMP JUMPDEST DUP1 PUSH1 0x1F ADD PUSH1 0x20 DUP1 SWAP2 DIV MUL PUSH1 0x20 ADD PUSH1 0x40 MLOAD SWAP1 DUP2 ADD PUSH1 0x40 MSTORE DUP1 SWAP3 SWAP2 SWAP1 DUP2 DUP2 MSTORE PUSH1 0x20 ADD DUP3 DUP1 SLOAD PUSH2 0x76F1 SWAP1 PUSH2 0x9105 JUMP JUMPDEST DUP1 ISZERO PUSH2 0x773E JUMPI DUP1 PUSH1 0x1F LT PUSH2 0x7713 JUMPI PUSH2 0x100 DUP1 DUP4 SLOAD DIV MUL DUP4 MSTORE SWAP2 PUSH1 0x20 ADD SWAP2 PUSH2 0x773E JUMP JUMPDEST DUP3 ADD SWAP2 SWAP1 PUSH1 0x0 MSTORE PUSH1 0x20 PUSH1 0x0 KECCAK256 SWAP1 JUMPDEST DUP2 SLOAD DUP2 MSTORE SWAP1 PUSH1 0x1 ADD SWAP1 PUSH1 0x20 ADD DUP1 DUP4 GT PUSH2 0x7721 JUMPI DUP3 SWAP1 SUB PUSH1 0x1F AND DUP3 ADD SWAP2 JUMPDEST POP POP POP POP POP DUP2 MSTORE PUSH1 0x20 ADD PUSH1 0x6 DUP3 ADD SLOAD DUP2 MSTORE POP POP SWAP2 POP DUP1 PUSH1 0x40 MLOAD DUP1 PUSH1 0xE0 ADD PUSH1 0x40 MSTORE SWAP1 DUP2 PUSH1 0x0 DUP3 ADD DUP1 SLOAD PUSH2 0x776F SWAP1 PUSH2 0x9105 JUMP JUMPDEST DUP1 PUSH1 0x1F ADD PUSH1 0x20 DUP1 SWAP2 DIV MUL PUSH1 0x20 ADD PUSH1 0x40 MLOAD SWAP1 DUP2 ADD PUSH1 0x40 MSTORE DUP1 SWAP3 SWAP2 SWAP1 DUP2 DUP2 MSTORE PUSH1 0x20 ADD DUP3 DUP1 SLOAD PUSH2 0x779B SWAP1 PUSH2 0x9105 JUMP JUMPDEST DUP1 ISZERO PUSH2 0x77E8 JUMPI DUP1 PUSH1 0x1F LT PUSH2 0x77BD JUMPI PUSH2 0x100 DUP1 DUP4 SLOAD DIV MUL DUP4 MSTORE SWAP2 PUSH1 0x20 ADD SWAP2 PUSH2 0x77E8 JUMP JUMPDEST DUP3 ADD SWAP2 SWAP1 PUSH1 0x0 MSTORE PUSH1 0x20 PUSH1 0x0 KECCAK256 SWAP1 JUMPDEST DUP2 SLOAD DUP2 MSTORE SWAP1 PUSH1 0x1 ADD SWAP1 PUSH1 0x20 ADD DUP1 DUP4 GT PUSH2 0x77CB JUMPI DUP3 SWAP1 SUB PUSH1 0x1F AND DUP3 ADD SWAP2 JUMPDEST POP POP POP POP POP DUP2 MSTORE PUSH1 0x20 ADD PUSH1 0x1 DUP3 ADD DUP1 SLOAD PUSH2 0x7801 SWAP1 PUSH2 0x9105 JUMP JUMPDEST DUP1 PUSH1 0x1F ADD PUSH1 0x20 DUP1 SWAP2 DIV MUL PUSH1 0x20 ADD PUSH1 0x40 MLOAD SWAP1 DUP2 ADD PUSH1 0x40 MSTORE DUP1 SWAP3 SWAP2 SWAP1 DUP2 DUP2 MSTORE PUSH1 0x20 ADD DUP3 DUP1 SLOAD PUSH2 0x782D SWAP1 PUSH2 0x9105 JUMP JUMPDEST DUP1 ISZERO PUSH2 0x787A JUMPI DUP1 PUSH1 0x1F LT PUSH2 0x784F JUMPI PUSH2 0x100 DUP1 DUP4 SLOAD DIV MUL DUP4 MSTORE SWAP2 PUSH1 0x20 ADD SWAP2 PUSH2 0x787A JUMP JUMPDEST DUP3 ADD SWAP2 SWAP1 PUSH1 0x0 MSTORE PUSH1 0x20 PUSH1 0x0 KECCAK256 SWAP1 JUMPDEST DUP2 SLOAD DUP2 MSTORE SWAP1 PUSH1 0x1 ADD SWAP1 PUSH1 0x20 ADD DUP1 DUP4 GT PUSH2 0x785D JUMPI DUP3 SWAP1 SUB PUSH1 0x1F AND DUP3 ADD SWAP2 JUMPDEST POP POP POP POP POP DUP2 MSTORE PUSH1 0x20 ADD PUSH1 0x2 DUP3 ADD DUP1 SLOAD PUSH2 0x7893 SWAP1 PUSH2 0x9105 JUMP JUMPDEST DUP1 PUSH1 0x1F ADD PUSH1 0x20 DUP1 SWAP2 DIV MUL PUSH1 0x20 ADD PUSH1 0x40 MLOAD SWAP1 DUP2 ADD PUSH1 0x40 MSTORE DUP1 SWAP3 SWAP2 SWAP1 DUP2 DUP2 MSTORE PUSH1 0x20 ADD DUP3 DUP1 SLOAD PUSH2 0x78BF SWAP1 PUSH2 0x9105 JUMP JUMPDEST DUP1 ISZERO PUSH2 0x790C JUMPI DUP1 PUSH1 0x1F LT PUSH2 0x78E1 JUMPI PUSH2 0x100 DUP1 DUP4 SLOAD DIV MUL DUP4 MSTORE SWAP2 PUSH1 0x20 ADD SWAP2 PUSH2 0x790C JUMP JUMPDEST DUP3 ADD SWAP2 SWAP1 PUSH1 0x0 MSTORE PUSH1 0x20 PUSH1 0x0 KECCAK256 SWAP1 JUMPDEST DUP2 SLOAD DUP2 MSTORE SWAP1 PUSH1 0x1 ADD SWAP1 PUSH1 0x20 ADD DUP1 DUP4 GT PUSH2 0x78EF JUMPI DUP3 SWAP1 SUB PUSH1 0x1F AND DUP3 ADD SWAP2 JUMPDEST POP POP POP POP POP DUP2 MSTORE PUSH1 0x20 ADD PUSH1 0x3 DUP3 ADD DUP1 SLOAD PUSH2 0x7925 SWAP1 PUSH2 0x9105 JUMP JUMPDEST DUP1 PUSH1 0x1F ADD PUSH1 0x20 DUP1 SWAP2 DIV MUL PUSH1 0x20 ADD PUSH1 0x40 MLOAD SWAP1 DUP2 ADD PUSH1 0x40 MSTORE DUP1 SWAP3 SWAP2 SWAP1 DUP2 DUP2 MSTORE PUSH1 0x20 ADD DUP3 DUP1 SLOAD PUSH2 0x7951 SWAP1 PUSH2 0x9105 JUMP JUMPDEST DUP1 ISZERO PUSH2 0x799E JUMPI DUP1 PUSH1 0x1F LT PUSH2 0x7973 JUMPI PUSH2 0x100 DUP1 DUP4 SLOAD DIV MUL DUP4 MSTORE SWAP2 PUSH1 0x20 ADD SWAP2 PUSH2 0x799E JUMP JUMPDEST DUP3 ADD SWAP2 SWAP1 PUSH1 0x0 MSTORE PUSH1 0x20 PUSH1 0x0 KECCAK256 SWAP1 JUMPDEST DUP2 SLOAD DUP2 MSTORE SWAP1 PUSH1 0x1 ADD SWAP1 PUSH1 0x20 ADD DUP1 DUP4 GT PUSH2 0x7981 JUMPI DUP3 SWAP1 SUB PUSH1 0x1F AND DUP3 ADD SWAP2 JUMPDEST POP POP POP POP POP DUP2 MSTORE PUSH1 0x20 ADD PUSH1 0x4 DUP3 ADD DUP1 SLOAD PUSH2 0x79B7 SWAP1 PUSH2 0x9105 JUMP JUMPDEST DUP1 PUSH1 0x1F ADD PUSH1 0x20 DUP1 SWAP2 DIV MUL PUSH1 0x20 ADD PUSH1 0x40 MLOAD SWAP1 DUP2 ADD PUSH1 0x40 MSTORE DUP1 SWAP3 SWAP2 SWAP1 DUP2 DUP2 MSTORE PUSH1 0x20 ADD DUP3 DUP1 SLOAD PUSH2 0x79E3 SWAP1 PUSH2 0x9105 JUMP JUMPDEST DUP1 ISZERO PUSH2 0x7A30 JUMPI DUP1 PUSH1 0x1F LT PUSH2 0x7A05 JUMPI PUSH2 0x100 DUP1 DUP4 SLOAD DIV MUL DUP4 MSTORE SWAP2 PUSH1 0x20 ADD SWAP2 PUSH2 0x7A30 JUMP JUMPDEST DUP3 ADD SWAP2 SWAP1 PUSH1 0x0 MSTORE PUSH1 0x20 PUSH1 0x0 KECCAK256 SWAP1 JUMPDEST DUP2 SLOAD DUP2 MSTORE SWAP1 PUSH1 0x1 ADD SWAP1 PUSH1 0x20 ADD DUP1 DUP4 GT PUSH2 0x7A13 JUMPI DUP3 SWAP1 SUB PUSH1 0x1F AND DUP3 ADD SWAP2 JUMPDEST POP POP POP POP POP DUP2 MSTORE PUSH1 0x20 ADD PUSH1 0x5 DUP3 ADD DUP1 SLOAD PUSH2 0x7A49 SWAP1 PUSH2 0x9105 JUMP JUMPDEST DUP1 PUSH1 0x1F ADD PUSH1 0x20 DUP1 SWAP2 DIV MUL PUSH1 0x20 ADD PUSH1 0x40 MLOAD SWAP1 DUP2 ADD PUSH1 0x40 MSTORE DUP1 SWAP3 SWAP2 SWAP1 DUP2 DUP2 MSTORE PUSH1 0x20 ADD DUP3 DUP1 SLOAD PUSH2 0x7A75 SWAP1 PUSH2 0x9105 JUMP JUMPDEST DUP1 ISZERO PUSH2 0x7AC2 JUMPI DUP1 PUSH1 0x1F LT PUSH2 0x7A97 JUMPI PUSH2 0x100 DUP1 DUP4 SLOAD DIV MUL DUP4 MSTORE SWAP2 PUSH1 0x20 ADD SWAP2 PUSH2 0x7AC2 JUMP JUMPDEST DUP3 ADD SWAP2 SWAP1 PUSH1 0x0 MSTORE PUSH1 0x20 PUSH1 0x0 KECCAK256 SWAP1 JUMPDEST DUP2 SLOAD DUP2 MSTORE SWAP1 PUSH1 0x1 ADD SWAP1 PUSH1 0x20 ADD DUP1 DUP4 GT PUSH2 0x7AA5 JUMPI DUP3 SWAP1 SUB PUSH1 0x1F AND DUP3 ADD SWAP2 JUMPDEST POP POP POP POP POP DUP2 MSTORE PUSH1 0x20 ADD PUSH1 0x6 DUP3 ADD SLOAD DUP2 MSTORE POP POP SWAP1 POP SWAP7 POP SWAP7 POP SWAP7 POP SWAP7 POP SWAP7 POP SWAP7 POP POP SWAP2 SWAP4 SWAP6 POP SWAP2 SWAP4 SWAP6 JUMP JUMPDEST PUSH1 0x0 DUP1 PUSH1 0x7 DUP4 PUSH1 0x40 MLOAD PUSH2 0x7B00 SWAP2 SWAP1 PUSH2 0x907B JUMP JUMPDEST SWAP1 DUP2 MSTORE PUSH1 0x40 MLOAD SWAP1 DUP2 SWAP1 SUB PUSH1 0x20 ADD SWAP1 KECCAK256 SLOAD GT SWAP3 SWAP2 POP POP JUMP JUMPDEST PUSH1 0x40 MLOAD DUP1 PUSH2 0x1A0 ADD PUSH1 0x40 MSTORE DUP1 PUSH1 0x60 DUP2 MSTORE PUSH1 0x20 ADD PUSH1 0x60 DUP2 MSTORE PUSH1 0x20 ADD PUSH1 0x60 DUP2 MSTORE PUSH1 0x20 ADD PUSH1 0x60 DUP2 MSTORE PUSH1 0x20 ADD PUSH1 0x60 DUP2 MSTORE PUSH1 0x20 ADD PUSH1 0x60 DUP2 MSTORE PUSH1 0x20 ADD PUSH1 0x60 DUP2 MSTORE PUSH1 0x20 ADD PUSH1 0x60 DUP2 MSTORE PUSH1 0x20 ADD PUSH1 0x60 DUP2 MSTORE PUSH1 0x20 ADD PUSH1 0x60 DUP2 MSTORE PUSH1 0x20 ADD PUSH1 0x0 DUP2 MSTORE PUSH1 0x20 ADD PUSH1 0x0 PUSH1 0x3 DUP2 GT ISZERO PUSH2 0x7B83 JUMPI PUSH2 0x7B83 PUSH2 0x80D0 JUMP JUMPDEST DUP2 MSTORE PUSH1 0x20 ADD PUSH1 0x0 SWAP1 MSTORE SWAP1 JUMP JUMPDEST POP DUP1 SLOAD PUSH2 0x7B9B SWAP1 PUSH2 0x9105 JUMP JUMPDEST PUSH1 0x0 DUP3 SSTORE DUP1 PUSH1 0x1F LT PUSH2 0x7BAB JUMPI POP POP JUMP JUMPDEST PUSH1 0x1F ADD PUSH1 0x20 SWAP1 DIV SWAP1 PUSH1 0x0 MSTORE PUSH1 0x20 PUSH1 0x0 KECCAK256 SWAP1 DUP2 ADD SWAP1 PUSH2 0x7BC9 SWAP2 SWAP1 PUSH2 0x7D3D JUMP JUMPDEST POP JUMP JUMPDEST PUSH1 0x40 MLOAD DUP1 PUSH2 0x180 ADD PUSH1 0x40 MSTORE DUP1 PUSH1 0x60 DUP2 MSTORE PUSH1 0x20 ADD PUSH1 0x60 DUP2 MSTORE PUSH1 0x20 ADD PUSH1 0x60 DUP2 MSTORE PUSH1 0x20 ADD PUSH1 0x60 DUP2 MSTORE PUSH1 0x20 ADD PUSH1 0x60 DUP2 MSTORE PUSH1 0x20 ADD PUSH1 0x60 DUP2 MSTORE PUSH1 0x20 ADD PUSH1 0x60 DUP2 MSTORE PUSH1 0x20 ADD PUSH1 0x60 DUP2 MSTORE PUSH1 0x20 ADD PUSH1 0x0 DUP2 MSTORE PUSH1 0x20 ADD PUSH1 0x60 DUP2 MSTORE PUSH1 0x20 ADD PUSH1 0x0 DUP2 MSTORE PUSH1 0x20 ADD PUSH1 0x0 ISZERO ISZERO DUP2 MSTORE POP SWAP1 JUMP JUMPDEST PUSH1 0x40 MLOAD DUP1 PUSH1 0xE0 ADD PUSH1 0x40 MSTORE DUP1 PUSH1 0x60 DUP2 MSTORE PUSH1 0x20 ADD PUSH1 0x60 DUP2 MSTORE PUSH1 0x20 ADD PUSH1 0x60 DUP2 MSTORE PUSH1 0x20 ADD PUSH1 0x60 DUP2 MSTORE PUSH1 0x20 ADD PUSH1 0x60 DUP2 MSTORE PUSH1 0x20 ADD PUSH1 0x60 DUP2 MSTORE PUSH1 0x20 ADD PUSH1 0x0 DUP2 MSTORE POP SWAP1 JUMP JUMPDEST PUSH1 0x40 MLOAD DUP1 PUSH2 0x100 ADD PUSH1 0x40 MSTORE DUP1 PUSH1 0x60 DUP2 MSTORE PUSH1 0x20 ADD PUSH1 0x60 DUP2 MSTORE PUSH1 0x20 ADD PUSH1 0x60 DUP2 MSTORE PUSH1 0x20 ADD PUSH1 0x60 DUP2 MSTORE PUSH1 0x20 ADD PUSH1 0x60 DUP2 MSTORE PUSH1 0x20 ADD PUSH1 0x60 DUP2 MSTORE PUSH1 0x20 ADD PUSH1 0x60 DUP2 MSTORE PUSH1 0x20 ADD PUSH1 0x0 DUP2 MSTORE POP SWAP1 JUMP JUMPDEST DUP3 DUP1 SLOAD DUP3 DUP3 SSTORE SWAP1 PUSH1 0x0 MSTORE PUSH1 0x20 PUSH1 0x0 KECCAK256 SWAP1 DUP2 ADD SWAP3 DUP3 ISZERO PUSH2 0x7CF7 JUMPI SWAP2 PUSH1 0x20 MUL DUP3 ADD JUMPDEST DUP3 DUP2 GT ISZERO PUSH2 0x7CF7 JUMPI DUP3 MLOAD DUP3 SWAP1 PUSH2 0x7CE7 SWAP1 DUP3 PUSH2 0x919A JUMP JUMPDEST POP SWAP2 PUSH1 0x20 ADD SWAP2 SWAP1 PUSH1 0x1 ADD SWAP1 PUSH2 0x7CD1 JUMP JUMPDEST POP PUSH2 0x7D03 SWAP3 SWAP2 POP PUSH2 0x7D52 JUMP JUMPDEST POP SWAP1 JUMP JUMPDEST PUSH1 0x40 MLOAD DUP1 PUSH1 0xC0 ADD PUSH1 0x40 MSTORE DUP1 PUSH1 0x60 DUP2 MSTORE PUSH1 0x20 ADD PUSH1 0x60 DUP2 MSTORE PUSH1 0x20 ADD PUSH1 0x60 DUP2 MSTORE PUSH1 0x20 ADD PUSH1 0x60 DUP2 MSTORE PUSH1 0x20 ADD PUSH1 0x60 DUP2 MSTORE PUSH1 0x20 ADD PUSH1 0x0 DUP2 MSTORE POP SWAP1 JUMP JUMPDEST JUMPDEST DUP1 DUP3 GT ISZERO PUSH2 0x7D03 JUMPI PUSH1 0x0 DUP2 SSTORE PUSH1 0x1 ADD PUSH2 0x7D3E JUMP JUMPDEST DUP1 DUP3 GT ISZERO PUSH2 0x7D03 JUMPI PUSH1 0x0 PUSH2 0x7D66 DUP3 DUP3 PUSH2 0x7B8F JUMP JUMPDEST POP PUSH1 0x1 ADD PUSH2 0x7D52 JUMP JUMPDEST PUSH4 0x4E487B71 PUSH1 0xE0 SHL PUSH1 0x0 MSTORE PUSH1 0x41 PUSH1 0x4 MSTORE PUSH1 0x24 PUSH1 0x0 REVERT JUMPDEST PUSH1 0x40 MLOAD PUSH2 0x160 DUP2 ADD PUSH1 0x1 PUSH1 0x1 PUSH1 0x40 SHL SUB DUP2 GT DUP3 DUP3 LT OR ISZERO PUSH2 0x7DA8 JUMPI PUSH2 0x7DA8 PUSH2 0x7D6F JUMP JUMPDEST PUSH1 0x40 MSTORE SWAP1 JUMP JUMPDEST PUSH1 0x40 MLOAD PUSH1 0x1F DUP3 ADD PUSH1 0x1F NOT AND DUP2 ADD PUSH1 0x1 PUSH1 0x1 PUSH1 0x40 SHL SUB DUP2 GT DUP3 DUP3 LT OR ISZERO PUSH2 0x7DD6 JUMPI PUSH2 0x7DD6 PUSH2 0x7D6F JUMP JUMPDEST PUSH1 0x40 MSTORE SWAP2 SWAP1 POP JUMP JUMPDEST PUSH1 0x0 DUP3 PUSH1 0x1F DUP4 ADD SLT PUSH2 0x7DEF JUMPI PUSH1 0x0 DUP1 REVERT JUMPDEST DUP2 CALLDATALOAD PUSH1 0x1 PUSH1 0x1 PUSH1 0x40 SHL SUB DUP2 GT ISZERO PUSH2 0x7E08 JUMPI PUSH2 0x7E08 PUSH2 0x7D6F JUMP JUMPDEST PUSH2 0x7E1B PUSH1 0x1F DUP3 ADD PUSH1 0x1F NOT AND PUSH1 0x20 ADD PUSH2 0x7DAE JUMP JUMPDEST DUP2 DUP2 MSTORE DUP5 PUSH1 0x20 DUP4 DUP7 ADD ADD GT ISZERO PUSH2 0x7E30 JUMPI PUSH1 0x0 DUP1 REVERT JUMPDEST DUP2 PUSH1 0x20 DUP6 ADD PUSH1 0x20 DUP4 ADD CALLDATACOPY PUSH1 0x0 SWAP2 DUP2 ADD PUSH1 0x20 ADD SWAP2 SWAP1 SWAP2 MSTORE SWAP4 SWAP3 POP POP POP JUMP JUMPDEST PUSH1 0x0 DUP1 PUSH1 0x0 DUP1 PUSH1 0x0 DUP1 PUSH1 0xC0 DUP8 DUP10 SUB SLT ISZERO PUSH2 0x7E66 JUMPI PUSH1 0x0 DUP1 REVERT JUMPDEST DUP7 CALLDATALOAD PUSH1 0x1 PUSH1 0x1 PUSH1 0x40 SHL SUB DUP2 GT ISZERO PUSH2 0x7E7C JUMPI PUSH1 0x0 DUP1 REVERT JUMPDEST PUSH2 0x7E88 DUP10 DUP3 DUP11 ADD PUSH2 0x7DDE JUMP JUMPDEST SWAP7 POP POP PUSH1 0x20 DUP8 ADD CALLDATALOAD PUSH1 0x1 PUSH1 0x1 PUSH1 0x40 SHL SUB DUP2 GT ISZERO PUSH2 0x7EA4 JUMPI PUSH1 0x0 DUP1 REVERT JUMPDEST PUSH2 0x7EB0 DUP10 DUP3 DUP11 ADD PUSH2 0x7DDE JUMP JUMPDEST SWAP6 POP POP PUSH1 0x40 DUP8 ADD CALLDATALOAD PUSH1 0x1 PUSH1 0x1 PUSH1 0x40 SHL SUB DUP2 GT ISZERO PUSH2 0x7ECC JUMPI PUSH1 0x0 DUP1 REVERT JUMPDEST PUSH2 0x7ED8 DUP10 DUP3 DUP11 ADD PUSH2 0x7DDE JUMP JUMPDEST SWAP5 POP POP PUSH1 0x60 DUP8 ADD CALLDATALOAD PUSH1 0x1 PUSH1 0x1 PUSH1 0x40 SHL SUB DUP2 GT ISZERO PUSH2 0x7EF4 JUMPI PUSH1 0x0 DUP1 REVERT JUMPDEST PUSH2 0x7F00 DUP10 DUP3 DUP11 ADD PUSH2 0x7DDE JUMP JUMPDEST SWAP4 POP POP PUSH1 0x80 DUP8 ADD CALLDATALOAD PUSH1 0x1 PUSH1 0x1 PUSH1 0x40 SHL SUB DUP2 GT ISZERO PUSH2 0x7F1C JUMPI PUSH1 0x0 DUP1 REVERT JUMPDEST PUSH2 0x7F28 DUP10 DUP3 DUP11 ADD PUSH2 0x7DDE JUMP JUMPDEST SWAP3 POP POP PUSH1 0xA0 DUP8 ADD CALLDATALOAD PUSH1 0x1 PUSH1 0x1 PUSH1 0x40 SHL SUB DUP2 GT ISZERO PUSH2 0x7F44 JUMPI PUSH1 0x0 DUP1 REVERT JUMPDEST PUSH2 0x7F50 DUP10 DUP3 DUP11 ADD PUSH2 0x7DDE JUMP JUMPDEST SWAP2 POP POP SWAP3 SWAP6 POP SWAP3 SWAP6 POP SWAP3 SWAP6 JUMP JUMPDEST PUSH1 0x0 DUP1 PUSH1 0x0 DUP1 PUSH1 0x0 PUSH1 0xA0 DUP7 DUP9 SUB SLT ISZERO PUSH2 0x7F75 JUMPI PUSH1 0x0 DUP1 REVERT JUMPDEST DUP6 CALLDATALOAD PUSH1 0x1 PUSH1 0x1 PUSH1 0x40 SHL SUB DUP2 GT ISZERO PUSH2 0x7F8B JUMPI PUSH1 0x0 DUP1 REVERT JUMPDEST PUSH2 0x7F97 DUP9 DUP3 DUP10 ADD PUSH2 0x7DDE JUMP JUMPDEST SWAP6 POP POP PUSH1 0x20 DUP7 ADD CALLDATALOAD PUSH1 0x1 PUSH1 0x1 PUSH1 0x40 SHL SUB DUP2 GT ISZERO PUSH2 0x7FB3 JUMPI PUSH1 0x0 DUP1 REVERT JUMPDEST PUSH2 0x7FBF DUP9 DUP3 DUP10 ADD PUSH2 0x7DDE JUMP JUMPDEST SWAP5 POP POP PUSH1 0x40 DUP7 ADD CALLDATALOAD PUSH1 0x1 PUSH1 0x1 PUSH1 0x40 SHL SUB DUP2 GT ISZERO PUSH2 0x7FDB JUMPI PUSH1 0x0 DUP1 REVERT JUMPDEST PUSH2 0x7FE7 DUP9 DUP3 DUP10 ADD PUSH2 0x7DDE JUMP JUMPDEST SWAP4 POP POP PUSH1 0x60 DUP7 ADD CALLDATALOAD PUSH1 0x1 PUSH1 0x1 PUSH1 0x40 SHL SUB DUP2 GT ISZERO PUSH2 0x8003 JUMPI PUSH1 0x0 DUP1 REVERT JUMPDEST PUSH2 0x800F DUP9 DUP3 DUP10 ADD PUSH2 0x7DDE JUMP JUMPDEST SWAP3 POP POP PUSH1 0x80 DUP7 ADD CALLDATALOAD PUSH1 0x1 PUSH1 0x1 PUSH1 0x40 SHL SUB DUP2 GT ISZERO PUSH2 0x802B JUMPI PUSH1 0x0 DUP1 REVERT JUMPDEST PUSH2 0x8037 DUP9 DUP3 DUP10 ADD PUSH2 0x7DDE JUMP JUMPDEST SWAP2 POP POP SWAP3 SWAP6 POP SWAP3 SWAP6 SWAP1 SWAP4 POP JUMP JUMPDEST PUSH1 0x0 PUSH1 0x20 DUP3 DUP5 SUB SLT ISZERO PUSH2 0x8056 JUMPI PUSH1 0x0 DUP1 REVERT JUMPDEST DUP2 CALLDATALOAD PUSH1 0x1 PUSH1 0x1 PUSH1 0x40 SHL SUB DUP2 GT ISZERO PUSH2 0x806C JUMPI PUSH1 0x0 DUP1 REVERT JUMPDEST PUSH2 0x8078 DUP5 DUP3 DUP6 ADD PUSH2 0x7DDE JUMP JUMPDEST SWAP5 SWAP4 POP POP POP POP JUMP JUMPDEST PUSH1 0x0 JUMPDEST DUP4 DUP2 LT ISZERO PUSH2 0x809B JUMPI DUP2 DUP2 ADD MLOAD DUP4 DUP3 ADD MSTORE PUSH1 0x20 ADD PUSH2 0x8083 JUMP JUMPDEST POP POP PUSH1 0x0 SWAP2 ADD MSTORE JUMP JUMPDEST PUSH1 0x0 DUP2 MLOAD DUP1 DUP5 MSTORE PUSH2 0x80BC DUP2 PUSH1 0x20 DUP7 ADD PUSH1 0x20 DUP7 ADD PUSH2 0x8080 JUMP JUMPDEST PUSH1 0x1F ADD PUSH1 0x1F NOT AND SWAP3 SWAP1 SWAP3 ADD PUSH1 0x20 ADD SWAP3 SWAP2 POP POP JUMP JUMPDEST PUSH4 0x4E487B71 PUSH1 0xE0 SHL PUSH1 0x0 MSTORE PUSH1 0x21 PUSH1 0x4 MSTORE PUSH1 0x24 PUSH1 0x0 REVERT JUMPDEST PUSH1 0x4 DUP2 LT PUSH2 0x80F6 JUMPI PUSH2 0x80F6 PUSH2 0x80D0 JUMP JUMPDEST SWAP1 MSTORE JUMP JUMPDEST PUSH1 0x5 DUP2 LT PUSH2 0x80F6 JUMPI PUSH2 0x80F6 PUSH2 0x80D0 JUMP JUMPDEST PUSH1 0x0 DUP2 MLOAD PUSH2 0x1A0 DUP5 MSTORE PUSH2 0x8121 PUSH2 0x1A0 DUP6 ADD DUP3 PUSH2 0x80A4 JUMP JUMPDEST SWAP1 POP PUSH1 0x20 DUP4 ADD MLOAD DUP5 DUP3 SUB PUSH1 0x20 DUP7 ADD MSTORE PUSH2 0x813A DUP3 DUP3 PUSH2 0x80A4 JUMP JUMPDEST SWAP2 POP POP PUSH1 0x40 DUP4 ADD MLOAD DUP5 DUP3 SUB PUSH1 0x40 DUP7 ADD MSTORE PUSH2 0x8154 DUP3 DUP3 PUSH2 0x80A4 JUMP JUMPDEST SWAP2 POP POP PUSH1 0x60 DUP4 ADD MLOAD DUP5 DUP3 SUB PUSH1 0x60 DUP7 ADD MSTORE PUSH2 0x816E DUP3 DUP3 PUSH2 0x80A4 JUMP JUMPDEST SWAP2 POP POP PUSH1 0x80 DUP4 ADD MLOAD DUP5 DUP3 SUB PUSH1 0x80 DUP7 ADD MSTORE PUSH2 0x8188 DUP3 DUP3 PUSH2 0x80A4 JUMP JUMPDEST SWAP2 POP POP PUSH1 0xA0 DUP4 ADD MLOAD DUP5 DUP3 SUB PUSH1 0xA0 DUP7 ADD MSTORE PUSH2 0x81A2 DUP3 DUP3 PUSH2 0x80A4 JUMP JUMPDEST SWAP2 POP POP PUSH1 0xC0 DUP4 ADD MLOAD DUP5 DUP3 SUB PUSH1 0xC0 DUP7 ADD MSTORE PUSH2 0x81BC DUP3 DUP3 PUSH2 0x80A4 JUMP JUMPDEST SWAP2 POP POP PUSH1 0xE0 DUP4 ADD MLOAD DUP5 DUP3 SUB PUSH1 0xE0 DUP7 ADD MSTORE PUSH2 0x81D6 DUP3 DUP3 PUSH2 0x80A4 JUMP JUMPDEST SWAP2 POP POP PUSH2 0x100 DUP4 ADD MLOAD DUP5 DUP3 SUB PUSH2 0x100 DUP7 ADD MSTORE PUSH2 0x81F2 DUP3 DUP3 PUSH2 0x80A4 JUMP JUMPDEST SWAP2 POP POP PUSH2 0x120 DUP4 ADD MLOAD DUP5 DUP3 SUB PUSH2 0x120 DUP7 ADD MSTORE PUSH2 0x820E DUP3 DUP3 PUSH2 0x80A4 JUMP JUMPDEST SWAP2 POP POP PUSH2 0x140 DUP4 ADD MLOAD PUSH2 0x140 DUP6 ADD MSTORE PUSH2 0x160 DUP4 ADD MLOAD PUSH2 0x8231 PUSH2 0x160 DUP7 ADD DUP3 PUSH2 0x80E6 JUMP JUMPDEST POP PUSH2 0x180 DUP4 ADD MLOAD PUSH2 0x27ED PUSH2 0x180 DUP7 ADD DUP3 PUSH2 0x80FA JUMP JUMPDEST PUSH1 0x0 PUSH1 0x20 DUP3 ADD PUSH1 0x20 DUP4 MSTORE DUP1 DUP5 MLOAD DUP1 DUP4 MSTORE PUSH1 0x40 DUP6 ADD SWAP2 POP PUSH1 0x40 DUP2 PUSH1 0x5 SHL DUP7 ADD ADD SWAP3 POP PUSH1 0x20 DUP7 ADD PUSH1 0x0 JUMPDEST DUP3 DUP2 LT ISZERO PUSH2 0x829F JUMPI PUSH1 0x3F NOT DUP8 DUP7 SUB ADD DUP5 MSTORE PUSH2 0x828A DUP6 DUP4 MLOAD PUSH2 0x810A JUMP JUMPDEST SWAP5 POP PUSH1 0x20 SWAP4 DUP5 ADD SWAP4 SWAP2 SWAP1 SWAP2 ADD SWAP1 PUSH1 0x1 ADD PUSH2 0x826E JUMP JUMPDEST POP SWAP3 SWAP7 SWAP6 POP POP POP POP POP POP JUMP JUMPDEST DUP1 CALLDATALOAD PUSH1 0x1 PUSH1 0x1 PUSH1 0xA0 SHL SUB DUP2 AND DUP2 EQ PUSH2 0x82C2 JUMPI PUSH1 0x0 DUP1 REVERT JUMPDEST SWAP2 SWAP1 POP JUMP JUMPDEST PUSH1 0x0 PUSH1 0x20 DUP3 DUP5 SUB SLT ISZERO PUSH2 0x82D9 JUMPI PUSH1 0x0 DUP1 REVERT JUMPDEST PUSH2 0x82E2 DUP3 PUSH2 0x82AB JUMP JUMPDEST SWAP4 SWAP3 POP POP POP JUMP JUMPDEST PUSH1 0x0 DUP1 PUSH1 0x40 DUP4 DUP6 SUB SLT ISZERO PUSH2 0x82FC JUMPI PUSH1 0x0 DUP1 REVERT JUMPDEST DUP3 CALLDATALOAD PUSH1 0x1 PUSH1 0x1 PUSH1 0x40 SHL SUB DUP2 GT ISZERO PUSH2 0x8312 JUMPI PUSH1 0x0 DUP1 REVERT JUMPDEST PUSH2 0x831E DUP6 DUP3 DUP7 ADD PUSH2 0x7DDE JUMP JUMPDEST SWAP6 PUSH1 0x20 SWAP5 SWAP1 SWAP5 ADD CALLDATALOAD SWAP5 POP POP POP POP JUMP JUMPDEST PUSH1 0x0 DUP1 PUSH1 0x40 DUP4 DUP6 SUB SLT ISZERO PUSH2 0x8340 JUMPI PUSH1 0x0 DUP1 REVERT JUMPDEST DUP3 CALLDATALOAD PUSH1 0x1 PUSH1 0x1 PUSH1 0x40 SHL SUB DUP2 GT ISZERO PUSH2 0x8356 JUMPI PUSH1 0x0 DUP1 REVERT JUMPDEST PUSH2 0x8362 DUP6 DUP3 DUP7 ADD PUSH2 0x7DDE JUMP JUMPDEST SWAP3 POP POP PUSH1 0x20 DUP4 ADD CALLDATALOAD PUSH1 0x1 PUSH1 0x1 PUSH1 0x40 SHL SUB DUP2 GT ISZERO PUSH2 0x837E JUMPI PUSH1 0x0 DUP1 REVERT JUMPDEST PUSH2 0x838A DUP6 DUP3 DUP7 ADD PUSH2 0x7DDE JUMP JUMPDEST SWAP2 POP POP SWAP3 POP SWAP3 SWAP1 POP JUMP JUMPDEST PUSH1 0x0 DUP1 PUSH1 0x0 DUP1 PUSH1 0x0 DUP1 PUSH1 0x0 DUP1 PUSH2 0x100 DUP10 DUP12 SUB SLT ISZERO PUSH2 0x83B1 JUMPI PUSH1 0x0 DUP1 REVERT JUMPDEST DUP9 CALLDATALOAD PUSH1 0x1 PUSH1 0x1 PUSH1 0x40 SHL SUB DUP2 GT ISZERO PUSH2 0x83C7 JUMPI PUSH1 0x0 DUP1 REVERT JUMPDEST PUSH2 0x83D3 DUP12 DUP3 DUP13 ADD PUSH2 0x7DDE JUMP JUMPDEST SWAP9 POP POP PUSH1 0x20 DUP10 ADD CALLDATALOAD PUSH1 0x1 PUSH1 0x1 PUSH1 0x40 SHL SUB DUP2 GT ISZERO PUSH2 0x83EF JUMPI PUSH1 0x0 DUP1 REVERT JUMPDEST PUSH2 0x83FB DUP12 DUP3 DUP13 ADD PUSH2 0x7DDE JUMP JUMPDEST SWAP8 POP POP PUSH1 0x40 DUP10 ADD CALLDATALOAD PUSH1 0x1 PUSH1 0x1 PUSH1 0x40 SHL SUB DUP2 GT ISZERO PUSH2 0x8417 JUMPI PUSH1 0x0 DUP1 REVERT JUMPDEST PUSH2 0x8423 DUP12 DUP3 DUP13 ADD PUSH2 0x7DDE JUMP JUMPDEST SWAP7 POP POP PUSH1 0x60 DUP10 ADD CALLDATALOAD PUSH1 0x1 PUSH1 0x1 PUSH1 0x40 SHL SUB DUP2 GT ISZERO PUSH2 0x843F JUMPI PUSH1 0x0 DUP1 REVERT JUMPDEST PUSH2 0x844B DUP12 DUP3 DUP13 ADD PUSH2 0x7DDE JUMP JUMPDEST SWAP6 POP POP PUSH1 0x80 DUP10 ADD CALLDATALOAD PUSH1 0x1 PUSH1 0x1 PUSH1 0x40 SHL SUB DUP2 GT ISZERO PUSH2 0x8467 JUMPI PUSH1 0x0 DUP1 REVERT JUMPDEST PUSH2 0x8473 DUP12 DUP3 DUP13 ADD PUSH2 0x7DDE JUMP JUMPDEST SWAP5 POP POP PUSH1 0xA0 DUP10 ADD CALLDATALOAD PUSH1 0x1 PUSH1 0x1 PUSH1 0x40 SHL SUB DUP2 GT ISZERO PUSH2 0x848F JUMPI PUSH1 0x0 DUP1 REVERT JUMPDEST PUSH2 0x849B DUP12 DUP3 DUP13 ADD PUSH2 0x7DDE JUMP JUMPDEST SWAP4 POP POP PUSH1 0xC0 DUP10 ADD CALLDATALOAD PUSH1 0x1 PUSH1 0x1 PUSH1 0x40 SHL SUB DUP2 GT ISZERO PUSH2 0x84B7 JUMPI PUSH1 0x0 DUP1 REVERT JUMPDEST PUSH2 0x84C3 DUP12 DUP3 DUP13 ADD PUSH2 0x7DDE JUMP JUMPDEST SWAP3 POP POP PUSH1 0xE0 DUP10 ADD CALLDATALOAD PUSH1 0x1 PUSH1 0x1 PUSH1 0x40 SHL SUB DUP2 GT ISZERO PUSH2 0x84DF JUMPI PUSH1 0x0 DUP1 REVERT JUMPDEST PUSH2 0x84EB DUP12 DUP3 DUP13 ADD PUSH2 0x7DDE JUMP JUMPDEST SWAP2 POP POP SWAP3 SWAP6 SWAP9 POP SWAP3 SWAP6 SWAP9 SWAP1 SWAP4 SWAP7 POP JUMP JUMPDEST PUSH1 0x0 DUP1 PUSH1 0x0 DUP1 PUSH1 0x0 DUP1 PUSH1 0x0 PUSH1 0xE0 DUP9 DUP11 SUB SLT ISZERO PUSH2 0x8516 JUMPI PUSH1 0x0 DUP1 REVERT JUMPDEST DUP8 CALLDATALOAD PUSH1 0x1 PUSH1 0x1 PUSH1 0x40 SHL SUB DUP2 GT ISZERO PUSH2 0x852C JUMPI PUSH1 0x0 DUP1 REVERT JUMPDEST PUSH2 0x8538 DUP11 DUP3 DUP12 ADD PUSH2 0x7DDE JUMP JUMPDEST SWAP8 POP POP PUSH1 0x20 DUP9 ADD CALLDATALOAD PUSH1 0x1 PUSH1 0x1 PUSH1 0x40 SHL SUB DUP2 GT ISZERO PUSH2 0x8554 JUMPI PUSH1 0x0 DUP1 REVERT JUMPDEST PUSH2 0x8560 DUP11 DUP3 DUP12 ADD PUSH2 0x7DDE JUMP JUMPDEST SWAP7 POP POP PUSH1 0x40 DUP9 ADD CALLDATALOAD PUSH1 0x1 PUSH1 0x1 PUSH1 0x40 SHL SUB DUP2 GT ISZERO PUSH2 0x857C JUMPI PUSH1 0x0 DUP1 REVERT JUMPDEST PUSH2 0x8588 DUP11 DUP3 DUP12 ADD PUSH2 0x7DDE JUMP JUMPDEST SWAP6 POP POP PUSH1 0x60 DUP9 ADD CALLDATALOAD PUSH1 0x1 PUSH1 0x1 PUSH1 0x40 SHL SUB DUP2 GT ISZERO PUSH2 0x85A4 JUMPI PUSH1 0x0 DUP1 REVERT JUMPDEST PUSH2 0x85B0 DUP11 DUP3 DUP12 ADD PUSH2 0x7DDE JUMP JUMPDEST SWAP5 POP POP PUSH1 0x80 DUP9 ADD CALLDATALOAD PUSH1 0x1 PUSH1 0x1 PUSH1 0x40 SHL SUB DUP2 GT ISZERO PUSH2 0x85CC JUMPI PUSH1 0x0 DUP1 REVERT JUMPDEST PUSH2 0x85D8 DUP11 DUP3 DUP12 ADD PUSH2 0x7DDE JUMP JUMPDEST SWAP4 POP POP PUSH1 0xA0 DUP9 ADD CALLDATALOAD PUSH1 0x1 PUSH1 0x1 PUSH1 0x40 SHL SUB DUP2 GT ISZERO PUSH2 0x85F4 JUMPI PUSH1 0x0 DUP1 REVERT JUMPDEST PUSH2 0x8600 DUP11 DUP3 DUP12 ADD PUSH2 0x7DDE JUMP JUMPDEST SWAP3 POP POP PUSH1 0xC0 DUP9 ADD CALLDATALOAD PUSH1 0x1 PUSH1 0x1 PUSH1 0x40 SHL SUB DUP2 GT ISZERO PUSH2 0x861C JUMPI PUSH1 0x0 DUP1 REVERT JUMPDEST PUSH2 0x8628 DUP11 DUP3 DUP12 ADD PUSH2 0x7DDE JUMP JUMPDEST SWAP2 POP POP SWAP3 SWAP6 SWAP9 SWAP2 SWAP5 SWAP8 POP SWAP3 SWAP6 POP JUMP JUMPDEST PUSH1 0x0 DUP3 DUP3 MLOAD DUP1 DUP6 MSTORE PUSH1 0x20 DUP6 ADD SWAP5 POP PUSH1 0x20 DUP2 PUSH1 0x5 SHL DUP4 ADD ADD PUSH1 0x20 DUP6 ADD PUSH1 0x0 JUMPDEST DUP4 DUP2 LT ISZERO PUSH2 0x8687 JUMPI PUSH1 0x1F NOT DUP6 DUP5 SUB ADD DUP9 MSTORE PUSH2 0x8671 DUP4 DUP4 MLOAD PUSH2 0x80A4 JUMP JUMPDEST PUSH1 0x20 SWAP9 DUP10 ADD SWAP9 SWAP1 SWAP4 POP SWAP2 SWAP1 SWAP2 ADD SWAP1 PUSH1 0x1 ADD PUSH2 0x8655 JUMP JUMPDEST POP SWAP1 SWAP7 SWAP6 POP POP POP POP POP POP JUMP JUMPDEST PUSH1 0x20 DUP2 MSTORE PUSH1 0x0 PUSH2 0x82E2 PUSH1 0x20 DUP4 ADD DUP5 PUSH2 0x8637 JUMP JUMPDEST PUSH1 0x0 DUP2 MLOAD PUSH2 0x180 DUP5 MSTORE PUSH2 0x86BD PUSH2 0x180 DUP6 ADD DUP3 PUSH2 0x80A4 JUMP JUMPDEST SWAP1 POP PUSH1 0x20 DUP4 ADD MLOAD DUP5 DUP3 SUB PUSH1 0x20 DUP7 ADD MSTORE PUSH2 0x86D6 DUP3 DUP3 PUSH2 0x80A4 JUMP JUMPDEST SWAP2 POP POP PUSH1 0x40 DUP4 ADD MLOAD DUP5 DUP3 SUB PUSH1 0x40 DUP7 ADD MSTORE PUSH2 0x86F0 DUP3 DUP3 PUSH2 0x80A4 JUMP JUMPDEST SWAP2 POP POP PUSH1 0x60 DUP4 ADD MLOAD DUP5 DUP3 SUB PUSH1 0x60 DUP7 ADD MSTORE PUSH2 0x870A DUP3 DUP3 PUSH2 0x80A4 JUMP JUMPDEST SWAP2 POP POP PUSH1 0x80 DUP4 ADD MLOAD DUP5 DUP3 SUB PUSH1 0x80 DUP7 ADD MSTORE PUSH2 0x8724 DUP3 DUP3 PUSH2 0x80A4 JUMP JUMPDEST SWAP2 POP POP PUSH1 0xA0 DUP4 ADD MLOAD DUP5 DUP3 SUB PUSH1 0xA0 DUP7 ADD MSTORE PUSH2 0x873E DUP3 DUP3 PUSH2 0x80A4 JUMP JUMPDEST SWAP2 POP POP PUSH1 0xC0 DUP4 ADD MLOAD DUP5 DUP3 SUB PUSH1 0xC0 DUP7 ADD MSTORE PUSH2 0x8758 DUP3 DUP3 PUSH2 0x80A4 JUMP JUMPDEST SWAP2 POP POP PUSH1 0xE0 DUP4 ADD MLOAD DUP5 DUP3 SUB PUSH1 0xE0 DUP7 ADD MSTORE PUSH2 0x8772 DUP3 DUP3 PUSH2 0x80A4 JUMP JUMPDEST SWAP2 POP POP PUSH2 0x100 DUP4 ADD MLOAD PUSH2 0x100 DUP6 ADD MSTORE PUSH2 0x120 DUP4 ADD MLOAD DUP5 DUP3 SUB PUSH2 0x120 DUP7 ADD MSTORE PUSH2 0x879A DUP3 DUP3 PUSH2 0x8637 JUMP JUMPDEST SWAP2 POP POP PUSH2 0x140 DUP4 ADD MLOAD PUSH2 0x140 DUP6 ADD MSTORE PUSH2 0x160 DUP4 ADD MLOAD PUSH2 0x27ED PUSH2 0x160 DUP7 ADD DUP3 ISZERO ISZERO SWAP1 MSTORE JUMP JUMPDEST PUSH1 0x0 PUSH1 0x20 DUP3 ADD PUSH1 0x20 DUP4 MSTORE DUP1 DUP5 MLOAD DUP1 DUP4 MSTORE PUSH1 0x40 DUP6 ADD SWAP2 POP PUSH1 0x40 DUP2 PUSH1 0x5 SHL DUP7 ADD ADD SWAP3 POP PUSH1 0x20 DUP7 ADD PUSH1 0x0 JUMPDEST DUP3 DUP2 LT ISZERO PUSH2 0x829F JUMPI PUSH1 0x3F NOT DUP8 DUP7 SUB ADD DUP5 MSTORE PUSH2 0x8802 DUP6 DUP4 MLOAD PUSH2 0x86A6 JUMP JUMPDEST SWAP5 POP PUSH1 0x20 SWAP4 DUP5 ADD SWAP4 SWAP2 SWAP1 SWAP2 ADD SWAP1 PUSH1 0x1 ADD PUSH2 0x87E6 JUMP JUMPDEST PUSH1 0x20 DUP2 MSTORE PUSH1 0x0 PUSH2 0x82E2 PUSH1 0x20 DUP4 ADD DUP5 PUSH2 0x86A6 JUMP JUMPDEST PUSH1 0x0 DUP1 PUSH1 0x40 DUP4 DUP6 SUB SLT ISZERO PUSH2 0x883D JUMPI PUSH1 0x0 DUP1 REVERT JUMPDEST PUSH2 0x8846 DUP4 PUSH2 0x82AB JUMP JUMPDEST SWAP2 POP PUSH1 0x20 DUP4 ADD CALLDATALOAD DUP1 ISZERO ISZERO DUP2 EQ PUSH2 0x885B JUMPI PUSH1 0x0 DUP1 REVERT JUMPDEST DUP1 SWAP2 POP POP SWAP3 POP SWAP3 SWAP1 POP JUMP JUMPDEST PUSH1 0x0 DUP2 MLOAD PUSH1 0xE0 DUP5 MSTORE PUSH2 0x887B PUSH1 0xE0 DUP6 ADD DUP3 PUSH2 0x80A4 JUMP JUMPDEST SWAP1 POP PUSH1 0x20 DUP4 ADD MLOAD DUP5 DUP3 SUB PUSH1 0x20 DUP7 ADD MSTORE PUSH2 0x8894 DUP3 DUP3 PUSH2 0x80A4 JUMP JUMPDEST SWAP2 POP POP PUSH1 0x40 DUP4 ADD MLOAD DUP5 DUP3 SUB PUSH1 0x40 DUP7 ADD MSTORE PUSH2 0x88AE DUP3 DUP3 PUSH2 0x80A4 JUMP JUMPDEST SWAP2 POP POP PUSH1 0x60 DUP4 ADD MLOAD DUP5 DUP3 SUB PUSH1 0x60 DUP7 ADD MSTORE PUSH2 0x88C8 DUP3 DUP3 PUSH2 0x80A4 JUMP JUMPDEST SWAP2 POP POP PUSH1 0x80 DUP4 ADD MLOAD DUP5 DUP3 SUB PUSH1 0x80 DUP7 ADD MSTORE PUSH2 0x88E2 DUP3 DUP3 PUSH2 0x80A4 JUMP JUMPDEST SWAP2 POP POP PUSH1 0xA0 DUP4 ADD MLOAD DUP5 DUP3 SUB PUSH1 0xA0 DUP7 ADD MSTORE PUSH2 0x88FC DUP3 DUP3 PUSH2 0x80A4 JUMP JUMPDEST SWAP2 POP POP PUSH1 0xC0 DUP4 ADD MLOAD PUSH1 0xC0 DUP6 ADD MSTORE DUP1 SWAP2 POP POP SWAP3 SWAP2 POP POP JUMP JUMPDEST PUSH1 0x20 DUP2 MSTORE PUSH1 0x0 PUSH2 0x82E2 PUSH1 0x20 DUP4 ADD DUP5 PUSH2 0x8866 JUMP JUMPDEST PUSH1 0x20 DUP2 MSTORE PUSH1 0x0 PUSH2 0x82E2 PUSH1 0x20 DUP4 ADD DUP5 PUSH2 0x810A JUMP JUMPDEST PUSH1 0x0 DUP2 MLOAD PUSH2 0x100 DUP5 MSTORE PUSH2 0x8950 PUSH2 0x100 DUP6 ADD DUP3 PUSH2 0x80A4 JUMP JUMPDEST SWAP1 POP PUSH1 0x20 DUP4 ADD MLOAD DUP5 DUP3 SUB PUSH1 0x20 DUP7 ADD MSTORE PUSH2 0x8969 DUP3 DUP3 PUSH2 0x80A4 JUMP JUMPDEST SWAP2 POP POP PUSH1 0x40 DUP4 ADD MLOAD DUP5 DUP3 SUB PUSH1 0x40 DUP7 ADD MSTORE PUSH2 0x8983 DUP3 DUP3 PUSH2 0x80A4 JUMP JUMPDEST SWAP2 POP POP PUSH1 0x60 DUP4 ADD MLOAD DUP5 DUP3 SUB PUSH1 0x60 DUP7 ADD MSTORE PUSH2 0x899D DUP3 DUP3 PUSH2 0x80A4 JUMP JUMPDEST SWAP2 POP POP PUSH1 0x80 DUP4 ADD MLOAD DUP5 DUP3 SUB PUSH1 0x80 DUP7 ADD MSTORE PUSH2 0x89B7 DUP3 DUP3 PUSH2 0x80A4 JUMP JUMPDEST SWAP2 POP POP PUSH1 0xA0 DUP4 ADD MLOAD DUP5 DUP3 SUB PUSH1 0xA0 DUP7 ADD MSTORE PUSH2 0x89D1 DUP3 DUP3 PUSH2 0x80A4 JUMP JUMPDEST SWAP2 POP POP PUSH1 0xC0 DUP4 ADD MLOAD DUP5 DUP3 SUB PUSH1 0xC0 DUP7 ADD MSTORE PUSH2 0x89EB DUP3 DUP3 PUSH2 0x80A4 JUMP JUMPDEST SWAP2 POP POP PUSH1 0xE0 DUP4 ADD MLOAD PUSH1 0xE0 DUP6 ADD MSTORE DUP1 SWAP2 POP POP SWAP3 SWAP2 POP POP JUMP JUMPDEST PUSH1 0x20 DUP2 MSTORE PUSH1 0x0 PUSH2 0x82E2 PUSH1 0x20 DUP4 ADD DUP5 PUSH2 0x8939 JUMP JUMPDEST PUSH1 0x0 DUP3 PUSH1 0x1F DUP4 ADD SLT PUSH2 0x8A26 JUMPI PUSH1 0x0 DUP1 REVERT JUMPDEST DUP2 CALLDATALOAD PUSH1 0x1 PUSH1 0x1 PUSH1 0x40 SHL SUB DUP2 GT ISZERO PUSH2 0x8A3F JUMPI PUSH2 0x8A3F PUSH2 0x7D6F JUMP JUMPDEST DUP1 PUSH1 0x5 SHL PUSH2 0x8A4F PUSH1 0x20 DUP3 ADD PUSH2 0x7DAE JUMP JUMPDEST SWAP2 DUP3 MSTORE PUSH1 0x20 DUP2 DUP6 ADD DUP2 ADD SWAP3 SWAP1 DUP2 ADD SWAP1 DUP7 DUP5 GT ISZERO PUSH2 0x8A6B JUMPI PUSH1 0x0 DUP1 REVERT JUMPDEST PUSH1 0x20 DUP7 ADD SWAP3 POP JUMPDEST DUP4 DUP4 LT ISZERO PUSH2 0x8AB1 JUMPI DUP3 CALLDATALOAD PUSH1 0x1 PUSH1 0x1 PUSH1 0x40 SHL SUB DUP2 GT ISZERO PUSH2 0x8A90 JUMPI PUSH1 0x0 DUP1 REVERT JUMPDEST PUSH2 0x8A9F DUP9 PUSH1 0x20 DUP4 DUP11 ADD ADD PUSH2 0x7DDE JUMP JUMPDEST DUP4 MSTORE POP PUSH1 0x20 SWAP3 DUP4 ADD SWAP3 SWAP1 SWAP2 ADD SWAP1 PUSH2 0x8A72 JUMP JUMPDEST SWAP7 SWAP6 POP POP POP POP POP POP JUMP JUMPDEST PUSH1 0x0 DUP1 PUSH1 0x0 DUP1 PUSH1 0x0 DUP1 PUSH1 0xC0 DUP8 DUP10 SUB SLT ISZERO PUSH2 0x8AD4 JUMPI PUSH1 0x0 DUP1 REVERT JUMPDEST DUP7 CALLDATALOAD PUSH1 0x1 PUSH1 0x1 PUSH1 0x40 SHL SUB DUP2 GT ISZERO PUSH2 0x8AEA JUMPI PUSH1 0x0 DUP1 REVERT JUMPDEST PUSH2 0x8AF6 DUP10 DUP3 DUP11 ADD PUSH2 0x7DDE JUMP JUMPDEST SWAP7 POP POP PUSH1 0x20 DUP8 ADD CALLDATALOAD PUSH1 0x1 PUSH1 0x1 PUSH1 0x40 SHL SUB DUP2 GT ISZERO PUSH2 0x8B12 JUMPI PUSH1 0x0 DUP1 REVERT JUMPDEST PUSH2 0x8B1E DUP10 DUP3 DUP11 ADD PUSH2 0x7DDE JUMP JUMPDEST SWAP6 POP POP PUSH1 0x40 DUP8 ADD CALLDATALOAD PUSH1 0x1 PUSH1 0x1 PUSH1 0x40 SHL SUB DUP2 GT ISZERO PUSH2 0x8B3A JUMPI PUSH1 0x0 DUP1 REVERT JUMPDEST PUSH2 0x8B46 DUP10 DUP3 DUP11 ADD PUSH2 0x7DDE JUMP JUMPDEST SWAP5 POP POP PUSH1 0x60 DUP8 ADD CALLDATALOAD PUSH1 0x1 PUSH1 0x1 PUSH1 0x40 SHL SUB DUP2 GT ISZERO PUSH2 0x8B62 JUMPI PUSH1 0x0 DUP1 REVERT JUMPDEST PUSH2 0x8B6E DUP10 DUP3 DUP11 ADD PUSH2 0x7DDE JUMP JUMPDEST SWAP4 POP POP PUSH1 0x80 DUP8 ADD CALLDATALOAD SWAP2 POP PUSH1 0xA0 DUP8 ADD CALLDATALOAD PUSH1 0x1 PUSH1 0x1 PUSH1 0x40 SHL SUB DUP2 GT ISZERO PUSH2 0x8B91 JUMPI PUSH1 0x0 DUP1 REVERT JUMPDEST PUSH2 0x7F50 DUP10 DUP3 DUP11 ADD PUSH2 0x8A15 JUMP JUMPDEST PUSH1 0x0 DUP2 MLOAD PUSH1 0xC0 DUP5 MSTORE PUSH2 0x8BB2 PUSH1 0xC0 DUP6 ADD DUP3 PUSH2 0x80A4 JUMP JUMPDEST SWAP1 POP PUSH1 0x20 DUP4 ADD MLOAD DUP5 DUP3 SUB PUSH1 0x20 DUP7 ADD MSTORE PUSH2 0x8BCB DUP3 DUP3 PUSH2 0x80A4 JUMP JUMPDEST SWAP2 POP POP PUSH1 0x40 DUP4 ADD MLOAD DUP5 DUP3 SUB PUSH1 0x40 DUP7 ADD MSTORE PUSH2 0x8BE5 DUP3 DUP3 PUSH2 0x80A4 JUMP JUMPDEST SWAP2 POP POP PUSH1 0x60 DUP4 ADD MLOAD DUP5 DUP3 SUB PUSH1 0x60 DUP7 ADD MSTORE PUSH2 0x8BFF DUP3 DUP3 PUSH2 0x80A4 JUMP JUMPDEST SWAP2 POP POP PUSH1 0x80 DUP4 ADD MLOAD DUP5 DUP3 SUB PUSH1 0x80 DUP7 ADD MSTORE PUSH2 0x8C19 DUP3 DUP3 PUSH2 0x80A4 JUMP JUMPDEST SWAP2 POP POP PUSH1 0xA0 DUP4 ADD MLOAD PUSH1 0xA0 DUP6 ADD MSTORE DUP1 SWAP2 POP POP SWAP3 SWAP2 POP POP JUMP JUMPDEST PUSH1 0x20 DUP2 MSTORE PUSH1 0x0 PUSH2 0x82E2 PUSH1 0x20 DUP4 ADD DUP5 PUSH2 0x8B9D JUMP JUMPDEST DUP1 CALLDATALOAD PUSH1 0x5 DUP2 LT PUSH2 0x82C2 JUMPI PUSH1 0x0 DUP1 REVERT JUMPDEST PUSH1 0x0 PUSH1 0x20 DUP3 DUP5 SUB SLT ISZERO PUSH2 0x8C64 JUMPI PUSH1 0x0 DUP1 REVERT JUMPDEST DUP2 CALLDATALOAD PUSH1 0x1 PUSH1 0x1 PUSH1 0x40 SHL SUB DUP2 GT ISZERO PUSH2 0x8C7A JUMPI PUSH1 0x0 DUP1 REVERT JUMPDEST DUP3 ADD PUSH2 0x160 DUP2 DUP6 SUB SLT ISZERO PUSH2 0x8C8D JUMPI PUSH1 0x0 DUP1 REVERT JUMPDEST PUSH2 0x8C95 PUSH2 0x7D85 JUMP JUMPDEST DUP2 CALLDATALOAD PUSH1 0x1 PUSH1 0x1 PUSH1 0x40 SHL SUB DUP2 GT ISZERO PUSH2 0x8CAB JUMPI PUSH1 0x0 DUP1 REVERT JUMPDEST PUSH2 0x8CB7 DUP7 DUP3 DUP6 ADD PUSH2 0x7DDE JUMP JUMPDEST DUP3 MSTORE POP PUSH1 0x20 DUP3 ADD CALLDATALOAD PUSH1 0x1 PUSH1 0x1 PUSH1 0x40 SHL SUB DUP2 GT ISZERO PUSH2 0x8CD3 JUMPI PUSH1 0x0 DUP1 REVERT JUMPDEST PUSH2 0x8CDF DUP7 DUP3 DUP6 ADD PUSH2 0x7DDE JUMP JUMPDEST PUSH1 0x20 DUP4 ADD MSTORE POP PUSH1 0x40 DUP3 ADD CALLDATALOAD PUSH1 0x1 PUSH1 0x1 PUSH1 0x40 SHL SUB DUP2 GT ISZERO PUSH2 0x8CFE JUMPI PUSH1 0x0 DUP1 REVERT JUMPDEST PUSH2 0x8D0A DUP7 DUP3 DUP6 ADD PUSH2 0x7DDE JUMP JUMPDEST PUSH1 0x40 DUP4 ADD MSTORE POP PUSH1 0x60 DUP3 ADD CALLDATALOAD PUSH1 0x1 PUSH1 0x1 PUSH1 0x40 SHL SUB DUP2 GT ISZERO PUSH2 0x8D29 JUMPI PUSH1 0x0 DUP1 REVERT JUMPDEST PUSH2 0x8D35 DUP7 DUP3 DUP6 ADD PUSH2 0x7DDE JUMP JUMPDEST PUSH1 0x60 DUP4 ADD MSTORE POP PUSH1 0x80 DUP3 ADD CALLDATALOAD PUSH1 0x1 PUSH1 0x1 PUSH1 0x40 SHL SUB DUP2 GT ISZERO PUSH2 0x8D54 JUMPI PUSH1 0x0 DUP1 REVERT JUMPDEST PUSH2 0x8D60 DUP7 DUP3 DUP6 ADD PUSH2 0x7DDE JUMP JUMPDEST PUSH1 0x80 DUP4 ADD MSTORE POP PUSH1 0xA0 DUP3 ADD CALLDATALOAD PUSH1 0x1 PUSH1 0x1 PUSH1 0x40 SHL SUB DUP2 GT ISZERO PUSH2 0x8D7F JUMPI PUSH1 0x0 DUP1 REVERT JUMPDEST PUSH2 0x8D8B DUP7 DUP3 DUP6 ADD PUSH2 0x7DDE JUMP JUMPDEST PUSH1 0xA0 DUP4 ADD MSTORE POP PUSH1 0xC0 DUP3 ADD CALLDATALOAD PUSH1 0x1 PUSH1 0x1 PUSH1 0x40 SHL SUB DUP2 GT ISZERO PUSH2 0x8DAA JUMPI PUSH1 0x0 DUP1 REVERT JUMPDEST PUSH2 0x8DB6 DUP7 DUP3 DUP6 ADD PUSH2 0x7DDE JUMP JUMPDEST PUSH1 0xC0 DUP4 ADD MSTORE POP PUSH1 0xE0 DUP3 ADD CALLDATALOAD PUSH1 0x1 PUSH1 0x1 PUSH1 0x40 SHL SUB DUP2 GT ISZERO PUSH2 0x8DD5 JUMPI PUSH1 0x0 DUP1 REVERT JUMPDEST PUSH2 0x8DE1 DUP7 DUP3 DUP6 ADD PUSH2 0x7DDE JUMP JUMPDEST PUSH1 0xE0 DUP4 ADD MSTORE POP PUSH2 0x100 DUP3 ADD CALLDATALOAD PUSH1 0x1 PUSH1 0x1 PUSH1 0x40 SHL SUB DUP2 GT ISZERO PUSH2 0x8E01 JUMPI PUSH1 0x0 DUP1 REVERT JUMPDEST PUSH2 0x8E0D DUP7 DUP3 DUP6 ADD PUSH2 0x7DDE JUMP JUMPDEST PUSH2 0x100 DUP4 ADD MSTORE POP PUSH2 0x120 DUP3 ADD CALLDATALOAD PUSH1 0x1 PUSH1 0x1 PUSH1 0x40 SHL SUB DUP2 GT ISZERO PUSH2 0x8E2E JUMPI PUSH1 0x0 DUP1 REVERT JUMPDEST PUSH2 0x8E3A DUP7 DUP3 DUP6 ADD PUSH2 0x7DDE JUMP JUMPDEST PUSH2 0x120 DUP4 ADD MSTORE POP PUSH2 0x8E4E PUSH2 0x140 DUP4 ADD PUSH2 0x8C43 JUMP JUMPDEST PUSH2 0x140 DUP3 ADD MSTORE SWAP5 SWAP4 POP POP POP POP JUMP JUMPDEST PUSH1 0x0 DUP1 PUSH1 0x0 DUP1 PUSH1 0x0 DUP1 PUSH1 0x0 DUP1 PUSH1 0x0 DUP1 PUSH2 0x140 DUP12 DUP14 SUB SLT ISZERO PUSH2 0x8E7C JUMPI PUSH1 0x0 DUP1 REVERT JUMPDEST DUP11 CALLDATALOAD PUSH1 0x1 PUSH1 0x1 PUSH1 0x40 SHL SUB DUP2 GT ISZERO PUSH2 0x8E92 JUMPI PUSH1 0x0 DUP1 REVERT JUMPDEST PUSH2 0x8E9E DUP14 DUP3 DUP15 ADD PUSH2 0x7DDE JUMP JUMPDEST SWAP11 POP POP PUSH1 0x20 DUP12 ADD CALLDATALOAD PUSH1 0x1 PUSH1 0x1 PUSH1 0x40 SHL SUB DUP2 GT ISZERO PUSH2 0x8EBA JUMPI PUSH1 0x0 DUP1 REVERT JUMPDEST PUSH2 0x8EC6 DUP14 DUP3 DUP15 ADD PUSH2 0x7DDE JUMP JUMPDEST SWAP10 POP POP PUSH1 0x40 DUP12 ADD CALLDATALOAD PUSH1 0x1 PUSH1 0x1 PUSH1 0x40 SHL SUB DUP2 GT ISZERO PUSH2 0x8EE2 JUMPI PUSH1 0x0 DUP1 REVERT JUMPDEST PUSH2 0x8EEE DUP14 DUP3 DUP15 ADD PUSH2 0x7DDE JUMP JUMPDEST SWAP9 POP POP PUSH1 0x60 DUP12 ADD CALLDATALOAD PUSH1 0x1 PUSH1 0x1 PUSH1 0x40 SHL SUB DUP2 GT ISZERO PUSH2 0x8F0A JUMPI PUSH1 0x0 DUP1 REVERT JUMPDEST PUSH2 0x8F16 DUP14 DUP3 DUP15 ADD PUSH2 0x7DDE JUMP JUMPDEST SWAP8 POP POP PUSH1 0x80 DUP12 ADD CALLDATALOAD PUSH1 0x1 PUSH1 0x1 PUSH1 0x40 SHL SUB DUP2 GT ISZERO PUSH2 0x8F32 JUMPI PUSH1 0x0 DUP1 REVERT JUMPDEST PUSH2 0x8F3E DUP14 DUP3 DUP15 ADD PUSH2 0x7DDE JUMP JUMPDEST SWAP7 POP POP PUSH1 0xA0 DUP12 ADD CALLDATALOAD PUSH1 0x1 PUSH1 0x1 PUSH1 0x40 SHL SUB DUP2 GT ISZERO PUSH2 0x8F5A JUMPI PUSH1 0x0 DUP1 REVERT JUMPDEST PUSH2 0x8F66 DUP14 DUP3 DUP15 ADD PUSH2 0x7DDE JUMP JUMPDEST SWAP6 POP POP PUSH1 0xC0 DUP12 ADD CALLDATALOAD PUSH1 0x1 PUSH1 0x1 PUSH1 0x40 SHL SUB DUP2 GT ISZERO PUSH2 0x8F82 JUMPI PUSH1 0x0 DUP1 REVERT JUMPDEST PUSH2 0x8F8E DUP14 DUP3 DUP15 ADD PUSH2 0x7DDE JUMP JUMPDEST SWAP5 POP POP PUSH1 0xE0 DUP12 ADD CALLDATALOAD PUSH1 0x1 PUSH1 0x1 PUSH1 0x40 SHL SUB DUP2 GT ISZERO PUSH2 0x8FAA JUMPI PUSH1 0x0 DUP1 REVERT JUMPDEST PUSH2 0x8FB6 DUP14 DUP3 DUP15 ADD PUSH2 0x7DDE JUMP JUMPDEST SWAP4 POP POP PUSH2 0x100 DUP12 ADD CALLDATALOAD SWAP2 POP PUSH2 0x120 DUP12 ADD CALLDATALOAD PUSH1 0x1 PUSH1 0x1 PUSH1 0x40 SHL SUB DUP2 GT ISZERO PUSH2 0x8FDB JUMPI PUSH1 0x0 DUP1 REVERT JUMPDEST PUSH2 0x8FE7 DUP14 DUP3 DUP15 ADD PUSH2 0x8A15 JUMP JUMPDEST SWAP2 POP POP SWAP3 SWAP6 SWAP9 SWAP12 SWAP2 SWAP5 SWAP8 SWAP11 POP SWAP3 SWAP6 SWAP9 POP JUMP JUMPDEST PUSH1 0xC0 DUP2 MSTORE PUSH1 0x0 PUSH2 0x900C PUSH1 0xC0 DUP4 ADD DUP10 PUSH2 0x810A JUMP JUMPDEST DUP3 DUP2 SUB PUSH1 0x20 DUP5 ADD MSTORE PUSH2 0x901E DUP2 DUP10 PUSH2 0x8B9D JUMP JUMPDEST SWAP1 POP DUP3 DUP2 SUB PUSH1 0x40 DUP5 ADD MSTORE PUSH2 0x9032 DUP2 DUP9 PUSH2 0x8866 JUMP JUMPDEST SWAP1 POP DUP3 DUP2 SUB PUSH1 0x60 DUP5 ADD MSTORE PUSH2 0x9046 DUP2 DUP8 PUSH2 0x8939 JUMP JUMPDEST SWAP1 POP DUP3 DUP2 SUB PUSH1 0x80 DUP5 ADD MSTORE PUSH2 0x905A DUP2 DUP7 PUSH2 0x8866 JUMP JUMPDEST SWAP1 POP DUP3 DUP2 SUB PUSH1 0xA0 DUP5 ADD MSTORE PUSH2 0x906E DUP2 DUP6 PUSH2 0x8866 JUMP JUMPDEST SWAP10 SWAP9 POP POP POP POP POP POP POP POP POP JUMP JUMPDEST PUSH1 0x0 DUP3 MLOAD PUSH2 0x908D DUP2 DUP5 PUSH1 0x20 DUP8 ADD PUSH2 0x8080 JUMP JUMPDEST SWAP2 SWAP1 SWAP2 ADD SWAP3 SWAP2 POP POP JUMP JUMPDEST PUSH1 0x20 DUP1 DUP3 MSTORE PUSH1 0x24 SWAP1 DUP3 ADD MSTORE PUSH32 0x50726F647563744D616E6167656D656E743A2050726F64756374206E6F742066 PUSH1 0x40 DUP3 ADD MSTORE PUSH4 0x1BDD5B99 PUSH1 0xE2 SHL PUSH1 0x60 DUP3 ADD MSTORE PUSH1 0x80 ADD SWAP1 JUMP JUMPDEST PUSH1 0x20 DUP1 DUP3 MSTORE PUSH1 0x10 SWAP1 DUP3 ADD MSTORE PUSH16 0x50726F6475637420696E616374697665 PUSH1 0x80 SHL PUSH1 0x40 DUP3 ADD MSTORE PUSH1 0x60 ADD SWAP1 JUMP JUMPDEST PUSH1 0x1 DUP2 DUP2 SHR SWAP1 DUP3 AND DUP1 PUSH2 0x9119 JUMPI PUSH1 0x7F DUP3 AND SWAP2 POP JUMPDEST PUSH1 0x20 DUP3 LT DUP2 SUB PUSH2 0x14F5 JUMPI PUSH4 0x4E487B71 PUSH1 0xE0 SHL PUSH1 0x0 MSTORE PUSH1 0x22 PUSH1 0x4 MSTORE PUSH1 0x24 PUSH1 0x0 REVERT JUMPDEST PUSH1 0x1F DUP3 GT ISZERO PUSH2 0x9180 JUMPI DUP1 PUSH1 0x0 MSTORE PUSH1 0x20 PUSH1 0x0 KECCAK256 PUSH1 0x1F DUP5 ADD PUSH1 0x5 SHR DUP2 ADD PUSH1 0x20 DUP6 LT ISZERO PUSH2 0x9160 JUMPI POP DUP1 JUMPDEST PUSH1 0x1F DUP5 ADD PUSH1 0x5 SHR DUP3 ADD SWAP2 POP JUMPDEST DUP2 DUP2 LT ISZERO PUSH2 0x5B09 JUMPI PUSH1 0x0 DUP2 SSTORE PUSH1 0x1 ADD PUSH2 0x916C JUMP JUMPDEST POP POP POP JUMP JUMPDEST PUSH1 0x0 NOT PUSH1 0x3 DUP4 SWAP1 SHL SHR NOT AND PUSH1 0x1 SWAP2 SWAP1 SWAP2 SHL OR SWAP1 JUMP JUMPDEST DUP2 MLOAD PUSH1 0x1 PUSH1 0x1 PUSH1 0x40 SHL SUB DUP2 GT ISZERO PUSH2 0x91B3 JUMPI PUSH2 0x91B3 PUSH2 0x7D6F JUMP JUMPDEST PUSH2 0x91C7 DUP2 PUSH2 0x91C1 DUP5 SLOAD PUSH2 0x9105 JUMP JUMPDEST DUP5 PUSH2 0x9139 JUMP JUMPDEST PUSH1 0x20 PUSH1 0x1F DUP3 GT PUSH1 0x1 DUP2 EQ PUSH2 0x91F5 JUMPI PUSH1 0x0 DUP4 ISZERO PUSH2 0x91E3 JUMPI POP DUP5 DUP3 ADD MLOAD JUMPDEST PUSH2 0x91ED DUP5 DUP3 PUSH2 0x9185 JUMP JUMPDEST DUP6 SSTORE POP PUSH2 0x5B09 JUMP JUMPDEST PUSH1 0x0 DUP5 DUP2 MSTORE PUSH1 0x20 DUP2 KECCAK256 PUSH1 0x1F NOT DUP6 AND SWAP2 JUMPDEST DUP3 DUP2 LT ISZERO PUSH2 0x9225 JUMPI DUP8 DUP6 ADD MLOAD DUP3 SSTORE PUSH1 0x20 SWAP5 DUP6 ADD SWAP5 PUSH1 0x1 SWAP1 SWAP3 ADD SWAP2 ADD PUSH2 0x9205 JUMP JUMPDEST POP DUP5 DUP3 LT ISZERO PUSH2 0x9243 JUMPI DUP7 DUP5 ADD MLOAD PUSH1 0x0 NOT PUSH1 0x3 DUP8 SWAP1 SHL PUSH1 0xF8 AND SHR NOT AND DUP2 SSTORE JUMPDEST POP POP POP POP PUSH1 0x1 SWAP1 DUP2 SHL ADD SWAP1 SSTORE POP JUMP JUMPDEST PUSH1 0x20 DUP1 DUP3 MSTORE PUSH1 0x1E SWAP1 DUP3 ADD MSTORE PUSH32 0x4661726D4D616E6167656D656E743A204661726D206E6F7420666F756E640000 PUSH1 0x40 DUP3 ADD MSTORE PUSH1 0x60 ADD SWAP1 JUMP JUMPDEST PUSH4 0x4E487B71 PUSH1 0xE0 SHL PUSH1 0x0 MSTORE PUSH1 0x32 PUSH1 0x4 MSTORE PUSH1 0x24 PUSH1 0x0 REVERT JUMPDEST PUSH1 0x20 DUP1 DUP3 MSTORE PUSH1 0xD SWAP1 DUP3 ADD MSTORE PUSH13 0x4661726D20696E616374697665 PUSH1 0x98 SHL PUSH1 0x40 DUP3 ADD MSTORE PUSH1 0x60 ADD SWAP1 JUMP JUMPDEST PUSH4 0x4E487B71 PUSH1 0xE0 SHL PUSH1 0x0 MSTORE PUSH1 0x11 PUSH1 0x4 MSTORE PUSH1 0x24 PUSH1 0x0 REVERT JUMPDEST DUP2 DUP2 SUB DUP2 DUP2 GT ISZERO PUSH2 0x92EF JUMPI PUSH2 0x92EF PUSH2 0x92C6 JUMP JUMPDEST SWAP3 SWAP2 POP POP JUMP JUMPDEST DUP1 DUP3 ADD DUP1 DUP3 GT ISZERO PUSH2 0x92EF JUMPI PUSH2 0x92EF PUSH2 0x92C6 JUMP JUMPDEST DUP2 DUP2 SUB PUSH2 0x9313 JUMPI POP POP JUMP JUMPDEST PUSH2 0x931D DUP3 SLOAD PUSH2 0x9105 JUMP JUMPDEST PUSH1 0x1 PUSH1 0x1 PUSH1 0x40 SHL SUB DUP2 GT ISZERO PUSH2 0x9334 JUMPI PUSH2 0x9334 PUSH2 0x7D6F JUMP JUMPDEST PUSH2 0x9342 DUP2 PUSH2 0x91C1 DUP5 SLOAD PUSH2 0x9105 JUMP JUMPDEST PUSH1 0x0 PUSH1 0x1F DUP3 GT PUSH1 0x1 DUP2 EQ PUSH2 0x9367 JUMPI PUSH1 0x0 DUP4 ISZERO PUSH2 0x91E3 JUMPI POP DUP5 DUP3 ADD SLOAD PUSH2 0x91ED DUP5 DUP3 PUSH2 0x9185 JUMP JUMPDEST PUSH1 0x0 DUP6 DUP2 MSTORE PUSH1 0x20 SWAP1 KECCAK256 PUSH1 0x1F NOT DUP5 AND SWAP1 PUSH1 0x0 DUP7 DUP2 MSTORE PUSH1 0x20 SWAP1 KECCAK256 DUP5 JUMPDEST DUP4 DUP2 LT ISZERO PUSH2 0x93A1 JUMPI DUP3 DUP7 ADD SLOAD DUP3 SSTORE PUSH1 0x1 SWAP6 DUP7 ADD SWAP6 SWAP1 SWAP2 ADD SWAP1 PUSH1 0x20 ADD PUSH2 0x9381 JUMP JUMPDEST POP DUP6 DUP4 LT ISZERO PUSH2 0x93BF JUMPI DUP2 DUP6 ADD SLOAD PUSH1 0x0 NOT PUSH1 0x3 DUP9 SWAP1 SHL PUSH1 0xF8 AND SHR NOT AND DUP2 SSTORE JUMPDEST POP POP POP POP POP PUSH1 0x1 SWAP1 DUP2 SHL ADD SWAP1 SSTORE POP JUMP JUMPDEST PUSH4 0x4E487B71 PUSH1 0xE0 SHL PUSH1 0x0 MSTORE PUSH1 0x31 PUSH1 0x4 MSTORE PUSH1 0x24 PUSH1 0x0 REVERT JUMPDEST PUSH1 0x60 DUP2 ADD PUSH2 0x93F3 DUP3 DUP7 PUSH2 0x80E6 JUMP JUMPDEST PUSH2 0x9400 PUSH1 0x20 DUP4 ADD DUP6 PUSH2 0x80E6 JUMP JUMPDEST DUP3 PUSH1 0x40 DUP4 ADD MSTORE SWAP5 SWAP4 POP POP POP POP JUMP JUMPDEST PUSH1 0x20 DUP1 DUP3 MSTORE PUSH1 0x21 SWAP1 DUP3 ADD MSTORE PUSH32 0x416363657373436F6E74726F6C3A204F6E6C792061646D696E20616C6C6F7765 PUSH1 0x40 DUP3 ADD MSTORE PUSH1 0x19 PUSH1 0xFA SHL PUSH1 0x60 DUP3 ADD MSTORE PUSH1 0x80 ADD SWAP1 JUMP JUMPDEST PUSH1 0x20 DUP1 DUP3 MSTORE PUSH1 0x1E SWAP1 DUP3 ADD MSTORE PUSH32 0x416363657373436F6E74726F6C3A20496E76616C696420616464726573730000 PUSH1 0x40 DUP3 ADD MSTORE PUSH1 0x60 ADD SWAP1 JUMP JUMPDEST PUSH1 0x20 DUP1 DUP3 MSTORE PUSH1 0x18 SWAP1 DUP3 ADD MSTORE PUSH24 0x56616C69646174696F6E3A20496E76616C69642061726561 PUSH1 0x40 SHL PUSH1 0x40 DUP3 ADD MSTORE PUSH1 0x60 ADD SWAP1 JUMP JUMPDEST PUSH1 0x0 PUSH1 0x1 DUP3 ADD PUSH2 0x94CA JUMPI PUSH2 0x94CA PUSH2 0x92C6 JUMP JUMPDEST POP PUSH1 0x1 ADD SWAP1 JUMP JUMPDEST PUSH1 0x40 DUP2 ADD PUSH2 0x94DF DUP3 DUP6 PUSH2 0x80E6 JUMP JUMPDEST DUP3 PUSH1 0x20 DUP4 ADD MSTORE SWAP4 SWAP3 POP POP POP JUMP JUMPDEST PUSH1 0x20 DUP1 DUP3 MSTORE PUSH1 0x21 SWAP1 DUP3 ADD MSTORE PUSH32 0x416363657373436F6E74726F6C3A204F6E6C79206F776E657220616C6C6F7765 PUSH1 0x40 DUP3 ADD MSTORE PUSH1 0x19 PUSH1 0xFA SHL PUSH1 0x60 DUP3 ADD MSTORE PUSH1 0x80 ADD SWAP1 JUMP JUMPDEST PUSH1 0x0 DUP1 DUP4 SLOAD PUSH2 0x953B DUP2 PUSH2 0x9105 JUMP JUMPDEST PUSH1 0x1 DUP3 AND DUP1 ISZERO PUSH2 0x9552 JUMPI PUSH1 0x1 DUP2 EQ PUSH2 0x9567 JUMPI PUSH2 0x9597 JUMP JUMPDEST PUSH1 0xFF NOT DUP4 AND DUP7 MSTORE DUP2 ISZERO ISZERO DUP3 MUL DUP7 ADD SWAP4 POP PUSH2 0x9597 JUMP JUMPDEST DUP7 PUSH1 0x0 MSTORE PUSH1 0x20 PUSH1 0x0 KECCAK256 PUSH1 0x0 JUMPDEST DUP4 DUP2 LT ISZERO PUSH2 0x958F JUMPI DUP2 SLOAD DUP9 DUP3 ADD MSTORE PUSH1 0x1 SWAP1 SWAP2 ADD SWAP1 PUSH1 0x20 ADD PUSH2 0x9573 JUMP JUMPDEST POP POP DUP2 DUP7 ADD SWAP4 POP JUMPDEST POP SWAP2 SWAP6 SWAP5 POP POP POP POP POP JUMP INVALID LOG2 PUSH5 0x6970667358 0x22 SLT KECCAK256 ADDMOD STOP 0xE3 0xB9 SWAP9 0xD9 CODESIZE PUSH13 0x5E4BECEE712FD47435841954A5 CODESIZE 0xCF 0xC3 SWAP11 JUMPI SWAP12 0xC3 PUSH16 0x94919A64736F6C634300081C00330000 "},"methodIdentifiers":{"GetAllCategories()":"2eda5a4f","GetAllCategoryuserId(string)":"5de7f904","MAX_AREA()":"168fc898","MAX_IMAGES()":"76bbe0c2","MIN_AREA()":"8388e2ba","addCategory(string,string)":"1bf703b2","addDistribution(string,string,string,string,string,string)":"08999bd5","addFarmImage(string,string)":"de653398","addFarmingProcess(string,string,string,string,string)":"0a87bf53","addFertilizer(string,string,string,string,string,string,string)":"2b213f23","addHarvest(string,string,string,string,string,string)":"9012cac1","addMedicine(string,string,string,string,string,string)":"32a486d8","addProduct((string,string,string,string,string,string,string,string,string,string,uint8))":"8a9d8733","admin()":"f851a440","authorizeUser(address)":"67c2a360","authorizedUsers(address)":"1828983a","categoryExistsCheck(string)":"a057b22a","deactivateFarm(string)":"cfde0ce8","deactivateProduct(string)":"2f9f7989","deauthorizeUser(address)":"5f121b52","farmOwners(address)":"c256940d","getAllFarms()":"f9559774","getCompleteProductTraceability(string)":"fb1a931f","getDistribution(string)":"5f99a659","getFarm(string)":"4b87ecae","getFarmImages(string)":"68304a62","getFarmingProcess(string)":"8343f955","getFarmsByUserId(string)":"42bf2696","getFertilizer(string)":"6eca2ccc","getHarvest(string)":"72c9379b","getMedicine(string)":"90c63477","getProduct(string)":"68111cce","getProductsByFarm(string)":"17c4c94c","getTotalFarms()":"5ee485b7","getTotalProducts()":"570aea8a","owner()":"8da5cb5b","productVerifiers(address)":"ae3cb7d4","registerFarm(string,string,string,string,string,string,string,string,uint256,string[])":"c7c38588","removeFarmImage(string,uint256)":"1acd172a","setFarmOwner(address,bool)":"53cc92f0","setProductVerifier(address,bool)":"a3857069","updateAdmin(address)":"e2f273bd","updateDistribution(string,string,string,string,string,string)":"5d30ba4a","updateFarm(string,string,string,string,uint256,string[])":"7281a7cd","updateFarmingProcess(string,string,string,string,string)":"1389b62a","updateFertilizer(string,string,string,string,string,string,string)":"63bf3e95","updateHarvest(string,string,string,string,string,string)":"b377fa61","updateMedicine(string,string,string,string,string,string)":"bbfd014c","updateProduct(string,string,string,string,string,string,string,string)":"2152736a","updateVerifier(address)":"97fc007c","userExists(string)":"fddc968e","verifier()":"2b7ac3f3"}}}}}