{
  "_format": "hh-sol-artifact-1",
  "contractName": "AgriculturalTraceabilitySystem",
  "sourceName": "contracts/truyxuat.sol",
  "abi": [
    {
      "inputs": [],
      "stateMutability": "nonpayable",
      "type": "constructor"
    },
    {
      "anonymous": false,
      "inputs": [
        {
          "indexed": true,
          "internalType": "string",
          "name": "categoryName",
          "type": "string"
        },
        {
          "indexed": true,
          "internalType": "string",
          "name": "userId",
          "type": "string"
        },
        {
          "indexed": false,
          "internalType": "uint256",
          "name": "timestamp",
          "type": "uint256"
        }
      ],
      "name": "CategoryAdded",
      "type": "event"
    },
    {
      "anonymous": false,
      "inputs": [
        {
          "indexed": true,
          "internalType": "string",
          "name": "productCode",
          "type": "string"
        },
        {
          "indexed": true,
          "internalType": "address",
          "name": "creator",
          "type": "address"
        },
        {
          "indexed": false,
          "internalType": "uint256",
          "name": "timestamp",
          "type": "uint256"
        }
      ],
      "name": "DistributionAdded",
      "type": "event"
    },
    {
      "anonymous": false,
      "inputs": [
        {
          "indexed": true,
          "internalType": "string",
          "name": "productCode",
          "type": "string"
        },
        {
          "indexed": true,
          "internalType": "address",
          "name": "updater",
          "type": "address"
        },
        {
          "indexed": false,
          "internalType": "uint256",
          "name": "timestamp",
          "type": "uint256"
        }
      ],
      "name": "DistributionUpdated",
      "type": "event"
    },
    {
      "anonymous": false,
      "inputs": [
        {
          "indexed": true,
          "internalType": "string",
          "name": "farmCode",
          "type": "string"
        },
        {
          "indexed": true,
          "internalType": "string",
          "name": "userId",
          "type": "string"
        },
        {
          "indexed": true,
          "internalType": "address",
          "name": "owner",
          "type": "address"
        },
        {
          "indexed": false,
          "internalType": "uint256",
          "name": "area",
          "type": "uint256"
        },
        {
          "indexed": false,
          "internalType": "uint256",
          "name": "timestamp",
          "type": "uint256"
        }
      ],
      "name": "FarmRegistered",
      "type": "event"
    },
    {
      "anonymous": false,
      "inputs": [
        {
          "indexed": true,
          "internalType": "string",
          "name": "farmCode",
          "type": "string"
        },
        {
          "indexed": false,
          "internalType": "enum AgriculturalTraceabilitySystem.FarmStatus",
          "name": "oldStatus",
          "type": "uint8"
        },
        {
          "indexed": false,
          "internalType": "enum AgriculturalTraceabilitySystem.FarmStatus",
          "name": "newStatus",
          "type": "uint8"
        },
        {
          "indexed": false,
          "internalType": "uint256",
          "name": "timestamp",
          "type": "uint256"
        }
      ],
      "name": "FarmStatusChanged",
      "type": "event"
    },
    {
      "anonymous": false,
      "inputs": [
        {
          "indexed": true,
          "internalType": "string",
          "name": "farmCode",
          "type": "string"
        },
        {
          "indexed": true,
          "internalType": "address",
          "name": "updater",
          "type": "address"
        },
        {
          "indexed": false,
          "internalType": "uint256",
          "name": "timestamp",
          "type": "uint256"
        }
      ],
      "name": "FarmUpdated",
      "type": "event"
    },
    {
      "anonymous": false,
      "inputs": [
        {
          "indexed": true,
          "internalType": "string",
          "name": "productCode",
          "type": "string"
        },
        {
          "indexed": true,
          "internalType": "address",
          "name": "creator",
          "type": "address"
        },
        {
          "indexed": false,
          "internalType": "uint256",
          "name": "timestamp",
          "type": "uint256"
        }
      ],
      "name": "FarmingProcessAdded",
      "type": "event"
    },
    {
      "anonymous": false,
      "inputs": [
        {
          "indexed": true,
          "internalType": "string",
          "name": "productCode",
          "type": "string"
        },
        {
          "indexed": true,
          "internalType": "address",
          "name": "updater",
          "type": "address"
        },
        {
          "indexed": false,
          "internalType": "uint256",
          "name": "timestamp",
          "type": "uint256"
        }
      ],
      "name": "FarmingProcessUpdated",
      "type": "event"
    },
    {
      "anonymous": false,
      "inputs": [
        {
          "indexed": true,
          "internalType": "string",
          "name": "productCode",
          "type": "string"
        },
        {
          "indexed": true,
          "internalType": "address",
          "name": "creator",
          "type": "address"
        },
        {
          "indexed": false,
          "internalType": "uint256",
          "name": "timestamp",
          "type": "uint256"
        }
      ],
      "name": "FertilizerAdded",
      "type": "event"
    },
    {
      "anonymous": false,
      "inputs": [
        {
          "indexed": true,
          "internalType": "string",
          "name": "productCode",
          "type": "string"
        },
        {
          "indexed": true,
          "internalType": "address",
          "name": "updater",
          "type": "address"
        },
        {
          "indexed": false,
          "internalType": "uint256",
          "name": "timestamp",
          "type": "uint256"
        }
      ],
      "name": "FertilizerUpdated",
      "type": "event"
    },
    {
      "anonymous": false,
      "inputs": [
        {
          "indexed": true,
          "internalType": "string",
          "name": "productCode",
          "type": "string"
        },
        {
          "indexed": true,
          "internalType": "address",
          "name": "creator",
          "type": "address"
        },
        {
          "indexed": false,
          "internalType": "uint256",
          "name": "timestamp",
          "type": "uint256"
        }
      ],
      "name": "HarvestAdded",
      "type": "event"
    },
    {
      "anonymous": false,
      "inputs": [
        {
          "indexed": true,
          "internalType": "string",
          "name": "productCode",
          "type": "string"
        },
        {
          "indexed": true,
          "internalType": "address",
          "name": "updater",
          "type": "address"
        },
        {
          "indexed": false,
          "internalType": "uint256",
          "name": "timestamp",
          "type": "uint256"
        }
      ],
      "name": "HarvestUpdated",
      "type": "event"
    },
    {
      "anonymous": false,
      "inputs": [
        {
          "indexed": true,
          "internalType": "string",
          "name": "productCode",
          "type": "string"
        },
        {
          "indexed": true,
          "internalType": "address",
          "name": "creator",
          "type": "address"
        },
        {
          "indexed": false,
          "internalType": "uint256",
          "name": "timestamp",
          "type": "uint256"
        }
      ],
      "name": "MedicineAdded",
      "type": "event"
    },
    {
      "anonymous": false,
      "inputs": [
        {
          "indexed": true,
          "internalType": "string",
          "name": "productCode",
          "type": "string"
        },
        {
          "indexed": true,
          "internalType": "address",
          "name": "updater",
          "type": "address"
        },
        {
          "indexed": false,
          "internalType": "uint256",
          "name": "timestamp",
          "type": "uint256"
        }
      ],
      "name": "MedicineUpdated",
      "type": "event"
    },
    {
      "anonymous": false,
      "inputs": [
        {
          "indexed": true,
          "internalType": "string",
          "name": "farmCode",
          "type": "string"
        },
        {
          "indexed": true,
          "internalType": "string",
          "name": "productCode",
          "type": "string"
        },
        {
          "indexed": true,
          "internalType": "string",
          "name": "categoryName",
          "type": "string"
        },
        {
          "indexed": false,
          "internalType": "enum AgriculturalTraceabilitySystem.ProductStatus",
          "name": "status",
          "type": "uint8"
        },
        {
          "indexed": false,
          "internalType": "uint256",
          "name": "timestamp",
          "type": "uint256"
        }
      ],
      "name": "ProductAdded",
      "type": "event"
    },
    {
      "anonymous": false,
      "inputs": [
        {
          "indexed": true,
          "internalType": "string",
          "name": "productCode",
          "type": "string"
        },
        {
          "indexed": false,
          "internalType": "enum AgriculturalTraceabilitySystem.ProductStatus",
          "name": "oldStatus",
          "type": "uint8"
        },
        {
          "indexed": false,
          "internalType": "enum AgriculturalTraceabilitySystem.ProductStatus",
          "name": "newStatus",
          "type": "uint8"
        },
        {
          "indexed": false,
          "internalType": "uint256",
          "name": "timestamp",
          "type": "uint256"
        }
      ],
      "name": "ProductStatusChanged",
      "type": "event"
    },
    {
      "anonymous": false,
      "inputs": [
        {
          "indexed": true,
          "internalType": "string",
          "name": "productCode",
          "type": "string"
        },
        {
          "indexed": true,
          "internalType": "address",
          "name": "updater",
          "type": "address"
        },
        {
          "indexed": false,
          "internalType": "uint256",
          "name": "timestamp",
          "type": "uint256"
        }
      ],
      "name": "ProductUpdated",
      "type": "event"
    },
    {
      "anonymous": false,
      "inputs": [
        {
          "indexed": true,
          "internalType": "address",
          "name": "user",
          "type": "address"
        },
        {
          "indexed": true,
          "internalType": "address",
          "name": "authorizer",
          "type": "address"
        },
        {
          "indexed": false,
          "internalType": "uint256",
          "name": "timestamp",
          "type": "uint256"
        }
      ],
      "name": "UserAuthorized",
      "type": "event"
    },
    {
      "anonymous": false,
      "inputs": [
        {
          "indexed": true,
          "internalType": "address",
          "name": "user",
          "type": "address"
        },
        {
          "indexed": true,
          "internalType": "address",
          "name": "authorizer",
          "type": "address"
        },
        {
          "indexed": false,
          "internalType": "uint256",
          "name": "timestamp",
          "type": "uint256"
        }
      ],
      "name": "UserDeauthorized",
      "type": "event"
    },
    {
      "inputs": [],
      "name": "GetAllCategories",
      "outputs": [
        {
          "internalType": "string[]",
          "name": "",
          "type": "string[]"
        }
      ],
      "stateMutability": "view",
      "type": "function"
    },
    {
      "inputs": [
        {
          "internalType": "string",
          "name": "_userId",
          "type": "string"
        }
      ],
      "name": "GetAllCategoryuserId",
      "outputs": [
        {
          "internalType": "string[]",
          "name": "",
          "type": "string[]"
        }
      ],
      "stateMutability": "view",
      "type": "function"
    },
    {
      "inputs": [],
      "name": "MAX_AREA",
      "outputs": [
        {
          "internalType": "uint256",
          "name": "",
          "type": "uint256"
        }
      ],
      "stateMutability": "view",
      "type": "function"
    },
    {
      "inputs": [],
      "name": "MAX_IMAGES",
      "outputs": [
        {
          "internalType": "uint256",
          "name": "",
          "type": "uint256"
        }
      ],
      "stateMutability": "view",
      "type": "function"
    },
    {
      "inputs": [],
      "name": "MIN_AREA",
      "outputs": [
        {
          "internalType": "uint256",
          "name": "",
          "type": "uint256"
        }
      ],
      "stateMutability": "view",
      "type": "function"
    },
    {
      "inputs": [
        {
          "internalType": "string",
          "name": "_categoryName",
          "type": "string"
        },
        {
          "internalType": "string",
          "name": "_userId",
          "type": "string"
        }
      ],
      "name": "addCategory",
      "outputs": [],
      "stateMutability": "nonpayable",
      "type": "function"
    },
    {
      "inputs": [
        {
          "internalType": "string",
          "name": "_productCode",
          "type": "string"
        },
        {
          "internalType": "string",
          "name": "_distributorName",
          "type": "string"
        },
        {
          "internalType": "string",
          "name": "_distributorPartner",
          "type": "string"
        },
        {
          "internalType": "string",
          "name": "_distributionDate",
          "type": "string"
        },
        {
          "internalType": "string",
          "name": "_transportMethod",
          "type": "string"
        },
        {
          "internalType": "string",
          "name": "_storageConditions",
          "type": "string"
        }
      ],
      "name": "addDistribution",
      "outputs": [],
      "stateMutability": "nonpayable",
      "type": "function"
    },
    {
      "inputs": [
        {
          "internalType": "string",
          "name": "_farmCode",
          "type": "string"
        },
        {
          "internalType": "string",
          "name": "_imageUrl",
          "type": "string"
        }
      ],
      "name": "addFarmImage",
      "outputs": [],
      "stateMutability": "nonpayable",
      "type": "function"
    },
    {
      "inputs": [
        {
          "internalType": "string",
          "name": "_productCode",
          "type": "string"
        },
        {
          "internalType": "string",
          "name": "_nameProcess",
          "type": "string"
        },
        {
          "internalType": "string",
          "name": "_source",
          "type": "string"
        },
        {
          "internalType": "string",
          "name": "_plantingDate",
          "type": "string"
        },
        {
          "internalType": "string",
          "name": "_sowingDate",
          "type": "string"
        }
      ],
      "name": "addFarmingProcess",
      "outputs": [],
      "stateMutability": "nonpayable",
      "type": "function"
    },
    {
      "inputs": [
        {
          "internalType": "string",
          "name": "_productCode",
          "type": "string"
        },
        {
          "internalType": "string",
          "name": "_nameFertilizer",
          "type": "string"
        },
        {
          "internalType": "string",
          "name": "_quantityFertilizer",
          "type": "string"
        },
        {
          "internalType": "string",
          "name": "_fertilizerDate",
          "type": "string"
        },
        {
          "internalType": "string",
          "name": "_fertilizerType",
          "type": "string"
        },
        {
          "internalType": "string",
          "name": "_applicationMethod",
          "type": "string"
        },
        {
          "internalType": "string",
          "name": "_expectedEffect",
          "type": "string"
        }
      ],
      "name": "addFertilizer",
      "outputs": [],
      "stateMutability": "nonpayable",
      "type": "function"
    },
    {
      "inputs": [
        {
          "internalType": "string",
          "name": "_productCode",
          "type": "string"
        },
        {
          "internalType": "string",
          "name": "_harvestDate",
          "type": "string"
        },
        {
          "internalType": "string",
          "name": "_estimatedQuantity",
          "type": "string"
        },
        {
          "internalType": "string",
          "name": "_actualQuantity",
          "type": "string"
        },
        {
          "internalType": "string",
          "name": "_quality",
          "type": "string"
        },
        {
          "internalType": "string",
          "name": "_harvestMethod",
          "type": "string"
        }
      ],
      "name": "addHarvest",
      "outputs": [],
      "stateMutability": "nonpayable",
      "type": "function"
    },
    {
      "inputs": [
        {
          "internalType": "string",
          "name": "_productCode",
          "type": "string"
        },
        {
          "internalType": "string",
          "name": "_nameMedicine",
          "type": "string"
        },
        {
          "internalType": "string",
          "name": "_quantityMedicine",
          "type": "string"
        },
        {
          "internalType": "string",
          "name": "_medicineDate",
          "type": "string"
        },
        {
          "internalType": "string",
          "name": "_medicineType",
          "type": "string"
        },
        {
          "internalType": "string",
          "name": "_applicationMethod",
          "type": "string"
        }
      ],
      "name": "addMedicine",
      "outputs": [],
      "stateMutability": "nonpayable",
      "type": "function"
    },
    {
      "inputs": [
        {
          "components": [
            {
              "internalType": "string",
              "name": "farmCode",
              "type": "string"
            },
            {
              "internalType": "string",
              "name": "productCode",
              "type": "string"
            },
            {
              "internalType": "string",
              "name": "categoryName",
              "type": "string"
            },
            {
              "internalType": "string",
              "name": "name",
              "type": "string"
            },
            {
              "internalType": "string",
              "name": "quantity",
              "type": "string"
            },
            {
              "internalType": "string",
              "name": "price",
              "type": "string"
            },
            {
              "internalType": "string",
              "name": "description",
              "type": "string"
            },
            {
              "internalType": "string",
              "name": "image",
              "type": "string"
            },
            {
              "internalType": "string",
              "name": "batchCode",
              "type": "string"
            },
            {
              "internalType": "string",
              "name": "certification",
              "type": "string"
            },
            {
              "internalType": "enum AgriculturalTraceabilitySystem.CertificationLevel",
              "name": "certificationLevel",
              "type": "uint8"
            }
          ],
          "internalType": "struct AgriculturalTraceabilitySystem.ProductInput",
          "name": "_productData",
          "type": "tuple"
        }
      ],
      "name": "addProduct",
      "outputs": [],
      "stateMutability": "nonpayable",
      "type": "function"
    },
    {
      "inputs": [],
      "name": "admin",
      "outputs": [
        {
          "internalType": "address",
          "name": "",
          "type": "address"
        }
      ],
      "stateMutability": "view",
      "type": "function"
    },
    {
      "inputs": [
        {
          "internalType": "address",
          "name": "_user",
          "type": "address"
        }
      ],
      "name": "authorizeUser",
      "outputs": [],
      "stateMutability": "nonpayable",
      "type": "function"
    },
    {
      "inputs": [
        {
          "internalType": "address",
          "name": "",
          "type": "address"
        }
      ],
      "name": "authorizedUsers",
      "outputs": [
        {
          "internalType": "bool",
          "name": "",
          "type": "bool"
        }
      ],
      "stateMutability": "view",
      "type": "function"
    },
    {
      "inputs": [
        {
          "internalType": "string",
          "name": "_categoryName",
          "type": "string"
        }
      ],
      "name": "categoryExistsCheck",
      "outputs": [
        {
          "internalType": "bool",
          "name": "",
          "type": "bool"
        }
      ],
      "stateMutability": "view",
      "type": "function"
    },
    {
      "inputs": [
        {
          "internalType": "string",
          "name": "_farmCode",
          "type": "string"
        }
      ],
      "name": "deactivateFarm",
      "outputs": [],
      "stateMutability": "nonpayable",
      "type": "function"
    },
    {
      "inputs": [
        {
          "internalType": "string",
          "name": "_productCode",
          "type": "string"
        }
      ],
      "name": "deactivateProduct",
      "outputs": [],
      "stateMutability": "nonpayable",
      "type": "function"
    },
    {
      "inputs": [
        {
          "internalType": "address",
          "name": "_user",
          "type": "address"
        }
      ],
      "name": "deauthorizeUser",
      "outputs": [],
      "stateMutability": "nonpayable",
      "type": "function"
    },
    {
      "inputs": [
        {
          "internalType": "address",
          "name": "",
          "type": "address"
        }
      ],
      "name": "farmOwners",
      "outputs": [
        {
          "internalType": "bool",
          "name": "",
          "type": "bool"
        }
      ],
      "stateMutability": "view",
      "type": "function"
    },
    {
      "inputs": [],
      "name": "getAllFarms",
      "outputs": [
        {
          "components": [
            {
              "internalType": "string",
              "name": "farmCode",
              "type": "string"
            },
            {
              "internalType": "string",
              "name": "fullname",
              "type": "string"
            },
            {
              "internalType": "string",
              "name": "nameFarm",
              "type": "string"
            },
            {
              "internalType": "string",
              "name": "userId",
              "type": "string"
            },
            {
              "internalType": "string",
              "name": "email",
              "type": "string"
            },
            {
              "internalType": "string",
              "name": "phone",
              "type": "string"
            },
            {
              "internalType": "string",
              "name": "description",
              "type": "string"
            },
            {
              "internalType": "string",
              "name": "location",
              "type": "string"
            },
            {
              "internalType": "uint256",
              "name": "area",
              "type": "uint256"
            },
            {
              "internalType": "string[]",
              "name": "images",
              "type": "string[]"
            },
            {
              "internalType": "uint256",
              "name": "createdAt",
              "type": "uint256"
            },
            {
              "internalType": "bool",
              "name": "isActive",
              "type": "bool"
            }
          ],
          "internalType": "struct AgriculturalTraceabilitySystem.Farm[]",
          "name": "",
          "type": "tuple[]"
        }
      ],
      "stateMutability": "view",
      "type": "function"
    },
    {
      "inputs": [
        {
          "internalType": "string",
          "name": "_productCode",
          "type": "string"
        }
      ],
      "name": "getCompleteProductTraceability",
      "outputs": [
        {
          "components": [
            {
              "internalType": "string",
              "name": "farmCode",
              "type": "string"
            },
            {
              "internalType": "string",
              "name": "productCode",
              "type": "string"
            },
            {
              "internalType": "string",
              "name": "categoryName",
              "type": "string"
            },
            {
              "internalType": "string",
              "name": "name",
              "type": "string"
            },
            {
              "internalType": "string",
              "name": "quantity",
              "type": "string"
            },
            {
              "internalType": "string",
              "name": "price",
              "type": "string"
            },
            {
              "internalType": "string",
              "name": "description",
              "type": "string"
            },
            {
              "internalType": "string",
              "name": "image",
              "type": "string"
            },
            {
              "internalType": "string",
              "name": "batchCode",
              "type": "string"
            },
            {
              "internalType": "string",
              "name": "certification",
              "type": "string"
            },
            {
              "internalType": "uint256",
              "name": "createdAt",
              "type": "uint256"
            },
            {
              "internalType": "enum AgriculturalTraceabilitySystem.ProductStatus",
              "name": "status",
              "type": "uint8"
            },
            {
              "internalType": "enum AgriculturalTraceabilitySystem.CertificationLevel",
              "name": "certificationLevel",
              "type": "uint8"
            }
          ],
          "internalType": "struct AgriculturalTraceabilitySystem.Product",
          "name": "product",
          "type": "tuple"
        },
        {
          "components": [
            {
              "internalType": "string",
              "name": "productCode",
              "type": "string"
            },
            {
              "internalType": "string",
              "name": "nameProcess",
              "type": "string"
            },
            {
              "internalType": "string",
              "name": "source",
              "type": "string"
            },
            {
              "internalType": "string",
              "name": "plantingDate",
              "type": "string"
            },
            {
              "internalType": "string",
              "name": "sowingDate",
              "type": "string"
            },
            {
              "internalType": "uint256",
              "name": "createdAt",
              "type": "uint256"
            }
          ],
          "internalType": "struct AgriculturalTraceabilitySystem.FarmingProcess",
          "name": "farmingProcess",
          "type": "tuple"
        },
        {
          "components": [
            {
              "internalType": "string",
              "name": "productCode",
              "type": "string"
            },
            {
              "internalType": "string",
              "name": "nameMedicine",
              "type": "string"
            },
            {
              "internalType": "string",
              "name": "quantityMedicine",
              "type": "string"
            },
            {
              "internalType": "string",
              "name": "medicineDate",
              "type": "string"
            },
            {
              "internalType": "string",
              "name": "medicineType",
              "type": "string"
            },
            {
              "internalType": "string",
              "name": "applicationMethod",
              "type": "string"
            },
            {
              "internalType": "uint256",
              "name": "createdAt",
              "type": "uint256"
            }
          ],
          "internalType": "struct AgriculturalTraceabilitySystem.Medicine",
          "name": "medicine",
          "type": "tuple"
        },
        {
          "components": [
            {
              "internalType": "string",
              "name": "productCode",
              "type": "string"
            },
            {
              "internalType": "string",
              "name": "nameFertilizer",
              "type": "string"
            },
            {
              "internalType": "string",
              "name": "quantityFertilizer",
              "type": "string"
            },
            {
              "internalType": "string",
              "name": "fertilizerDate",
              "type": "string"
            },
            {
              "internalType": "string",
              "name": "fertilizerType",
              "type": "string"
            },
            {
              "internalType": "string",
              "name": "applicationMethod",
              "type": "string"
            },
            {
              "internalType": "string",
              "name": "expectedEffect",
              "type": "string"
            },
            {
              "internalType": "uint256",
              "name": "createdAt",
              "type": "uint256"
            }
          ],
          "internalType": "struct AgriculturalTraceabilitySystem.Fertilizer",
          "name": "fertilizer",
          "type": "tuple"
        },
        {
          "components": [
            {
              "internalType": "string",
              "name": "productCode",
              "type": "string"
            },
            {
              "internalType": "string",
              "name": "harvestDate",
              "type": "string"
            },
            {
              "internalType": "string",
              "name": "estimatedQuantity",
              "type": "string"
            },
            {
              "internalType": "string",
              "name": "actualQuantity",
              "type": "string"
            },
            {
              "internalType": "string",
              "name": "quality",
              "type": "string"
            },
            {
              "internalType": "string",
              "name": "harvestMethod",
              "type": "string"
            },
            {
              "internalType": "uint256",
              "name": "createdAt",
              "type": "uint256"
            }
          ],
          "internalType": "struct AgriculturalTraceabilitySystem.Harvest",
          "name": "harvest",
          "type": "tuple"
        },
        {
          "components": [
            {
              "internalType": "string",
              "name": "productCode",
              "type": "string"
            },
            {
              "internalType": "string",
              "name": "distributorName",
              "type": "string"
            },
            {
              "internalType": "string",
              "name": "distributorPartner",
              "type": "string"
            },
            {
              "internalType": "string",
              "name": "distributionDate",
              "type": "string"
            },
            {
              "internalType": "string",
              "name": "transportMethod",
              "type": "string"
            },
            {
              "internalType": "string",
              "name": "storageConditions",
              "type": "string"
            },
            {
              "internalType": "uint256",
              "name": "createdAt",
              "type": "uint256"
            }
          ],
          "internalType": "struct AgriculturalTraceabilitySystem.Distribution",
          "name": "distribution",
          "type": "tuple"
        }
      ],
      "stateMutability": "view",
      "type": "function"
    },
    {
      "inputs": [
        {
          "internalType": "string",
          "name": "_productCode",
          "type": "string"
        }
      ],
      "name": "getDistribution",
      "outputs": [
        {
          "components": [
            {
              "internalType": "string",
              "name": "productCode",
              "type": "string"
            },
            {
              "internalType": "string",
              "name": "distributorName",
              "type": "string"
            },
            {
              "internalType": "string",
              "name": "distributorPartner",
              "type": "string"
            },
            {
              "internalType": "string",
              "name": "distributionDate",
              "type": "string"
            },
            {
              "internalType": "string",
              "name": "transportMethod",
              "type": "string"
            },
            {
              "internalType": "string",
              "name": "storageConditions",
              "type": "string"
            },
            {
              "internalType": "uint256",
              "name": "createdAt",
              "type": "uint256"
            }
          ],
          "internalType": "struct AgriculturalTraceabilitySystem.Distribution",
          "name": "",
          "type": "tuple"
        }
      ],
      "stateMutability": "view",
      "type": "function"
    },
    {
      "inputs": [
        {
          "internalType": "string",
          "name": "_farmCode",
          "type": "string"
        }
      ],
      "name": "getFarm",
      "outputs": [
        {
          "components": [
            {
              "internalType": "string",
              "name": "farmCode",
              "type": "string"
            },
            {
              "internalType": "string",
              "name": "fullname",
              "type": "string"
            },
            {
              "internalType": "string",
              "name": "nameFarm",
              "type": "string"
            },
            {
              "internalType": "string",
              "name": "userId",
              "type": "string"
            },
            {
              "internalType": "string",
              "name": "email",
              "type": "string"
            },
            {
              "internalType": "string",
              "name": "phone",
              "type": "string"
            },
            {
              "internalType": "string",
              "name": "description",
              "type": "string"
            },
            {
              "internalType": "string",
              "name": "location",
              "type": "string"
            },
            {
              "internalType": "uint256",
              "name": "area",
              "type": "uint256"
            },
            {
              "internalType": "string[]",
              "name": "images",
              "type": "string[]"
            },
            {
              "internalType": "uint256",
              "name": "createdAt",
              "type": "uint256"
            },
            {
              "internalType": "bool",
              "name": "isActive",
              "type": "bool"
            }
          ],
          "internalType": "struct AgriculturalTraceabilitySystem.Farm",
          "name": "",
          "type": "tuple"
        }
      ],
      "stateMutability": "view",
      "type": "function"
    },
    {
      "inputs": [
        {
          "internalType": "string",
          "name": "_farmCode",
          "type": "string"
        }
      ],
      "name": "getFarmImages",
      "outputs": [
        {
          "internalType": "string[]",
          "name": "",
          "type": "string[]"
        }
      ],
      "stateMutability": "view",
      "type": "function"
    },
    {
      "inputs": [
        {
          "internalType": "string",
          "name": "_productCode",
          "type": "string"
        }
      ],
      "name": "getFarmingProcess",
      "outputs": [
        {
          "components": [
            {
              "internalType": "string",
              "name": "productCode",
              "type": "string"
            },
            {
              "internalType": "string",
              "name": "nameProcess",
              "type": "string"
            },
            {
              "internalType": "string",
              "name": "source",
              "type": "string"
            },
            {
              "internalType": "string",
              "name": "plantingDate",
              "type": "string"
            },
            {
              "internalType": "string",
              "name": "sowingDate",
              "type": "string"
            },
            {
              "internalType": "uint256",
              "name": "createdAt",
              "type": "uint256"
            }
          ],
          "internalType": "struct AgriculturalTraceabilitySystem.FarmingProcess",
          "name": "",
          "type": "tuple"
        }
      ],
      "stateMutability": "view",
      "type": "function"
    },
    {
      "inputs": [
        {
          "internalType": "string",
          "name": "_userId",
          "type": "string"
        }
      ],
      "name": "getFarmsByUserId",
      "outputs": [
        {
          "components": [
            {
              "internalType": "string",
              "name": "farmCode",
              "type": "string"
            },
            {
              "internalType": "string",
              "name": "fullname",
              "type": "string"
            },
            {
              "internalType": "string",
              "name": "nameFarm",
              "type": "string"
            },
            {
              "internalType": "string",
              "name": "userId",
              "type": "string"
            },
            {
              "internalType": "string",
              "name": "email",
              "type": "string"
            },
            {
              "internalType": "string",
              "name": "phone",
              "type": "string"
            },
            {
              "internalType": "string",
              "name": "description",
              "type": "string"
            },
            {
              "internalType": "string",
              "name": "location",
              "type": "string"
            },
            {
              "internalType": "uint256",
              "name": "area",
              "type": "uint256"
            },
            {
              "internalType": "string[]",
              "name": "images",
              "type": "string[]"
            },
            {
              "internalType": "uint256",
              "name": "createdAt",
              "type": "uint256"
            },
            {
              "internalType": "bool",
              "name": "isActive",
              "type": "bool"
            }
          ],
          "internalType": "struct AgriculturalTraceabilitySystem.Farm[]",
          "name": "",
          "type": "tuple[]"
        }
      ],
      "stateMutability": "view",
      "type": "function"
    },
    {
      "inputs": [
        {
          "internalType": "string",
          "name": "_productCode",
          "type": "string"
        }
      ],
      "name": "getFertilizer",
      "outputs": [
        {
          "components": [
            {
              "internalType": "string",
              "name": "productCode",
              "type": "string"
            },
            {
              "internalType": "string",
              "name": "nameFertilizer",
              "type": "string"
            },
            {
              "internalType": "string",
              "name": "quantityFertilizer",
              "type": "string"
            },
            {
              "internalType": "string",
              "name": "fertilizerDate",
              "type": "string"
            },
            {
              "internalType": "string",
              "name": "fertilizerType",
              "type": "string"
            },
            {
              "internalType": "string",
              "name": "applicationMethod",
              "type": "string"
            },
            {
              "internalType": "string",
              "name": "expectedEffect",
              "type": "string"
            },
            {
              "internalType": "uint256",
              "name": "createdAt",
              "type": "uint256"
            }
          ],
          "internalType": "struct AgriculturalTraceabilitySystem.Fertilizer",
          "name": "",
          "type": "tuple"
        }
      ],
      "stateMutability": "view",
      "type": "function"
    },
    {
      "inputs": [
        {
          "internalType": "string",
          "name": "_productCode",
          "type": "string"
        }
      ],
      "name": "getHarvest",
      "outputs": [
        {
          "components": [
            {
              "internalType": "string",
              "name": "productCode",
              "type": "string"
            },
            {
              "internalType": "string",
              "name": "harvestDate",
              "type": "string"
            },
            {
              "internalType": "string",
              "name": "estimatedQuantity",
              "type": "string"
            },
            {
              "internalType": "string",
              "name": "actualQuantity",
              "type": "string"
            },
            {
              "internalType": "string",
              "name": "quality",
              "type": "string"
            },
            {
              "internalType": "string",
              "name": "harvestMethod",
              "type": "string"
            },
            {
              "internalType": "uint256",
              "name": "createdAt",
              "type": "uint256"
            }
          ],
          "internalType": "struct AgriculturalTraceabilitySystem.Harvest",
          "name": "",
          "type": "tuple"
        }
      ],
      "stateMutability": "view",
      "type": "function"
    },
    {
      "inputs": [
        {
          "internalType": "string",
          "name": "_productCode",
          "type": "string"
        }
      ],
      "name": "getMedicine",
      "outputs": [
        {
          "components": [
            {
              "internalType": "string",
              "name": "productCode",
              "type": "string"
            },
            {
              "internalType": "string",
              "name": "nameMedicine",
              "type": "string"
            },
            {
              "internalType": "string",
              "name": "quantityMedicine",
              "type": "string"
            },
            {
              "internalType": "string",
              "name": "medicineDate",
              "type": "string"
            },
            {
              "internalType": "string",
              "name": "medicineType",
              "type": "string"
            },
            {
              "internalType": "string",
              "name": "applicationMethod",
              "type": "string"
            },
            {
              "internalType": "uint256",
              "name": "createdAt",
              "type": "uint256"
            }
          ],
          "internalType": "struct AgriculturalTraceabilitySystem.Medicine",
          "name": "",
          "type": "tuple"
        }
      ],
      "stateMutability": "view",
      "type": "function"
    },
    {
      "inputs": [
        {
          "internalType": "string",
          "name": "_productCode",
          "type": "string"
        }
      ],
      "name": "getProduct",
      "outputs": [
        {
          "components": [
            {
              "internalType": "string",
              "name": "farmCode",
              "type": "string"
            },
            {
              "internalType": "string",
              "name": "productCode",
              "type": "string"
            },
            {
              "internalType": "string",
              "name": "categoryName",
              "type": "string"
            },
            {
              "internalType": "string",
              "name": "name",
              "type": "string"
            },
            {
              "internalType": "string",
              "name": "quantity",
              "type": "string"
            },
            {
              "internalType": "string",
              "name": "price",
              "type": "string"
            },
            {
              "internalType": "string",
              "name": "description",
              "type": "string"
            },
            {
              "internalType": "string",
              "name": "image",
              "type": "string"
            },
            {
              "internalType": "string",
              "name": "batchCode",
              "type": "string"
            },
            {
              "internalType": "string",
              "name": "certification",
              "type": "string"
            },
            {
              "internalType": "uint256",
              "name": "createdAt",
              "type": "uint256"
            },
            {
              "internalType": "enum AgriculturalTraceabilitySystem.ProductStatus",
              "name": "status",
              "type": "uint8"
            },
            {
              "internalType": "enum AgriculturalTraceabilitySystem.CertificationLevel",
              "name": "certificationLevel",
              "type": "uint8"
            }
          ],
          "internalType": "struct AgriculturalTraceabilitySystem.Product",
          "name": "",
          "type": "tuple"
        }
      ],
      "stateMutability": "view",
      "type": "function"
    },
    {
      "inputs": [
        {
          "internalType": "string",
          "name": "_farmCode",
          "type": "string"
        }
      ],
      "name": "getProductsByFarm",
      "outputs": [
        {
          "components": [
            {
              "internalType": "string",
              "name": "farmCode",
              "type": "string"
            },
            {
              "internalType": "string",
              "name": "productCode",
              "type": "string"
            },
            {
              "internalType": "string",
              "name": "categoryName",
              "type": "string"
            },
            {
              "internalType": "string",
              "name": "name",
              "type": "string"
            },
            {
              "internalType": "string",
              "name": "quantity",
              "type": "string"
            },
            {
              "internalType": "string",
              "name": "price",
              "type": "string"
            },
            {
              "internalType": "string",
              "name": "description",
              "type": "string"
            },
            {
              "internalType": "string",
              "name": "image",
              "type": "string"
            },
            {
              "internalType": "string",
              "name": "batchCode",
              "type": "string"
            },
            {
              "internalType": "string",
              "name": "certification",
              "type": "string"
            },
            {
              "internalType": "uint256",
              "name": "createdAt",
              "type": "uint256"
            },
            {
              "internalType": "enum AgriculturalTraceabilitySystem.ProductStatus",
              "name": "status",
              "type": "uint8"
            },
            {
              "internalType": "enum AgriculturalTraceabilitySystem.CertificationLevel",
              "name": "certificationLevel",
              "type": "uint8"
            }
          ],
          "internalType": "struct AgriculturalTraceabilitySystem.Product[]",
          "name": "",
          "type": "tuple[]"
        }
      ],
      "stateMutability": "view",
      "type": "function"
    },
    {
      "inputs": [],
      "name": "getTotalFarms",
      "outputs": [
        {
          "internalType": "uint256",
          "name": "",
          "type": "uint256"
        }
      ],
      "stateMutability": "view",
      "type": "function"
    },
    {
      "inputs": [],
      "name": "getTotalProducts",
      "outputs": [
        {
          "internalType": "uint256",
          "name": "",
          "type": "uint256"
        }
      ],
      "stateMutability": "view",
      "type": "function"
    },
    {
      "inputs": [],
      "name": "owner",
      "outputs": [
        {
          "internalType": "address",
          "name": "",
          "type": "address"
        }
      ],
      "stateMutability": "view",
      "type": "function"
    },
    {
      "inputs": [
        {
          "internalType": "address",
          "name": "",
          "type": "address"
        }
      ],
      "name": "productVerifiers",
      "outputs": [
        {
          "internalType": "bool",
          "name": "",
          "type": "bool"
        }
      ],
      "stateMutability": "view",
      "type": "function"
    },
    {
      "inputs": [
        {
          "internalType": "string",
          "name": "_farmCode",
          "type": "string"
        },
        {
          "internalType": "string",
          "name": "_fullname",
          "type": "string"
        },
        {
          "internalType": "string",
          "name": "_nameFarm",
          "type": "string"
        },
        {
          "internalType": "string",
          "name": "_userId",
          "type": "string"
        },
        {
          "internalType": "string",
          "name": "_email",
          "type": "string"
        },
        {
          "internalType": "string",
          "name": "_phone",
          "type": "string"
        },
        {
          "internalType": "string",
          "name": "_description",
          "type": "string"
        },
        {
          "internalType": "string",
          "name": "_location",
          "type": "string"
        },
        {
          "internalType": "uint256",
          "name": "_area",
          "type": "uint256"
        },
        {
          "internalType": "string[]",
          "name": "_images",
          "type": "string[]"
        }
      ],
      "name": "registerFarm",
      "outputs": [],
      "stateMutability": "nonpayable",
      "type": "function"
    },
    {
      "inputs": [
        {
          "internalType": "string",
          "name": "_farmCode",
          "type": "string"
        },
        {
          "internalType": "uint256",
          "name": "_imageIndex",
          "type": "uint256"
        }
      ],
      "name": "removeFarmImage",
      "outputs": [],
      "stateMutability": "nonpayable",
      "type": "function"
    },
    {
      "inputs": [
        {
          "internalType": "address",
          "name": "_user",
          "type": "address"
        },
        {
          "internalType": "bool",
          "name": "_isOwner",
          "type": "bool"
        }
      ],
      "name": "setFarmOwner",
      "outputs": [],
      "stateMutability": "nonpayable",
      "type": "function"
    },
    {
      "inputs": [
        {
          "internalType": "address",
          "name": "_user",
          "type": "address"
        },
        {
          "internalType": "bool",
          "name": "_isVerifier",
          "type": "bool"
        }
      ],
      "name": "setProductVerifier",
      "outputs": [],
      "stateMutability": "nonpayable",
      "type": "function"
    },
    {
      "inputs": [
        {
          "internalType": "address",
          "name": "_newAdmin",
          "type": "address"
        }
      ],
      "name": "updateAdmin",
      "outputs": [],
      "stateMutability": "nonpayable",
      "type": "function"
    },
    {
      "inputs": [
        {
          "internalType": "string",
          "name": "_productCode",
          "type": "string"
        },
        {
          "internalType": "string",
          "name": "_distributorName",
          "type": "string"
        },
        {
          "internalType": "string",
          "name": "_distributorPartner",
          "type": "string"
        },
        {
          "internalType": "string",
          "name": "_distributionDate",
          "type": "string"
        },
        {
          "internalType": "string",
          "name": "_transportMethod",
          "type": "string"
        },
        {
          "internalType": "string",
          "name": "_storageConditions",
          "type": "string"
        }
      ],
      "name": "updateDistribution",
      "outputs": [],
      "stateMutability": "nonpayable",
      "type": "function"
    },
    {
      "inputs": [
        {
          "internalType": "string",
          "name": "_farmCode",
          "type": "string"
        },
        {
          "internalType": "string",
          "name": "_nameFarm",
          "type": "string"
        },
        {
          "internalType": "string",
          "name": "_description",
          "type": "string"
        },
        {
          "internalType": "string",
          "name": "_location",
          "type": "string"
        },
        {
          "internalType": "uint256",
          "name": "_area",
          "type": "uint256"
        },
        {
          "internalType": "string[]",
          "name": "_images",
          "type": "string[]"
        }
      ],
      "name": "updateFarm",
      "outputs": [],
      "stateMutability": "nonpayable",
      "type": "function"
    },
    {
      "inputs": [
        {
          "internalType": "string",
          "name": "_productCode",
          "type": "string"
        },
        {
          "internalType": "string",
          "name": "_nameProcess",
          "type": "string"
        },
        {
          "internalType": "string",
          "name": "_source",
          "type": "string"
        },
        {
          "internalType": "string",
          "name": "_plantingDate",
          "type": "string"
        },
        {
          "internalType": "string",
          "name": "_sowingDate",
          "type": "string"
        }
      ],
      "name": "updateFarmingProcess",
      "outputs": [],
      "stateMutability": "nonpayable",
      "type": "function"
    },
    {
      "inputs": [
        {
          "internalType": "string",
          "name": "_productCode",
          "type": "string"
        },
        {
          "internalType": "string",
          "name": "_nameFertilizer",
          "type": "string"
        },
        {
          "internalType": "string",
          "name": "_quantityFertilizer",
          "type": "string"
        },
        {
          "internalType": "string",
          "name": "_fertilizerDate",
          "type": "string"
        },
        {
          "internalType": "string",
          "name": "_fertilizerType",
          "type": "string"
        },
        {
          "internalType": "string",
          "name": "_applicationMethod",
          "type": "string"
        },
        {
          "internalType": "string",
          "name": "_expectedEffect",
          "type": "string"
        }
      ],
      "name": "updateFertilizer",
      "outputs": [],
      "stateMutability": "nonpayable",
      "type": "function"
    },
    {
      "inputs": [
        {
          "internalType": "string",
          "name": "_productCode",
          "type": "string"
        },
        {
          "internalType": "string",
          "name": "_harvestDate",
          "type": "string"
        },
        {
          "internalType": "string",
          "name": "_estimatedQuantity",
          "type": "string"
        },
        {
          "internalType": "string",
          "name": "_actualQuantity",
          "type": "string"
        },
        {
          "internalType": "string",
          "name": "_quality",
          "type": "string"
        },
        {
          "internalType": "string",
          "name": "_harvestMethod",
          "type": "string"
        }
      ],
      "name": "updateHarvest",
      "outputs": [],
      "stateMutability": "nonpayable",
      "type": "function"
    },
    {
      "inputs": [
        {
          "internalType": "string",
          "name": "_productCode",
          "type": "string"
        },
        {
          "internalType": "string",
          "name": "_nameMedicine",
          "type": "string"
        },
        {
          "internalType": "string",
          "name": "_quantityMedicine",
          "type": "string"
        },
        {
          "internalType": "string",
          "name": "_medicineDate",
          "type": "string"
        },
        {
          "internalType": "string",
          "name": "_medicineType",
          "type": "string"
        },
        {
          "internalType": "string",
          "name": "_applicationMethod",
          "type": "string"
        }
      ],
      "name": "updateMedicine",
      "outputs": [],
      "stateMutability": "nonpayable",
      "type": "function"
    },
    {
      "inputs": [
        {
          "internalType": "string",
          "name": "_productCode",
          "type": "string"
        },
        {
          "internalType": "string",
          "name": "_name",
          "type": "string"
        },
        {
          "internalType": "string",
          "name": "_quantity",
          "type": "string"
        },
        {
          "internalType": "string",
          "name": "_price",
          "type": "string"
        },
        {
          "internalType": "string",
          "name": "_description",
          "type": "string"
        },
        {
          "internalType": "string",
          "name": "_image",
          "type": "string"
        },
        {
          "internalType": "string",
          "name": "_batchCode",
          "type": "string"
        },
        {
          "internalType": "string",
          "name": "_certification",
          "type": "string"
        }
      ],
      "name": "updateProduct",
      "outputs": [],
      "stateMutability": "nonpayable",
      "type": "function"
    },
    {
      "inputs": [
        {
          "internalType": "address",
          "name": "_newVerifier",
          "type": "address"
        }
      ],
      "name": "updateVerifier",
      "outputs": [],
      "stateMutability": "nonpayable",
      "type": "function"
    },
    {
      "inputs": [
        {
          "internalType": "string",
          "name": "_userId",
          "type": "string"
        }
      ],
      "name": "userExists",
      "outputs": [
        {
          "internalType": "bool",
          "name": "",
          "type": "bool"
        }
      ],
      "stateMutability": "view",
      "type": "function"
    },
    {
      "inputs": [],
      "name": "verifier",
      "outputs": [
        {
          "internalType": "address",
          "name": "",
          "type": "address"
        }
      ],
      "stateMutability": "view",
      "type": "function"
    }
  ],
  "bytecode": "0x608060405234610022576100116100f7565b6040516154a461016f82396154a490f35b600080fd5b906001600160a01b03905b9181191691161790565b61005090610053906001600160a01b031682565b90565b6001600160a01b031690565b6100509061003c565b6100509061005f565b9061008161005061008892610068565b8254610027565b9055565b6100506100506100509290565b9060001990610032565b906100b36100506100889261008c565b8254610099565b906100c490610068565b600052602052604060002090565b9060ff90610032565b151590565b906100f0610050610088926100db565b82546100d2565b610102336012610071565b61010d336013610071565b610118336014610071565b610137610125600061008c565b6101308160106100a3565b60116100a3565b61014c60016101473360156100ba565b6100e0565b61015c60016101473360166100ba565b61016c60016101473360176100ba565b56fe6080604052600436101561001257600080fd5b60003560e01c806308999bd5146103525780630a87bf531461034d5780631389b62a14610348578063168fc8981461034357806317c4c94c1461033e5780631828983a146103395780631acd172a146103345780631bf703b21461032f5780632152736a1461032a5780632b213f23146103255780632b7ac3f3146103205780632eda5a4f1461031b5780632f9f79891461031657806332a486d81461031157806342bf26961461030c5780634b87ecae1461030757806353cc92f014610302578063570aea8a146102fd5780635d30ba4a146102f85780635de7f904146102f35780635ee485b7146102ee5780635f121b52146102e95780635f99a659146102e457806363bf3e95146102df57806367c2a360146102da57806368111cce146102d557806368304a62146102d05780636eca2ccc146102cb5780637281a7cd146102c657806372c9379b146102c157806376bbe0c2146102bc5780638343f955146102b75780638388e2ba146102b25780638a9d8733146102ad5780638da5cb5b146102a85780639012cac1146102a357806390c634771461029e57806397fc007c14610299578063a057b22a14610294578063a38570691461028f578063ae3cb7d41461028a578063b377fa6114610285578063bbfd014c14610280578063c256940d1461027b578063c7c3858814610276578063cfde0ce814610271578063de6533981461026c578063e2f273bd14610267578063f851a44014610262578063f95597741461025d578063fb1a931f146102585763fddc968e0361035757611b5b565b611b27565b611a9a565b611a7f565b611a5b565b611a42565b611a2a565b611a05565b6118b4565b611885565b611866565b61184b565b611822565b611807565b6117ef565b6117d4565b6117b5565b61179a565b611776565b61158a565b611551565b6114b0565b611483565b611464565b6112f8565b61122c565b611205565b6111dc565b6111bd565b611196565b6110db565b6110c0565b6110a5565b611086565b61106b565b611052565b610ff3565b610fbb565b610dce565b610db6565b610d8f565b610ce4565b610ca1565b610b9a565b610a79565b610a19565b6109a4565b6108d1565b610624565b6105d8565b6105bc565b6104ec565b600080fd5b634e487b7160e01b600052604160045260246000fd5b90601f01601f191681019081106001600160401b0382111761039357604052565b61035c565b906103ac6103a560405190565b9283610372565b565b6001600160401b03811161039357602090601f01601f19160190565b0190565b90826000939282370152565b909291926103ef6103ea826103ae565b610398565b9381855281830111610357576103ac9160208501906103ce565b9080601f8301121561035757816020610424933591016103da565b90565b9160c0838303126103575782356001600160401b038111610357578261044e918501610409565b9260208101356001600160401b038111610357578361046e918301610409565b9260408201356001600160401b038111610357578161048e918401610409565b9260608301356001600160401b03811161035757826104ae918501610409565b9260808101356001600160401b03811161035757836104ce918301610409565b9260a08201356001600160401b038111610357576104249201610409565b346103575761050b6104ff366004610427565b9493909392919261210c565b60405180805b0390f35b91909160a0818403126103575780356001600160401b038111610357578361053e918301610409565b9260208201356001600160401b038111610357578161055e918401610409565b9260408301356001600160401b038111610357578261057e918501610409565b9260608101356001600160401b038111610357578361059e918301610409565b9260808201356001600160401b038111610357576104249201610409565b346103575761050b6105cf366004610515565b9392909261230f565b346103575761050b6105eb366004610515565b93929092612474565b600091031261035757565b6104246104246104249290565b610424620f42406105ff565b61042461060c565b9052565b34610357576106343660046105f4565b61051161063f610618565b6040519182918290815260200190565b906020828203126103575781356001600160401b038111610357576104249201610409565b60005b8381106106875750506000910152565b8181015183820152602001610677565b6106b86106c16020936103ca936106ac815190565b80835293849260200190565b95869101610674565b601f01601f191690565b634e487b7160e01b600052602160045260246000fd5b600411156106eb57565b6106cb565b906103ac826106e1565b610424906106f0565b610620906106fa565b600511156106eb57565b906103ac8261070c565b61042490610716565b61062090610720565b90610424906101808061081a6108066107f26107e06107ce6107bc6107aa6107988c60406107888d6107746101a0820160008601518382036000850152610697565b906020850151906020818403910152610697565b9101518c820360408e0152610697565b60608d01518b820360608d0152610697565b60808c01518a820360808c0152610697565b60a08b015189820360a08b0152610697565b60c08a015188820360c08a0152610697565b60e089015187820360e0890152610697565b610100880151868203610100880152610697565b610120870151858203610120870152610697565b9461082c610140820151610140860152565b610840610160820151610160860190610703565b0151910190610729565b9061042491610732565b9061086a610860835190565b8083529160200190565b908161087c6020830284019460200190565b926000915b83831061089057505050505090565b909192939460206108b36108ac8385600195038752895161084a565b9760200190565b9301930191939290610881565b602080825261042492910190610854565b34610357576105116108ec6108e736600461064f565b6128f3565b604051918291826108c0565b6001600160a01b031690565b6001600160a01b0381165b0361035757565b905035906103ac82610904565b906020828203126103575761042491610916565b610424906108f8906001600160a01b031682565b61042490610937565b6104249061094b565b9061096790610954565b600052602052604060002090565b610424916008021c5b60ff1690565b906104249154610975565b600061099f61042492601561095d565b610984565b34610357576105116109bf6109ba366004610923565b61098f565b60405191829182901515815260200190565b8061090f565b905035906103ac826109d1565b9190604083820312610357578235906001600160401b038211610357576020610a1282610424948701610409565b94016109d7565b346103575761050b610a2c3660046109e4565b90612d66565b9190916040818403126103575780356001600160401b0381116103575783610a5b918301610409565b9260208201356001600160401b038111610357576104249201610409565b346103575761050b610a8c366004610a32565b90612e45565b919091610100818403126103575780356001600160401b0381116103575783610abc918301610409565b9260208201356001600160401b0381116103575781610adc918401610409565b9260408301356001600160401b0381116103575782610afc918501610409565b9260608101356001600160401b0381116103575783610b1c918301610409565b9260808201356001600160401b0381116103575781610b3c918401610409565b9260a08301356001600160401b0381116103575782610b5c918501610409565b9260c08101356001600160401b0381116103575783610b7c918301610409565b9260e08201356001600160401b038111610357576104249201610409565b346103575761050b610bad366004610a92565b969590959491949392936130b5565b9060e0828203126103575781356001600160401b0381116103575781610be3918401610409565b9260208301356001600160401b0381116103575782610c03918501610409565b9260408101356001600160401b0381116103575783610c23918301610409565b9260608201356001600160401b0381116103575781610c43918401610409565b9260808301356001600160401b0381116103575782610c63918501610409565b9260a08101356001600160401b0381116103575783610c83918301610409565b9260c08201356001600160401b038111610357576104249201610409565b346103575761050b610cb4366004610bbc565b959490949391936132f9565b610424916008021c6108f8565b906104249154610cc0565b61042460006014610ccd565b3461035757610cf43660046105f4565b610511610cff610cd8565b604051918291826001600160a01b03909116815260200190565b9061042491610697565b90610d2f610860835190565b9081610d416020830284019460200190565b926000915b838310610d5557505050505090565b90919293946020610d716108ac83856001950387528951610d19565b9301930191939290610d46565b602080825261042492910190610d23565b3461035757610d9f3660046105f4565b610511610daa613308565b60405191829182610d7e565b346103575761050b610dc936600461064f565b6133eb565b346103575761050b610de1366004610427565b94939093929192613591565b90610df9610860835190565b9081610e0b6020830284019460200190565b926000915b838310610e1f57505050505090565b90919293946020610e3b6108ac83856001950387528951610d19565b9301930191939290610e10565b906104249061016080610f2a610f05610ef3610ee1610ecf610ebd610eab610e998c6020610e898d6101808101906000850151906000818403910152610697565b9101518c820360208e0152610697565b60408d01518b820360408d0152610697565b60608c01518a820360608c0152610697565b60808b015189820360808b0152610697565b60a08a015188820360a08a0152610697565b60c089015187820360c0890152610697565b60e088015186820360e0880152610697565b610f16610100880151610100870152565b610120870151858203610120870152610ded565b94610f3c610140820151610140860152565b01511515910152565b9061042491610e48565b90610f5b610860835190565b9081610f6d6020830284019460200190565b926000915b838310610f8157505050505090565b90919293946020610f9d6108ac83856001950387528951610f45565b9301930191939290610f72565b602080825261042492910190610f4f565b3461035757610511610fd6610fd136600461064f565b613742565b60405191829182610faa565b602080825261042492910190610e48565b346103575761051161100e61100936600461064f565b613805565b60405191829182610fe2565b80151561090f565b905035906103ac8261101a565b91906040838203126103575761042490602061104b8286610916565b9401611022565b346103575761050b61106536600461102f565b90613954565b346103575761107b3660046105f4565b61051161063f61395e565b346103575761050b611099366004610427565b94939093929192613abc565b3461035757610511610daa6110bb36600461064f565b613aca565b34610357576110d03660046105f4565b61051161063f613ae1565b346103575761050b6110ee366004610923565b613b8a565b906104249060c08061117d61116b61115961114761113561112360e0890160008c01518a820360008c0152610697565b60208b015189820360208b0152610697565b60408a015188820360408a0152610697565b60608901518782036060890152610697565b60808801518682036080880152610697565b60a087015185820360a0870152610697565b940151910152565b6020808252610424929101906110f3565b34610357576105116111b16111ac36600461064f565b613c7e565b60405191829182611185565b346103575761050b6111d0366004610bbc565b95949094939193613e0c565b346103575761050b6111ef366004610923565b613eb5565b602080825261042492910190610732565b346103575761051161122061121b36600461064f565b613ee4565b604051918291826111f4565b3461035757610511610daa61124236600461064f565b613f23565b906104249060e08061117d6112d56112c36112b161129f61128d61127b6101008a0160008d01518b820360008d0152610697565b60208c01518a820360208c0152610697565b60408b015189820360408b0152610697565b60608a015188820360608a0152610697565b60808901518782036080890152610697565b60a088015186820360a0880152610697565b60c087015185820360c0870152610697565b602080825261042492910190611247565b346103575761051161131361130e36600461064f565b614012565b604051918291826112e7565b6001600160401b0381116103935760208091020190565b9291906113456103ea8261131f565b93818552602080860192028101918383116103575781905b83821061136b575050505050565b81356001600160401b0381116103575760209161138b8784938701610409565b81520191019061135d565b9080601f830112156103575781602061042493359101611336565b9160c0838303126103575782356001600160401b03811161035757826113d8918501610409565b9260208101356001600160401b03811161035757836113f8918301610409565b9260408201356001600160401b0381116103575781611418918401610409565b9260608301356001600160401b0381116103575782611438918501610409565b9261144683608083016109d7565b9260a08201356001600160401b038111610357576104249201611396565b346103575761050b6114773660046113b1565b949390939291926142b6565b34610357576105116111b161149936600461064f565b6142ea565b610424600a6105ff565b61042461149e565b34610357576114c03660046105f4565b61051161063f6114a8565b906104249060a08061117d61152e61151c61150a6114f860c0880160008b015189820360008b0152610697565b60208a015188820360208a0152610697565b60408901518782036040890152610697565b60608801518682036060880152610697565b60808701518582036080870152610697565b6020808252610424929101906114cb565b346103575761051161156c61156736600461064f565b6143ba565b60405191829182611540565b61042460016105ff565b610424611578565b346103575761159a3660046105f4565b61051161063f611582565b6005111561035757565b905035906103ac826115a5565b91909161016081840312610357576115d5610160610398565b9281356001600160401b03811161035757816115f2918401610409565b845260208201356001600160401b0381116103575781611613918401610409565b602085015260408201356001600160401b0381116103575781611637918401610409565b604085015260608201356001600160401b038111610357578161165b918401610409565b606085015260808201356001600160401b038111610357578161167f918401610409565b608085015260a08201356001600160401b03811161035757816116a3918401610409565b60a085015260c08201356001600160401b03811161035757816116c7918401610409565b60c085015260e08201356001600160401b03811161035757816116eb918401610409565b60e08501526101008201356001600160401b0381116103575781611710918401610409565b610100850152610120820135906001600160401b0382116103575761173a8161174b938501610409565b6101208601526101408093016115af565b90830152565b906020828203126103575781356001600160401b0381116103575761042492016115bc565b346103575761050b611789366004611751565b614658565b61042460006012610ccd565b34610357576117aa3660046105f4565b610511610cff61178e565b346103575761050b6117c8366004610427565b94939093929192614977565b34610357576105116111b16117ea36600461064f565b6149ab565b346103575761050b611802366004610923565b614a73565b34610357576105116109bf61181d36600461064f565b614a7c565b346103575761050b61183536600461102f565b90614af5565b600061099f61042492601761095d565b34610357576105116109bf611861366004610923565b61183b565b346103575761050b611879366004610427565b94939093929192614b86565b346103575761050b611898366004610427565b94939093929192614c1b565b600061099f61042492601661095d565b34610357576105116109bf6118ca366004610923565b6118a4565b90610140828203126103575781356001600160401b03811161035757816118f7918401610409565b9260208301356001600160401b0381116103575782611917918501610409565b9260408101356001600160401b0381116103575783611937918301610409565b9260608201356001600160401b0381116103575781611957918401610409565b9260808301356001600160401b0381116103575782611977918501610409565b9260a08101356001600160401b0381116103575783611997918301610409565b9260c08201356001600160401b03811161035757816119b7918401610409565b9260e08301356001600160401b03811161035757826119d7918501610409565b926119e68361010083016109d7565b926101208201356001600160401b038111610357576104249201611396565b346103575761050b611a183660046118cf565b9897909796919695929594939461519c565b346103575761050b611a3d36600461064f565b6151e4565b346103575761050b611a55366004610a32565b90615229565b346103575761050b611a6e366004610923565b615262565b61042460006013610ccd565b3461035757611a8f3660046105f4565b610511610cff611a73565b3461035757611aaa3660046105f4565b610511610fd6615314565b949193611afd611b1994611aef6104249997611ae1611b0b9660c08c01908c6000818403910152610732565b908a820360208c01526114cb565b9088820360408a01526110f3565b908682036060880152611247565b9084820360808601526110f3565b9160a08184039101526110f3565b3461035757610511611b42611b3d36600461064f565b61540e565b92611b5296949692919260405190565b96879687611ab5565b34610357576105116109bf611b7136600461064f565b61544a565b6103ca611b8e92602092611b88815190565b94859290565b93849101610674565b611ba76103ca9160209493611b76565b918252565b611bc1611bb860405190565b92839283611b97565b03902090565b61042491611bac565b6104249061097e565b6104249054611bd0565b15611bea57565b60405162461bcd60e51b8152602060048201526024808201527f50726f647563744d616e6167656d656e743a2050726f64756374206e6f7420666044820152631bdd5b9960e21b6064820152608490fd5b906103ac9594939291611c5f611c5a611c5583600a611bc7565b611bd9565b611be3565b612012565b15611c6b57565b60405162461bcd60e51b8152602060048201526016602482015275456d707479206469737472696275746f72206e616d6560501b6044820152606490fd5b15611cb057565b60405162461bcd60e51b815260206004820152601760248201527f456d70747920646973747269627574696f6e20646174650000000000000000006044820152606490fd5b15611cfc57565b60405162461bcd60e51b815260206004820152601060248201526f50726f6475637420696e61637469766560801b6044820152606490fd5b61042460e0610398565b634e487b7160e01b600052600060045260246000fd5b634e487b7160e01b600052602260045260246000fd5b9060016002830492168015611d8a575b6020831014611d8557565b611d54565b91607f1691611d7a565b9160001960089290920291821b911b5b9181191691161790565b9190611dbf610424611dc7936105ff565b908354611d94565b9055565b6103ac91600091611dae565b818110611de2575050565b80611df06000600193611dcb565b01611dd7565b9190601f8111611e0557505050565b611e176103ac93600052602060002090565b906020601f840181900483019310611e3a575b6020601f909101045b0190611dd7565b9091508190611e2a565b600019600883021c1916906002021790565b90611e5f815190565b906001600160401b03821161039357611e8282611e7c8554611d6a565b85611df6565b602090601f8311600114611eb057611dc7929160009183611ea5575b5050611e44565b015190503880611e9e565b601f19831691611ec585600052602060002090565b9260005b818110611f0457509160029391856001969410611eea575b50505002019055565b01516000196008601f8516021c19165b9055388080611ee1565b91936020600181928787015181550195019201611ec9565b906103ac91611e56565b5190565b9060001990611da4565b90611f44610424611dc7926105ff565b8254611f2a565b6006611fe260c06103ac94611f6a611f64600083015190565b86611f1c565b611f81611f78602083015190565b60018701611f1c565b611f98611f8f604083015190565b60028701611f1c565b611faf611fa6606083015190565b60038701611f1c565b611fc6611fbd608083015190565b60048701611f1c565b611fdd611fd460a083015190565b60058701611f1c565b015190565b9101611f34565b906103ac91611f4b565b61042491611b76565b611bc19061200960405190565b91829182611ff3565b949290939161201e8590565b519460009561202c876105ff565b1061203690611c64565b8251612041876105ff565b1061204b90611ca9565b612056876001611bc7565b600b0161206290611bd9565b61206b876106f0565b90612075906106f0565b1461207f90611cf5565b86612088611d34565b96870152602086015260408501526060840152608083015260a08201526120b04260c0830152565b6120bb826006611bc7565b906120c591611fe9565b6120ce90611ffc565b6120d733610954565b906120e160405190565b4281527fbb8adab3c1a6bd291ad2e1ace5ffe3bb8e7abe64c4ca6041de89d76873c32efb90602090a3565b906103ac9594939291611c3b565b906103ac94939291612133611c5a611c5583600a611bc7565b612220565b1561213f57565b60405162461bcd60e51b8152602060048201526012602482015271456d7074792070726f63657373206e616d6560701b6044820152606490fd5b1561218057565b60405162461bcd60e51b8152602060048201526013602482015272456d70747920706c616e74696e67206461746560681b6044820152606490fd5b61042460c0610398565b6005611fe260a06103ac946121de611f64600083015190565b6121ec611f78602083015190565b6121fa611f8f604083015190565b612208611fa6606083015190565b611fdd611fbd608083015190565b906103ac916121c5565b9390929091835193600094612234866105ff565b1061223e90612138565b8251612249866105ff565b1061225390612179565b61225e866001611bc7565b600b0161226a90611bd9565b612273866106f0565b9061227d906106f0565b1461228790611cf5565b856122906121bb565b9586015260208501526040840152606083015260808201526122b34260a0830152565b6122be826002611bc7565b906122c891612216565b6122d190611ffc565b6122da33610954565b906122e460405190565b4281527f0736eba6422149150b0298698baba84119db0cdf3ab6ae02de485ebd2f67499590602090a3565b906103ac9493929161211a565b906103ac94939291612335611c5a611c5583600a611bc7565b92916123eb949192612353600b61234d876001611bc7565b01611bd9565b9161237260009361236c612366866106f0565b916106f0565b14611cf5565b612380610424876002611bc7565b94612389815190565b612399612395866105ff565b9190565b11612461575b5080516123ae612395856105ff565b1161244e575b5080516123c3612395846105ff565b1161243b575b506123de6123956123d8845190565b926105ff565b11612428575b5050611ffc565b6123f433610954565b907f47bfd662f27898375579078d8ef1f75e72eaeb374278cfef9abebad36cbca61e61241f60405190565b428152602090a3565b60046124349201611f1c565b38806123e4565b6124489060038501611f1c565b386123c9565b61245b9060028601611f1c565b386123b4565b61246e9060018701611f1c565b3861239f565b906103ac9493929161231c565b1561248857565b60405162461bcd60e51b815260206004820152601e60248201527f4661726d4d616e6167656d656e743a204661726d206e6f7420666f756e6400006044820152606490fd5b90610424916124e86124e3611c55846009611bc7565b612481565b612869565b90611ba76103ea8361131f565b8054600093929161251761250d83611d6a565b8085529360200190565b9160018116908115612569575060011461253057505050565b6125439192939450600052602060002090565b916000925b8184106125555750500190565b805484840152602090930192600101612548565b92949550505060ff1916825215156020020190565b90610424916124fa565b906103ac6125a29261259960405190565b9384809261257e565b0383610372565b61042490612588565b906125bb825490565b6125c4816124ed565b926125d86020850191600052602060002090565b6000915b8383106125e95750505050565b6001602081926125f8856125a9565b8152019201920191906125dc565b610424906125b2565b6104246101a0610398565b60209081808080808080808080808061263161260f565b9d8e606081520160608152016060815201606081520160608152016060815201606081520160608152016060815201606081520160005b81520160005b8152016000905250565b61042461261a565b60005b82811061268f57505050565b60209061269a612678565b8184015201612683565b906103ac6126ba6126b4846124ed565b9361131f565b601f190160208401612680565b634e487b7160e01b600052603260045260246000fd5b906126e6825190565b8110156126f7576020809102010190565b6126c7565b6104249081565b61042490546126fc565b90610620906106f0565b6104249060081c61097e565b6104249054612717565b9061062090610716565b906103ac612856600b61274861260f565b9461275961275582612588565b8752565b61276f61276860018301612588565b6020880152565b61278561277e60028301612588565b6040880152565b61279b61279460038301612588565b6060880152565b6127b16127aa60048301612588565b6080880152565b6127c76127c060058301612588565b60a0880152565b6127dd6127d660068301612588565b60c0880152565b6127f36127ec60078301612588565b60e0880152565b61280a61280260088301612588565b610100880152565b61282161281960098301612588565b610120880152565b612838612830600a8301612703565b610140880152565b612850612846838301611bd9565b610160880161270d565b01612723565b610180840161272d565b61042490612737565b61287e9161287991506008611bc7565b612606565b61288e612889825190565b6126a4565b9061289960006105ff565b6128a4610424835190565b8110156128ee576128e9906128cd6128c860016128c184876126dd565b5190611bc7565b612860565b6128d782866126dd565b526128e281856126dd565b5060010190565b612899565b505090565b6104249060606124cd565b906103ac916129146124e3611c55836009611bc7565b612cbb565b1561292057565b60405162461bcd60e51b815260206004820152600d60248201526c4661726d20696e61637469766560981b6044820152606490fd5b1561295c57565b60405162461bcd60e51b8152602060048201526013602482015272092dcecc2d8d2c840d2dac2ceca40d2dcc8caf606b1b6044820152606490fd5b634e487b7160e01b600052601160045260246000fd5b919082039182116129ba57565b612997565b919082018092116129ba57565b80548210156126f7576129e6600191600052602060002090565b91020190600090565b6104249054611d6a565b90808214612ac857612a0a816129ef565b906001600160401b03821161039357612a2782611e7c8554611d6a565b600090601f8311600114612a5457611dc7929160009183612a49575050611e44565b015490503880611e9e565b90612a69601f19841692600052602060002090565b90612a7985600052602060002090565b92815b818110612ab057509160029391856001969410612a9c5750505002019055565b01546000196008601f8516021c1916611efa565b91936001806020928787015481550195019201612a7c565b5050565b9190612adb576103ac916129f9565b611d3e565b634e487b7160e01b600052603160045260246000fd5b90612b0990600019906020036008021c90565b8154169055565b90600091612b2e612b2682600052602060002090565b928354611e44565b905555565b9192906020821015612b8b57601f8411600114612b5557611dc7929350611e44565b5090612b866103ac936001612b7d612b7285600052602060002090565b92601f602091010490565b82019101611dd7565b612b10565b50612bc48293612ba2600194600052602060002090565b611e336020601f860104820192601f861680612bcc575b50601f602091010490565b600202179055565b612bd890888603612af6565b38612bb9565b929091600160401b82116103935760201115612c25576020811015612c0657611dc791611e44565b60019160ff1916612c1c84600052602060002090565b55600202019055565b60019150600202019055565b908154612c3d81611d6a565b90818311612c66575b818310612c54575b50505050565b612c5d93612b33565b38808080612c4e565b612c7283838387612bde565b612c46565b60006103ac91612c31565b90600003612adb576103ac90612c77565b80548015612cb6576000190190612cb3612cad83836129cc565b90612c82565b55565b612ae0565b612ccb6104246009926000611bc7565b612cdf612cda600b8301611bd9565b612919565b0190612cf6612cef610424845490565b8210612955565b8154612d10610424600192612d0a846105ff565b906129ad565b821015612d555790612d4a612d39612d33612d2d612d50956105ff565b846129bf565b856129cc565b50612d4483866129cc565b90612acc565b60010190565b612cf6565b5050612d616103ac9190565b612c93565b906103ac916128fe565b15612d7757565b60405162461bcd60e51b8152602060048201526013602482015272456d7074792063617465676f7279206e616d6560681b6044820152606490fd5b15612db957565b60405162461bcd60e51b815260206004820152600c60248201526b115b5c1d1e481d5cd95c925960a21b6044820152606490fd5b9060ff90611da4565b90612e06610424611dc792151590565b8254612ded565b9190612adb576103ac91611e56565b90815491600160401b8310156103935782612e3f9160016103ac950181556129cc565b90612e0d565b612ec0612ec691612e6c612e59611f268390565b612e6661239560006105ff565b11612d70565b612e8a612e77855190565b612e8461239560006105ff565b11612db2565b612e9f612e9b611c5583600b611bc7565b1590565b612ef1575b612ebb81612eb661042487600c611bc7565b612e1c565b611ffc565b91611ffc565b907f05e6df2257b4c845c94af93edea83e40f79ae07ff30dd36212c450b8bb84ed2061241f60405190565b612f066001612f0183600b611bc7565b612df6565b612f1181600f612e1c565b612ea4565b906103ac97969594939291612f32611c5a611c5583600a611bc7565b9591949092936130039794612f4b610424896001611bc7565b96612f58600b8901611bd9565b95612f6b60009761236c6123668a6106f0565b8051612f79612395896105ff565b116130a2575b508051612f8e612395886105ff565b1161308f575b508051612fa3612395876105ff565b1161307c575b508051612fb8612395866105ff565b11613069575b508051612fcd612395856105ff565b11613056575b508051612fe2612395846105ff565b11613043575b50612ff76123956123d8845190565b11613037575050611ffc565b61300c33610954565b907f2da0e00d0faffbc3bc6be6965ce63783d5726604d2372778ebdb1b21f5ffab9661241f60405190565b60096124349201611f1c565b6130509060088501611f1c565b38612fe8565b6130639060078601611f1c565b38612fd3565b6130769060068701611f1c565b38612fbe565b6130899060058801611f1c565b38612fa9565b61309c9060048901611f1c565b38612f94565b6130af9060038a01611f1c565b38612f7f565b906103ac97969594939291612f16565b906103ac9695949392916130e0611c5a611c5583600a611bc7565b6131f8565b156130ec57565b60405162461bcd60e51b8152602060048201526015602482015274456d7074792066657274696c697a6572206e616d6560581b6044820152606490fd5b1561313057565b60405162461bcd60e51b8152602060048201526015602482015274456d7074792066657274696c697a6572206461746560581b6044820152606490fd5b610424610100610398565b6007611fe260e06103ac94613191611f64600083015190565b61319f611f78602083015190565b6131ad611f8f604083015190565b6131bb611fa6606083015190565b6131c9611fbd608083015190565b6131d7611fd460a083015190565b611fdd6131e560c083015190565b60068701611f1c565b906103ac91613178565b959391949290946132068690565b5195600096613214886105ff565b1061321e906130e5565b8251613229886105ff565b1061323390613129565b61323e886001611bc7565b600b0161324a90611bd9565b613253886106f0565b9061325d906106f0565b1461326790611cf5565b8761327061316d565b97880152602087015260408601526060850152608084015260a083015260c082015261329d4260e0830152565b6132a8826004611bc7565b906132b2916131ee565b6132bb90611ffc565b6132c433610954565b906132ce60405190565b4281527fb69cb5f284000faaf902e5335b11028e9bfec54bc9dd0c35fa621cd348a5b17290602090a3565b906103ac9695949392916130c5565b610424600f612606565b6103ac90613327611c5a611c5583600a611bc7565b61336a565b90612e06610424611dc7926106fa565b6040906133666103ac949695939661335c60608401986000850190610703565b6020830190610703565b0152565b7f9895f6cc815ac59447155d546c4c2c8c06eb356c8ad31ca291706975a99a1c316001916133ce600b6133a06104248487611bc7565b01916133bb6133ae84611bd9565b61236c61236660006106f0565b612ebb856133c885611bd9565b9461332c565b926133e66133db60405190565b92839242918461333c565b0390a2565b6103ac90613312565b906103ac959493929161340e611c5a611c5583600a611bc7565b613497565b1561341a57565b60405162461bcd60e51b8152602060048201526013602482015272456d707479206d65646963696e65206e616d6560681b6044820152606490fd5b1561345c57565b60405162461bcd60e51b8152602060048201526013602482015272456d707479206d65646963696e65206461746560681b6044820152606490fd5b94929093916134a38590565b51946000956134b1876105ff565b106134bb90613413565b82516134c6876105ff565b106134d090613455565b6134db876001611bc7565b600b016134e790611bd9565b6134f0876106f0565b906134fa906106f0565b1461350490611cf5565b8661350d611d34565b96870152602086015260408501526060840152608083015260a08201526135354260c0830152565b613540826003611bc7565b9061354a91611fe9565b61355390611ffc565b61355c33610954565b9061356660405190565b4281527fdabc2efeadcb13e5edc13c5cb7d4abb2c8900fdc6835b9469af6e409818a303d90602090a3565b906103ac95949392916133f4565b156135a657565b60405162461bcd60e51b815260206004820152600e60248201526d155cd95c881b9bdd08199bdd5b9960921b6044820152606490fd5b610424610180610398565b6135ef6135dc565b9060608252602080808080808080808080808d01606081520160608152016060815201606081520160608152016060815201606081520160008152016060612668565b6104246135e7565b60005b82811061364957505050565b602090613654613632565b818401520161363d565b906103ac61366e6126b4846124ed565b601f19016020840161363a565b906103ac61372f600b61368c6135dc565b9461369961275582612588565b6136a861276860018301612588565b6136b761277e60028301612588565b6136c661279460038301612588565b6136d56127aa60048301612588565b6136e46127c060058301612588565b6136f36127d660068301612588565b6137026127ec60078301612588565b61371161280260088301612703565b613720612819600983016125b2565b61234d612830600a8301612703565b1515610160840152565b6104249061367b565b61287961375991613751606090565b506007611bc7565b805161377360009161376d612395846105ff565b1161359f565b61378361377e835190565b61365e565b9161378d826105ff565b613798610424835190565b8110156137d957806137bf6137ba6137b36137d494866126dd565b5186611bc7565b613739565b6137c982876126dd565b526128e281866126dd565b61378d565b50505090565b90610424916137f56124e3611c55846009611bc7565b610424916137ba91506000611bc7565b61042490613811613632565b6137df565b610424906108f8565b6104249054613816565b1561383057565b60405162461bcd60e51b815260206004820152602160248201527f416363657373436f6e74726f6c3a204f6e6c792061646d696e20616c6c6f77656044820152601960fa1b6064820152608490fd5b906103ac916138916108f8601361381f565b331480156138a8575b6138a390613829565b613924565b506138a36138b96108f8601261381f565b3314905061389a565b6108f86104246104249290565b610424906138c2565b156138df57565b60405162461bcd60e51b815260206004820152601e60248201527f416363657373436f6e74726f6c3a20496e76616c6964206164647265737300006044820152606490fd5b90612f016103ac9261394d61393c6108f860006138cf565b6001600160a01b03831614156138d8565b601661095d565b906103ac9161387f565b6104246011612703565b906103ac9594939291613982611c5a611c5583600a611bc7565b93613a309592919361399a600b61234d886001611bc7565b926139ad60009461236c612366876106f0565b6139bb610424886006611bc7565b956139c4815190565b6139d0612395876105ff565b11613aa9575b5080516139e5612395866105ff565b11613a96575b5080516139fa612395856105ff565b11613a83575b508051613a0f612395846105ff565b11613a70575b50613a246123956123d8845190565b11613a64575050611ffc565b613a3933610954565b907f8edff5fb0001b970e714a5ff212ff0cc36277e68b7bcd1c2cce936b03a8cee4a61241f60405190565b60056124349201611f1c565b613a7d9060048501611f1c565b38613a15565b613a909060038601611f1c565b38613a00565b613aa39060028701611f1c565b386139eb565b613ab69060018801611f1c565b386139d6565b906103ac9594939291613968565b61287961042491613ad9606090565b50600c611bc7565b6104246010612703565b6103ac90613afc6108f8601361381f565b33148015613b13575b613b0e90613829565b613b2d565b50613b0e613b246108f8601261381f565b33149050613b05565b613b5690613b4161393c6108f860006138cf565b613b516000612f0183601561095d565b610954565b613b5f33610954565b907f8cebb7ee3be71749a084ac512b95c394efb658b987c0d0a288b81e7490581cd361241f60405190565b6103ac90613aeb565b613b9b611d34565b90606082526020808080808080880160605b81520160605b81520160608152016060815201606061266e565b610424613b93565b9061042491613be5611c5a611c5584600a611bc7565b613c69565b906103ac613c596006613bfb611d34565b94613c0861275582612588565b613c1761276860018301612588565b613c2661277e60028301612588565b613c3561279460038301612588565b613c446127aa60048301612588565b613c536127c060058301612588565b01612703565b60c0840152565b61042490613bea565b61042491613c7991506006611bc7565b613c60565b61042490613c8a613bc7565b613bcf565b906103ac969594939291613caa611c5a611c5583600a611bc7565b949093613d6d9693613cc2600b61234d896001611bc7565b93613cd560009561236c612366886106f0565b613ce3610424896004611bc7565b96613cec815190565b613cf8612395886105ff565b11613df9575b508051613d0d612395876105ff565b11613de6575b508051613d22612395866105ff565b11613dd3575b508051613d37612395856105ff565b11613dc0575b508051613d4c612395846105ff565b11613dad575b50613d616123956123d8845190565b11613da1575050611ffc565b613d7633610954565b907f305c732a44389b3cee22630c751c352b9ae9f439c350c06eefb41abed4adcc5361241f60405190565b60066124349201611f1c565b613dba9060058501611f1c565b38613d52565b613dcd9060048601611f1c565b38613d3d565b613de09060038701611f1c565b38613d28565b613df39060028801611f1c565b38613d13565b613e069060018901611f1c565b38613cfe565b906103ac969594939291613c8f565b6103ac90613e2c6108f8601361381f565b33148015613e43575b613e3e90613829565b613e5d565b50613e3e613e546108f8601261381f565b33149050613e35565b613e8190613e7161393c6108f860006138cf565b613b516001612f0183601561095d565b613e8a33610954565b907fcf30c65174bfa0467d5e66fcccc313feffbe8d52a2eacc0c9f3bbb6431fd822461241f60405190565b6103ac90613e1b565b9061042491613ed4611c5a611c5584600a611bc7565b610424916128c891506001611bc7565b61042490613ef0612678565b613ebe565b9061042491613f0b6124e3611c55846009611bc7565b613f1d61042492600992506000611bc7565b01612606565b610424906060613ef5565b613f3661316d565b9060608252602080808080808080890160608152016060613bad565b610424613f2e565b9061042491613f70611c5a611c5584600a611bc7565b613ffd565b906103ac613fed6007613f8661316d565b94613f9361275582612588565b613fa261276860018301612588565b613fb161277e60028301612588565b613fc061279460038301612588565b613fcf6127aa60048301612588565b613fde6127c060058301612588565b613c536127d660068301612588565b60e0840152565b61042490613f75565b6104249161400d91506004611bc7565b613ff4565b6104249061401e613f52565b613f5a565b906103ac959493929161403d6124e3611c55836009611bc7565b61408e565b1561404957565b60405162461bcd60e51b815260206004820152601860248201527f56616c69646174696f6e3a20496e76616c6964206172656100000000000000006044820152606490fd5b906103ac95949392916140a2610424611578565b851015806140b9575b6140b490614042565b614198565b506140b46140c861042461060c565b86111590506140ab565b8181106140dd575050565b806140eb6000600193612c82565b016140d2565b91909182821061410057505050565b6103ac9291614116905b91600052602060002090565b91820191016140d2565b90600160401b811161039357816141386103ac935490565b908281556140f1565b61416061410a61414f845190565b9361415a8585614120565b60200190565b6000915b8383106141715750505050565b6001602082614182611f6484955190565b01920192019190614164565b906103ac91614141565b9361422a959291936000926141b06104248886611bc7565b956141c0612cda600b8901611bd9565b80516141ce612395876105ff565b116142a3575b5080516141e3612395866105ff565b11614290575b5080516141f8612395856105ff565b1161427d575b50614208826105ff565b811161426a575b5061421e6123956123d8845190565b1161425e575050611ffc565b61423333610954565b907f7908f4a28dd6c5a9aeb08c489560be79c59288098b557df57513830b3246151961241f60405190565b6009612434920161418e565b6142779060088501611f34565b3861420f565b61428a9060078601611f1c565b386141fe565b61429d9060068701611f1c565b386141e9565b6142b09060028801611f1c565b386141d4565b906103ac9594939291614023565b90610424916142da611c5a611c5584600a611bc7565b61042491613c7991506005611bc7565b610424906142f6613bc7565b6142c4565b6143036121bb565b90606082526020808080808087016060613bb3565b6104246142fb565b9061042491614336611c5a611c5584600a611bc7565b6143a5565b906103ac614395600561434c6121bb565b9461435961275582612588565b61436861276860018301612588565b61437761277e60028301612588565b61438661279460038301612588565b613c536127aa60048301612588565b60a0840152565b6104249061433b565b610424916143b591506002611bc7565b61439c565b610424906143c6614318565b614320565b156143d257565b60405162461bcd60e51b8152602060048201526011602482015270456d7074792070726f64756374436f646560781b6044820152606490fd5b1561441257565b60405162461bcd60e51b815260206004820152600a602482015269456d707479206e616d6560b01b6044820152606490fd5b1561444b57565b60405162461bcd60e51b815260206004820152600e60248201526d50726f647563742065786973747360901b6044820152606490fd5b1561448857565b60405162461bcd60e51b815260206004820152600e60248201526d11985c9b481b9bdd08199bdd5b9960921b6044820152606490fd5b60001981146129ba5760010190565b6104249051610716565b61042490516106f0565b9061ff009060081b611da4565b906144fe610424611dc792610720565b82546144e1565b9061462d610180600b6103ac94614526614520600087015190565b82611f1c565b61453d614534602087015190565b60018301611f1c565b61455461454b604087015190565b60028301611f1c565b61456b614562606087015190565b60038301611f1c565b614582614579608087015190565b60048301611f1c565b61459961459060a087015190565b60058301611f1c565b6145b06145a760c087015190565b60068301611f1c565b6145c76145be60e087015190565b60078301611f1c565b6145df6145d661010087015190565b60088301611f1c565b6145f76145ee61012087015190565b60098301611f1c565b61460f61460661014087015190565b600a8301611f34565b019261462761462161016083016144d7565b8561332c565b016144cd565b906144ee565b906103ac91614505565b9160206103ac92949361336660408201966000830190610703565b602081018051519160009261466c846105ff565b10614676906143cb565b6060810190815151614687856105ff565b106146919061440b565b825161469e90600a611bc7565b6146a790611bd9565b156146b190614444565b838082019182516146c3906009611bc7565b6146cc90611bd9565b6146d590614481565b82516146e2906008611bc7565b85516146ed91612e1c565b600e85516146fa91612e1c565b845161470790600a611bc7565b600161471291612df6565b61471c6011612703565b614725906144be565b614730906011611f34565b8251908551604082019586519051608084015160a08501519060c08601519260e087015194610100880151966101208901519861014001614770906144cd565b9961477961260f565b9b8c015260208b015260408a01526060890152608088015260a087015260c086015260e08501526101008401526101208301526147b842610140840152565b6147c686610160840161270d565b6147d490610180830161272d565b83516147e1906001611bc7565b906147eb91614633565b5191519051916147fa90611ffc565b9061480490611ffc565b9161480e90611ffc565b9261481860405190565b809142614825918361463d565b037f5a5521c478d56e992f7de0ce91468be033673a45127af6e98e5d3f54f495cc6991a4565b906103ac9594939291614865611c5a611c5583600a611bc7565b6148ab565b1561487157565b60405162461bcd60e51b8152602060048201526012602482015271456d7074792068617276657374206461746560701b6044820152606490fd5b93946149216149439661491a612ebb9661491386976148f66133ae600b61234d8e6148ef6148dc611f266149289f90565b6148e961239560006105ff565b1161486a565b6001611bc7565b61490c614901611d34565b8c81529960208b0152565b6040890152565b6060870152565b6080850152565b60a0830152565b6149334260c0830152565b61493e836005611bc7565b611fe9565b61494c33610954565b907fb7acef2065ad5c1aad123c6c17dce6a2a935464b3892d793d527e2c8bed4bea161241f60405190565b906103ac959493929161484b565b906104249161499b611c5a611c5584600a611bc7565b61042491613c7991506003611bc7565b610424906149b7613bc7565b614985565b156149c357565b60405162461bcd60e51b815260206004820152602160248201527f416363657373436f6e74726f6c3a204f6e6c79206f776e657220616c6c6f77656044820152601960fa1b6064820152608490fd5b6103ac90614a2d614a266108f8601261381f565b33146149bc565b614a58565b906001600160a01b0390611da4565b90614a51610424611dc792610954565b8254614a32565b6103ac90614a6c61393c6108f860006138cf565b6014614a41565b6103ac90614a12565b611c5561042491614a8b600090565b50600b611bc7565b906103ac91614aa56108f8601361381f565b33148015614abc575b614ab790613829565b614ad6565b50614ab7614acd6108f8601261381f565b33149050614aae565b90612f016103ac92614aee61393c6108f860006138cf565b601761095d565b906103ac91614a93565b906103ac9594939291614b19611c5a611c5583600a611bc7565b93614b5295929193614b31600b61234d886001611bc7565b92614b4460009461236c612366876106f0565b6139bb610424886005611bc7565b614b5b33610954565b907fbccb8f97b9186074ffe5006945f32fe9cfd0f4767308d7fa16d031f9eede68cb61241f60405190565b906103ac9594939291614aff565b906103ac9594939291614bae611c5a611c5583600a611bc7565b93614be795929193614bc6600b61234d886001611bc7565b92614bd960009461236c612366876106f0565b6139bb610424886003611bc7565b614bf033610954565b907f05e2de4424f41fca1bd37b1d63212448cb99db7eba4e8a70ddf62819e6421deb61241f60405190565b906103ac9594939291614b94565b15614c3057565b60405162461bcd60e51b815260206004820152601d60248201527f416363657373436f6e74726f6c3a204e6f7420617574686f72697a65640000006044820152606490fd5b906103ac999897969594939291614c90611c5533601561095d565b8015614ca5575b614ca090614c29565b614cbf565b50614ca0614cb66108f8601261381f565b33149050614c97565b906103ac999897969594939291614cd7610424611578565b89101580614cee575b614ce990614042565b614d53565b50614ce9614cfd61042461060c565b8a11159050614ce0565b15614d0e57565b60405162461bcd60e51b815260206004820152601b60248201527f56616c69646174696f6e3a20546f6f206d616e7920696d6167657300000000006044820152606490fd5b906103ac999897969594939291614d80614d6b8b5190565b614d7961239561042461149e565b1115614d07565b614ff9565b15614d8c57565b60405162461bcd60e51b815260206004820152601a60248201527f56616c69646174696f6e3a20456d707479206661726d436f64650000000000006044820152606490fd5b15614dd857565b60405162461bcd60e51b815260206004820152601a60248201527f56616c69646174696f6e3a20456d7074792066756c6c6e616d650000000000006044820152606490fd5b15614e2457565b60405162461bcd60e51b815260206004820152601a60248201527f56616c69646174696f6e3a20456d707479206e616d654661726d0000000000006044820152606490fd5b15614e7057565b60405162461bcd60e51b815260206004820152601860248201527f56616c69646174696f6e3a20456d7074792075736572496400000000000000006044820152606490fd5b15614ebc57565b60405162461bcd60e51b815260206004820152601f60248201527f56616c69646174696f6e3a204661726d20616c726561647920657869737473006044820152606490fd5b600b614fd56101606103ac94614f1b611f64600083015190565b614f29611f78602083015190565b614f37611f8f604083015190565b614f45611fa6606083015190565b614f53611fbd608083015190565b614f61611fd460a083015190565b614f6f6131e560c083015190565b614f86614f7d60e083015190565b60078701611f1c565b614f9e614f9561010083015190565b60088701611f34565b614fb6614fad61012083015190565b6009870161418e565b614fce614fc561014083015190565b600a8701611f34565b0151151590565b9101612df6565b906103ac91614f01565b9081526040810192916103ac9160200152565b9692979893959194909561500a8890565b5195600096615018886105ff565b1061502290614d85565b875161502d886105ff565b1061503790614dd1565b8051615042886105ff565b1061504c90614e1d565b8951615057886105ff565b1061506190614e69565b61506c896009611bc7565b61507590611bd9565b1561507f90614eb5565b8861508b8b6007611bc7565b9061509591612e1c565b6150a089600d612e1c565b6150ab896009611bc7565b60016150b691612df6565b6150c06010612703565b6150c9906144be565b6150d4906010611f34565b6150dc6135dc565b8781018a9052976020890152604088015260608701899052608087015260a086015260c085015260e084015261511486610100850152565b61012083015261512642610140840152565b60016101608301528261513891611bc7565b9061514291614fdc565b61514b90611ffc565b9061515590611ffc565b9061515f33610954565b9261516960405190565b8091426151769183614fe6565b037f94a1b71779fa0fac5c0048e5d6894687d9bcf5ad5669aa2ee9c8dec5f49884e391a4565b906103ac999897969594939291614c75565b6103ac906151c36124e3611c55836009611bc7565b6000600b6151d76104246103ac9484611bc7565b01612f01612cda82611bd9565b6103ac906151ae565b906103ac916152036124e3611c55836009611bc7565b90612eb6600961521a6104246103ac956000611bc7565b6103ca612cda600b8301611bd9565b906103ac916151ed565b6103ac90615247614a266108f8601261381f565b6103ac9061525b61393c6108f860006138cf565b6013614a41565b6103ac90615233565b8054600093929161528261527e83611d6a565b9390565b91600181169081156152d3575060011461529b57505050565b6152ae9192939450600052602060002090565b6000905b8382106152bf5750500190565b6001816020925484860152019101906152b2565b60ff191683525050811515909102019150565b611ba76103ca916020949361526b565b611bc161530260405190565b928392836152e6565b610424916152f6565b600d61532161377e825490565b9060009061532f60006105ff565b61533a610424835490565b8110156137d957806137bf6137ba61535561535c94866129cc565b508661530b565b61532f565b9061538196959493929161537c611c5a611c5589600a611bc7565b615389565b909192939495565b96959650505050505061539d826001611bc7565b906153a9836002611bc7565b926153b5816003611bc7565b926153c1826004611bc7565b926104246154086154026153fc6153f66153f06153ea6153e28a6005611bc7565b996006611bc7565b97612860565b9a61439c565b98613c60565b96613ff4565b94613c60565b92613c60565b6153819061541a612678565b615422614318565b61542a613bc7565b615432613f52565b9061543b613bc7565b92615444613bc7565b94615361565b61545961545d91613751600090565b5490565b61546a61239560006105ff565b119056fea264697066735822122021f79a8681641c7d62291388f52ffdcce60c378f16ad75d53aa599400098ef1164736f6c634300081c0033",
  "linkReferences": {},
  "deployedLinkReferences": {}
}