{
  "_format": "hh-sol-artifact-1",
  "contractName": "AgriculturalTraceabilitySystem",
  "sourceName": "src/contracts/truyxuat.sol",
  "abi": [
    {
      "inputs": [],
      "stateMutability": "nonpayable",
      "type": "constructor"
    },
    {
      "anonymous": false,
      "inputs": [
        {
          "indexed": true,
          "internalType": "string",
          "name": "categoryName",
          "type": "string"
        },
        {
          "indexed": true,
          "internalType": "string",
          "name": "userId",
          "type": "string"
        },
        {
          "indexed": false,
          "internalType": "uint256",
          "name": "timestamp",
          "type": "uint256"
        }
      ],
      "name": "CategoryAdded",
      "type": "event"
    },
    {
      "anonymous": false,
      "inputs": [
        {
          "indexed": true,
          "internalType": "string",
          "name": "productCode",
          "type": "string"
        },
        {
          "indexed": true,
          "internalType": "address",
          "name": "creator",
          "type": "address"
        },
        {
          "indexed": false,
          "internalType": "uint256",
          "name": "timestamp",
          "type": "uint256"
        }
      ],
      "name": "DistributionAdded",
      "type": "event"
    },
    {
      "anonymous": false,
      "inputs": [
        {
          "indexed": true,
          "internalType": "string",
          "name": "productCode",
          "type": "string"
        },
        {
          "indexed": true,
          "internalType": "address",
          "name": "updater",
          "type": "address"
        },
        {
          "indexed": false,
          "internalType": "uint256",
          "name": "timestamp",
          "type": "uint256"
        }
      ],
      "name": "DistributionUpdated",
      "type": "event"
    },
    {
      "anonymous": false,
      "inputs": [
        {
          "indexed": true,
          "internalType": "string",
          "name": "farmCode",
          "type": "string"
        },
        {
          "indexed": true,
          "internalType": "string",
          "name": "userId",
          "type": "string"
        },
        {
          "indexed": true,
          "internalType": "address",
          "name": "owner",
          "type": "address"
        },
        {
          "indexed": false,
          "internalType": "uint256",
          "name": "area",
          "type": "uint256"
        },
        {
          "indexed": false,
          "internalType": "uint256",
          "name": "timestamp",
          "type": "uint256"
        }
      ],
      "name": "FarmRegistered",
      "type": "event"
    },
    {
      "anonymous": false,
      "inputs": [
        {
          "indexed": true,
          "internalType": "string",
          "name": "farmCode",
          "type": "string"
        },
        {
          "indexed": false,
          "internalType": "enum AgriculturalTraceabilitySystem.FarmStatus",
          "name": "oldStatus",
          "type": "uint8"
        },
        {
          "indexed": false,
          "internalType": "enum AgriculturalTraceabilitySystem.FarmStatus",
          "name": "newStatus",
          "type": "uint8"
        },
        {
          "indexed": false,
          "internalType": "uint256",
          "name": "timestamp",
          "type": "uint256"
        }
      ],
      "name": "FarmStatusChanged",
      "type": "event"
    },
    {
      "anonymous": false,
      "inputs": [
        {
          "indexed": true,
          "internalType": "string",
          "name": "farmCode",
          "type": "string"
        },
        {
          "indexed": true,
          "internalType": "address",
          "name": "updater",
          "type": "address"
        },
        {
          "indexed": false,
          "internalType": "uint256",
          "name": "timestamp",
          "type": "uint256"
        }
      ],
      "name": "FarmUpdated",
      "type": "event"
    },
    {
      "anonymous": false,
      "inputs": [
        {
          "indexed": true,
          "internalType": "string",
          "name": "productCode",
          "type": "string"
        },
        {
          "indexed": true,
          "internalType": "address",
          "name": "creator",
          "type": "address"
        },
        {
          "indexed": false,
          "internalType": "uint256",
          "name": "timestamp",
          "type": "uint256"
        }
      ],
      "name": "FarmingProcessAdded",
      "type": "event"
    },
    {
      "anonymous": false,
      "inputs": [
        {
          "indexed": true,
          "internalType": "string",
          "name": "productCode",
          "type": "string"
        },
        {
          "indexed": true,
          "internalType": "address",
          "name": "updater",
          "type": "address"
        },
        {
          "indexed": false,
          "internalType": "uint256",
          "name": "timestamp",
          "type": "uint256"
        }
      ],
      "name": "FarmingProcessUpdated",
      "type": "event"
    },
    {
      "anonymous": false,
      "inputs": [
        {
          "indexed": true,
          "internalType": "string",
          "name": "productCode",
          "type": "string"
        },
        {
          "indexed": true,
          "internalType": "address",
          "name": "creator",
          "type": "address"
        },
        {
          "indexed": false,
          "internalType": "uint256",
          "name": "timestamp",
          "type": "uint256"
        }
      ],
      "name": "FertilizerAdded",
      "type": "event"
    },
    {
      "anonymous": false,
      "inputs": [
        {
          "indexed": true,
          "internalType": "string",
          "name": "productCode",
          "type": "string"
        },
        {
          "indexed": true,
          "internalType": "address",
          "name": "updater",
          "type": "address"
        },
        {
          "indexed": false,
          "internalType": "uint256",
          "name": "timestamp",
          "type": "uint256"
        }
      ],
      "name": "FertilizerUpdated",
      "type": "event"
    },
    {
      "anonymous": false,
      "inputs": [
        {
          "indexed": true,
          "internalType": "string",
          "name": "productCode",
          "type": "string"
        },
        {
          "indexed": true,
          "internalType": "address",
          "name": "creator",
          "type": "address"
        },
        {
          "indexed": false,
          "internalType": "uint256",
          "name": "timestamp",
          "type": "uint256"
        }
      ],
      "name": "HarvestAdded",
      "type": "event"
    },
    {
      "anonymous": false,
      "inputs": [
        {
          "indexed": true,
          "internalType": "string",
          "name": "productCode",
          "type": "string"
        },
        {
          "indexed": true,
          "internalType": "address",
          "name": "updater",
          "type": "address"
        },
        {
          "indexed": false,
          "internalType": "uint256",
          "name": "timestamp",
          "type": "uint256"
        }
      ],
      "name": "HarvestUpdated",
      "type": "event"
    },
    {
      "anonymous": false,
      "inputs": [
        {
          "indexed": true,
          "internalType": "string",
          "name": "productCode",
          "type": "string"
        },
        {
          "indexed": true,
          "internalType": "address",
          "name": "creator",
          "type": "address"
        },
        {
          "indexed": false,
          "internalType": "uint256",
          "name": "timestamp",
          "type": "uint256"
        }
      ],
      "name": "MedicineAdded",
      "type": "event"
    },
    {
      "anonymous": false,
      "inputs": [
        {
          "indexed": true,
          "internalType": "string",
          "name": "productCode",
          "type": "string"
        },
        {
          "indexed": true,
          "internalType": "address",
          "name": "updater",
          "type": "address"
        },
        {
          "indexed": false,
          "internalType": "uint256",
          "name": "timestamp",
          "type": "uint256"
        }
      ],
      "name": "MedicineUpdated",
      "type": "event"
    },
    {
      "anonymous": false,
      "inputs": [
        {
          "indexed": true,
          "internalType": "string",
          "name": "farmCode",
          "type": "string"
        },
        {
          "indexed": true,
          "internalType": "string",
          "name": "productCode",
          "type": "string"
        },
        {
          "indexed": true,
          "internalType": "string",
          "name": "categoryName",
          "type": "string"
        },
        {
          "indexed": false,
          "internalType": "enum AgriculturalTraceabilitySystem.ProductStatus",
          "name": "status",
          "type": "uint8"
        },
        {
          "indexed": false,
          "internalType": "uint256",
          "name": "timestamp",
          "type": "uint256"
        }
      ],
      "name": "ProductAdded",
      "type": "event"
    },
    {
      "anonymous": false,
      "inputs": [
        {
          "indexed": true,
          "internalType": "string",
          "name": "productCode",
          "type": "string"
        },
        {
          "indexed": false,
          "internalType": "enum AgriculturalTraceabilitySystem.ProductStatus",
          "name": "oldStatus",
          "type": "uint8"
        },
        {
          "indexed": false,
          "internalType": "enum AgriculturalTraceabilitySystem.ProductStatus",
          "name": "newStatus",
          "type": "uint8"
        },
        {
          "indexed": false,
          "internalType": "uint256",
          "name": "timestamp",
          "type": "uint256"
        }
      ],
      "name": "ProductStatusChanged",
      "type": "event"
    },
    {
      "anonymous": false,
      "inputs": [
        {
          "indexed": true,
          "internalType": "string",
          "name": "productCode",
          "type": "string"
        },
        {
          "indexed": true,
          "internalType": "address",
          "name": "updater",
          "type": "address"
        },
        {
          "indexed": false,
          "internalType": "uint256",
          "name": "timestamp",
          "type": "uint256"
        }
      ],
      "name": "ProductUpdated",
      "type": "event"
    },
    {
      "anonymous": false,
      "inputs": [
        {
          "indexed": true,
          "internalType": "address",
          "name": "user",
          "type": "address"
        },
        {
          "indexed": true,
          "internalType": "address",
          "name": "authorizer",
          "type": "address"
        },
        {
          "indexed": false,
          "internalType": "uint256",
          "name": "timestamp",
          "type": "uint256"
        }
      ],
      "name": "UserAuthorized",
      "type": "event"
    },
    {
      "anonymous": false,
      "inputs": [
        {
          "indexed": true,
          "internalType": "address",
          "name": "user",
          "type": "address"
        },
        {
          "indexed": true,
          "internalType": "address",
          "name": "authorizer",
          "type": "address"
        },
        {
          "indexed": false,
          "internalType": "uint256",
          "name": "timestamp",
          "type": "uint256"
        }
      ],
      "name": "UserDeauthorized",
      "type": "event"
    },
    {
      "inputs": [],
      "name": "GetAllCategories",
      "outputs": [
        {
          "internalType": "string[]",
          "name": "",
          "type": "string[]"
        }
      ],
      "stateMutability": "view",
      "type": "function"
    },
    {
      "inputs": [
        {
          "internalType": "string",
          "name": "_userId",
          "type": "string"
        }
      ],
      "name": "GetAllCategoryuserId",
      "outputs": [
        {
          "internalType": "string[]",
          "name": "",
          "type": "string[]"
        }
      ],
      "stateMutability": "view",
      "type": "function"
    },
    {
      "inputs": [],
      "name": "MAX_AREA",
      "outputs": [
        {
          "internalType": "uint256",
          "name": "",
          "type": "uint256"
        }
      ],
      "stateMutability": "view",
      "type": "function"
    },
    {
      "inputs": [],
      "name": "MAX_IMAGES",
      "outputs": [
        {
          "internalType": "uint256",
          "name": "",
          "type": "uint256"
        }
      ],
      "stateMutability": "view",
      "type": "function"
    },
    {
      "inputs": [],
      "name": "MIN_AREA",
      "outputs": [
        {
          "internalType": "uint256",
          "name": "",
          "type": "uint256"
        }
      ],
      "stateMutability": "view",
      "type": "function"
    },
    {
      "inputs": [
        {
          "internalType": "string",
          "name": "_categoryName",
          "type": "string"
        },
        {
          "internalType": "string",
          "name": "_userId",
          "type": "string"
        }
      ],
      "name": "addCategory",
      "outputs": [],
      "stateMutability": "nonpayable",
      "type": "function"
    },
    {
      "inputs": [
        {
          "internalType": "string",
          "name": "_productCode",
          "type": "string"
        },
        {
          "internalType": "string",
          "name": "_distributorName",
          "type": "string"
        },
        {
          "internalType": "string",
          "name": "_distributorPartner",
          "type": "string"
        },
        {
          "internalType": "string",
          "name": "_distributionDate",
          "type": "string"
        },
        {
          "internalType": "string",
          "name": "_transportMethod",
          "type": "string"
        },
        {
          "internalType": "string",
          "name": "_storageConditions",
          "type": "string"
        }
      ],
      "name": "addDistribution",
      "outputs": [],
      "stateMutability": "nonpayable",
      "type": "function"
    },
    {
      "inputs": [
        {
          "internalType": "string",
          "name": "_farmCode",
          "type": "string"
        },
        {
          "internalType": "string",
          "name": "_imageUrl",
          "type": "string"
        }
      ],
      "name": "addFarmImage",
      "outputs": [],
      "stateMutability": "nonpayable",
      "type": "function"
    },
    {
      "inputs": [
        {
          "internalType": "string",
          "name": "_productCode",
          "type": "string"
        },
        {
          "internalType": "string",
          "name": "_nameProcess",
          "type": "string"
        },
        {
          "internalType": "string",
          "name": "_source",
          "type": "string"
        },
        {
          "internalType": "string",
          "name": "_plantingDate",
          "type": "string"
        },
        {
          "internalType": "string",
          "name": "_sowingDate",
          "type": "string"
        }
      ],
      "name": "addFarmingProcess",
      "outputs": [],
      "stateMutability": "nonpayable",
      "type": "function"
    },
    {
      "inputs": [
        {
          "internalType": "string",
          "name": "_productCode",
          "type": "string"
        },
        {
          "internalType": "string",
          "name": "_nameFertilizer",
          "type": "string"
        },
        {
          "internalType": "string",
          "name": "_quantityFertilizer",
          "type": "string"
        },
        {
          "internalType": "string",
          "name": "_fertilizerDate",
          "type": "string"
        },
        {
          "internalType": "string",
          "name": "_fertilizerType",
          "type": "string"
        },
        {
          "internalType": "string",
          "name": "_applicationMethod",
          "type": "string"
        },
        {
          "internalType": "string",
          "name": "_expectedEffect",
          "type": "string"
        }
      ],
      "name": "addFertilizer",
      "outputs": [],
      "stateMutability": "nonpayable",
      "type": "function"
    },
    {
      "inputs": [
        {
          "internalType": "string",
          "name": "_productCode",
          "type": "string"
        },
        {
          "internalType": "string",
          "name": "_harvestDate",
          "type": "string"
        },
        {
          "internalType": "string",
          "name": "_estimatedQuantity",
          "type": "string"
        },
        {
          "internalType": "string",
          "name": "_actualQuantity",
          "type": "string"
        },
        {
          "internalType": "string",
          "name": "_quality",
          "type": "string"
        },
        {
          "internalType": "string",
          "name": "_harvestMethod",
          "type": "string"
        }
      ],
      "name": "addHarvest",
      "outputs": [],
      "stateMutability": "nonpayable",
      "type": "function"
    },
    {
      "inputs": [
        {
          "internalType": "string",
          "name": "_productCode",
          "type": "string"
        },
        {
          "internalType": "string",
          "name": "_nameMedicine",
          "type": "string"
        },
        {
          "internalType": "string",
          "name": "_quantityMedicine",
          "type": "string"
        },
        {
          "internalType": "string",
          "name": "_medicineDate",
          "type": "string"
        },
        {
          "internalType": "string",
          "name": "_medicineType",
          "type": "string"
        },
        {
          "internalType": "string",
          "name": "_applicationMethod",
          "type": "string"
        }
      ],
      "name": "addMedicine",
      "outputs": [],
      "stateMutability": "nonpayable",
      "type": "function"
    },
    {
      "inputs": [
        {
          "components": [
            {
              "internalType": "string",
              "name": "farmCode",
              "type": "string"
            },
            {
              "internalType": "string",
              "name": "productCode",
              "type": "string"
            },
            {
              "internalType": "string",
              "name": "categoryName",
              "type": "string"
            },
            {
              "internalType": "string",
              "name": "name",
              "type": "string"
            },
            {
              "internalType": "string",
              "name": "quantity",
              "type": "string"
            },
            {
              "internalType": "string",
              "name": "price",
              "type": "string"
            },
            {
              "internalType": "string",
              "name": "description",
              "type": "string"
            },
            {
              "internalType": "string",
              "name": "image",
              "type": "string"
            },
            {
              "internalType": "string",
              "name": "batchCode",
              "type": "string"
            },
            {
              "internalType": "string",
              "name": "certification",
              "type": "string"
            },
            {
              "internalType": "enum AgriculturalTraceabilitySystem.CertificationLevel",
              "name": "certificationLevel",
              "type": "uint8"
            }
          ],
          "internalType": "struct AgriculturalTraceabilitySystem.ProductInput",
          "name": "_productData",
          "type": "tuple"
        }
      ],
      "name": "addProduct",
      "outputs": [],
      "stateMutability": "nonpayable",
      "type": "function"
    },
    {
      "inputs": [],
      "name": "admin",
      "outputs": [
        {
          "internalType": "address",
          "name": "",
          "type": "address"
        }
      ],
      "stateMutability": "view",
      "type": "function"
    },
    {
      "inputs": [
        {
          "internalType": "address",
          "name": "_user",
          "type": "address"
        }
      ],
      "name": "authorizeUser",
      "outputs": [],
      "stateMutability": "nonpayable",
      "type": "function"
    },
    {
      "inputs": [
        {
          "internalType": "address",
          "name": "",
          "type": "address"
        }
      ],
      "name": "authorizedUsers",
      "outputs": [
        {
          "internalType": "bool",
          "name": "",
          "type": "bool"
        }
      ],
      "stateMutability": "view",
      "type": "function"
    },
    {
      "inputs": [
        {
          "internalType": "string",
          "name": "_categoryName",
          "type": "string"
        }
      ],
      "name": "categoryExistsCheck",
      "outputs": [
        {
          "internalType": "bool",
          "name": "",
          "type": "bool"
        }
      ],
      "stateMutability": "view",
      "type": "function"
    },
    {
      "inputs": [
        {
          "internalType": "string",
          "name": "_farmCode",
          "type": "string"
        }
      ],
      "name": "deactivateFarm",
      "outputs": [],
      "stateMutability": "nonpayable",
      "type": "function"
    },
    {
      "inputs": [
        {
          "internalType": "string",
          "name": "_productCode",
          "type": "string"
        }
      ],
      "name": "deactivateProduct",
      "outputs": [],
      "stateMutability": "nonpayable",
      "type": "function"
    },
    {
      "inputs": [
        {
          "internalType": "address",
          "name": "_user",
          "type": "address"
        }
      ],
      "name": "deauthorizeUser",
      "outputs": [],
      "stateMutability": "nonpayable",
      "type": "function"
    },
    {
      "inputs": [
        {
          "internalType": "address",
          "name": "",
          "type": "address"
        }
      ],
      "name": "farmOwners",
      "outputs": [
        {
          "internalType": "bool",
          "name": "",
          "type": "bool"
        }
      ],
      "stateMutability": "view",
      "type": "function"
    },
    {
      "inputs": [],
      "name": "getAllFarms",
      "outputs": [
        {
          "components": [
            {
              "internalType": "string",
              "name": "farmCode",
              "type": "string"
            },
            {
              "internalType": "string",
              "name": "fullname",
              "type": "string"
            },
            {
              "internalType": "string",
              "name": "nameFarm",
              "type": "string"
            },
            {
              "internalType": "string",
              "name": "userId",
              "type": "string"
            },
            {
              "internalType": "string",
              "name": "email",
              "type": "string"
            },
            {
              "internalType": "string",
              "name": "phone",
              "type": "string"
            },
            {
              "internalType": "string",
              "name": "description",
              "type": "string"
            },
            {
              "internalType": "string",
              "name": "location",
              "type": "string"
            },
            {
              "internalType": "uint256",
              "name": "area",
              "type": "uint256"
            },
            {
              "internalType": "string[]",
              "name": "images",
              "type": "string[]"
            },
            {
              "internalType": "uint256",
              "name": "createdAt",
              "type": "uint256"
            },
            {
              "internalType": "bool",
              "name": "isActive",
              "type": "bool"
            }
          ],
          "internalType": "struct AgriculturalTraceabilitySystem.Farm[]",
          "name": "",
          "type": "tuple[]"
        }
      ],
      "stateMutability": "view",
      "type": "function"
    },
    {
      "inputs": [
        {
          "internalType": "string",
          "name": "_productCode",
          "type": "string"
        }
      ],
      "name": "getCompleteProductTraceability",
      "outputs": [
        {
          "components": [
            {
              "internalType": "string",
              "name": "farmCode",
              "type": "string"
            },
            {
              "internalType": "string",
              "name": "productCode",
              "type": "string"
            },
            {
              "internalType": "string",
              "name": "categoryName",
              "type": "string"
            },
            {
              "internalType": "string",
              "name": "name",
              "type": "string"
            },
            {
              "internalType": "string",
              "name": "quantity",
              "type": "string"
            },
            {
              "internalType": "string",
              "name": "price",
              "type": "string"
            },
            {
              "internalType": "string",
              "name": "description",
              "type": "string"
            },
            {
              "internalType": "string",
              "name": "image",
              "type": "string"
            },
            {
              "internalType": "string",
              "name": "batchCode",
              "type": "string"
            },
            {
              "internalType": "string",
              "name": "certification",
              "type": "string"
            },
            {
              "internalType": "uint256",
              "name": "createdAt",
              "type": "uint256"
            },
            {
              "internalType": "enum AgriculturalTraceabilitySystem.ProductStatus",
              "name": "status",
              "type": "uint8"
            },
            {
              "internalType": "enum AgriculturalTraceabilitySystem.CertificationLevel",
              "name": "certificationLevel",
              "type": "uint8"
            }
          ],
          "internalType": "struct AgriculturalTraceabilitySystem.Product",
          "name": "product",
          "type": "tuple"
        },
        {
          "components": [
            {
              "internalType": "string",
              "name": "productCode",
              "type": "string"
            },
            {
              "internalType": "string",
              "name": "nameProcess",
              "type": "string"
            },
            {
              "internalType": "string",
              "name": "source",
              "type": "string"
            },
            {
              "internalType": "string",
              "name": "plantingDate",
              "type": "string"
            },
            {
              "internalType": "string",
              "name": "sowingDate",
              "type": "string"
            },
            {
              "internalType": "uint256",
              "name": "createdAt",
              "type": "uint256"
            }
          ],
          "internalType": "struct AgriculturalTraceabilitySystem.FarmingProcess",
          "name": "farmingProcess",
          "type": "tuple"
        },
        {
          "components": [
            {
              "internalType": "string",
              "name": "productCode",
              "type": "string"
            },
            {
              "internalType": "string",
              "name": "nameMedicine",
              "type": "string"
            },
            {
              "internalType": "string",
              "name": "quantityMedicine",
              "type": "string"
            },
            {
              "internalType": "string",
              "name": "medicineDate",
              "type": "string"
            },
            {
              "internalType": "string",
              "name": "medicineType",
              "type": "string"
            },
            {
              "internalType": "string",
              "name": "applicationMethod",
              "type": "string"
            },
            {
              "internalType": "uint256",
              "name": "createdAt",
              "type": "uint256"
            }
          ],
          "internalType": "struct AgriculturalTraceabilitySystem.Medicine",
          "name": "medicine",
          "type": "tuple"
        },
        {
          "components": [
            {
              "internalType": "string",
              "name": "productCode",
              "type": "string"
            },
            {
              "internalType": "string",
              "name": "nameFertilizer",
              "type": "string"
            },
            {
              "internalType": "string",
              "name": "quantityFertilizer",
              "type": "string"
            },
            {
              "internalType": "string",
              "name": "fertilizerDate",
              "type": "string"
            },
            {
              "internalType": "string",
              "name": "fertilizerType",
              "type": "string"
            },
            {
              "internalType": "string",
              "name": "applicationMethod",
              "type": "string"
            },
            {
              "internalType": "string",
              "name": "expectedEffect",
              "type": "string"
            },
            {
              "internalType": "uint256",
              "name": "createdAt",
              "type": "uint256"
            }
          ],
          "internalType": "struct AgriculturalTraceabilitySystem.Fertilizer",
          "name": "fertilizer",
          "type": "tuple"
        },
        {
          "components": [
            {
              "internalType": "string",
              "name": "productCode",
              "type": "string"
            },
            {
              "internalType": "string",
              "name": "harvestDate",
              "type": "string"
            },
            {
              "internalType": "string",
              "name": "estimatedQuantity",
              "type": "string"
            },
            {
              "internalType": "string",
              "name": "actualQuantity",
              "type": "string"
            },
            {
              "internalType": "string",
              "name": "quality",
              "type": "string"
            },
            {
              "internalType": "string",
              "name": "harvestMethod",
              "type": "string"
            },
            {
              "internalType": "uint256",
              "name": "createdAt",
              "type": "uint256"
            }
          ],
          "internalType": "struct AgriculturalTraceabilitySystem.Harvest",
          "name": "harvest",
          "type": "tuple"
        },
        {
          "components": [
            {
              "internalType": "string",
              "name": "productCode",
              "type": "string"
            },
            {
              "internalType": "string",
              "name": "distributorName",
              "type": "string"
            },
            {
              "internalType": "string",
              "name": "distributorPartner",
              "type": "string"
            },
            {
              "internalType": "string",
              "name": "distributionDate",
              "type": "string"
            },
            {
              "internalType": "string",
              "name": "transportMethod",
              "type": "string"
            },
            {
              "internalType": "string",
              "name": "storageConditions",
              "type": "string"
            },
            {
              "internalType": "uint256",
              "name": "createdAt",
              "type": "uint256"
            }
          ],
          "internalType": "struct AgriculturalTraceabilitySystem.Distribution",
          "name": "distribution",
          "type": "tuple"
        }
      ],
      "stateMutability": "view",
      "type": "function"
    },
    {
      "inputs": [
        {
          "internalType": "string",
          "name": "_productCode",
          "type": "string"
        }
      ],
      "name": "getDistribution",
      "outputs": [
        {
          "components": [
            {
              "internalType": "string",
              "name": "productCode",
              "type": "string"
            },
            {
              "internalType": "string",
              "name": "distributorName",
              "type": "string"
            },
            {
              "internalType": "string",
              "name": "distributorPartner",
              "type": "string"
            },
            {
              "internalType": "string",
              "name": "distributionDate",
              "type": "string"
            },
            {
              "internalType": "string",
              "name": "transportMethod",
              "type": "string"
            },
            {
              "internalType": "string",
              "name": "storageConditions",
              "type": "string"
            },
            {
              "internalType": "uint256",
              "name": "createdAt",
              "type": "uint256"
            }
          ],
          "internalType": "struct AgriculturalTraceabilitySystem.Distribution",
          "name": "",
          "type": "tuple"
        }
      ],
      "stateMutability": "view",
      "type": "function"
    },
    {
      "inputs": [
        {
          "internalType": "string",
          "name": "_farmCode",
          "type": "string"
        }
      ],
      "name": "getFarm",
      "outputs": [
        {
          "components": [
            {
              "internalType": "string",
              "name": "farmCode",
              "type": "string"
            },
            {
              "internalType": "string",
              "name": "fullname",
              "type": "string"
            },
            {
              "internalType": "string",
              "name": "nameFarm",
              "type": "string"
            },
            {
              "internalType": "string",
              "name": "userId",
              "type": "string"
            },
            {
              "internalType": "string",
              "name": "email",
              "type": "string"
            },
            {
              "internalType": "string",
              "name": "phone",
              "type": "string"
            },
            {
              "internalType": "string",
              "name": "description",
              "type": "string"
            },
            {
              "internalType": "string",
              "name": "location",
              "type": "string"
            },
            {
              "internalType": "uint256",
              "name": "area",
              "type": "uint256"
            },
            {
              "internalType": "string[]",
              "name": "images",
              "type": "string[]"
            },
            {
              "internalType": "uint256",
              "name": "createdAt",
              "type": "uint256"
            },
            {
              "internalType": "bool",
              "name": "isActive",
              "type": "bool"
            }
          ],
          "internalType": "struct AgriculturalTraceabilitySystem.Farm",
          "name": "",
          "type": "tuple"
        }
      ],
      "stateMutability": "view",
      "type": "function"
    },
    {
      "inputs": [
        {
          "internalType": "string",
          "name": "_farmCode",
          "type": "string"
        }
      ],
      "name": "getFarmImages",
      "outputs": [
        {
          "internalType": "string[]",
          "name": "",
          "type": "string[]"
        }
      ],
      "stateMutability": "view",
      "type": "function"
    },
    {
      "inputs": [
        {
          "internalType": "string",
          "name": "_productCode",
          "type": "string"
        }
      ],
      "name": "getFarmingProcess",
      "outputs": [
        {
          "components": [
            {
              "internalType": "string",
              "name": "productCode",
              "type": "string"
            },
            {
              "internalType": "string",
              "name": "nameProcess",
              "type": "string"
            },
            {
              "internalType": "string",
              "name": "source",
              "type": "string"
            },
            {
              "internalType": "string",
              "name": "plantingDate",
              "type": "string"
            },
            {
              "internalType": "string",
              "name": "sowingDate",
              "type": "string"
            },
            {
              "internalType": "uint256",
              "name": "createdAt",
              "type": "uint256"
            }
          ],
          "internalType": "struct AgriculturalTraceabilitySystem.FarmingProcess",
          "name": "",
          "type": "tuple"
        }
      ],
      "stateMutability": "view",
      "type": "function"
    },
    {
      "inputs": [
        {
          "internalType": "string",
          "name": "_userId",
          "type": "string"
        }
      ],
      "name": "getFarmsByUserId",
      "outputs": [
        {
          "components": [
            {
              "internalType": "string",
              "name": "farmCode",
              "type": "string"
            },
            {
              "internalType": "string",
              "name": "fullname",
              "type": "string"
            },
            {
              "internalType": "string",
              "name": "nameFarm",
              "type": "string"
            },
            {
              "internalType": "string",
              "name": "userId",
              "type": "string"
            },
            {
              "internalType": "string",
              "name": "email",
              "type": "string"
            },
            {
              "internalType": "string",
              "name": "phone",
              "type": "string"
            },
            {
              "internalType": "string",
              "name": "description",
              "type": "string"
            },
            {
              "internalType": "string",
              "name": "location",
              "type": "string"
            },
            {
              "internalType": "uint256",
              "name": "area",
              "type": "uint256"
            },
            {
              "internalType": "string[]",
              "name": "images",
              "type": "string[]"
            },
            {
              "internalType": "uint256",
              "name": "createdAt",
              "type": "uint256"
            },
            {
              "internalType": "bool",
              "name": "isActive",
              "type": "bool"
            }
          ],
          "internalType": "struct AgriculturalTraceabilitySystem.Farm[]",
          "name": "",
          "type": "tuple[]"
        }
      ],
      "stateMutability": "view",
      "type": "function"
    },
    {
      "inputs": [
        {
          "internalType": "string",
          "name": "_productCode",
          "type": "string"
        }
      ],
      "name": "getFertilizer",
      "outputs": [
        {
          "components": [
            {
              "internalType": "string",
              "name": "productCode",
              "type": "string"
            },
            {
              "internalType": "string",
              "name": "nameFertilizer",
              "type": "string"
            },
            {
              "internalType": "string",
              "name": "quantityFertilizer",
              "type": "string"
            },
            {
              "internalType": "string",
              "name": "fertilizerDate",
              "type": "string"
            },
            {
              "internalType": "string",
              "name": "fertilizerType",
              "type": "string"
            },
            {
              "internalType": "string",
              "name": "applicationMethod",
              "type": "string"
            },
            {
              "internalType": "string",
              "name": "expectedEffect",
              "type": "string"
            },
            {
              "internalType": "uint256",
              "name": "createdAt",
              "type": "uint256"
            }
          ],
          "internalType": "struct AgriculturalTraceabilitySystem.Fertilizer",
          "name": "",
          "type": "tuple"
        }
      ],
      "stateMutability": "view",
      "type": "function"
    },
    {
      "inputs": [
        {
          "internalType": "string",
          "name": "_productCode",
          "type": "string"
        }
      ],
      "name": "getHarvest",
      "outputs": [
        {
          "components": [
            {
              "internalType": "string",
              "name": "productCode",
              "type": "string"
            },
            {
              "internalType": "string",
              "name": "harvestDate",
              "type": "string"
            },
            {
              "internalType": "string",
              "name": "estimatedQuantity",
              "type": "string"
            },
            {
              "internalType": "string",
              "name": "actualQuantity",
              "type": "string"
            },
            {
              "internalType": "string",
              "name": "quality",
              "type": "string"
            },
            {
              "internalType": "string",
              "name": "harvestMethod",
              "type": "string"
            },
            {
              "internalType": "uint256",
              "name": "createdAt",
              "type": "uint256"
            }
          ],
          "internalType": "struct AgriculturalTraceabilitySystem.Harvest",
          "name": "",
          "type": "tuple"
        }
      ],
      "stateMutability": "view",
      "type": "function"
    },
    {
      "inputs": [
        {
          "internalType": "string",
          "name": "_productCode",
          "type": "string"
        }
      ],
      "name": "getMedicine",
      "outputs": [
        {
          "components": [
            {
              "internalType": "string",
              "name": "productCode",
              "type": "string"
            },
            {
              "internalType": "string",
              "name": "nameMedicine",
              "type": "string"
            },
            {
              "internalType": "string",
              "name": "quantityMedicine",
              "type": "string"
            },
            {
              "internalType": "string",
              "name": "medicineDate",
              "type": "string"
            },
            {
              "internalType": "string",
              "name": "medicineType",
              "type": "string"
            },
            {
              "internalType": "string",
              "name": "applicationMethod",
              "type": "string"
            },
            {
              "internalType": "uint256",
              "name": "createdAt",
              "type": "uint256"
            }
          ],
          "internalType": "struct AgriculturalTraceabilitySystem.Medicine",
          "name": "",
          "type": "tuple"
        }
      ],
      "stateMutability": "view",
      "type": "function"
    },
    {
      "inputs": [
        {
          "internalType": "string",
          "name": "_productCode",
          "type": "string"
        }
      ],
      "name": "getProduct",
      "outputs": [
        {
          "components": [
            {
              "internalType": "string",
              "name": "farmCode",
              "type": "string"
            },
            {
              "internalType": "string",
              "name": "productCode",
              "type": "string"
            },
            {
              "internalType": "string",
              "name": "categoryName",
              "type": "string"
            },
            {
              "internalType": "string",
              "name": "name",
              "type": "string"
            },
            {
              "internalType": "string",
              "name": "quantity",
              "type": "string"
            },
            {
              "internalType": "string",
              "name": "price",
              "type": "string"
            },
            {
              "internalType": "string",
              "name": "description",
              "type": "string"
            },
            {
              "internalType": "string",
              "name": "image",
              "type": "string"
            },
            {
              "internalType": "string",
              "name": "batchCode",
              "type": "string"
            },
            {
              "internalType": "string",
              "name": "certification",
              "type": "string"
            },
            {
              "internalType": "uint256",
              "name": "createdAt",
              "type": "uint256"
            },
            {
              "internalType": "enum AgriculturalTraceabilitySystem.ProductStatus",
              "name": "status",
              "type": "uint8"
            },
            {
              "internalType": "enum AgriculturalTraceabilitySystem.CertificationLevel",
              "name": "certificationLevel",
              "type": "uint8"
            }
          ],
          "internalType": "struct AgriculturalTraceabilitySystem.Product",
          "name": "",
          "type": "tuple"
        }
      ],
      "stateMutability": "view",
      "type": "function"
    },
    {
      "inputs": [
        {
          "internalType": "string",
          "name": "_farmCode",
          "type": "string"
        }
      ],
      "name": "getProductsByFarm",
      "outputs": [
        {
          "components": [
            {
              "internalType": "string",
              "name": "farmCode",
              "type": "string"
            },
            {
              "internalType": "string",
              "name": "productCode",
              "type": "string"
            },
            {
              "internalType": "string",
              "name": "categoryName",
              "type": "string"
            },
            {
              "internalType": "string",
              "name": "name",
              "type": "string"
            },
            {
              "internalType": "string",
              "name": "quantity",
              "type": "string"
            },
            {
              "internalType": "string",
              "name": "price",
              "type": "string"
            },
            {
              "internalType": "string",
              "name": "description",
              "type": "string"
            },
            {
              "internalType": "string",
              "name": "image",
              "type": "string"
            },
            {
              "internalType": "string",
              "name": "batchCode",
              "type": "string"
            },
            {
              "internalType": "string",
              "name": "certification",
              "type": "string"
            },
            {
              "internalType": "uint256",
              "name": "createdAt",
              "type": "uint256"
            },
            {
              "internalType": "enum AgriculturalTraceabilitySystem.ProductStatus",
              "name": "status",
              "type": "uint8"
            },
            {
              "internalType": "enum AgriculturalTraceabilitySystem.CertificationLevel",
              "name": "certificationLevel",
              "type": "uint8"
            }
          ],
          "internalType": "struct AgriculturalTraceabilitySystem.Product[]",
          "name": "",
          "type": "tuple[]"
        }
      ],
      "stateMutability": "view",
      "type": "function"
    },
    {
      "inputs": [],
      "name": "getTotalFarms",
      "outputs": [
        {
          "internalType": "uint256",
          "name": "",
          "type": "uint256"
        }
      ],
      "stateMutability": "view",
      "type": "function"
    },
    {
      "inputs": [],
      "name": "getTotalProducts",
      "outputs": [
        {
          "internalType": "uint256",
          "name": "",
          "type": "uint256"
        }
      ],
      "stateMutability": "view",
      "type": "function"
    },
    {
      "inputs": [],
      "name": "owner",
      "outputs": [
        {
          "internalType": "address",
          "name": "",
          "type": "address"
        }
      ],
      "stateMutability": "view",
      "type": "function"
    },
    {
      "inputs": [
        {
          "internalType": "address",
          "name": "",
          "type": "address"
        }
      ],
      "name": "productVerifiers",
      "outputs": [
        {
          "internalType": "bool",
          "name": "",
          "type": "bool"
        }
      ],
      "stateMutability": "view",
      "type": "function"
    },
    {
      "inputs": [
        {
          "internalType": "string",
          "name": "_farmCode",
          "type": "string"
        },
        {
          "internalType": "string",
          "name": "_fullname",
          "type": "string"
        },
        {
          "internalType": "string",
          "name": "_nameFarm",
          "type": "string"
        },
        {
          "internalType": "string",
          "name": "_userId",
          "type": "string"
        },
        {
          "internalType": "string",
          "name": "_email",
          "type": "string"
        },
        {
          "internalType": "string",
          "name": "_phone",
          "type": "string"
        },
        {
          "internalType": "string",
          "name": "_description",
          "type": "string"
        },
        {
          "internalType": "string",
          "name": "_location",
          "type": "string"
        },
        {
          "internalType": "uint256",
          "name": "_area",
          "type": "uint256"
        },
        {
          "internalType": "string[]",
          "name": "_images",
          "type": "string[]"
        }
      ],
      "name": "registerFarm",
      "outputs": [],
      "stateMutability": "nonpayable",
      "type": "function"
    },
    {
      "inputs": [
        {
          "internalType": "string",
          "name": "_farmCode",
          "type": "string"
        },
        {
          "internalType": "uint256",
          "name": "_imageIndex",
          "type": "uint256"
        }
      ],
      "name": "removeFarmImage",
      "outputs": [],
      "stateMutability": "nonpayable",
      "type": "function"
    },
    {
      "inputs": [
        {
          "internalType": "address",
          "name": "_user",
          "type": "address"
        },
        {
          "internalType": "bool",
          "name": "_isOwner",
          "type": "bool"
        }
      ],
      "name": "setFarmOwner",
      "outputs": [],
      "stateMutability": "nonpayable",
      "type": "function"
    },
    {
      "inputs": [
        {
          "internalType": "address",
          "name": "_user",
          "type": "address"
        },
        {
          "internalType": "bool",
          "name": "_isVerifier",
          "type": "bool"
        }
      ],
      "name": "setProductVerifier",
      "outputs": [],
      "stateMutability": "nonpayable",
      "type": "function"
    },
    {
      "inputs": [
        {
          "internalType": "address",
          "name": "_newAdmin",
          "type": "address"
        }
      ],
      "name": "updateAdmin",
      "outputs": [],
      "stateMutability": "nonpayable",
      "type": "function"
    },
    {
      "inputs": [
        {
          "internalType": "string",
          "name": "_productCode",
          "type": "string"
        },
        {
          "internalType": "string",
          "name": "_distributorName",
          "type": "string"
        },
        {
          "internalType": "string",
          "name": "_distributorPartner",
          "type": "string"
        },
        {
          "internalType": "string",
          "name": "_distributionDate",
          "type": "string"
        },
        {
          "internalType": "string",
          "name": "_transportMethod",
          "type": "string"
        },
        {
          "internalType": "string",
          "name": "_storageConditions",
          "type": "string"
        }
      ],
      "name": "updateDistribution",
      "outputs": [],
      "stateMutability": "nonpayable",
      "type": "function"
    },
    {
      "inputs": [
        {
          "internalType": "string",
          "name": "_farmCode",
          "type": "string"
        },
        {
          "internalType": "string",
          "name": "_nameFarm",
          "type": "string"
        },
        {
          "internalType": "string",
          "name": "_description",
          "type": "string"
        },
        {
          "internalType": "string",
          "name": "_location",
          "type": "string"
        },
        {
          "internalType": "uint256",
          "name": "_area",
          "type": "uint256"
        },
        {
          "internalType": "string[]",
          "name": "_images",
          "type": "string[]"
        }
      ],
      "name": "updateFarm",
      "outputs": [],
      "stateMutability": "nonpayable",
      "type": "function"
    },
    {
      "inputs": [
        {
          "internalType": "string",
          "name": "_productCode",
          "type": "string"
        },
        {
          "internalType": "string",
          "name": "_nameProcess",
          "type": "string"
        },
        {
          "internalType": "string",
          "name": "_source",
          "type": "string"
        },
        {
          "internalType": "string",
          "name": "_plantingDate",
          "type": "string"
        },
        {
          "internalType": "string",
          "name": "_sowingDate",
          "type": "string"
        }
      ],
      "name": "updateFarmingProcess",
      "outputs": [],
      "stateMutability": "nonpayable",
      "type": "function"
    },
    {
      "inputs": [
        {
          "internalType": "string",
          "name": "_productCode",
          "type": "string"
        },
        {
          "internalType": "string",
          "name": "_nameFertilizer",
          "type": "string"
        },
        {
          "internalType": "string",
          "name": "_quantityFertilizer",
          "type": "string"
        },
        {
          "internalType": "string",
          "name": "_fertilizerDate",
          "type": "string"
        },
        {
          "internalType": "string",
          "name": "_fertilizerType",
          "type": "string"
        },
        {
          "internalType": "string",
          "name": "_applicationMethod",
          "type": "string"
        },
        {
          "internalType": "string",
          "name": "_expectedEffect",
          "type": "string"
        }
      ],
      "name": "updateFertilizer",
      "outputs": [],
      "stateMutability": "nonpayable",
      "type": "function"
    },
    {
      "inputs": [
        {
          "internalType": "string",
          "name": "_productCode",
          "type": "string"
        },
        {
          "internalType": "string",
          "name": "_harvestDate",
          "type": "string"
        },
        {
          "internalType": "string",
          "name": "_estimatedQuantity",
          "type": "string"
        },
        {
          "internalType": "string",
          "name": "_actualQuantity",
          "type": "string"
        },
        {
          "internalType": "string",
          "name": "_quality",
          "type": "string"
        },
        {
          "internalType": "string",
          "name": "_harvestMethod",
          "type": "string"
        }
      ],
      "name": "updateHarvest",
      "outputs": [],
      "stateMutability": "nonpayable",
      "type": "function"
    },
    {
      "inputs": [
        {
          "internalType": "string",
          "name": "_productCode",
          "type": "string"
        },
        {
          "internalType": "string",
          "name": "_nameMedicine",
          "type": "string"
        },
        {
          "internalType": "string",
          "name": "_quantityMedicine",
          "type": "string"
        },
        {
          "internalType": "string",
          "name": "_medicineDate",
          "type": "string"
        },
        {
          "internalType": "string",
          "name": "_medicineType",
          "type": "string"
        },
        {
          "internalType": "string",
          "name": "_applicationMethod",
          "type": "string"
        }
      ],
      "name": "updateMedicine",
      "outputs": [],
      "stateMutability": "nonpayable",
      "type": "function"
    },
    {
      "inputs": [
        {
          "internalType": "string",
          "name": "_productCode",
          "type": "string"
        },
        {
          "internalType": "string",
          "name": "_name",
          "type": "string"
        },
        {
          "internalType": "string",
          "name": "_quantity",
          "type": "string"
        },
        {
          "internalType": "string",
          "name": "_price",
          "type": "string"
        },
        {
          "internalType": "string",
          "name": "_description",
          "type": "string"
        },
        {
          "internalType": "string",
          "name": "_image",
          "type": "string"
        },
        {
          "internalType": "string",
          "name": "_batchCode",
          "type": "string"
        },
        {
          "internalType": "string",
          "name": "_certification",
          "type": "string"
        }
      ],
      "name": "updateProduct",
      "outputs": [],
      "stateMutability": "nonpayable",
      "type": "function"
    },
    {
      "inputs": [
        {
          "internalType": "address",
          "name": "_newVerifier",
          "type": "address"
        }
      ],
      "name": "updateVerifier",
      "outputs": [],
      "stateMutability": "nonpayable",
      "type": "function"
    },
    {
      "inputs": [
        {
          "internalType": "string",
          "name": "_userId",
          "type": "string"
        }
      ],
      "name": "userExists",
      "outputs": [
        {
          "internalType": "bool",
          "name": "",
          "type": "bool"
        }
      ],
      "stateMutability": "view",
      "type": "function"
    },
    {
      "inputs": [],
      "name": "verifier",
      "outputs": [
        {
          "internalType": "address",
          "name": "",
          "type": "address"
        }
      ],
      "stateMutability": "view",
      "type": "function"
    }
  ],
  "bytecode": "0x6080604052348015600f57600080fd5b50601280546001600160a01b031990811633908117909255601380548216831790556014805490911682179055600060108190556011819055908152601560209081526040808320805460ff19908116600190811790925560168452828520805482168317905560179093529220805490911690911790556195d8806100966000396000f3fe608060405234801561001057600080fd5b506004361061025c5760003560e01c806308999bd5146102615780630a87bf53146102765780631389b62a14610289578063168fc8981461029c57806317c4c94c146102b95780631828983a146102d95780631acd172a1461030c5780631bf703b21461031f5780632152736a146103325780632b213f23146103455780632b7ac3f3146103585780632eda5a4f146103835780632f9f79891461039857806332a486d8146103ab57806342bf2696146103be5780634b87ecae146103de57806353cc92f0146103fe578063570aea8a146104115780635d30ba4a146104195780635de7f9041461042c5780635ee485b71461043f5780635f121b52146104475780635f99a6591461045a57806363bf3e951461047a57806367c2a3601461048d57806368111cce146104a057806368304a62146104c05780636eca2ccc146104d35780637281a7cd146104f357806372c9379b1461050657806376bbe0c2146105195780638343f955146105215780638388e2ba146105415780638a9d8733146105495780638da5cb5b1461055c5780639012cac11461056f57806390c634771461058257806397fc007c14610595578063a057b22a146105a8578063a3857069146105bb578063ae3cb7d4146105ce578063b377fa61146105f1578063bbfd014c14610604578063c256940d14610617578063c7c385881461063a578063cfde0ce81461064d578063de65339814610660578063e2f273bd14610673578063f851a44014610686578063f955977414610699578063fb1a931f146106a1578063fddc968e146106c6575b600080fd5b61027461026f366004617e4d565b6106d9565b005b610274610284366004617f5d565b610938565b610274610297366004617f5d565b610b69565b6102a6620f424081565b6040519081526020015b60405180910390f35b6102cc6102c7366004618044565b610cc7565b6040516102b09190618246565b6102fc6102e73660046182c7565b60156020526000908152604090205460ff1681565b60405190151581526020016102b0565b61027461031a3660046182e9565b6114fb565b61027461032d36600461832d565b61167a565b610274610340366004618394565b611836565b6102746103533660046184fb565b6119c8565b60145461036b906001600160a01b031681565b6040516001600160a01b0390911681526020016102b0565b61038b611c38565b6040516102b09190618693565b6102746103a6366004618044565b611d11565b6102746103b9366004617e4d565b611e1b565b6103d16103cc366004618044565b61205d565b6040516102b091906187be565b6103f16103ec366004618044565b6127f5565b6040516102b09190618817565b61027461040c36600461882a565b612dfb565b6011546102a6565b610274610427366004617e4d565b612e8b565b61038b61043a366004618044565b613000565b6010546102a6565b6102746104553660046182c7565b6130f7565b61046d610468366004618044565b6131bc565b6040516102b09190618913565b6102746104883660046184fb565b6135ab565b61027461049b3660046182c7565b613746565b6104b36104ae366004618044565b613803565b6040516102b09190618926565b61038b6104ce366004618044565b613ea5565b6104e66104e1366004618044565b613fe0565b6040516102b09190618a02565b610274610501366004618abb565b614462565b61046d610514366004618044565b6145d2565b6102a6600a81565b61053461052f366004618044565b61462a565b6040516102b09190618c30565b6102a6600181565b610274610557366004618c52565b614987565b60125461036b906001600160a01b031681565b61027461057d366004617e4d565b614e2f565b61046d610590366004618044565b615029565b6102746105a33660046182c7565b615081565b6102fc6105b6366004618044565b6150f3565b6102746105c936600461882a565b61511e565b6102fc6105dc3660046182c7565b60176020526000908152604090205460ff1681565b6102746105ff366004617e4d565b6151ae565b610274610612366004617e4d565b615323565b6102fc6106253660046182c7565b60166020526000908152604090205460ff1681565b610274610648366004618e5c565b615498565b61027461065b366004618044565b6159cb565b61027461066e36600461832d565b615a61565b6102746106813660046182c7565b615b10565b60135461036b906001600160a01b031681565b6103d1615b82565b6106b46106af366004618044565b6161e5565b6040516102b096959493929190618ff9565b6102fc6106d4366004618044565b617aed565b85600a816040516106ea919061907b565b9081526040519081900360200190205460ff166107225760405162461bcd60e51b815260040161071990619097565b60405180910390fd5b600086511161076c5760405162461bcd60e51b8152602060048201526016602482015275456d707479206469737472696275746f72206e616d6560501b6044820152606401610719565b60008451116107b75760405162461bcd60e51b8152602060048201526017602482015276456d70747920646973747269627574696f6e206461746560481b6044820152606401610719565b60006001886040516107c9919061907b565b908152604051908190036020019020600b015460ff1660038111156107f0576107f06180d0565b1461080d5760405162461bcd60e51b8152600401610719906190db565b6040518060e0016040528088815260200187815260200186815260200185815260200184815260200183815260200142815250600688604051610850919061907b565b9081526040519081900360200190208151819061086d908261919a565b5060208201516001820190610882908261919a565b5060408201516002820190610897908261919a565b50606082015160038201906108ac908261919a565b50608082015160048201906108c1908261919a565b5060a082015160058201906108d6908261919a565b5060c0919091015160069091015560405133906108f490899061907b565b604051908190038120428252907fbb8adab3c1a6bd291ad2e1ace5ffe3bb8e7abe64c4ca6041de89d76873c32efb906020015b60405180910390a350505050505050565b84600a81604051610949919061907b565b9081526040519081900360200190205460ff166109785760405162461bcd60e51b815260040161071990619097565b60008551116109be5760405162461bcd60e51b8152602060048201526012602482015271456d7074792070726f63657373206e616d6560701b6044820152606401610719565b6000835111610a055760405162461bcd60e51b8152602060048201526013602482015272456d70747920706c616e74696e67206461746560681b6044820152606401610719565b6000600187604051610a17919061907b565b908152604051908190036020019020600b015460ff166003811115610a3e57610a3e6180d0565b14610a5b5760405162461bcd60e51b8152600401610719906190db565b6040518060c0016040528087815260200186815260200185815260200184815260200183815260200142815250600287604051610a98919061907b565b90815260405190819003602001902081518190610ab5908261919a565b5060208201516001820190610aca908261919a565b5060408201516002820190610adf908261919a565b5060608201516003820190610af4908261919a565b5060808201516004820190610b09908261919a565b5060a091909101516005909101556040513390610b2790889061907b565b604051908190038120428252907f0736eba6422149150b0298698baba84119db0cdf3ab6ae02de485ebd2f6749959060200160405180910390a3505050505050565b84600a81604051610b7a919061907b565b9081526040519081900360200190205460ff16610ba95760405162461bcd60e51b815260040161071990619097565b6000600187604051610bbb919061907b565b908152604051908190036020019020600b015460ff166003811115610be257610be26180d0565b14610bff5760405162461bcd60e51b8152600401610719906190db565b6000600287604051610c11919061907b565b90815260200160405180910390209050600086511115610c3b5760018101610c39878261919a565b505b845115610c525760028101610c50868261919a565b505b835115610c695760038101610c67858261919a565b505b825115610c805760048101610c7e848261919a565b505b6040513390610c9090899061907b565b604051908190038120428252907f47bfd662f27898375579078d8ef1f75e72eaeb374278cfef9abebad36cbca61e90602001610927565b606081600981604051610cda919061907b565b9081526040519081900360200190205460ff16610d095760405162461bcd60e51b815260040161071990619252565b6000600884604051610d1b919061907b565b9081526020016040518091039020805480602002602001604051908101604052809291908181526020016000905b82821015610df5578382906000526020600020018054610d6890619105565b80601f0160208091040260200160405190810160405280929190818152602001828054610d9490619105565b8015610de15780601f10610db657610100808354040283529160200191610de1565b820191906000526020600020905b815481529060010190602001808311610dc457829003601f168201915b505050505081526020019060010190610d49565b505050509050600081516001600160401b03811115610e1657610e16617d6f565b604051908082528060200260200182016040528015610e4f57816020015b610e3c617b17565b815260200190600190039081610e345790505b50905060005b82518110156114f0576001838281518110610e7257610e72619289565b6020026020010151604051610e87919061907b565b9081526020016040518091039020604051806101a0016040529081600082018054610eb190619105565b80601f0160208091040260200160405190810160405280929190818152602001828054610edd90619105565b8015610f2a5780601f10610eff57610100808354040283529160200191610f2a565b820191906000526020600020905b815481529060010190602001808311610f0d57829003601f168201915b50505050508152602001600182018054610f4390619105565b80601f0160208091040260200160405190810160405280929190818152602001828054610f6f90619105565b8015610fbc5780601f10610f9157610100808354040283529160200191610fbc565b820191906000526020600020905b815481529060010190602001808311610f9f57829003601f168201915b50505050508152602001600282018054610fd590619105565b80601f016020809104026020016040519081016040528092919081815260200182805461100190619105565b801561104e5780601f106110235761010080835404028352916020019161104e565b820191906000526020600020905b81548152906001019060200180831161103157829003601f168201915b5050505050815260200160038201805461106790619105565b80601f016020809104026020016040519081016040528092919081815260200182805461109390619105565b80156110e05780601f106110b5576101008083540402835291602001916110e0565b820191906000526020600020905b8154815290600101906020018083116110c357829003601f168201915b505050505081526020016004820180546110f990619105565b80601f016020809104026020016040519081016040528092919081815260200182805461112590619105565b80156111725780601f1061114757610100808354040283529160200191611172565b820191906000526020600020905b81548152906001019060200180831161115557829003601f168201915b5050505050815260200160058201805461118b90619105565b80601f01602080910402602001604051908101604052809291908181526020018280546111b790619105565b80156112045780601f106111d957610100808354040283529160200191611204565b820191906000526020600020905b8154815290600101906020018083116111e757829003601f168201915b5050505050815260200160068201805461121d90619105565b80601f016020809104026020016040519081016040528092919081815260200182805461124990619105565b80156112965780601f1061126b57610100808354040283529160200191611296565b820191906000526020600020905b81548152906001019060200180831161127957829003601f168201915b505050505081526020016007820180546112af90619105565b80601f01602080910402602001604051908101604052809291908181526020018280546112db90619105565b80156113285780601f106112fd57610100808354040283529160200191611328565b820191906000526020600020905b81548152906001019060200180831161130b57829003601f168201915b5050505050815260200160088201805461134190619105565b80601f016020809104026020016040519081016040528092919081815260200182805461136d90619105565b80156113ba5780601f1061138f576101008083540402835291602001916113ba565b820191906000526020600020905b81548152906001019060200180831161139d57829003601f168201915b505050505081526020016009820180546113d390619105565b80601f01602080910402602001604051908101604052809291908181526020018280546113ff90619105565b801561144c5780601f106114215761010080835404028352916020019161144c565b820191906000526020600020905b81548152906001019060200180831161142f57829003601f168201915b5050509183525050600a8201546020820152600b82015460409091019060ff16600381111561147d5761147d6180d0565b600381111561148e5761148e6180d0565b8152602001600b820160019054906101000a900460ff1660048111156114b6576114b66180d0565b60048111156114c7576114c76180d0565b815250508282815181106114dd576114dd619289565b6020908102919091010152600101610e55565b509250505b50919050565b8160098160405161150c919061907b565b9081526040519081900360200190205460ff1661153b5760405162461bcd60e51b815260040161071990619252565b6000808460405161154c919061907b565b908152604051908190036020019020600b81015490915060ff166115825760405162461bcd60e51b81526004016107199061929f565b600981015483106115cb5760405162461bcd60e51b8152602060048201526013602482015272092dcecc2d8d2c840d2dac2ceca40d2dcc8caf606b1b6044820152606401610719565b825b60098201546115de906001906192dc565b81101561164257600982016115f48260016192f5565b8154811061160457611604619289565b9060005260206000200182600901828154811061162357611623619289565b9060005260206000200190816116399190619308565b506001016115cd565b5080600901805480611656576116566193cf565b6001900381819060005260206000200160006116729190617b8f565b905550505050565b60008251116116c15760405162461bcd60e51b8152602060048201526013602482015272456d7074792063617465676f7279206e616d6560681b6044820152606401610719565b60008151116117015760405162461bcd60e51b815260206004820152600c60248201526b115b5c1d1e481d5cd95c925960a21b6044820152606401610719565b600b82604051611711919061907b565b9081526040519081900360200190205460ff16611798576001600b8360405161173a919061907b565b908152604051908190036020019020805491151560ff19909216919091179055600f80546001810182556000919091527f8d1108e10bcb7c27dddfc02ed9d693a074039d026cf4ea4240b40f7d581ac80201611796838261919a565b505b600c816040516117a8919061907b565b9081526040516020918190038201902080546001810182556000918252919020016117d3838261919a565b50806040516117e2919061907b565b6040518091039020826040516117f8919061907b565b604051908190038120428252907f05e6df2257b4c845c94af93edea83e40f79ae07ff30dd36212c450b8bb84ed209060200160405180910390a35050565b87600a81604051611847919061907b565b9081526040519081900360200190205460ff166118765760405162461bcd60e51b815260040161071990619097565b600060018a604051611888919061907b565b90815260405190819003602001902090506000600b82015460ff1660038111156118b4576118b46180d0565b146118d15760405162461bcd60e51b8152600401610719906190db565b8851156118e857600381016118e68a8261919a565b505b8751156118ff57600481016118fd898261919a565b505b8651156119165760058101611914888261919a565b505b85511561192d576006810161192b878261919a565b505b8451156119445760078101611942868261919a565b505b83511561195b5760088101611959858261919a565b505b8251156119725760098101611970848261919a565b505b6040513390611982908c9061907b565b604051908190038120428252907f2da0e00d0faffbc3bc6be6965ce63783d5726604d2372778ebdb1b21f5ffab969060200160405180910390a350505050505050505050565b86600a816040516119d9919061907b565b9081526040519081900360200190205460ff16611a085760405162461bcd60e51b815260040161071990619097565b6000875111611a515760405162461bcd60e51b8152602060048201526015602482015274456d7074792066657274696c697a6572206e616d6560581b6044820152606401610719565b6000855111611a9a5760405162461bcd60e51b8152602060048201526015602482015274456d7074792066657274696c697a6572206461746560581b6044820152606401610719565b6000600189604051611aac919061907b565b908152604051908190036020019020600b015460ff166003811115611ad357611ad36180d0565b14611af05760405162461bcd60e51b8152600401610719906190db565b60405180610100016040528089815260200188815260200187815260200186815260200185815260200184815260200183815260200142815250600489604051611b3a919061907b565b90815260405190819003602001902081518190611b57908261919a565b5060208201516001820190611b6c908261919a565b5060408201516002820190611b81908261919a565b5060608201516003820190611b96908261919a565b5060808201516004820190611bab908261919a565b5060a08201516005820190611bc0908261919a565b5060c08201516006820190611bd5908261919a565b5060e091909101516007909101556040513390611bf3908a9061907b565b604051908190038120428252907fb69cb5f284000faaf902e5335b11028e9bfec54bc9dd0c35fa621cd348a5b172906020015b60405180910390a35050505050505050565b6060600f805480602002602001604051908101604052809291908181526020016000905b82821015611d08578382906000526020600020018054611c7b90619105565b80601f0160208091040260200160405190810160405280929190818152602001828054611ca790619105565b8015611cf45780601f10611cc957610100808354040283529160200191611cf4565b820191906000526020600020905b815481529060010190602001808311611cd757829003601f168201915b505050505081526020019060010190611c5c565b50505050905090565b80600a81604051611d22919061907b565b9081526040519081900360200190205460ff16611d515760405162461bcd60e51b815260040161071990619097565b6000600183604051611d63919061907b565b90815260405190819003602001902090506000600b82015460ff166003811115611d8f57611d8f6180d0565b14611dac5760405162461bcd60e51b8152600401610719906190db565b600b8101805460ff19811660011790915560405160ff90911690611dd190859061907b565b60405180910390207f9895f6cc815ac59447155d546c4c2c8c06eb356c8ad31ca291706975a99a1c3182600142604051611e0d939291906193e5565b60405180910390a250505050565b85600a81604051611e2c919061907b565b9081526040519081900360200190205460ff16611e5b5760405162461bcd60e51b815260040161071990619097565b6000865111611ea25760405162461bcd60e51b8152602060048201526013602482015272456d707479206d65646963696e65206e616d6560681b6044820152606401610719565b6000845111611ee95760405162461bcd60e51b8152602060048201526013602482015272456d707479206d65646963696e65206461746560681b6044820152606401610719565b6000600188604051611efb919061907b565b908152604051908190036020019020600b015460ff166003811115611f2257611f226180d0565b14611f3f5760405162461bcd60e51b8152600401610719906190db565b6040518060e0016040528088815260200187815260200186815260200185815260200184815260200183815260200142815250600388604051611f82919061907b565b90815260405190819003602001902081518190611f9f908261919a565b5060208201516001820190611fb4908261919a565b5060408201516002820190611fc9908261919a565b5060608201516003820190611fde908261919a565b5060808201516004820190611ff3908261919a565b5060a08201516005820190612008908261919a565b5060c09190910151600690910155604051339061202690899061907b565b604051908190038120428252907fdabc2efeadcb13e5edc13c5cb7d4abb2c8900fdc6835b9469af6e409818a303d90602001610927565b60606000600783604051612071919061907b565b9081526020016040518091039020805480602002602001604051908101604052809291908181526020016000905b8282101561214b5783829060005260206000200180546120be90619105565b80601f01602080910402602001604051908101604052809291908181526020018280546120ea90619105565b80156121375780601f1061210c57610100808354040283529160200191612137565b820191906000526020600020905b81548152906001019060200180831161211a57829003601f168201915b50505050508152602001906001019061209f565b50505050905060008151116121935760405162461bcd60e51b815260206004820152600e60248201526d155cd95c881b9bdd08199bdd5b9960921b6044820152606401610719565b600081516001600160401b038111156121ae576121ae617d6f565b6040519080825280602002602001820160405280156121e757816020015b6121d4617bcc565b8152602001906001900390816121cc5790505b50905060005b82518110156127ed57600083828151811061220a5761220a619289565b602002602001015160405161221f919061907b565b90815260200160405180910390206040518061018001604052908160008201805461224990619105565b80601f016020809104026020016040519081016040528092919081815260200182805461227590619105565b80156122c25780601f10612297576101008083540402835291602001916122c2565b820191906000526020600020905b8154815290600101906020018083116122a557829003601f168201915b505050505081526020016001820180546122db90619105565b80601f016020809104026020016040519081016040528092919081815260200182805461230790619105565b80156123545780601f1061232957610100808354040283529160200191612354565b820191906000526020600020905b81548152906001019060200180831161233757829003601f168201915b5050505050815260200160028201805461236d90619105565b80601f016020809104026020016040519081016040528092919081815260200182805461239990619105565b80156123e65780601f106123bb576101008083540402835291602001916123e6565b820191906000526020600020905b8154815290600101906020018083116123c957829003601f168201915b505050505081526020016003820180546123ff90619105565b80601f016020809104026020016040519081016040528092919081815260200182805461242b90619105565b80156124785780601f1061244d57610100808354040283529160200191612478565b820191906000526020600020905b81548152906001019060200180831161245b57829003601f168201915b5050505050815260200160048201805461249190619105565b80601f01602080910402602001604051908101604052809291908181526020018280546124bd90619105565b801561250a5780601f106124df5761010080835404028352916020019161250a565b820191906000526020600020905b8154815290600101906020018083116124ed57829003601f168201915b5050505050815260200160058201805461252390619105565b80601f016020809104026020016040519081016040528092919081815260200182805461254f90619105565b801561259c5780601f106125715761010080835404028352916020019161259c565b820191906000526020600020905b81548152906001019060200180831161257f57829003601f168201915b505050505081526020016006820180546125b590619105565b80601f01602080910402602001604051908101604052809291908181526020018280546125e190619105565b801561262e5780601f106126035761010080835404028352916020019161262e565b820191906000526020600020905b81548152906001019060200180831161261157829003601f168201915b5050505050815260200160078201805461264790619105565b80601f016020809104026020016040519081016040528092919081815260200182805461267390619105565b80156126c05780601f10612695576101008083540402835291602001916126c0565b820191906000526020600020905b8154815290600101906020018083116126a357829003601f168201915b505050505081526020016008820154815260200160098201805480602002602001604051908101604052809291908181526020016000905b828210156127a457838290600052602060002001805461271790619105565b80601f016020809104026020016040519081016040528092919081815260200182805461274390619105565b80156127905780601f1061276557610100808354040283529160200191612790565b820191906000526020600020905b81548152906001019060200180831161277357829003601f168201915b5050505050815260200190600101906126f8565b50505090825250600a8201546020820152600b9091015460ff16151560409091015282518390839081106127da576127da619289565b60209081029190910101526001016121ed565b509392505050565b6127fd617bcc565b8160098160405161280e919061907b565b9081526040519081900360200190205460ff1661283d5760405162461bcd60e51b815260040161071990619252565b60008360405161284d919061907b565b90815260200160405180910390206040518061018001604052908160008201805461287790619105565b80601f01602080910402602001604051908101604052809291908181526020018280546128a390619105565b80156128f05780601f106128c5576101008083540402835291602001916128f0565b820191906000526020600020905b8154815290600101906020018083116128d357829003601f168201915b5050505050815260200160018201805461290990619105565b80601f016020809104026020016040519081016040528092919081815260200182805461293590619105565b80156129825780601f1061295757610100808354040283529160200191612982565b820191906000526020600020905b81548152906001019060200180831161296557829003601f168201915b5050505050815260200160028201805461299b90619105565b80601f01602080910402602001604051908101604052809291908181526020018280546129c790619105565b8015612a145780601f106129e957610100808354040283529160200191612a14565b820191906000526020600020905b8154815290600101906020018083116129f757829003601f168201915b50505050508152602001600382018054612a2d90619105565b80601f0160208091040260200160405190810160405280929190818152602001828054612a5990619105565b8015612aa65780601f10612a7b57610100808354040283529160200191612aa6565b820191906000526020600020905b815481529060010190602001808311612a8957829003601f168201915b50505050508152602001600482018054612abf90619105565b80601f0160208091040260200160405190810160405280929190818152602001828054612aeb90619105565b8015612b385780601f10612b0d57610100808354040283529160200191612b38565b820191906000526020600020905b815481529060010190602001808311612b1b57829003601f168201915b50505050508152602001600582018054612b5190619105565b80601f0160208091040260200160405190810160405280929190818152602001828054612b7d90619105565b8015612bca5780601f10612b9f57610100808354040283529160200191612bca565b820191906000526020600020905b815481529060010190602001808311612bad57829003601f168201915b50505050508152602001600682018054612be390619105565b80601f0160208091040260200160405190810160405280929190818152602001828054612c0f90619105565b8015612c5c5780601f10612c3157610100808354040283529160200191612c5c565b820191906000526020600020905b815481529060010190602001808311612c3f57829003601f168201915b50505050508152602001600782018054612c7590619105565b80601f0160208091040260200160405190810160405280929190818152602001828054612ca190619105565b8015612cee5780601f10612cc357610100808354040283529160200191612cee565b820191906000526020600020905b815481529060010190602001808311612cd157829003601f168201915b505050505081526020016008820154815260200160098201805480602002602001604051908101604052809291908181526020016000905b82821015612dd2578382906000526020600020018054612d4590619105565b80601f0160208091040260200160405190810160405280929190818152602001828054612d7190619105565b8015612dbe5780601f10612d9357610100808354040283529160200191612dbe565b820191906000526020600020905b815481529060010190602001808311612da157829003601f168201915b505050505081526020019060010190612d26565b50505090825250600a8201546020820152600b9091015460ff1615156040909101529392505050565b6013546001600160a01b0316331480612e1e57506012546001600160a01b031633145b612e3a5760405162461bcd60e51b81526004016107199061940e565b6001600160a01b038216612e605760405162461bcd60e51b81526004016107199061944f565b6001600160a01b03919091166000908152601660205260409020805460ff1916911515919091179055565b85600a81604051612e9c919061907b565b9081526040519081900360200190205460ff16612ecb5760405162461bcd60e51b815260040161071990619097565b6000600188604051612edd919061907b565b908152604051908190036020019020600b015460ff166003811115612f0457612f046180d0565b14612f215760405162461bcd60e51b8152600401610719906190db565b6000600688604051612f33919061907b565b90815260200160405180910390209050600087511115612f5d5760018101612f5b888261919a565b505b855115612f745760028101612f72878261919a565b505b845115612f8b5760038101612f89868261919a565b505b835115612fa25760048101612fa0858261919a565b505b825115612fb95760058101612fb7848261919a565b505b6040513390612fc9908a9061907b565b604051908190038120428252907f8edff5fb0001b970e714a5ff212ff0cc36277e68b7bcd1c2cce936b03a8cee4a90602001611c26565b6060600c82604051613012919061907b565b9081526020016040518091039020805480602002602001604051908101604052809291908181526020016000905b828210156130ec57838290600052602060002001805461305f90619105565b80601f016020809104026020016040519081016040528092919081815260200182805461308b90619105565b80156130d85780601f106130ad576101008083540402835291602001916130d8565b820191906000526020600020905b8154815290600101906020018083116130bb57829003601f168201915b505050505081526020019060010190613040565b505050509050919050565b6013546001600160a01b031633148061311a57506012546001600160a01b031633145b6131365760405162461bcd60e51b81526004016107199061940e565b6001600160a01b03811661315c5760405162461bcd60e51b81526004016107199061944f565b6001600160a01b03811660008181526015602052604090819020805460ff19169055513391907f8cebb7ee3be71749a084ac512b95c394efb658b987c0d0a288b81e7490581cd3906131b19042815260200190565b60405180910390a350565b6131c4617c2f565b81600a816040516131d5919061907b565b9081526040519081900360200190205460ff166132045760405162461bcd60e51b815260040161071990619097565b600683604051613214919061907b565b90815260200160405180910390206040518060e001604052908160008201805461323d90619105565b80601f016020809104026020016040519081016040528092919081815260200182805461326990619105565b80156132b65780601f1061328b576101008083540402835291602001916132b6565b820191906000526020600020905b81548152906001019060200180831161329957829003601f168201915b505050505081526020016001820180546132cf90619105565b80601f01602080910402602001604051908101604052809291908181526020018280546132fb90619105565b80156133485780601f1061331d57610100808354040283529160200191613348565b820191906000526020600020905b81548152906001019060200180831161332b57829003601f168201915b5050505050815260200160028201805461336190619105565b80601f016020809104026020016040519081016040528092919081815260200182805461338d90619105565b80156133da5780601f106133af576101008083540402835291602001916133da565b820191906000526020600020905b8154815290600101906020018083116133bd57829003601f168201915b505050505081526020016003820180546133f390619105565b80601f016020809104026020016040519081016040528092919081815260200182805461341f90619105565b801561346c5780601f106134415761010080835404028352916020019161346c565b820191906000526020600020905b81548152906001019060200180831161344f57829003601f168201915b5050505050815260200160048201805461348590619105565b80601f01602080910402602001604051908101604052809291908181526020018280546134b190619105565b80156134fe5780601f106134d3576101008083540402835291602001916134fe565b820191906000526020600020905b8154815290600101906020018083116134e157829003601f168201915b5050505050815260200160058201805461351790619105565b80601f016020809104026020016040519081016040528092919081815260200182805461354390619105565b80156135905780601f1061356557610100808354040283529160200191613590565b820191906000526020600020905b81548152906001019060200180831161357357829003601f168201915b50505050508152602001600682015481525050915050919050565b86600a816040516135bc919061907b565b9081526040519081900360200190205460ff166135eb5760405162461bcd60e51b815260040161071990619097565b60006001896040516135fd919061907b565b908152604051908190036020019020600b015460ff166003811115613624576136246180d0565b146136415760405162461bcd60e51b8152600401610719906190db565b6000600489604051613653919061907b565b9081526020016040518091039020905060008851111561367d576001810161367b898261919a565b505b8651156136945760028101613692888261919a565b505b8551156136ab57600381016136a9878261919a565b505b8451156136c257600481016136c0868261919a565b505b8351156136d957600581016136d7858261919a565b505b8251156136f057600681016136ee848261919a565b505b6040513390613700908b9061907b565b604051908190038120428252907f305c732a44389b3cee22630c751c352b9ae9f439c350c06eefb41abed4adcc53906020015b60405180910390a3505050505050505050565b6013546001600160a01b031633148061376957506012546001600160a01b031633145b6137855760405162461bcd60e51b81526004016107199061940e565b6001600160a01b0381166137ab5760405162461bcd60e51b81526004016107199061944f565b6001600160a01b03811660008181526015602052604090819020805460ff19166001179055513391907fcf30c65174bfa0467d5e66fcccc313feffbe8d52a2eacc0c9f3bbb6431fd8224906131b19042815260200190565b61380b617b17565b81600a8160405161381c919061907b565b9081526040519081900360200190205460ff1661384b5760405162461bcd60e51b815260040161071990619097565b60018360405161385b919061907b565b9081526020016040518091039020604051806101a001604052908160008201805461388590619105565b80601f01602080910402602001604051908101604052809291908181526020018280546138b190619105565b80156138fe5780601f106138d3576101008083540402835291602001916138fe565b820191906000526020600020905b8154815290600101906020018083116138e157829003601f168201915b5050505050815260200160018201805461391790619105565b80601f016020809104026020016040519081016040528092919081815260200182805461394390619105565b80156139905780601f1061396557610100808354040283529160200191613990565b820191906000526020600020905b81548152906001019060200180831161397357829003601f168201915b505050505081526020016002820180546139a990619105565b80601f01602080910402602001604051908101604052809291908181526020018280546139d590619105565b8015613a225780601f106139f757610100808354040283529160200191613a22565b820191906000526020600020905b815481529060010190602001808311613a0557829003601f168201915b50505050508152602001600382018054613a3b90619105565b80601f0160208091040260200160405190810160405280929190818152602001828054613a6790619105565b8015613ab45780601f10613a8957610100808354040283529160200191613ab4565b820191906000526020600020905b815481529060010190602001808311613a9757829003601f168201915b50505050508152602001600482018054613acd90619105565b80601f0160208091040260200160405190810160405280929190818152602001828054613af990619105565b8015613b465780601f10613b1b57610100808354040283529160200191613b46565b820191906000526020600020905b815481529060010190602001808311613b2957829003601f168201915b50505050508152602001600582018054613b5f90619105565b80601f0160208091040260200160405190810160405280929190818152602001828054613b8b90619105565b8015613bd85780601f10613bad57610100808354040283529160200191613bd8565b820191906000526020600020905b815481529060010190602001808311613bbb57829003601f168201915b50505050508152602001600682018054613bf190619105565b80601f0160208091040260200160405190810160405280929190818152602001828054613c1d90619105565b8015613c6a5780601f10613c3f57610100808354040283529160200191613c6a565b820191906000526020600020905b815481529060010190602001808311613c4d57829003601f168201915b50505050508152602001600782018054613c8390619105565b80601f0160208091040260200160405190810160405280929190818152602001828054613caf90619105565b8015613cfc5780601f10613cd157610100808354040283529160200191613cfc565b820191906000526020600020905b815481529060010190602001808311613cdf57829003601f168201915b50505050508152602001600882018054613d1590619105565b80601f0160208091040260200160405190810160405280929190818152602001828054613d4190619105565b8015613d8e5780601f10613d6357610100808354040283529160200191613d8e565b820191906000526020600020905b815481529060010190602001808311613d7157829003601f168201915b50505050508152602001600982018054613da790619105565b80601f0160208091040260200160405190810160405280929190818152602001828054613dd390619105565b8015613e205780601f10613df557610100808354040283529160200191613e20565b820191906000526020600020905b815481529060010190602001808311613e0357829003601f168201915b5050509183525050600a8201546020820152600b82015460409091019060ff166003811115613e5157613e516180d0565b6003811115613e6257613e626180d0565b8152602001600b820160019054906101000a900460ff166004811115613e8a57613e8a6180d0565b6004811115613e9b57613e9b6180d0565b9052509392505050565b606081600981604051613eb8919061907b565b9081526040519081900360200190205460ff16613ee75760405162461bcd60e51b815260040161071990619252565b600083604051613ef7919061907b565b9081526020016040518091039020600901805480602002602001604051908101604052809291908181526020016000905b82821015613fd4578382906000526020600020018054613f4790619105565b80601f0160208091040260200160405190810160405280929190818152602001828054613f7390619105565b8015613fc05780601f10613f9557610100808354040283529160200191613fc0565b820191906000526020600020905b815481529060010190602001808311613fa357829003601f168201915b505050505081526020019060010190613f28565b50505050915050919050565b613fe8617c6c565b81600a81604051613ff9919061907b565b9081526040519081900360200190205460ff166140285760405162461bcd60e51b815260040161071990619097565b600483604051614038919061907b565b90815260200160405180910390206040518061010001604052908160008201805461406290619105565b80601f016020809104026020016040519081016040528092919081815260200182805461408e90619105565b80156140db5780601f106140b0576101008083540402835291602001916140db565b820191906000526020600020905b8154815290600101906020018083116140be57829003601f168201915b505050505081526020016001820180546140f490619105565b80601f016020809104026020016040519081016040528092919081815260200182805461412090619105565b801561416d5780601f106141425761010080835404028352916020019161416d565b820191906000526020600020905b81548152906001019060200180831161415057829003601f168201915b5050505050815260200160028201805461418690619105565b80601f01602080910402602001604051908101604052809291908181526020018280546141b290619105565b80156141ff5780601f106141d4576101008083540402835291602001916141ff565b820191906000526020600020905b8154815290600101906020018083116141e257829003601f168201915b5050505050815260200160038201805461421890619105565b80601f016020809104026020016040519081016040528092919081815260200182805461424490619105565b80156142915780601f1061426657610100808354040283529160200191614291565b820191906000526020600020905b81548152906001019060200180831161427457829003601f168201915b505050505081526020016004820180546142aa90619105565b80601f01602080910402602001604051908101604052809291908181526020018280546142d690619105565b80156143235780601f106142f857610100808354040283529160200191614323565b820191906000526020600020905b81548152906001019060200180831161430657829003601f168201915b5050505050815260200160058201805461433c90619105565b80601f016020809104026020016040519081016040528092919081815260200182805461436890619105565b80156143b55780601f1061438a576101008083540402835291602001916143b5565b820191906000526020600020905b81548152906001019060200180831161439857829003601f168201915b505050505081526020016006820180546143ce90619105565b80601f01602080910402602001604051908101604052809291908181526020018280546143fa90619105565b80156144475780601f1061441c57610100808354040283529160200191614447565b820191906000526020600020905b81548152906001019060200180831161442a57829003601f168201915b50505050508152602001600782015481525050915050919050565b85600981604051614473919061907b565b9081526040519081900360200190205460ff166144a25760405162461bcd60e51b815260040161071990619252565b82600181101580156144b75750620f42408111155b6144d35760405162461bcd60e51b815260040161071990619486565b600080896040516144e4919061907b565b908152604051908190036020019020600b81015490915060ff1661451a5760405162461bcd60e51b81526004016107199061929f565b875115614531576002810161452f898261919a565b505b8651156145485760068101614546888261919a565b505b85511561455f576007810161455d878261919a565b505b841561456d57600881018590555b83511561458b5783516145899060098301906020870190617cb1565b505b604051339061459b908b9061907b565b604051908190038120428252907f7908f4a28dd6c5a9aeb08c489560be79c59288098b557df57513830b3246151990602001613733565b6145da617c2f565b81600a816040516145eb919061907b565b9081526040519081900360200190205460ff1661461a5760405162461bcd60e51b815260040161071990619097565b600583604051613214919061907b565b614632617d07565b81600a81604051614643919061907b565b9081526040519081900360200190205460ff166146725760405162461bcd60e51b815260040161071990619097565b600283604051614682919061907b565b90815260200160405180910390206040518060c00160405290816000820180546146ab90619105565b80601f01602080910402602001604051908101604052809291908181526020018280546146d790619105565b80156147245780601f106146f957610100808354040283529160200191614724565b820191906000526020600020905b81548152906001019060200180831161470757829003601f168201915b5050505050815260200160018201805461473d90619105565b80601f016020809104026020016040519081016040528092919081815260200182805461476990619105565b80156147b65780601f1061478b576101008083540402835291602001916147b6565b820191906000526020600020905b81548152906001019060200180831161479957829003601f168201915b505050505081526020016002820180546147cf90619105565b80601f01602080910402602001604051908101604052809291908181526020018280546147fb90619105565b80156148485780601f1061481d57610100808354040283529160200191614848565b820191906000526020600020905b81548152906001019060200180831161482b57829003601f168201915b5050505050815260200160038201805461486190619105565b80601f016020809104026020016040519081016040528092919081815260200182805461488d90619105565b80156148da5780601f106148af576101008083540402835291602001916148da565b820191906000526020600020905b8154815290600101906020018083116148bd57829003601f168201915b505050505081526020016004820180546148f390619105565b80601f016020809104026020016040519081016040528092919081815260200182805461491f90619105565b801561496c5780601f106149415761010080835404028352916020019161496c565b820191906000526020600020905b81548152906001019060200180831161494f57829003601f168201915b50505050508152602001600582015481525050915050919050565b6000816020015151116149d05760405162461bcd60e51b8152602060048201526011602482015270456d7074792070726f64756374436f646560781b6044820152606401610719565b600081606001515111614a125760405162461bcd60e51b815260206004820152600a602482015269456d707479206e616d6560b01b6044820152606401610719565b600a8160200151604051614a26919061907b565b9081526040519081900360200190205460ff1615614a775760405162461bcd60e51b815260206004820152600e60248201526d50726f647563742065786973747360901b6044820152606401610719565b8051604051600991614a889161907b565b9081526040519081900360200190205460ff16614ad85760405162461bcd60e51b815260206004820152600e60248201526d11985c9b481b9bdd08199bdd5b9960921b6044820152606401610719565b8051604051600891614ae99161907b565b9081526040516020918190038201902082820151815460018101835560009283529290912090910190614b1c908261919a565b506020810151600e80546001810182556000919091527fbb7b4a454dc3493923482f07822329ed19e8244eff582cc204f8554c3620c3fd0190614b5f908261919a565b506001600a8260200151604051614b76919061907b565b908152604051908190036020019020805491151560ff1990921691909117905560118054906000614ba6836194b8565b9190505550604051806101a0016040528082600001518152602001826020015181526020018260400151815260200182606001518152602001826080015181526020018260a0015181526020018260c0015181526020018260e0015181526020018261010001518152602001826101200151815260200142815260200160006003811115614c3657614c366180d0565b81526020018261014001516004811115614c5257614c526180d0565b90526020820151604051600191614c689161907b565b90815260405190819003602001902081518190614c85908261919a565b5060208201516001820190614c9a908261919a565b5060408201516002820190614caf908261919a565b5060608201516003820190614cc4908261919a565b5060808201516004820190614cd9908261919a565b5060a08201516005820190614cee908261919a565b5060c08201516006820190614d03908261919a565b5060e08201516007820190614d18908261919a565b506101008201516008820190614d2e908261919a565b506101208201516009820190614d44908261919a565b50610140820151600a820155610160820151600b8201805460ff19166001836003811115614d7457614d746180d0565b0217905550610180820151600b8201805461ff001916610100836004811115614d9f57614d9f6180d0565b02179055509050508060400151604051614db9919061907b565b60405180910390208160200151604051614dd3919061907b565b60405190819003812083519091614dea919061907b565b60405180910390207f5a5521c478d56e992f7de0ce91468be033673a45127af6e98e5d3f54f495cc69600042604051614e249291906194d1565b60405180910390a450565b85600a81604051614e40919061907b565b9081526040519081900360200190205460ff16614e6f5760405162461bcd60e51b815260040161071990619097565b6000865111614eb55760405162461bcd60e51b8152602060048201526012602482015271456d7074792068617276657374206461746560701b6044820152606401610719565b6000600188604051614ec7919061907b565b908152604051908190036020019020600b015460ff166003811115614eee57614eee6180d0565b14614f0b5760405162461bcd60e51b8152600401610719906190db565b6040518060e0016040528088815260200187815260200186815260200185815260200184815260200183815260200142815250600588604051614f4e919061907b565b90815260405190819003602001902081518190614f6b908261919a565b5060208201516001820190614f80908261919a565b5060408201516002820190614f95908261919a565b5060608201516003820190614faa908261919a565b5060808201516004820190614fbf908261919a565b5060a08201516005820190614fd4908261919a565b5060c091909101516006909101556040513390614ff290899061907b565b604051908190038120428252907fb7acef2065ad5c1aad123c6c17dce6a2a935464b3892d793d527e2c8bed4bea190602001610927565b615031617c2f565b81600a81604051615042919061907b565b9081526040519081900360200190205460ff166150715760405162461bcd60e51b815260040161071990619097565b600383604051613214919061907b565b6012546001600160a01b031633146150ab5760405162461bcd60e51b8152600401610719906194ec565b6001600160a01b0381166150d15760405162461bcd60e51b81526004016107199061944f565b601480546001600160a01b0319166001600160a01b0392909216919091179055565b6000600b82604051615105919061907b565b9081526040519081900360200190205460ff1692915050565b6013546001600160a01b031633148061514157506012546001600160a01b031633145b61515d5760405162461bcd60e51b81526004016107199061940e565b6001600160a01b0382166151835760405162461bcd60e51b81526004016107199061944f565b6001600160a01b03919091166000908152601760205260409020805460ff1916911515919091179055565b85600a816040516151bf919061907b565b9081526040519081900360200190205460ff166151ee5760405162461bcd60e51b815260040161071990619097565b6000600188604051615200919061907b565b908152604051908190036020019020600b015460ff166003811115615227576152276180d0565b146152445760405162461bcd60e51b8152600401610719906190db565b6000600588604051615256919061907b565b90815260200160405180910390209050600087511115615280576001810161527e888261919a565b505b8551156152975760028101615295878261919a565b505b8451156152ae57600381016152ac868261919a565b505b8351156152c557600481016152c3858261919a565b505b8251156152dc57600581016152da848261919a565b505b60405133906152ec908a9061907b565b604051908190038120428252907fbccb8f97b9186074ffe5006945f32fe9cfd0f4767308d7fa16d031f9eede68cb90602001611c26565b85600a81604051615334919061907b565b9081526040519081900360200190205460ff166153635760405162461bcd60e51b815260040161071990619097565b6000600188604051615375919061907b565b908152604051908190036020019020600b015460ff16600381111561539c5761539c6180d0565b146153b95760405162461bcd60e51b8152600401610719906190db565b60006003886040516153cb919061907b565b908152602001604051809103902090506000875111156153f557600181016153f3888261919a565b505b85511561540c576002810161540a878261919a565b505b8451156154235760038101615421868261919a565b505b83511561543a5760048101615438858261919a565b505b825115615451576005810161544f848261919a565b505b6040513390615461908a9061907b565b604051908190038120428252907f05e2de4424f41fca1bd37b1d63212448cb99db7eba4e8a70ddf62819e6421deb90602001611c26565b3360009081526015602052604090205460ff16806154c057506012546001600160a01b031633145b61550c5760405162461bcd60e51b815260206004820152601d60248201527f416363657373436f6e74726f6c3a204e6f7420617574686f72697a65640000006044820152606401610719565b81600181101580156155215750620f42408111155b61553d5760405162461bcd60e51b815260040161071990619486565b8151600a81111561558e5760405162461bcd60e51b815260206004820152601b60248201527a56616c69646174696f6e3a20546f6f206d616e7920696d6167657360281b6044820152606401610719565b60008c51116155dc5760405162461bcd60e51b815260206004820152601a60248201527956616c69646174696f6e3a20456d707479206661726d436f646560301b6044820152606401610719565b60008b511161562a5760405162461bcd60e51b815260206004820152601a60248201527956616c69646174696f6e3a20456d7074792066756c6c6e616d6560301b6044820152606401610719565b60008a51116156785760405162461bcd60e51b815260206004820152601a60248201527956616c69646174696f6e3a20456d707479206e616d654661726d60301b6044820152606401610719565b60008951116156c45760405162461bcd60e51b815260206004820152601860248201527715985b1a59185d1a5bdb8e88115b5c1d1e481d5cd95c925960421b6044820152606401610719565b60098c6040516156d4919061907b565b9081526040519081900360200190205460ff16156157345760405162461bcd60e51b815260206004820152601f60248201527f56616c69646174696f6e3a204661726d20616c726561647920657869737473006044820152606401610719565b600789604051615744919061907b565b90815260405160209181900382019020805460018101825560009182529190200161576f8d8261919a565b50600d80546001810182556000919091527fd7b6990105719101dabeb77144f2a3385c8033acd3af97e9423a695e81ad1eb5016157ac8d8261919a565b50600160098d6040516157bf919061907b565b908152604051908190036020019020805491151560ff19909216919091179055601080549060006157ef836194b8565b91905055506040518061018001604052808d81526020018c81526020018b81526020018a81526020018981526020018881526020018781526020018681526020018581526020018481526020014281526020016001151581525060008d604051615859919061907b565b90815260405190819003602001902081518190615876908261919a565b506020820151600182019061588b908261919a565b50604082015160028201906158a0908261919a565b50606082015160038201906158b5908261919a565b50608082015160048201906158ca908261919a565b5060a082015160058201906158df908261919a565b5060c082015160068201906158f4908261919a565b5060e08201516007820190615909908261919a565b5061010082015160088201556101208201518051615931916009840191602090910190617cb1565b50610140820151600a82015561016090910151600b909101805460ff19169115159190911790556040513390615968908b9061907b565b60405180910390208d60405161597e919061907b565b60408051918290038220888352426020840152917f94a1b71779fa0fac5c0048e5d6894687d9bcf5ad5669aa2ee9c8dec5f49884e3910160405180910390a4505050505050505050505050565b806009816040516159dc919061907b565b9081526040519081900360200190205460ff16615a0b5760405162461bcd60e51b815260040161071990619252565b60008083604051615a1c919061907b565b908152604051908190036020019020600b81015490915060ff16615a525760405162461bcd60e51b81526004016107199061929f565b600b01805460ff191690555050565b81600981604051615a72919061907b565b9081526040519081900360200190205460ff16615aa15760405162461bcd60e51b815260040161071990619252565b60008084604051615ab2919061907b565b908152604051908190036020019020600b81015490915060ff16615ae85760405162461bcd60e51b81526004016107199061929f565b6009810180546001810182556000918252602090912001615b09848261919a565b5050505050565b6012546001600160a01b03163314615b3a5760405162461bcd60e51b8152600401610719906194ec565b6001600160a01b038116615b605760405162461bcd60e51b81526004016107199061944f565b601380546001600160a01b0319166001600160a01b0392909216919091179055565b600d546060906000906001600160401b03811115615ba257615ba2617d6f565b604051908082528060200260200182016040528015615bdb57816020015b615bc8617bcc565b815260200190600190039081615bc05790505b50905060005b600d548110156114f5576000600d8281548110615c0057615c00619289565b90600052602060002001604051615c17919061952d565b908152602001604051809103902060405180610180016040529081600082018054615c4190619105565b80601f0160208091040260200160405190810160405280929190818152602001828054615c6d90619105565b8015615cba5780601f10615c8f57610100808354040283529160200191615cba565b820191906000526020600020905b815481529060010190602001808311615c9d57829003601f168201915b50505050508152602001600182018054615cd390619105565b80601f0160208091040260200160405190810160405280929190818152602001828054615cff90619105565b8015615d4c5780601f10615d2157610100808354040283529160200191615d4c565b820191906000526020600020905b815481529060010190602001808311615d2f57829003601f168201915b50505050508152602001600282018054615d6590619105565b80601f0160208091040260200160405190810160405280929190818152602001828054615d9190619105565b8015615dde5780601f10615db357610100808354040283529160200191615dde565b820191906000526020600020905b815481529060010190602001808311615dc157829003601f168201915b50505050508152602001600382018054615df790619105565b80601f0160208091040260200160405190810160405280929190818152602001828054615e2390619105565b8015615e705780601f10615e4557610100808354040283529160200191615e70565b820191906000526020600020905b815481529060010190602001808311615e5357829003601f168201915b50505050508152602001600482018054615e8990619105565b80601f0160208091040260200160405190810160405280929190818152602001828054615eb590619105565b8015615f025780601f10615ed757610100808354040283529160200191615f02565b820191906000526020600020905b815481529060010190602001808311615ee557829003601f168201915b50505050508152602001600582018054615f1b90619105565b80601f0160208091040260200160405190810160405280929190818152602001828054615f4790619105565b8015615f945780601f10615f6957610100808354040283529160200191615f94565b820191906000526020600020905b815481529060010190602001808311615f7757829003601f168201915b50505050508152602001600682018054615fad90619105565b80601f0160208091040260200160405190810160405280929190818152602001828054615fd990619105565b80156160265780601f10615ffb57610100808354040283529160200191616026565b820191906000526020600020905b81548152906001019060200180831161600957829003601f168201915b5050505050815260200160078201805461603f90619105565b80601f016020809104026020016040519081016040528092919081815260200182805461606b90619105565b80156160b85780601f1061608d576101008083540402835291602001916160b8565b820191906000526020600020905b81548152906001019060200180831161609b57829003601f168201915b505050505081526020016008820154815260200160098201805480602002602001604051908101604052809291908181526020016000905b8282101561619c57838290600052602060002001805461610f90619105565b80601f016020809104026020016040519081016040528092919081815260200182805461613b90619105565b80156161885780601f1061615d57610100808354040283529160200191616188565b820191906000526020600020905b81548152906001019060200180831161616b57829003601f168201915b5050505050815260200190600101906160f0565b50505090825250600a8201546020820152600b9091015460ff16151560409091015282518390839081106161d2576161d2619289565b6020908102919091010152600101615be1565b6161ed617b17565b6161f5617d07565b6161fd617c2f565b616205617c6c565b61620d617c2f565b616215617c2f565b86600a81604051616226919061907b565b9081526040519081900360200190205460ff166162555760405162461bcd60e51b815260040161071990619097565b600188604051616265919061907b565b9081526020016040518091039020600289604051616283919061907b565b908152602001604051809103902060038a6040516162a1919061907b565b908152602001604051809103902060048b6040516162bf919061907b565b908152602001604051809103902060058c6040516162dd919061907b565b908152602001604051809103902060068d6040516162fb919061907b565b908152602001604051809103902085604051806101a001604052908160008201805461632690619105565b80601f016020809104026020016040519081016040528092919081815260200182805461635290619105565b801561639f5780601f106163745761010080835404028352916020019161639f565b820191906000526020600020905b81548152906001019060200180831161638257829003601f168201915b505050505081526020016001820180546163b890619105565b80601f01602080910402602001604051908101604052809291908181526020018280546163e490619105565b80156164315780601f1061640657610100808354040283529160200191616431565b820191906000526020600020905b81548152906001019060200180831161641457829003601f168201915b5050505050815260200160028201805461644a90619105565b80601f016020809104026020016040519081016040528092919081815260200182805461647690619105565b80156164c35780601f10616498576101008083540402835291602001916164c3565b820191906000526020600020905b8154815290600101906020018083116164a657829003601f168201915b505050505081526020016003820180546164dc90619105565b80601f016020809104026020016040519081016040528092919081815260200182805461650890619105565b80156165555780601f1061652a57610100808354040283529160200191616555565b820191906000526020600020905b81548152906001019060200180831161653857829003601f168201915b5050505050815260200160048201805461656e90619105565b80601f016020809104026020016040519081016040528092919081815260200182805461659a90619105565b80156165e75780601f106165bc576101008083540402835291602001916165e7565b820191906000526020600020905b8154815290600101906020018083116165ca57829003601f168201915b5050505050815260200160058201805461660090619105565b80601f016020809104026020016040519081016040528092919081815260200182805461662c90619105565b80156166795780601f1061664e57610100808354040283529160200191616679565b820191906000526020600020905b81548152906001019060200180831161665c57829003601f168201915b5050505050815260200160068201805461669290619105565b80601f01602080910402602001604051908101604052809291908181526020018280546166be90619105565b801561670b5780601f106166e05761010080835404028352916020019161670b565b820191906000526020600020905b8154815290600101906020018083116166ee57829003601f168201915b5050505050815260200160078201805461672490619105565b80601f016020809104026020016040519081016040528092919081815260200182805461675090619105565b801561679d5780601f106167725761010080835404028352916020019161679d565b820191906000526020600020905b81548152906001019060200180831161678057829003601f168201915b505050505081526020016008820180546167b690619105565b80601f01602080910402602001604051908101604052809291908181526020018280546167e290619105565b801561682f5780601f106168045761010080835404028352916020019161682f565b820191906000526020600020905b81548152906001019060200180831161681257829003601f168201915b5050505050815260200160098201805461684890619105565b80601f016020809104026020016040519081016040528092919081815260200182805461687490619105565b80156168c15780601f10616896576101008083540402835291602001916168c1565b820191906000526020600020905b8154815290600101906020018083116168a457829003601f168201915b5050509183525050600a8201546020820152600b82015460409091019060ff1660038111156168f2576168f26180d0565b6003811115616903576169036180d0565b8152602001600b820160019054906101000a900460ff16600481111561692b5761692b6180d0565b600481111561693c5761693c6180d0565b815250509550846040518060c001604052908160008201805461695e90619105565b80601f016020809104026020016040519081016040528092919081815260200182805461698a90619105565b80156169d75780601f106169ac576101008083540402835291602001916169d7565b820191906000526020600020905b8154815290600101906020018083116169ba57829003601f168201915b505050505081526020016001820180546169f090619105565b80601f0160208091040260200160405190810160405280929190818152602001828054616a1c90619105565b8015616a695780601f10616a3e57610100808354040283529160200191616a69565b820191906000526020600020905b815481529060010190602001808311616a4c57829003601f168201915b50505050508152602001600282018054616a8290619105565b80601f0160208091040260200160405190810160405280929190818152602001828054616aae90619105565b8015616afb5780601f10616ad057610100808354040283529160200191616afb565b820191906000526020600020905b815481529060010190602001808311616ade57829003601f168201915b50505050508152602001600382018054616b1490619105565b80601f0160208091040260200160405190810160405280929190818152602001828054616b4090619105565b8015616b8d5780601f10616b6257610100808354040283529160200191616b8d565b820191906000526020600020905b815481529060010190602001808311616b7057829003601f168201915b50505050508152602001600482018054616ba690619105565b80601f0160208091040260200160405190810160405280929190818152602001828054616bd290619105565b8015616c1f5780601f10616bf457610100808354040283529160200191616c1f565b820191906000526020600020905b815481529060010190602001808311616c0257829003601f168201915b505050505081526020016005820154815250509450836040518060e0016040529081600082018054616c5090619105565b80601f0160208091040260200160405190810160405280929190818152602001828054616c7c90619105565b8015616cc95780601f10616c9e57610100808354040283529160200191616cc9565b820191906000526020600020905b815481529060010190602001808311616cac57829003601f168201915b50505050508152602001600182018054616ce290619105565b80601f0160208091040260200160405190810160405280929190818152602001828054616d0e90619105565b8015616d5b5780601f10616d3057610100808354040283529160200191616d5b565b820191906000526020600020905b815481529060010190602001808311616d3e57829003601f168201915b50505050508152602001600282018054616d7490619105565b80601f0160208091040260200160405190810160405280929190818152602001828054616da090619105565b8015616ded5780601f10616dc257610100808354040283529160200191616ded565b820191906000526020600020905b815481529060010190602001808311616dd057829003601f168201915b50505050508152602001600382018054616e0690619105565b80601f0160208091040260200160405190810160405280929190818152602001828054616e3290619105565b8015616e7f5780601f10616e5457610100808354040283529160200191616e7f565b820191906000526020600020905b815481529060010190602001808311616e6257829003601f168201915b50505050508152602001600482018054616e9890619105565b80601f0160208091040260200160405190810160405280929190818152602001828054616ec490619105565b8015616f115780601f10616ee657610100808354040283529160200191616f11565b820191906000526020600020905b815481529060010190602001808311616ef457829003601f168201915b50505050508152602001600582018054616f2a90619105565b80601f0160208091040260200160405190810160405280929190818152602001828054616f5690619105565b8015616fa35780601f10616f7857610100808354040283529160200191616fa3565b820191906000526020600020905b815481529060010190602001808311616f8657829003601f168201915b5050505050815260200160068201548152505093508260405180610100016040529081600082018054616fd590619105565b80601f016020809104026020016040519081016040528092919081815260200182805461700190619105565b801561704e5780601f106170235761010080835404028352916020019161704e565b820191906000526020600020905b81548152906001019060200180831161703157829003601f168201915b5050505050815260200160018201805461706790619105565b80601f016020809104026020016040519081016040528092919081815260200182805461709390619105565b80156170e05780601f106170b5576101008083540402835291602001916170e0565b820191906000526020600020905b8154815290600101906020018083116170c357829003601f168201915b505050505081526020016002820180546170f990619105565b80601f016020809104026020016040519081016040528092919081815260200182805461712590619105565b80156171725780601f1061714757610100808354040283529160200191617172565b820191906000526020600020905b81548152906001019060200180831161715557829003601f168201915b5050505050815260200160038201805461718b90619105565b80601f01602080910402602001604051908101604052809291908181526020018280546171b790619105565b80156172045780601f106171d957610100808354040283529160200191617204565b820191906000526020600020905b8154815290600101906020018083116171e757829003601f168201915b5050505050815260200160048201805461721d90619105565b80601f016020809104026020016040519081016040528092919081815260200182805461724990619105565b80156172965780601f1061726b57610100808354040283529160200191617296565b820191906000526020600020905b81548152906001019060200180831161727957829003601f168201915b505050505081526020016005820180546172af90619105565b80601f01602080910402602001604051908101604052809291908181526020018280546172db90619105565b80156173285780601f106172fd57610100808354040283529160200191617328565b820191906000526020600020905b81548152906001019060200180831161730b57829003601f168201915b5050505050815260200160068201805461734190619105565b80601f016020809104026020016040519081016040528092919081815260200182805461736d90619105565b80156173ba5780601f1061738f576101008083540402835291602001916173ba565b820191906000526020600020905b81548152906001019060200180831161739d57829003601f168201915b505050505081526020016007820154815250509250816040518060e00160405290816000820180546173eb90619105565b80601f016020809104026020016040519081016040528092919081815260200182805461741790619105565b80156174645780601f1061743957610100808354040283529160200191617464565b820191906000526020600020905b81548152906001019060200180831161744757829003601f168201915b5050505050815260200160018201805461747d90619105565b80601f01602080910402602001604051908101604052809291908181526020018280546174a990619105565b80156174f65780601f106174cb576101008083540402835291602001916174f6565b820191906000526020600020905b8154815290600101906020018083116174d957829003601f168201915b5050505050815260200160028201805461750f90619105565b80601f016020809104026020016040519081016040528092919081815260200182805461753b90619105565b80156175885780601f1061755d57610100808354040283529160200191617588565b820191906000526020600020905b81548152906001019060200180831161756b57829003601f168201915b505050505081526020016003820180546175a190619105565b80601f01602080910402602001604051908101604052809291908181526020018280546175cd90619105565b801561761a5780601f106175ef5761010080835404028352916020019161761a565b820191906000526020600020905b8154815290600101906020018083116175fd57829003601f168201915b5050505050815260200160048201805461763390619105565b80601f016020809104026020016040519081016040528092919081815260200182805461765f90619105565b80156176ac5780601f10617681576101008083540402835291602001916176ac565b820191906000526020600020905b81548152906001019060200180831161768f57829003601f168201915b505050505081526020016005820180546176c590619105565b80601f01602080910402602001604051908101604052809291908181526020018280546176f190619105565b801561773e5780601f106177135761010080835404028352916020019161773e565b820191906000526020600020905b81548152906001019060200180831161772157829003601f168201915b505050505081526020016006820154815250509150806040518060e001604052908160008201805461776f90619105565b80601f016020809104026020016040519081016040528092919081815260200182805461779b90619105565b80156177e85780601f106177bd576101008083540402835291602001916177e8565b820191906000526020600020905b8154815290600101906020018083116177cb57829003601f168201915b5050505050815260200160018201805461780190619105565b80601f016020809104026020016040519081016040528092919081815260200182805461782d90619105565b801561787a5780601f1061784f5761010080835404028352916020019161787a565b820191906000526020600020905b81548152906001019060200180831161785d57829003601f168201915b5050505050815260200160028201805461789390619105565b80601f01602080910402602001604051908101604052809291908181526020018280546178bf90619105565b801561790c5780601f106178e15761010080835404028352916020019161790c565b820191906000526020600020905b8154815290600101906020018083116178ef57829003601f168201915b5050505050815260200160038201805461792590619105565b80601f016020809104026020016040519081016040528092919081815260200182805461795190619105565b801561799e5780601f106179735761010080835404028352916020019161799e565b820191906000526020600020905b81548152906001019060200180831161798157829003601f168201915b505050505081526020016004820180546179b790619105565b80601f01602080910402602001604051908101604052809291908181526020018280546179e390619105565b8015617a305780601f10617a0557610100808354040283529160200191617a30565b820191906000526020600020905b815481529060010190602001808311617a1357829003601f168201915b50505050508152602001600582018054617a4990619105565b80601f0160208091040260200160405190810160405280929190818152602001828054617a7590619105565b8015617ac25780601f10617a9757610100808354040283529160200191617ac2565b820191906000526020600020905b815481529060010190602001808311617aa557829003601f168201915b5050505050815260200160068201548152505090509650965096509650965096505091939550919395565b600080600783604051617b00919061907b565b908152604051908190036020019020541192915050565b604051806101a00160405280606081526020016060815260200160608152602001606081526020016060815260200160608152602001606081526020016060815260200160608152602001606081526020016000815260200160006003811115617b8357617b836180d0565b81526020016000905290565b508054617b9b90619105565b6000825580601f10617bab575050565b601f016020900490600052602060002090810190617bc99190617d3d565b50565b60405180610180016040528060608152602001606081526020016060815260200160608152602001606081526020016060815260200160608152602001606081526020016000815260200160608152602001600081526020016000151581525090565b6040518060e00160405280606081526020016060815260200160608152602001606081526020016060815260200160608152602001600081525090565b60405180610100016040528060608152602001606081526020016060815260200160608152602001606081526020016060815260200160608152602001600081525090565b828054828255906000526020600020908101928215617cf7579160200282015b82811115617cf75782518290617ce7908261919a565b5091602001919060010190617cd1565b50617d03929150617d52565b5090565b6040518060c001604052806060815260200160608152602001606081526020016060815260200160608152602001600081525090565b5b80821115617d035760008155600101617d3e565b80821115617d03576000617d668282617b8f565b50600101617d52565b634e487b7160e01b600052604160045260246000fd5b60405161016081016001600160401b0381118282101715617da857617da8617d6f565b60405290565b604051601f8201601f191681016001600160401b0381118282101715617dd657617dd6617d6f565b604052919050565b600082601f830112617def57600080fd5b81356001600160401b03811115617e0857617e08617d6f565b617e1b601f8201601f1916602001617dae565b818152846020838601011115617e3057600080fd5b816020850160208301376000918101602001919091529392505050565b60008060008060008060c08789031215617e6657600080fd5b86356001600160401b03811115617e7c57600080fd5b617e8889828a01617dde565b96505060208701356001600160401b03811115617ea457600080fd5b617eb089828a01617dde565b95505060408701356001600160401b03811115617ecc57600080fd5b617ed889828a01617dde565b94505060608701356001600160401b03811115617ef457600080fd5b617f0089828a01617dde565b93505060808701356001600160401b03811115617f1c57600080fd5b617f2889828a01617dde565b92505060a08701356001600160401b03811115617f4457600080fd5b617f5089828a01617dde565b9150509295509295509295565b600080600080600060a08688031215617f7557600080fd5b85356001600160401b03811115617f8b57600080fd5b617f9788828901617dde565b95505060208601356001600160401b03811115617fb357600080fd5b617fbf88828901617dde565b94505060408601356001600160401b03811115617fdb57600080fd5b617fe788828901617dde565b93505060608601356001600160401b0381111561800357600080fd5b61800f88828901617dde565b92505060808601356001600160401b0381111561802b57600080fd5b61803788828901617dde565b9150509295509295909350565b60006020828403121561805657600080fd5b81356001600160401b0381111561806c57600080fd5b61807884828501617dde565b949350505050565b60005b8381101561809b578181015183820152602001618083565b50506000910152565b600081518084526180bc816020860160208601618080565b601f01601f19169290920160200192915050565b634e487b7160e01b600052602160045260246000fd5b600481106180f6576180f66180d0565b9052565b600581106180f6576180f66180d0565b600081516101a084526181216101a08501826180a4565b90506020830151848203602086015261813a82826180a4565b9150506040830151848203604086015261815482826180a4565b9150506060830151848203606086015261816e82826180a4565b9150506080830151848203608086015261818882826180a4565b91505060a083015184820360a08601526181a282826180a4565b91505060c083015184820360c08601526181bc82826180a4565b91505060e083015184820360e08601526181d682826180a4565b9150506101008301518482036101008601526181f282826180a4565b91505061012083015184820361012086015261820e82826180a4565b9150506101408301516101408501526101608301516182316101608601826180e6565b506101808301516127ed6101808601826180fa565b6000602082016020835280845180835260408501915060408160051b86010192506020860160005b8281101561829f57603f1987860301845261828a85835161810a565b9450602093840193919091019060010161826e565b50929695505050505050565b80356001600160a01b03811681146182c257600080fd5b919050565b6000602082840312156182d957600080fd5b6182e2826182ab565b9392505050565b600080604083850312156182fc57600080fd5b82356001600160401b0381111561831257600080fd5b61831e85828601617dde565b95602094909401359450505050565b6000806040838503121561834057600080fd5b82356001600160401b0381111561835657600080fd5b61836285828601617dde565b92505060208301356001600160401b0381111561837e57600080fd5b61838a85828601617dde565b9150509250929050565b600080600080600080600080610100898b0312156183b157600080fd5b88356001600160401b038111156183c757600080fd5b6183d38b828c01617dde565b98505060208901356001600160401b038111156183ef57600080fd5b6183fb8b828c01617dde565b97505060408901356001600160401b0381111561841757600080fd5b6184238b828c01617dde565b96505060608901356001600160401b0381111561843f57600080fd5b61844b8b828c01617dde565b95505060808901356001600160401b0381111561846757600080fd5b6184738b828c01617dde565b94505060a08901356001600160401b0381111561848f57600080fd5b61849b8b828c01617dde565b93505060c08901356001600160401b038111156184b757600080fd5b6184c38b828c01617dde565b92505060e08901356001600160401b038111156184df57600080fd5b6184eb8b828c01617dde565b9150509295985092959890939650565b600080600080600080600060e0888a03121561851657600080fd5b87356001600160401b0381111561852c57600080fd5b6185388a828b01617dde565b97505060208801356001600160401b0381111561855457600080fd5b6185608a828b01617dde565b96505060408801356001600160401b0381111561857c57600080fd5b6185888a828b01617dde565b95505060608801356001600160401b038111156185a457600080fd5b6185b08a828b01617dde565b94505060808801356001600160401b038111156185cc57600080fd5b6185d88a828b01617dde565b93505060a08801356001600160401b038111156185f457600080fd5b6186008a828b01617dde565b92505060c08801356001600160401b0381111561861c57600080fd5b6186288a828b01617dde565b91505092959891949750929550565b600082825180855260208501945060208160051b8301016020850160005b8381101561868757601f198584030188526186718383516180a4565b6020988901989093509190910190600101618655565b50909695505050505050565b6020815260006182e26020830184618637565b6000815161018084526186bd6101808501826180a4565b9050602083015184820360208601526186d682826180a4565b915050604083015184820360408601526186f082826180a4565b9150506060830151848203606086015261870a82826180a4565b9150506080830151848203608086015261872482826180a4565b91505060a083015184820360a086015261873e82826180a4565b91505060c083015184820360c086015261875882826180a4565b91505060e083015184820360e086015261877282826180a4565b91505061010083015161010085015261012083015184820361012086015261879a8282618637565b9150506101408301516101408501526101608301516127ed61016086018215159052565b6000602082016020835280845180835260408501915060408160051b86010192506020860160005b8281101561829f57603f198786030184526188028583516186a6565b945060209384019391909101906001016187e6565b6020815260006182e260208301846186a6565b6000806040838503121561883d57600080fd5b618846836182ab565b91506020830135801515811461885b57600080fd5b809150509250929050565b6000815160e0845261887b60e08501826180a4565b90506020830151848203602086015261889482826180a4565b915050604083015184820360408601526188ae82826180a4565b915050606083015184820360608601526188c882826180a4565b915050608083015184820360808601526188e282826180a4565b91505060a083015184820360a08601526188fc82826180a4565b91505060c083015160c08501528091505092915050565b6020815260006182e26020830184618866565b6020815260006182e2602083018461810a565b6000815161010084526189506101008501826180a4565b90506020830151848203602086015261896982826180a4565b9150506040830151848203604086015261898382826180a4565b9150506060830151848203606086015261899d82826180a4565b915050608083015184820360808601526189b782826180a4565b91505060a083015184820360a08601526189d182826180a4565b91505060c083015184820360c08601526189eb82826180a4565b91505060e083015160e08501528091505092915050565b6020815260006182e26020830184618939565b600082601f830112618a2657600080fd5b81356001600160401b03811115618a3f57618a3f617d6f565b8060051b618a4f60208201617dae565b91825260208185018101929081019086841115618a6b57600080fd5b6020860192505b83831015618ab15782356001600160401b03811115618a9057600080fd5b618a9f886020838a0101617dde565b83525060209283019290910190618a72565b9695505050505050565b60008060008060008060c08789031215618ad457600080fd5b86356001600160401b03811115618aea57600080fd5b618af689828a01617dde565b96505060208701356001600160401b03811115618b1257600080fd5b618b1e89828a01617dde565b95505060408701356001600160401b03811115618b3a57600080fd5b618b4689828a01617dde565b94505060608701356001600160401b03811115618b6257600080fd5b618b6e89828a01617dde565b9350506080870135915060a08701356001600160401b03811115618b9157600080fd5b617f5089828a01618a15565b6000815160c08452618bb260c08501826180a4565b905060208301518482036020860152618bcb82826180a4565b91505060408301518482036040860152618be582826180a4565b91505060608301518482036060860152618bff82826180a4565b91505060808301518482036080860152618c1982826180a4565b91505060a083015160a08501528091505092915050565b6020815260006182e26020830184618b9d565b8035600581106182c257600080fd5b600060208284031215618c6457600080fd5b81356001600160401b03811115618c7a57600080fd5b82016101608185031215618c8d57600080fd5b618c95617d85565b81356001600160401b03811115618cab57600080fd5b618cb786828501617dde565b82525060208201356001600160401b03811115618cd357600080fd5b618cdf86828501617dde565b60208301525060408201356001600160401b03811115618cfe57600080fd5b618d0a86828501617dde565b60408301525060608201356001600160401b03811115618d2957600080fd5b618d3586828501617dde565b60608301525060808201356001600160401b03811115618d5457600080fd5b618d6086828501617dde565b60808301525060a08201356001600160401b03811115618d7f57600080fd5b618d8b86828501617dde565b60a08301525060c08201356001600160401b03811115618daa57600080fd5b618db686828501617dde565b60c08301525060e08201356001600160401b03811115618dd557600080fd5b618de186828501617dde565b60e0830152506101008201356001600160401b03811115618e0157600080fd5b618e0d86828501617dde565b610100830152506101208201356001600160401b03811115618e2e57600080fd5b618e3a86828501617dde565b61012083015250618e4e6101408301618c43565b610140820152949350505050565b6000806000806000806000806000806101408b8d031215618e7c57600080fd5b8a356001600160401b03811115618e9257600080fd5b618e9e8d828e01617dde565b9a505060208b01356001600160401b03811115618eba57600080fd5b618ec68d828e01617dde565b99505060408b01356001600160401b03811115618ee257600080fd5b618eee8d828e01617dde565b98505060608b01356001600160401b03811115618f0a57600080fd5b618f168d828e01617dde565b97505060808b01356001600160401b03811115618f3257600080fd5b618f3e8d828e01617dde565b96505060a08b01356001600160401b03811115618f5a57600080fd5b618f668d828e01617dde565b95505060c08b01356001600160401b03811115618f8257600080fd5b618f8e8d828e01617dde565b94505060e08b01356001600160401b03811115618faa57600080fd5b618fb68d828e01617dde565b9350506101008b013591506101208b01356001600160401b03811115618fdb57600080fd5b618fe78d828e01618a15565b9150509295989b9194979a5092959850565b60c08152600061900c60c083018961810a565b828103602084015261901e8189618b9d565b905082810360408401526190328188618866565b905082810360608401526190468187618939565b9050828103608084015261905a8186618866565b905082810360a084015261906e8185618866565b9998505050505050505050565b6000825161908d818460208701618080565b9190910192915050565b60208082526024908201527f50726f647563744d616e6167656d656e743a2050726f64756374206e6f7420666040820152631bdd5b9960e21b606082015260800190565b60208082526010908201526f50726f6475637420696e61637469766560801b604082015260600190565b600181811c9082168061911957607f821691505b6020821081036114f557634e487b7160e01b600052602260045260246000fd5b601f82111561918057806000526020600020601f840160051c810160208510156191605750805b601f840160051c820191505b81811015615b09576000815560010161916c565b505050565b600019600383901b1c191660019190911b1790565b81516001600160401b038111156191b3576191b3617d6f565b6191c7816191c18454619105565b84619139565b6020601f8211600181146191f557600083156191e35750848201515b6191ed8482619185565b855550615b09565b600084815260208120601f198516915b828110156192255787850151825560209485019460019092019101619205565b50848210156192435786840151600019600387901b60f8161c191681555b50505050600190811b01905550565b6020808252601e908201527f4661726d4d616e6167656d656e743a204661726d206e6f7420666f756e640000604082015260600190565b634e487b7160e01b600052603260045260246000fd5b6020808252600d908201526c4661726d20696e61637469766560981b604082015260600190565b634e487b7160e01b600052601160045260246000fd5b818103818111156192ef576192ef6192c6565b92915050565b808201808211156192ef576192ef6192c6565b818103619313575050565b61931d8254619105565b6001600160401b0381111561933457619334617d6f565b619342816191c18454619105565b6000601f82116001811461936757600083156191e35750848201546191ed8482619185565b600085815260209020601f19841690600086815260209020845b838110156193a15782860154825560019586019590910190602001619381565b50858310156193bf5781850154600019600388901b60f8161c191681555b5050505050600190811b01905550565b634e487b7160e01b600052603160045260246000fd5b606081016193f382866180e6565b61940060208301856180e6565b826040830152949350505050565b60208082526021908201527f416363657373436f6e74726f6c3a204f6e6c792061646d696e20616c6c6f77656040820152601960fa1b606082015260800190565b6020808252601e908201527f416363657373436f6e74726f6c3a20496e76616c696420616464726573730000604082015260600190565b60208082526018908201527756616c69646174696f6e3a20496e76616c6964206172656160401b604082015260600190565b6000600182016194ca576194ca6192c6565b5060010190565b604081016194df82856180e6565b8260208301529392505050565b60208082526021908201527f416363657373436f6e74726f6c3a204f6e6c79206f776e657220616c6c6f77656040820152601960fa1b606082015260800190565b600080835461953b81619105565b600182168015619552576001811461956757619597565b60ff1983168652811515820286019350619597565b86600052602060002060005b8381101561958f57815488820152600190910190602001619573565b505081860193505b50919594505050505056fea26469706673582212200800e3b998d9386c5e4becee712fd47435841954a538cfc39a579bc36f94919a64736f6c634300081c0033",
  "linkReferences": {},
  "deployedLinkReferences": {}
}